:02000002F0000C
:100000000000012031600F0059600F005B600F009D
:100010005D600F005F600F0061600F000000000076
:1000200000000000000000000000000063600F00FE
:1000300065600F000000000067600F0069600F003E
:10004000DD3F0F006B600F00913F0F006B600F00F2
:10005000BD3A0F006B600F0039370F006B600F0067
:100060006B600F006B600F00713A0F006B600F0048
:100070006B600F006B600F006B600F006B600F0018
:100080006B600F008D520F006B600F006B600F00F4
:1000900029530F006B600F00B5420F006B600F001B
:1000A0006B600F006B600F00853A0F00993A0F00EC
:1000B0006B600F006B600F0000000000000000008C
:1000C0006B600F006B600F006B600F006B600F00C8
:1000D0006B600F006B600F006B600F00C5300F008E
:1000E0006B600F006B600F006B600F000000000082
:1000F000000000006B600F00000000006B600F004C
:1001000000000000000000000000000000000000EF
:1001100000000000000000000000000000000000DF
:1001200000000000000000000000000000000000CF
:1001300000000000000000000000000000000000BF
:1001400000000000000000000000000000000000AF
:10015000000000000000000000000000000000009F
:10016000000000000000000000000000000000008F
:10017000000000000000000000000000000000007F
:10018000000000000000000000000000000000006F
:10019000000000000000000000000000000000005F
:1001A000000000000000000000000000000000004F
:1001B000000000000000000000000000000000003F
:1001C000000000000000000000000000000000002F
:1001D000000000000000000000000000000000001F
:1001E000000000000000000000000000000000000F
:1001F00000000000000000000000000000000000FF
:100200000348044B834202D0034B03B118477047A5
:100210004430002044300020000000000548064B18
:100220001B1AD90F01EBA301491002D0034B03B1F4
:100230001847704744300020443000200000000080
:1002400010B5064C237843B9FFF7DAFF044B13B11E
:100250000448AFF300800123237010BD5830002004
:1002600000000000246C0F0008B5054B1BB10549C8
:100270000548AFF30080BDE80840FFF7CFBF00BFDF
:10028000000000005C300020246C0F00A3F5803AD1
:10029000704700BF174B002B08BF134B9D46FFF75D
:1002A000F5FF00218B460F461348144A121A06F038
:1002B000DDFA0E4B002B00D098470D4B002B00D0E1
:1002C00098470020002104000D000D48002802D0AE
:1002D0000C48AFF3008006F0D1FA2000290000F0AE
:1002E0006DF806F0B1FA00BF000008000000000041
:1002F0000000000000000120583000201C590020A0
:10030000000000000000000018DF704711DF704798
:1003100013DF70471FB5022368460093FFF7F4FF11
:10032000FFF7F4FF224BD3F8103513F4007F214B75
:1003300022D14FF42032C3F8F82F1E4CD4F8F80F16
:10034000036803F16043013BB3F5802F08D2B0F599
:10035000702F05D0FFF7DCFFD4F8F83F5B689847B3
:100360004FF47020FFF7D4FF4FF0A0434FF48052BA
:10037000C3F8082504B010BD4FF0A042D2F81025F4
:10038000920102D44FF47022D5E7D3F8F41F0A4A41
:10039000914208D1D3F8F83F1B6803F16043013B59
:1003A000B3F5802FC9D3034B4FF44032C3E700BFEE
:1003B0000003005000F00320434F494E08B5284B7E
:1003C0000C22C3F824274FF0A043C3F8642703226C
:1003D000C3F830274FF48052C3F80C254FF0102398
:1003E000D3F80022122A03D1D3F80432122B2ED0D4
:1003F0001C4B0122C3F80425D3F80024002AFBD0AB
:100400004FF010221221C2F80012D3F80024002A63
:10041000FBD04FF010231222C3F80422114BD3F863
:100420000024002AFBD00022C3F80425D3F80024BE
:10043000002AFBD0BFF34F8F0B490C4BCA6802F464
:10044000E0621343CB60BFF34F8F00BFFDE7FFF7C0
:1004500061FF00F0A7FD01F013F801F023F9FEE7BA
:100460000003005000E0014000ED00E00400FA0548
:1004700011DF704738B50C4C0C4A236893420FD8F3
:100480000B4A0C49158818462A4606F01BFA034603
:100490002B44236000210522074B19701A7138BDC7
:1004A00001210A22F8E700BF04300020EFFF83009B
:1004B0000043002002430020F83200202DE9F047DD
:1004C0001D4E1E4DD6F800A0BAF5702F31D21C4F2C
:1004D0001C4B3C68B3F80090DFF870801A4908EBB9
:1004E00004004A464C4406F0EDF9B4F5805F3C60E8
:1004F00019D104234FF0000950462B7185F8009064
:1005000001F04EFE30684FF48062414601F060FE1B
:100510003368224603F58053FF214046336006F0DE
:10052000A5F9C7F80090002205232A702B71BDE8B9
:10053000F08701220A23F8E708300020F832002073
:10054000EC3200200043002002430020FF32002054
:10055000074A0023022113701171064A1360064BEB
:100560004FF440321A60054B4FF401021A60704795
:10057000F8320020E0320020083000200430002053
:1005800010B5104C43882370FFF7E2FF237853B96E
:100590000D4B0E4A1A600E4B0E4A1A600E4B4FF46A
:1005A00001021A6010BD012BFCD1FFF761FF064B61
:1005B0000A4A1A60064B0A4A1A600A4B4FF4403244
:1005C000EFE700BFFE320020E832002005060F00F2
:1005D000E432002075040F00043000202D060F00C7
:1005E000BD040F000830002008B5FFF7B1FF02F08E
:1005F0005DFE02F077FE02F053FABDE808400120EC
:1006000002F0EEBA064B1A68064B9A4201D9FFF780
:10061000EBBF054B00221A7009221A71704700BF08
:1006200004300020F0FF8300F8320020064B1B68E6
:10063000B3F5702F01D9FFF7D7BF044B00221A7012
:1006400009221A71704700BF08300020F8320020DC
:10065000F8B5454D03682B6043686B600378212B28
:10066000044659D14378062B55D8DFE803F0082D0E
:10067000545404540400BDE8F840FFF769BF3B4BF5
:100680001B78DBB93A4B4FF40102C3F8F82F394B12
:10069000394AC3F8F420BFF34F8FBFF36F8FBFF316
:1006A0005F8FBFF34F8F3549354BCA6802F4E06264
:1006B0001343CB60BFF34F8F00BFFDE7012BE6D1A3
:1006C0002B4B4FF44032E0E72E4B2F491A682F4B4B
:1006D0001A602F4BC2881A8000F084FEED88D5B9CD
:1006E000224B1B78012B16D12A4F3868B0F5702F9A
:1006F00011D2294C294E25700423237101F050FD9D
:100700003268274938689208013201F061FD0523FB
:10071000356025702371F8BDA12BFCD14378022BE5
:1007200007D0032BF7D1BDE8F8401B49062200F0A3
:1007300006BD0E4BC2881B7893B91A4E3568124815
:10074000294606F0BFF8E3881D443560E2880E496B
:10075000204600F0F4FC144B1A680C4B1A60DAE7E0
:10076000012BF3D10B4EE9E7F0320020FE320020DE
:1007700000F0032000FF0320434F494E00ED00E04E
:100780000400FA05E432002002430020E032002099
:100790000043002008300020F8320020EC32002016
:1007A000FF32002004300020E832002010B5034C56
:1007B000236813B198470023236010BDE032002066
:1007C000A8DF7047AADF7047ADDF7047AEDF704724
:1007D000B0DF704762DF70472DE9F0470E4694B0F6
:1007E0000546002800F0D080002900F0CD804B683D
:1007F000002B00F0C9804FF6FF730380634B04AAFF
:1008000003F1100C174618685968144603C40833DE
:1008100063452246F7D141F230530DF10A013846C3
:10082000ADF80830FFF7D6FF0446002840F0A88056
:100830002A1D02A90120FFF7C3FF0446002840F04B
:100840009F809DF80A70AF7101461C220DA806F02A
:100850000DF89DF834308DF80E7043F004038DF8D8
:10086000343041F23253ADF80C3004F0F80343F069
:1008700003038DF806301423CDE90A44A888ADF8A7
:100880002C3001AF4FF0110A0DF10C0805F10803EF
:1008900008AA0DA9ADF804400C94CDE908878DF89D
:1008A00005A0FFF78FFFA1460446002868D1014646
:1008B0001C220DA805F0DAFF9DF83430A888ADF8A9
:1008C000044023F0180343F018038DF83430AB795B
:1008D0008DF80E3041F23153ADF80C3009F0E803D9
:1008E00043F013038DF806301723CDE90A4408AA14
:1008F000ADF82C300DA905F110030C94CDE9088753
:100900008DF805A0FFF75EFF0446002838D10146A8
:100910001C220DA805F0AAFF9DF83430CDF82A401E
:1009200043F002038DF83430AB798DF80E3041F28C
:100930003453ADF80C3009F0F80343F003038DF89D
:1009400006300223ADF82830ADF82C30A888ADF879
:10095000044005F1200308AA0DA9CDE908878DF808
:1009600004A0ADF82E900C96FFF72CFF044638B982
:100970007368AB62B36803B1EB62054B01221A7076
:10098000204614B0BDE8F0870E24F9E7A9690F00EE
:10099000B745002030B587B058B302884FF6FF73D3
:1009A0009A4228D0154B1B782BB3154B0D0A1022F9
:1009B000D9701D710D0C090E1A700724012299714E
:1009C00000219A705C705D71CDF80B108DF80F10DE
:1009D000018AADF808108DF80A200088ADF80640AD
:1009E0000DF1060202A9CDE90423FFF7EFFE07B0DF
:1009F00030BD0E20FBE70820F9E700BFB745002017
:100A0000B04500207FB550B302884FF6FF739A427D
:100A100027D0154B1B7823B3144B11221A700A0AE6
:100A20009A700A0CDA700522ADF80620002259707F
:100A3000CDF80B20090E8DF80F20028A1971ADF840
:100A4000082001228DF80A2000880DF1060202A973
:100A5000CDE90423FFF7BAFE07B05DF804FB0E20D2
:100A6000FAE70820F8E700BFB7450020B0450020AE
:100A700010B586B020B304884FF6FF739C4221D096
:100A8000114B1B78F3B1114B9A7000221024CDF852
:100A90000B208DF80F20028A59701C700321ADF8CD
:100AA00008200122ADF806108DF80A2000880DF10B
:100AB000060202A9CDE90423FFF788FE06B010BDA7
:100AC0000E20FBE70820F9E7B7450020B0450020DD
:100AD00070B50D4688B0044650B149B1826A3AB14A
:100AE0000B88502B48D005D8102B42D0112B53D057
:100AF00008B070BD512BFBD18B79022BF8D109893D
:100B0000028A9142F4D1AA7B043A022AF0D99DF8D4
:100B10001620818A00888DF8103042F001028DF88D
:100B200016202A8AADF818206A8AADF81A2005F135
:100B3000140207920022ADF8062001AAADF8043095
:100B4000CDF808D0FFF740FE48B3E36A03B19847F9
:100B500040F2FD132088ADF8143004A9FFF738FEE9
:100B60000028C5D0E36A002BC2D008B0BDE87040B1
:100B700018478B882380BBE7C98803899942B7D17E
:100B800008238DF81030123535F8023C8DF81830F6
:100B9000059504A99047ABE74FF6FF73EAE768466F
:100BA00004F013F90028D3D000262088ADF8146093
:100BB00004A9FFF70DFE0028D4D1297D4B1E072B79
:100BC0003ED8DFE803F004192226282A3B2C6B8A42
:100BD0008DF80460012B05D8062201212046FFF77D
:100BE00047FFBDE7012315358DF80C300295A36A48
:100BF00001A9204698477BE76A8A01239A428DF82B
:100C00000430F0D806220221E8E702238DF80430F0
:100C1000EDE70323FAE70423F8E70523F6E76B8AF9
:100C2000022B02D803220821D8E7B5F81530ADF819
:100C30000830002B14BF06230723E7E70923E5E765
:100C40000322CBE7BFF34F8F0549064BCA6802F476
:100C5000E0621343CB60BFF34F8F00BFFDE700BFDF
:100C600000ED00E00400FA0576DF70477ADF704798
:100C70007CDF70477FDF70478FDF7047B1DF7047E1
:100C800011DF70470388212B13B5044620D00CD800
:100C9000112B19D0132B23D0102B11D0184821461B
:100CA00002B0BDE81040FFF713BF522B20D0562BE7
:100CB00001D03B2BF2D1A0881321FFF7D5FFEDE740
:100CC0008288104B1A80E9E70E4B4FF6FF72F9E766
:100CD000002301A98088ADF80430FFF7CDFFDDE7E0
:100CE000084800231A4685210088FFF7C3FFD5E78F
:100CF000044800231A4619460088FFF7BFFFCDE7D6
:100D0000A44D002010300020037823B9024B3B2172
:100D10001888FFF7A9BF7047103000202DE9F34174
:100D20000B7805460E46092B3CD8DFE813F031005E
:100D30003E0046000A001E002F00C700D0004A00F7
:100D4000D500694B002219684FF4403005F052F984
:100D5000664B1B8883420CBF0122052204212846D2
:100D600002B0BDE8F041FFF783BE614B614D4FF427
:100D70004032C3F8F82F604AC3F8F42F642445F0DA
:100D800001054FF47A40A847013CFAD1FFF75AFF1A
:100D90005A4B01221A70544A00231360534A13809D
:100DA000574A136002B0BDE8F081544B022119701C
:100DB00073681A78012AF5D1D1E7504B03221A70D3
:100DC000F0E74E4B1978022917D003291AD00129D0
:100DD000E8D173689A68444BB2F5402F1A600AD282
:100DE0000346120B474801324FF4403102B0BDE8D0
:100DF000F04104F0A2BE0322B1E773689A893B4B2D
:100E00001A80CFE7404C414FDFF810813B782068D3
:100E100071684FF47A7202FB03004044327A05F0A5
:100E200051FD337A2268364E1A44226032681344E8
:100E300022683360B2F57A7F03D02B4A126893425E
:100E400025D12168C1F540311944236813F003030B
:100E500018BF236822681CBF03F00303C3F1040317
:100E60001344236023680B44B3F5702F23D23A78E0
:100E7000236800954FF47A7000FB0282214804F049
:100E80002AFE3B7883F001033B7000232360204B54
:100E90001B78002B86D01F4C2388013B9BB22380FC
:100EA000002B7FF47FAF31682846FFF7ABFD1A4B6C
:100EB0001B88238076E7FFF7E3FEE2E7144B01226D
:100EC0001A70154A8B881380124A13806AE7104AF9
:100ED00000231370104AF8E7094B196802B0BDE807
:100EE000F041FFF757BD00BF904D0020944D00200A
:100EF00000F00320C0690F00434F494E9C4D002075
:100F0000984D002044300020BC450020B84500200A
:100F1000A24D00209E4D0020A04D0020C045002085
:100F2000436810B533B106220321BDE81040406983
:100F3000FFF79EBD0278012A02D0022A1CD010BD04
:100F40004FF0A044D4F80435D94301F4805103F4A0
:100F50008053C4F80815C4F80C35094B1968094BBF
:100F60001B689942EBD140690321FFF781FD4FF4E3
:100F70008053C4F80C35E2E701221146D5E700BFE3
:100F8000984D0020904D002010B5054C00212046C2
:100F900003F0BAFD20461721BDE8104003F0C7BD9D
:100FA0002C5000202DE9F041B0B0414C414F04F0ED
:100FB00017FB002603F0E6F805A90120059603F0CB
:100FC000ADF905A803F0EEF92068616802AD05AB44
:100FD00003C31222112338498DF808302846FFF741
:100FE00047FE05A8FFF742FEFFF7CEFF04F1080316
:100FF00093E8070085E8070029463048FFF7ECFB37
:101000006069A1696B4603C33E2231460DF11600AB
:1010100005F02CFC1423ADF81430294B069306235D
:10102000ADF81C30274B0893274BCDF84CD01D68EA
:1010300007354FF0010828468DF8508005F050FC28
:10104000ADF8340005A80E9503F004FA3146AC2241
:1010500005A805F00BFC02238DF81430052340226F
:101060008DF8173005A944F250633846CDE927239F
:101070008DF890801C3404F06AFB4146384604F039
:1010800063FB0FCC05AD0FC594E8070085E80700AA
:1010900005A804F03DF80321384604F0CDFB0B4BC6
:1010A0000B481968324630B0BDE8F04104F005BD88
:1010B000C8690F00D44D002069690F00A44D0020BD
:1010C0007C690F0091690F00003000200C30002077
:1010D0004430002008B54FF0E023D3F8F03DDB07A3
:1010E00000D500BEFFF7AEFD0378022B08BF438892
:1010F0000BB901F0DDBE01F0DEBE012808B509D054
:10110000022813D0D0B901F097FDB8B9BDE8084066
:1011100001F0C6BC01F09AFD08B102F0C7F801F079
:101120008BFD58B1BDE8084002F0DCB801F08EFD3F
:1011300020B9BDE80840012001F052BD08BD1FB52F
:10114000C3880191934294BF0293029201A90023A4
:101150008020039301F0CEFD05B05DF804FB000094
:1011600013B503780446062B08D8DFE803F00C0912
:101170000409092D1300884B01221A7002B010BD1A
:10118000854B0022F9E7854A136801331360844BCD
:101190001B78F3E7C378032BF0D0FFF707FBA378A6
:1011A000802B0ED14FF08053D3F83021082A03D181
:1011B000D3F83431002BE1D002B0BDE8104001F08B
:1011C00077BE002BDAD1EDE7684601F00DFEBDF8E1
:1011D0000420042A0AD19DF80130EE2B06D1BDF877
:1011E000062070496846FFF7AAFFC7E79DF8003060
:1011F00003F07F01212903D16846FFF729FABDE7F3
:101200009DF801100B2900F2BD8001A050F821F0DB
:1012100041120F0083120F0085130F008B120F0075
:1012200085130F007D110F0093120F0085130F001F
:1012300055130F0065130F0081130F008B130F0060
:10124000812B0BD0822B15D0802B40F09B80D2B20B
:10125000002A40F0978054490222C3E7504B1B7884
:10126000002B00F08F80D2B2002A40F08B804F49D3
:101270000222B7E7D2B2002A40F084804C49022211
:10128000B0E76846FFF730FF78E76846FFF72CFFC6
:1012900074E7BDF80220110A013909293FF66EAF43
:1012A00001A050F821F000BFD1120F00DD120F0095
:1012B000E9120F0035130F007D110F0049130F00C5
:1012C0007D110F007D110F007D110F0049130F00DC
:1012D000802B7FF453AF3749122283E7802B7FF4B2
:1012E0004DAF354924227DE7802B7FF447AFD2B242
:1012F000052A07D8013A042A0AD8DFE802F00C0FC1
:1013000012151800EE2A7FF439AF2C49122269E732
:101310002B49042266E72B492A2263E72A49242223
:1013200060E72A491A225DE7294908225AE7294934
:101330000C2257E7802B7FF421AFD2B2002A7FF432
:101340001DAF254909224DE7802B7FF417AF01F02F
:10135000AFFD13E7124B1B7801220BB11F4941E788
:101360001F493FE7002B7FF409AFBDF806301A4351
:101370007FF404AFBDF80230FF2B3FF6FFAEE6E787
:10138000212BE4D001F097FDF8E6012BFAD1684655
:10139000FFF7F6F8DBE700BF545000205050002064
:1013A000555000200C6A0F000A6A0F00086A0F00EF
:1013B000066A0F00D06A0F00AC6A0F00346A0F0093
:1013C000A86A0F007E6A0F005A6A0F00565000206C
:1013D000526A0F00466A0F00B56A0F00056A0F00D7
:1013E000046A0F001FB50446CDE90112002001A9CF
:1013F000039001F07FFC01F019FDE3880BB901F0C7
:1014000057FD04B010BD00004FF080520E49D2F8D5
:10141000A830D2F8A4206FEA834330B56FEA934333
:101420000A4D9BB2A1F10C0002F00F0412092C5DD1
:1014300001F8014D814242EA03724FEA1313F3D1DE
:1014400000230373024830BD4C50002098690F0000
:101450004050002010B5FFF7D7FF084B1A221A7032
:1014600003225A700021421E0B3012F8014F9C706B
:101470008242D97003F10203F7D110BD565000200B
:1014800008B5094801F0F6FB4021002001F0ECFB13
:101490004021802001F0E8FB044800F047FFBDE850
:1014A0000840FFF7D7BF00BF61110F00006A0F00AF
:1014B000024BD3F81005C0F34030704700030050D2
:1014C00008B5FFF7F5FFC0B220B1BDE808400448F9
:1014D00000F034BCBDE80840014800F0AFBC00BFDC
:1014E0001430002013B511480C4600F057FBFFF7ED
:1014F000DFFFC0B2012816D1A378012B0DD14FF424
:101500002253ADF8043000238DF8063001990748C6
:1015100002B0BDE8104000F0A8B923B94FF4225240
:10152000ADF80420F0E702B010BD00BF1430002079
:1015300037B5FF230DF1030111488DF8033000F09A
:1015400057FAFFF7B5FF9DF803100D4D0129C4B2FE
:101550000BD154B9284600F012FB0A21284600F0AE
:1015600061FA2021284600F06BFA2B7D2BB1012C6B
:1015700003D1034801A9FFF7B5FF03B030BD00BF99
:101580001430002070B501F0DDFF114B114C042226
:10159000C3F834270C22C3F83C2701250E4A657096
:1015A000032621462D20267002F000F829462D2022
:1015B00002F07AF821460223084A23702F20667031
:1015C00001F0F4FF29462F20BDE8704002F06CB80E
:1015D0000003005034300020C1140F0031150F00FB
:1015E00007EE900ADFED0D6AF8EE677A82B087EEBB
:1015F000A67AF0EE087A37EE677ADFED096AC7EE71
:10160000267A9FED087A67EE877AFCEEE77ACDEDD1
:10161000017A9DF8040002B0704700BF00007A44D0
:101620009899993F0000C84207B5002318488DF8E3
:1016300003300DF1030100F021FBD8B99DF8030040
:1016400004F066FE10A3D3E9002304F0CBFE114B97
:10165000002204F0F1FF104B002204F0C3FE05F05D
:10166000D3F80E4B80B2188018880D4B80B2FFF76C
:10167000B7FF18700648037D13B901A9FFF732FFC1
:1016800003B05DF804FB00BFCDCCCCCCCCCC10407B
:10169000143000200000594000408F40DC520020F0
:1016A000DE5200201FB500F00BFC00F0AFFC0A205A
:1016B00000F0A8FC214800F0EBF90A2000F0A2FCA1
:1016C000FFF760FFFFF7F4FE10F0FF041B4831D175
:1016D00000F0B4FB2146194800F051FA0A2000F04E
:1016E00091FC1648012100F04AFA0A2000F08AFC19
:1016F000FFF79AFF1249134A134802F01FF90146F7
:1017000070B9124B1248D3F810250123D2B220FA37
:1017100002F200930C4802F096F90B4802F06CF9C3
:1017200000230DF10F0105488DF80F3000F060F92E
:1017300004B010BD00F002FBDAE700BF1430002057
:101740002C30002029160F00E46A0F0000A0014091
:1017500000389C1C58B143684BB183683BB1C368E7
:101760002BB10078B0FA80F04009404270474FF04A
:10177000FF307047F8B5054618461C46FFF7EAFFEC
:1017800058B951B162B1A66823782846B0470028FD
:10179000A07018BF6FF00100F8BD4FF0FF30FBE7FD
:1017A0006FF00400F8E71FB504460191FFF7D2FF80
:1017B000A8B99DF804309DF805201A439DF806301D
:1017C0001A439DF807301A438DF80F202346012253
:1017D0000DF10F010320FFF7CDFF04B010BD4FF056
:1017E000FF30FAE71FB504460191FFF7B3FFA8B930
:1017F0009DF805309DF804201A439DF806301A43E1
:101800009DF807301A438DF80F20012223460DF171
:101810000F011046FFF7AEFF04B010BD4FF0FF30D0
:10182000FAE71FB56B4683E806000446FFF792FF10
:10183000C0B99DF801309DF800201A439DF8023090
:101840001A439DF803301A439DF804301A438DF86B
:101850000F20234601220DF10F010220FFF78AFF1E
:1018600004B010BD4FF0FF30FAE71FB504460191F8
:10187000FFF770FF90B99DF804309DF805201A43DA
:101880009DF806301A438DF80F20234601220DF1F2
:101890000F010420FFF76EFF04B010BD4FF0FF30C2
:1018A000FAE707B502468DF80710FFF753FF48B96E
:1018B00013460DF1070101220520FFF75BFF03B07E
:1018C0005DF804FB4FF0FF30F9E71FB504460191C6
:1018D000FFF740FF90B99DF805309DF804201A43AA
:1018E0009DF806301A438DF80F20234601220DF192
:1018F0000F010720FFF73EFF04B010BD4FF0FF308F
:10190000FAE71FB56B4683E806000446FFF722FF9F
:10191000C0B99DF801309DF800201A439DF80230AF
:101920001A439DF803301A439DF804301A438DF88A
:101930000F20234601220DF10F010820FFF71AFFA7
:1019400004B010BD4FF0FF30FAE71FB50246ADF806
:101950000410FFF7FFFE80B99DF805109DF80430D4
:101960000B438DF80F300DF10F01134609200122B2
:10197000FFF700FF05B05DF804FB4FF0FF30F9E71B
:10198000F8B5064618460D461C46FFF7E3FE78B943
:1019900071B1237867683046B847A0702B7800286B
:1019A00018BF6FF00100FF2B08BF6FF00600F8BDF5
:1019B0004FF0FF30FBE713B50446FFF7CBFEA0B9AD
:1019C0002346012201A90920FFF7DAFF58B99DF843
:1019D000043063F07F038DF804300122234601A90F
:1019E0000920FFF7C7FE02B010BD4FF0FF30FAE745
:1019F00013B5002302460C468DF80730FFF7AAFE08
:101A000068B913460DF1070101220820FFF7B8FF5E
:101A10009DF8073003F00303237002B010BD4FF0B0
:101A2000FF30FAE710B50246FFF794FE044620B9EE
:101A3000D36808469847204610BD4FF0FF34FAE7B8
:101A400073B5002305460E468DF80730FFF782FE7A
:101A5000D8B90DF107012B460122FFF791FF0A21AA
:101A600004462846FFF7DEFF64B99DF8073020469C
:101A70001E4301222B460DF107018DF80760FFF789
:101A800079FE0446204602B070BD4FF0FF34F9E7FE
:101A9000F0B58BB0002305468DF8033008AE0893EF
:101AA0008DF824300593FFF755FE002861D12B46B1
:101AB00001220DF10301FFF763FF0746002855D10E
:101AC0002846FFF778FF002856D132212846FFF735
:101AD000A9FF394604462846FFF7B2FF78210443A0
:101AE0002846FFF7DEFE4FF4A463ADF804300199F9
:101AF0002846FFF72AFF64B204434FF432512846C8
:101B0000FFF751FE4FF42253ADF808308DF80A70FC
:101B100064B2029904432846FFF7A7FE4FF420530E
:101B2000ADF80C308DF80E7064B20399044328466A
:101B3000FFF7CBFE64B24FF401138DF81C70194609
:101B4000079A069304432846FFF7DBFE64B296E843
:101B5000060004432846FFF764FE64B20443059977
:101B60002846FFF73FFE64B2044367B238460BB025
:101B7000F0BD4FF0FF37F9E76FF00507F6E710B556
:101B80000246FFF7E7FD044628B91369517008467D
:101B90009847204610BD4FF0FF34FAE7F0B585B006
:101BA000002304468DF80330FFF7D4FD0E460546AA
:101BB00000285ED10A2120466778FFF733FF012114
:101BC0002046FFF7DCFF14212046FFF72BFF4FF4E0
:101BD000C463ADF8043001992046FFF7B6FE4FF418
:101BE0002253ADF808308DF80A5002992046FFF7CD
:101BF0003CFE214903912046FFF7D5FD6421204694
:101C0000FFF710FF012223460DF103011046FFF7F5
:101C1000B7FE054660B99DF80330DA093270C3F3A8
:101C200080127270C3F34012C3F30013B270F370EA
:101C300000238DF80E3003992046FFF7B4FD0523ED
:101C40008DF80530019906462046FFF77EFE0A21F1
:101C500006432046FFF7E6FE39462046FFF78FFF92
:101C600035430A2120466DB2FFF7DCFE284605B059
:101C7000F0BD4FF0FF35F9E7802C0200F7B5802367
:101C80008DF80630002304460D468DF80730FFF727
:101C900061FD00284ED1012120466678FFF76FFFD5
:101CA00014212046FFF7BEFE0DF106012346012256
:101CB0000A20FFF75FFD022107462046FFF7B2FE2C
:101CC00047B16FF0010731462046FFF758FF38460D
:101CD00003B0F0BD234601220DF107010A20FFF7F2
:101CE0004FFE07460028ECD19DF80730C3F34112A0
:101CF000022AC3F382030ED0032A0ED0012A0CBF9E
:101D000046223C22013B062B0AD8DFE803F0080BF1
:101D10000D0D0F0F11005022F4E75A22F2E70232A4
:101D20002A70D0E70432FBE70632F9E70832F7E71A
:101D30000A32F5E74FF0FF37C9E70000F0B585B08C
:101D40000546FFF707FD0746002872D12E7D002EBD
:101D500055D10A212846FFF765FE01212846FFF7E5
:101D60000EFF14212846FFF75DFE4FF4C463ADF863
:101D7000003000992846FFF7E8FD4FF42253ADF8F4
:101D800004308DF80660019904462846FFF76DFD82
:101D90002949029104432846FFF705FD64B2044334
:101DA00064212846FFF73EFE03A92846FFF7F6FE0A
:101DB00001992846FFF759FD05238DF8013064B2DB
:101DC000009904432846FFF7C0FD64B28DF80A600D
:101DD000029904432846FFF7E6FC64B204430A2153
:101DE0002846FFF71FFE64B231462846FFF7C7FEBC
:101DF00014212846FFF716FE204605B0F0BD012E3F
:101E000017D14FF42253ADF804308DF80600019934
:101E10002846FFF72AFD4FF4325104462846FFF7C3
:101E2000C2FC0A2104432846FFF7FCFD64B2394690
:101E3000DBE74FF0FF34DFE7802C020073B5054687
:101E4000FFF788FC064600BB4FF432512846FFF7E7
:101E5000AAFC4FF42253ADF800308DF802600099CF
:101E600004462846FFF701FD0A2104432846FFF7F0
:101E7000D9FD01212846FFF782FE1421284664B2CD
:101E8000FFF7D0FD204602B070BD4FF0FF34F9E7F8
:101E90000278034B12B901221A7070470222FBE745
:101EA0003730002038B5054D044645F001054FF4A4
:101EB0007A40A847013CFAD138BD00BFF06A0F0054
:101EC0001FB5104B0FCB6C4684E80F001A221D2360
:101ED000CDE900234FF0C863029321460A4A0B481C
:101EE000002301F08BFE044650B9084801F00AFFB8
:101EF0004FF04023029AC3F82425204604B010BDB9
:101F00000E20FBE7006B0F00911E0F00F86A0F0018
:101F1000F0B51446083487B024F0070400AFADEBE9
:101F2000040D1D466B46561C03F8010B184604F0C1
:101F3000C9FC14220021381D04F098FC7D71134D5A
:101F40001348BE6000230122391D2B70C7F810D042
:101F500001F0E8FE642304463B603B68B3F57A7FFA
:101F600009D32B78012B0FD1002C18BF0D2460B2A0
:101F70001C37BD46F0BD2B78002BF2D10120FFF7B6
:101F800091FF3B680133E7E70D24F0E7373000208D
:101F9000F86A0F0030B589B0184D8DF80D30012367
:101FA000CDE904328DF807000DF107030220CDE9D9
:101FB00006318DF80C00002311482B70122203A962
:101FC00001F0B0FE642304460293029BB3F57A7FCE
:101FD00008D32B78012B0ED1002C18BF0D2460B232
:101FE00009B030BD2B78002BF3D10120FFF75AFF49
:101FF000029B0133E8E70D24F1E700BF37300020F2
:10200000F86A0F0008B1FFF74DBF70474FF0A043CB
:102010000322C3F870274FF08052C3F80825002030
:1020200070474FF0A0434FF0805218B9C3F80C2509
:1020300000207047C3F80825FAE74FF08053D3F823
:102040003021082A03BFD3F83401B0FA80F04009E8
:102050000020704708B54FF080430022C3F80C21E0
:10206000C3F81021C3F838254FF0805203F54043E0
:10207000D2F80414C3F82015D2F80814C3F82415B4
:10208000D2F80C14C3F82815D2F81014C3F82C1584
:10209000D2F81414C3F83015D2F81814C3F8341554
:1020A000D2F81C14C3F84015D2F82014C3F8441514
:1020B000D2F82414C3F84815D2F82814C3F84C15E4
:1020C000D2F82C14C3F85015D2F83014C3F85415B4
:1020D000D2F83414C3F86015D2F83814C3F8641574
:1020E000D2F83C14C3F86815D2F84014C3F86C1544
:1020F000D2F84424C3F87025FFF79FFF18B11D4B99
:102100001D4AC3F88C26FFF798FF18B11B4BFB2222
:10211000C3F81825FFF791FF58B14FF080424FF0F8
:102120008051D2F8E43ED1F8581261F30303C2F8AB
:10213000E43EFFF782FF20B1114B4FF40072C3F869
:1021400040264FF08043D3F80024D20744BF6FF0FD
:102150000102C3F800240B4AD2F8883043F470031C
:10216000C2F88830BFF34F8FBFF36F8F064B074A1B
:102170001A6008BD005000404881030000F0004094
:102180000090024000ED00E0383000200090D003C5
:10219000024AD2F80034002BFBD0704700E0014027
:1021A0000A4908B50223C1F80435BFF36F8FBFF3A6
:1021B0004F8FC1F80805FFF7EBFF0023C1F8043586
:1021C000BFF36F8FBFF34F8F08BD00BF00E001402A
:1021D00070B50E4E01231546C6F80435BFF36F8F58
:1021E000BFF34F8F0024AC4207D10023C6F804355B
:1021F000BFF36F8FBFF34F8F70BD51F8243040F89D
:102200002430FFF7C5FF0134EDE700BF00E00140D7
:1022100036DF70474DDF70474EDF70474FDF704746
:1022200050DF704710B50446FFF7F6FF40B920466F
:10223000FFF7F0FF20B92046BDE81040FFF7EEBFE2
:1022400010BD012810B5044602D101F0BFF8804747
:1022500001F0C2F8034668B10A2C07D00B2C07D056
:10226000092C07D10220BDE8104018470020FAE7EA
:102270000120F8E710BD0000012813B5044603D083
:1022800003281CD002B010BD00230DF107008DF80B
:10229000073001F0ABFE01F099F810B12046FFF7CE
:1022A000B7FF9DF8070001F0C5FE01F095F8002882
:1022B000E8D0012002B0BDE81040FFF7B3BF0D4BDE
:1022C000C02283F800230122C3F880211A6001F0A4
:1022D0007DF820B14FF080430422C3F8042301F0BD
:1022E0007BF80028CED04FF080434FF46072C3F8E3
:1022F0000423C7E700E100E013B500240DF1070057
:102300008DF8074001F072FE01F0BAFF58B1204687
:10231000FFF788FF9DF8070001F08CFE02B0BDE8D2
:10232000104001F073B801F06AF8F3E713B5044602
:10233000FFF7E2FF204601F055F801F0A1FFA8B138
:102340000120FFF76FFF044668B901A8FFF768FF97
:10235000044640B9019BDB0704D501F03DF8034674
:10236000204698470024204602B010BD01F040F8F6
:10237000F8E700F1804000F51C3001230360BFF353
:102380006F8FBFF34F8F704710F0080F074B06D0C9
:10239000D3F8C00410F4803F18BF0020704700F04D
:1023A0000F0000F5947053F8200070470070024051
:1023B0004FF08053D3F83021082A03BFD3F83401FB
:1023C000B0FA80F04009002070474FF08053D3F8F6
:1023D0003021082A07D1D3F83401013802288CBFF4
:1023E0000020012070470020704730B5D1E900542B
:1023F0009C4229BFC0E900530021E41AED1832BF06
:10240000C0E900514C600D60934203D1201E18BFFB
:10241000012030BD0020FCE74B6810B59A420C68E3
:1024200028BF1A46C0E90042981A0B684860134456
:1024300000380B6018BF012010BD30B54C680B6828
:10244000A24228BF2246002A14BF1D460025A4EB45
:1024500002041344C0E900524C600B6014BF012019
:10246000002030BD054B10F0800F03F1900218BF23
:10247000134600F00F0003EB00107047F8530020E4
:10248000C343C3F3C01300F00F0000EB0310704709
:10249000034A0023C2F81C3C024A1370704700BF75
:1024A000007002401C55002007B5074A0023137036
:1024B000064A137001230193054B01A81B68984736
:1024C00003B05DF804FB00BF29550020285500200B
:1024D0002C5500207047000013B5124C01222368D0
:1024E00002FA01F10B4323600F4B1B6819400306EE
:1024F0000DD551B906238DF804308DF806008DF8FE
:1025000007100A4B01A81B68984702B010BD0029AC
:10251000FBD106238DF804308DF806008DF80720D6
:10252000EFE700BF24550020205500202C55002047
:1025300008B5054B1A781046FFF7A2FFBDE8084022
:1025400001461046FFF7C8BF285500201C4B13B5A5
:10255000D3F80044C3F80044BFF36F8FBFF34F8F2D
:10256000BFF36F8FBFF34F8FE10508D5154B0122E5
:102570001A7002230193144B01A81B689847A20507
:1025800008D5104B00221A70032301930E4B01A8AB
:102590001B689847630511D50A4B1A7872B100225F
:1025A0001A70074B0122C3F808255820FFF7E1FEF7
:1025B00004230193044B01A81B68984702B010BD87
:1025C00000700240295500202C5500204B689A428B
:1025D00028BF1A460A4B70B50C46064609681846CD
:1025E000154604F06FF9C6E9000560682368401BD2
:1025F00060602B440038236018BF012070BD00BF0D
:10260000E05200204B689A4228BF1A4670B5064631
:102610000D46144682B10968084804F053F9074B87
:10262000C6E900346B681B1B6B602B68201E2344BB
:102630002B6018BF012070BD1346F1E7E052002067
:1026400008B5FFF725FF084B93F89E20032A06D113
:10265000BDE8084005486FF0010101F019BDD3F84D
:102660009030002BF4D008BDF853002020550020F6
:1026700008B5FFF70DFF0146FFF7F4FE837B032B40
:102680000AD10846FFF7FCFE01218140BDE8084061
:102690000348C94301F0FCBC0368002BF1D008BD1E
:1026A000205500208720FFF7E3BF8620FFF7E0BF1B
:1026B0008520FFF7DDBF8420FFF7DABF8320FFF717
:1026C000D7BF8220FFF7D4BF8120FFF7D1BF000022
:1026D00007B500238DF804300B4BD3F82025ADF857
:1026E0000620D3F8C034094A002B136814BF4FF0FA
:1026F00001214FF480710B431360054B01A81B6847
:10270000984703B05DF804FB007002402455002098
:102710002C55002007B5FFF7BBFE114B93F81E2187
:10272000032A07D10F486FF4807103B05DF804EB02
:1027300001F0AEBCD3F8103173B90A486FF4807160
:1027400001F0A6FC06238DF804308823ADF806308E
:10275000054B01A81B68984703B05DF804FB00BF58
:10276000F8530020205500202C55002007B5FFF716
:102770008FFE0D4B93F88E20032A11D0D3F88030B2
:1027800073B90A486FF0807101F082FC06238DF85E
:1027900004300823ADF80630054B01A81B689847A4
:1027A00003B05DF804FB00BFF85300202055002063
:1027B0002C5500202DE9F04F724B1B7885B0002B73
:1027C00040F08480DFF8D4816F4DD8F800102B687A
:1027D00019407BD011F001237BD093FAA3F3B3FA15
:1027E00083F10F2986BFA1F11004E4B241F0800407
:1027F0002046FFF737FE4FFA84FA4FF0010B0BFA31
:1028000001FBBAF1000F81466FEA0B0B66DA036831
:102810008289416802A8984708B9C9F800005B4B53
:1028200058498222C3F81C2C01220A702A68D9F860
:10283000081002EA0B022A60039ABAF1000F114451
:10284000C9F8081004F00800029904F00F0473DAC4
:10285000002869D0C3F8A016C3F8A426FFF7A8FD86
:1028600026B2A3004A4A4B494FEADA7564000028B1
:1028700072D0002D484D454F12BF042028200A4633
:102880001E18144445F001054FF00008C7F80481F4
:10289000BFF36F8FBFF34F8F3046FFF76AFD802085
:1028A000A847D7F80431002BF0D04FF4F060A847C8
:1028B000D7F874349B064DD54020A847238803F1F0
:1028C000804303F51C331B68002BDDD005B0BDE849
:1028D000F08F91FAA1F1B1FA81F182E72046FFF77A
:1028E00053FDB9F80C20D9F80410D9F8006003465C
:1028F000074602A8B047029A002A8DD0039A974251
:102900008AD9022789F80E705946244801F0C0FB85
:1029100006238DF80430224B8DF806401B688DF895
:10292000077001A8984750E7142000FB0433C3F850
:102930000016C3F8042691E720B1C3F8A017C3F826
:10294000A4278BE7142000FB0433C3F80017C3F857
:10295000042783E78020AAE7BAF1000FACBF282044
:102960000420002D08BF0A461844FFF702FD32F884
:10297000163003F1804303F51C331A68002AFCD09B
:10298000A4E700BF1C550020245500200070024021
:10299000226B0F00106B0F00406B0F0020550020C2
:1029A0002C55002037B5FFF773FD0446FFF75AFD9D
:1029B000837B032B0DD12046FFF762FD012181406F
:1029C000C943104801F064FB03B0BDE83040FFF795
:1029D000F1BE0568002DF7D12046FFF751FD01211A
:1029E0008140C943074801F053FB06238DF80430AA
:1029F000054B8DF806401B688DF8075001A89847D5
:102A0000E2E700BF205500202C5500200720FFF7EB
:102A1000C9BF0620FFF7C6BF0520FFF7C3BF0420CC
:102A2000FFF7C0BF0320FFF7BDBF0220FFF7BABF0B
:102A30000120FFF7B7BF000038B5174BD3F86C443F
:102A4000C3F86C44BFF36F8FBFF34F8FFFF7B0FC39
:102A500038B1124A136823F0011103F001130C433B
:102A6000136001251CB9BDE83840FFF7A3BE94FAF6
:102A7000A4F1B1FA81F30F2BC8BFA3F110001946DE
:102A8000D4BF43F08000C0B205FA03F324EA030484
:102A9000FFF722FDE6E700BF007002401855002056
:102AA000494B4FF4006213B5C3F80024BFF36F8F96
:102AB000BFF34F8FFFF789FCC0B100230DF1070072
:102AC0008DF8073001F092FA404BD3F8001C032236
:102AD000002970D149F27531C3F8001CC3F8142DD8
:102AE000C3F8001C9DF8070001F0A4FA00230DF1C3
:102AF00007008DF8073001F079FA344BD3F8001C49
:102B0000C02200295AD149F27531C3F8001CC3F81C
:102B1000142CC3F8001C9DF8070001F08BFA2A4B17
:102B20000122C3F80025BFF36F8FBFF34F8FD3F897
:102B300000241205FBD54FF40062C3F80024BFF354
:102B40006F8FBFF34F8F00240DF107008DF8074002
:102B500001F04CFA1D4BD3F8001C91BB49F27532C1
:102B6000C3F8002CC3F8141CC3F8002C9DF8070010
:102B700001F060FA144B40F2E372C3F800284022DF
:102B8000C3F80428BFF36F8FBFF34F8F002180225B
:102B9000C3F81C25C3F830150D4B40F2FF121A6024
:102BA0000C4B1960FFF774FC0B4B19700B4B022296
:102BB0001A7002B010BDC3F8142D93E7C3F8142C9B
:102BC000A9E7C3F8144CD1E70070024000E00640CA
:102BD0002455002020550020285500203055002085
:102BE00008B5104B00221A70C8B9FFF7E1FB0E4B75
:102BF0000E4A002808BF13460D4AC2F804330D4B95
:102C0000C02183F827138021C3F884115960012360
:102C1000C2F80435BFF36F8FBFF34F8F08BD024B6F
:102C2000EAE700BF295500200714E0010714C0019E
:102C30000070024000E100E0034B1878012894BFC7
:102C400000200120704700BF30550020044B1B7846
:102C5000012B83BF034B5868C0F3C010002070479E
:102C60003055002000E100E008B5FFF7FBFB818153
:102C700008BD000070B5002833D01C4B1C7894BBF5
:102C80001B4A106001221A70264664F07F0514F07A
:102C9000080FEDB20CBF40214FF400712846FFF73A
:102CA000E3FF2846FFF7DEFB0134092C867306603C
:102CB0008660EAD10024254614F0080FE6B20CBF66
:102CC00040214FF400713046FFF7CEFF3046FFF74A
:102CD000C9FB0134092C857305608560ECD10020A7
:102CE00070BD0720FCE70820FAE700BF3055002040
:102CF0002C5500202DE9F347002380460DF10700F5
:102D00008A468DF8073001F071F918F00F0503D1EC
:102D10002A4B1B7843454CD1294B2A4F1C683E68EF
:102D20004046FFF7ADFBE443A4B24FF00109344342
:102D300009FA00F914EA09043DD14046FFF792FB75
:102D40000C2218F0800F034602FB05F52DD01E4A19
:102D5000DAF80010154401F06041DAF80820B1F10A
:102D6000005F02F001021BD1C2B9184A1A609AE84A
:102D7000070085E8070000229A609A735D60144B93
:102D800046EA090680223E60C3F804219DF8070048
:102D900001F050F9204602B0BDE8F0870D4AE5E7A2
:102DA0000AB90D4AE2E70D4AE0E70D4A15440D4A1B
:102DB000DCE71024EAE71124E8E700BF28550020EB
:102DC00024550020205500208C53002019240F008A
:102DD00000E100E03B240F00CD250F0005260F0089
:102DE00020530020EB230F000023036043600E4BB1
:102DF000D3F880240270D3F884244270D3F8882456
:102E0000D3F88C1442EA01224280D3F89024D3F8FC
:102E1000941442EA01228280D3F89824D3F89C3497
:102E200042EA0323C38070470070024008B5FFF7F1
:102E3000BFFA58B1EFF3108272B64C20FFF799FA3F
:102E40004C20FFF796FA82F3108808BDBDE80840D1
:102E50004C20FFF78EBA000013B5FFF719FB114B9A
:102E60009A7B032A07D110486FF4803102B0BDE885
:102E7000104001F00DB91C687CB96FF480310A482C
:102E800001F006F906238DF80430084BADF8064032
:102E90001B6801A8984702B010BD02B0BDE8104001
:102EA000FFF7C4BFF8530020205500202C55002008
:102EB0005020FFF75EBA5420FFF75BBA73B50446A3
:102EC000FFF776FA214D10B300260DF107008DF8BB
:102ED000076001F08BF82046FFF7D2FA012303FACE
:102EE00000F02B6804F00F0423EA00032B60640059
:102EF000174B04F2C574C3F80048C3F80468D3F84C
:102F000004389DF8070001F095F802B070BD8DF807
:102F100007000DF1070001F069F82046FFF7B0FA4D
:102F2000012303FA00F02B6814F0080223EA0003DF
:102F30002B60E6D104F00F04054B04F5947443F8BC
:102F40002420BFF36F8FBFF34F8FDAE724550020A3
:102F5000007002402DE9F341002304460DF1030007
:102F60008DF8033001F042F82046FFF77BFA14F0A9
:102F7000800F354905461FD12046FFF781FA0A68C0
:102F8000012303FA00F030EA02030BD02046FFF7DA
:102F900095FF0323AB739DF8030001F04BF802B0DB
:102FA000BDE8F08122EA00022B600A60274A13681C
:102FB00023EA00031360ECE7230715D4802C244B8D
:102FC00035D004F00F0202F2DA325200C3F80028C2
:102FD000D3F80428D3F80408D2B242F00202024324
:102FE000C3F80428D3F80438184F0E683A6820460E
:102FF000FFF746FA012366EA020803FA00F018EA2E
:10300000000FC8D026EA000600230E602B600323C1
:103010000243AB738DF807300E4B3A6006221B68F3
:103020008DF804208DF8064001A89847B3E740F2D8
:10303000B472C3F80028D3F80428D3F80408D2B235
:1030400042F00402CBE700BF2055002024550020A9
:10305000007002402C55002073B5154B154CD3F869
:1030600080542368144EDA43144B31781B6892B2B3
:1030700008461A43FFF704FA01238340134202D0A3
:103080000846FFF767FF6FF0011125F07F050B4839
:10309000357000F0FDFF236843F001032360052332
:1030A0000193074B01A81B68984702B070BD00BF91
:1030B0000070024024550020285500202055002093
:1030C0002C550020604B2DE9F041D3F8044300213A
:1030D00022460E460125002A40F09280FFF768F94B
:1030E00000287ED0594B1B78002B7AD1880278D5E6
:1030F000554B554F40F2A972C3F80028D3F8040885
:1031000010F0FF001CBFD3F80428104040F2AA7250
:10311000C3F80028D3F8042812F0FF021CBFD3F82C
:1031200004381A4040F2AB73C7F80038D7F80438B7
:1031300013F0FF031CBFD7F804582B4040F2AC75C6
:10314000C7F80058D7F804582840414D0AD02E68D7
:1031500006432E6040F2A976C7F80068C7F8040855
:10316000D7F80408384840F2AD76C0F80068D0F8C7
:10317000046832400BD02E6846EA02462E6040F2C8
:10318000AA76C0F80068C0F80428D0F804282E4AAF
:1031900040F2AE70C2F80008D2F80428134011D0F3
:1031A00043F3000202F400021143DA06264A40F219
:1031B000AB70C2F80008C2F80438D2F8043848BF2F
:1031C00041F001012B6833F001121CBF04F0807044
:1031D000014313F0011F04D0630544BF2A6041F48A
:1031E00080611C4F01F4000621F400044FF0010837
:1031F000E4B9FFF7DFFA2EB3BDE8F041FFF72CBFCB
:1032000092FAA2F31448B3FA83F39F003844076894
:103210003FB10660BFF36F8FBFF34F8F05FA03F026
:10322000014305FA03F322EA030254E794FAA4F5F2
:10323000B5FA85F557F8253008FA05F5984724EAD8
:103240000504D5E7BDE8F081007002401C55002060
:1032500018550020486B0F0000710240F8B5114E60
:10326000114B34681B686FF30F041C4301271CB912
:1032700040F2FF133360F8BD94FAA4F0B0FA80F581
:103280000F2D2846C6BFA5F11000C0B240F0800047
:10329000030701D4FFF75EFE07FA05F524EA0504EB
:1032A000E5E700BF245500202055002010B50B4C49
:1032B00063681B0610D5FFF7D1FF094B0022C3F846
:1032C0000425BFF36F8FBFF34F8F8022C4F8842093
:1032D0004FF0FF32C3F8082310BD00BF00E100E04B
:1032E0000070024013B5FFF7E1FF174B0024D3F83D
:1032F0000423C3F80823C3F80045BFF36F8FBFF35F
:103300004F8FFFF7C5F8114B01221A70FFF75DF8D8
:10331000A8B10DF107008DF8074000F067FE0C4BD7
:10332000D3F8001C69B949F27532C3F8002CC3F810
:10333000141DC3F8002C9DF8070000F07BFE02B0BE
:1033400010BDC3F8144DF6E7007002403055002060
:1033500000E0064000F18040002382B00360036873
:103360000193019B02B070474FF0804110B5D1F836
:10337000003163B14FF48070FFF7ECFF0D4B5879CB
:103380000122C1F8082310B95A711B6898474FF001
:103390008042D2F8043163B14FF48270FFF7DAFF54
:1033A0000223C2F80833034BBDE810401B6801201C
:1033B000184710BD3455002000F180431A68002AD8
:1033C0001BBF0022012000201A607047014B1868C3
:1033D000704700BF44550020014B1868704700BF7C
:1033E0003C550020014B02681A6070473C55002094
:1033F0004FF080434FF46072C3F8042370474FF0DE
:1034000080434FF46072C3F808237047014B0022D9
:103410001A6070473C5500204FF0804310B5D3F838
:103420000443620707D54FF48470FFF7C5FF10B15E
:103430001E4B1B689847A30608D54FF48A70FFF708
:10344000BBFF18B11A4B00201B689847600608D5CF
:103450004FF48C70FFF7B0FF18B1154B01201B68BB
:103460009847210608D54FF48E70FFF7A5FF18B1D5
:10347000104B00201B689847E20508D54FF4907068
:10348000FFF79AFF18B10B4B01201B689847A30563
:103490000AD54FF49270FFF78FFF28B1054BBDE8B6
:1034A00010401B680220184710BD00BF4455002083
:1034B000405500203C55002000F1804000F5C04000
:1034C000002382B0036003680193019B02B0704740
:1034D00003681F2B83BF03F01F03036001484FF0F5
:1034E000A04070470003005007B5019001A8FFF706
:1034F000EFFF019B00EB8300D0F8003723F440334B
:10350000C0F80037D0F8003743EA0141C0F800178F
:1035100003B05DF804FBC208012300F007008340FC
:10352000885C03438B547047054B4FF0FF320728EC
:1035300043F8202084BF1B1883F85820704700BF31
:103540004855002038B5154D95F86A4024BB302207
:10355000FF21A81803F08AF9E0B20134FFF7E4FF75
:103560000C2CF9D10E4B00221A609A800D4BC02111
:1035700083F806134021C3F880114FF4BE70196020
:10358000FFF79AFF084B4FF00041C3F804130123E3
:1035900085F86A30104638BD0820FCE74855002001
:1035A000AC55002000E100E0006000402DE9F3414F
:1035B000DFF8F08008EB0003044693F93030002B6D
:1035C0000F466BDA8978C1F3400100290BBF08234D
:1035D00000230C260826B34203D1042002B0BDE824
:1035E000F08158F8230001304FEA83053ED108EB03
:1035F00004005EB248F8232080F8306011B94344DB
:1036000083F85840BB78590712D4DA0730D501A89F
:103610000194FFF75DFF019B00EB8300D0F80037BA
:1036200023F00203C0F800371D492046FFF773FF5F
:10363000BB783A789B0727D505F1804303F5C04353
:103640002402D3F8101521F44F3121F44071C3F84E
:1036500010151204D3F8101504F47C5402F440320F
:1036600014430C43C3F810450020B7E70133B2E719
:1036700001A87A780194FFF72BFF019B03F5E07313
:10368000920040F82320CFE7083E48FA86F696F8E5
:10369000603043EA821386F86030E5E708209DE752
:1036A000AC5500204855002037B5214C231805465D
:1036B00093F93020072A1BDD144494F858309B09F5
:1036C000032B10D1019001A8FFF702FF019BD0F856
:1036D0001015D94001F001010231284603B0BDE8C0
:1036E0003040FFF701BF012B0CBF02210321F4E79B
:1036F000D3B2072B19D8930003F1804303F5C043DD
:10370000D3F8100540F00100C3F8100502F14000A5
:10371000800080B2FFF7D0FE39B154F8223023B1D7
:1037200001239340034AC2F8043303B030BD00BF05
:1037300048550020006000402DE9F04F00248BB078
:10374000CDE90444654D4FF48072012102F18043BC
:1037500003F5C0431B68012B07D1D5F804330B4296
:1037600003D090B2FFF7A8FE0C430432B2F5907F6D
:103770004FEA4101EAD1594BD3F87C31012B0ED1EC
:103780004FF4BE70FFF798FE4FF0A04344F00044A2
:10379000D3F810350493524BD3F810350593E3B2A8
:1037A000D3B1504F01260025344210D0AB0003F1B5
:1037B000804303F5C043D3F81005D3F8101557F82C
:1037C000253023B1C1F30141C0F3052098470135ED
:1037D000082D4FEA4606E7D1002C7BDA0023CDE91D
:1037E0000633DFF800B14FF0FF330893099300254B
:1037F0003D4B0193A846019B13F9014F0193631CB4
:103800004ED0C4F3C2070122E3B204F03F0604F035
:10381000070402FA04F407F128020DEB020717F877
:10382000082C22423CD00BEB06024FEA931A92F985
:1038300030205BF82290B9F1000F07D1BAF1030FE5
:103840002ED106A93046FFF766FE02E0BAF1030F5B
:10385000F7D003A80396FFF73BFE039A17F8181C4E
:1038600002F5E072214250F82220C2F3014206D054
:10387000022A15D1BAF1030F0CD1514605E0032AF3
:103880000ED1BAF1030F05D102213046FFF72CFE0D
:103890000135EDB2B9F1000F02D051463046C847AC
:1038A00008F10108B8F1040FA5D19DB14FF0A04374
:1038B0000499D3F8102503F540739142D3F81035DD
:1038C00002D10599994205D00492069A059308926F
:1038D000079B8BE70BB0BDE8F08F00BF0060004096
:1038E0000003005048550020A75500202DE9F3475C
:1038F000002406460F46904600F5A0754FF4803927
:10390000A2462B688BB1D6F8043309FA04F21A42A6
:103910000BD0C5F800A02B680193A000019B00F517
:10392000A07398B2D7E9003198470134444505F1B6
:103930000405E6D102B0BDE8F0870000F7B50579CF
:103940002B4C0C266E43A7193B7A002B4ED1A2516B
:103950004A687A60467902681F46D8B286423CD8E7
:1039600042F30733C878002BADBF03F16046214E08
:1039700003F00F0706F561464FEA4010C0B2B4BF2E
:10398000F05586F8000303F01F005B099B0003F16C
:10399000604303F56143012606FA00F0C3F8800195
:1039A00018604878D2F8043560F30103C2F8043592
:1039B0008878D2F8083560F30103C2F80835097831
:1039C000D2F8103561F30303C2F810350C2303FB62
:1039D00005440020267203B0F0BD980000F5A070E9
:1039E00001331750105801900198B6E70820F2E70C
:1039F000B455002014ED00E0036801221A6002793A
:103A0000034B0C2101FB023302221A72704700BFE4
:103A1000B455002037B54FF4803400688C407BB13A
:103A200001F150039B000025C550C3580193019B31
:103A3000C0F8044301F5A87140F8212003B030BD5F
:103A4000C0F80843F6E770B4046840F20116D4F8F1
:103A500000528E4025EA0605C4F80052D4F8005200
:103A60002B43C4F800329DF80C3070BCFFF7D2BF76
:103A7000024903480422FFF739BF00BFB4550020B4
:103A800000A00040024903480622FFF72FBF00BFF5
:103A9000C055002000A00140024903480622FFF75C
:103AA00025BF00BFCC55002000B00140002343508B
:103AB00082B043580193019B02B07047F0B54FF0BC
:103AC00040204B4CD0F8243187B09BB14FF4927119
:103AD000FFF7ECFFD0F8043163B9A368C0F80833EE
:103AE0000223A360A368C0F8043301230362436187
:103AF00007B0F0BD4FF04025D5F80431002B4DD074
:103B00003C4F4FF482712846FFF7D0FF0FCF01AE34
:103B10000FC694F82E203B68336082B1237B012BC3
:103B20000CBFD5F83C15D5F84C150291022B4FF07F
:103B300040230CBFD3F83C35D3F84C3503934FF4F6
:103B4000B0714FF04020FFF7B1FF4FF4AE71FFF7B7
:103B5000ADFF94F8303003B142B14FF04023002262
:103B6000C3F80022A260244AC3F808234FF0402281
:103B7000D2F8C434C2F8C4349A075ABFC3F38003DE
:103B80005B0001238DF8003094F830300BB984F8D5
:103B90002F30D4E9003168469847A9E74FF4A47163
:103BA0002846FFF783FF237B83B9124F0FCF01AE67
:103BB0000FC63B68336094F83030002BD6D1C5F87F
:103BC0000032A3600C4BC5F80833CFE74FF4007305
:103BD000C5F8003240F20223A36003F1CE73C5F8AA
:103BE0000833A368C5F804330123AB602B627FE779
:103BF000D8550020E455002002029C012DE9F84F21
:103C000005793C4C4FF0340A0AFB05FA04EB0A062E
:103C10009B4696F82D3080460F469146002B65D185
:103C20003549006800F0BAF9002861D139687B7B1A
:103C300086F832301F298CBF01F01F030B4603F5B5
:103C4000E07388BF2D4AB06098BF4FF0A04240F2A9
:103C50000C6C86F82F0042F823C07A68C6F804B0CE
:103C60001F2A8CBF02F01F03134686F8300003F5AD
:103C7000E07388BF214E44F80A9098BF4FF0A046E9
:103C800046F823C0D8F80030C3F80815C3F80C254F
:103C9000BA68C3F82425B9F1000F1FD043F30733E6
:103CA000002B3A7BB5BF164903F1604103F00F06C4
:103CB00001F561414FEA4212D2B2B4BF8A5581F890
:103CC000002303F01F015B099B0003F1604303F530
:103CD000614301228A40C3F880211A60342303FB28
:103CE0000544012384F82D30BDE8F88F0820FBE758
:103CF0001120F9E7D8550020BD3A0F00000300500D
:103D000014ED00E0036802790621C3F80015044BA6
:103D1000342101FB0233022283F82D20704700BFBB
:103D2000D85500202DE9F843CB680779046803F0E3
:103D30006043B3F1005F0D46904603D0102528463E
:103D4000BDE8F8838F4E904BC4F808334FF0340C25
:103D50000CFB076C9CF82F302BB1DCF80830C4F852
:103D600004331125EBE712F0140F0CBF01230023DD
:103D70008CF82F308946B9E80F000CF10C0EAEE834
:103D80000F00D9F80030CEF80030C8F300138CF8DB
:103D900030306B78C4F888354FF482712046FFF7D5
:103DA00085FE4FF49271FFF781FE18F0010318BFF2
:103DB0000123C4F8503518F0020318BF0123C4F8DA
:103DC00040352A78032A00F2AD80DFE802F06F95D3
:103DD0005302D5F8109009F06043B3F1005FADD104
:103DE0004FF48073E968C4F800326B68C4F8441576
:103DF000C4F848354FF4A871FFF758FE4FF4B0717E
:103E0000FFF754FE4FF4A471FFF750FE0123236225
:103E1000A360D4F85031002BFBD04FF4A87120469A
:103E2000FFF744FEAB685949C4F84495C4F84835D7
:103E3000342303FB076399604FF482710823002544
:103E400018F0080F03D1032A1CBF0122E2503423CB
:103E50007B43F218F358002B76D018F0040F1CBFE8
:103E60004FF400739360342303FB07639B68C4F82B
:103E7000043364E76B68E968C4F84415C4F848354E
:103E80002B6903F06041B1F1005F7FF457AFA9687F
:103E9000C4F834354FF48453C4F83815C4F80032EC
:103EA000342303FB076340F20221C4E76B68E9682F
:103EB000C4F8441518F0200FC4F848354FF0340307
:103EC0000ED04FF4807103FB0763C4F800122F4932
:103ED00099604FF4A471FFF7E9FD01232362ADE778
:103EE0004FF4007103FB0763C4F8001240F2022193
:103EF00099604FF48271F0E76B68E968C4F8341593
:103F0000C4F838354FF48053C4F80032342303FB2F
:103F1000076340F202219960012323624FF482710A
:103F200000238CE74FF482710823072588E7D4F833
:103F3000243153B14FF492712046FFF7B7FD0123AE
:103F400023624FF48271636121440B68002BEED031
:103F50003422D4F8C434C4F8C43402FB0766002207
:103F600086F82F20002B3FF4EAAE13F0020F48F240
:103F7000012508BF032513F0040F48F2022318BFE0
:103F80001D46DCE6D855002002029C010002040018
:103F9000014B1B68184700BF0C5600200D4B984280
:103FA00037B50C4611D100230DF107008DF807300D
:103FB00000F01CF8084B1D7915B901221C601A711C
:103FC0009DF8070000F036F815B9002003B030BDA9
:103FD0001120FBE7002000400C56002008B5FFF739
:103FE0001BFABDE80840FFF7BFB9000070B5EFF35A
:103FF000108672B60C4A9468012384B993600B4B07
:104000000B4DD3F8801029401160C3F88050D3F8CD
:10401000841051604FF0FF32C3F8842023460370B0
:1040200006B962B670BD00BF1456002000E100E082
:10403000FC06FFBD084B9A6810B55AB150B9EFF3B2
:10404000108172B6054A1C6814605C685460986000
:1040500001B962B610BD00BF1456002000E100E0B7
:1040600010B5034653E8000F40EA010243E800247C
:1040700094F0000FF6D110BD10B5034653E8002FA1
:1040800042EA010043E8000494F0000FF6D110BDAD
:1040900010B5034653E8002F02EA010043E800048C
:1040A00094F0000FF6D110BD0121FFF7D9BF1FB565
:1040B0000021039001AA44F20100CDE90111FDF7AE
:1040C00009F805B05DF804FB10DF704711DF704799
:1040D00013B504460949684600F0C4FD019808B9C3
:1040E00002B010BDD0E900312046984718B16846AB
:1040F00000F0C0FDF2E71120F2E700BFC46B0F0033
:1041000013B504460749684600F0ACFD019B0BB9A6
:1041100002B010BD2046D3E900219047684600F068
:10412000A9FDF3E7B86B0F00064B9A6822B11A6835
:1041300022F480021A607047034B4FF48002C3F8E8
:10414000802070471456002000E100E00B4991F8F0
:104150001623EC2352091341DB0706D5084B9A6856
:104160003AB94FF480030B60704742F20200FFF748
:104170009EBF1A6842F480021A60704700E100E0B6
:1041800014560020F7B5194F3C7864BB184E012532
:1041900020463570FFF79CFF112821D02046FFF7FD
:1041A000AFFF144B8DF80340186801900DF1030028
:1041B000FFF71CFF104901A8FFF786FF0446B0FA7D
:1041C00080F0400938709DF80300FFF733FF3CB9D9
:1041D0000A4B34701C70FFF7B9FF2846FFF790FFB9
:1041E000204603B0F0BD0824FAE700BF22560020A5
:1041F00020560020D06B0F00D5100F002156002054
:10420000F7B5154F3B781BB3144E01203070FFF704
:104210005FFF11284FF000051CD00220FFF770FF50
:104220000DF107008DF80750FFF7E0FEFFF74EFF96
:1042300004469DF807003D70FFF7FCFE2CB90320F3
:104240003470FFF771FFFFF75BFF204603B0F0BD4E
:104250000824FAE72C46F8E72256002020560020D2
:10426000054B1B7833B1054B1B780BB1FFF7C8BF6B
:10427000FFF788BF082070472056002022560020F4
:10428000014B1878704700BF2256002007B5084937
:10429000684600F0E7FC019B13B903B05DF804FB2E
:1042A000D3E900209047684600F0E4FCF3E700BF44
:1042B000AC6B0F00FFF7EABF60DF704769DF704744
:1042C00061DF704730B5134B1B7891B0FBB1124DD5
:1042D00034240DF1020103A8ADF80240FFF7F0FF0E
:1042E00070B9294601A800F0BDFC029B002BF0D05C
:1042F00003A8D3E90021904701A800F0BBFCF4E734
:10430000052804D011B0BDE83040FFF7D0BE11B091
:1043100030BD00BF23560020D46B0F007FB50D4683
:1043200000293BD000241E4A0A60CDE9014406233F
:1043300001268DF8040001A92020ADF8083003946F
:104340008DF80660FFF7BAFF2A68039401A94020A0
:10435000CDE901448DF80560FFF7B0FF02232A681C
:10436000039401A93046CDE901448DF80430FFF7EC
:10437000A5FF4FF4B0632A68019301A9A120CDE9FC
:104380000244FFF79BFF2A68039401A9A020CDE90E
:104390000144FFF793FF204604B070BD0E20FBE7F9
:1043A0000030002008B5FFF787FF10B9014B01224C
:1043B0001A7008BD235600204BDF70471FB50E4C06
:1043C00001A8FFF7F9FF70B9214602A800F04AFCE6
:1043D000039B002BF4D00198D3E90021904702A859
:1043E00000F048FCF4E7052804D004B0BDE8104014
:1043F000FFF75DBE04B010BDE06B0F00A8DF704793
:10440000F0B5074689B014461E460D4611B9084658
:10441000FFF74DFE14B92046FFF749FE1E2200218A
:104420000DF1020002F022FA02238DF80D30084B44
:104430000E9A1888ADF800706946ADF80440ADF8E2
:10444000064002958DF8116000F0C3FC09B0F0BD84
:104450006C56002030B587B041F60A035E4AADF8CD
:104460000C30044603A901208DF80E00FFF7C6FFAB
:104470000546002849D12288002A49D1228952B113
:10448000564B009394F83C30E16842F62420FFF745
:10449000B7FF002847D1228A52B1514B009394F8BC
:1044A0003C30616942F62520FFF7AAFF00283AD187
:1044B000228B52B14B4B009394F83C30E16942F6A9
:1044C0002720FFF79DFF00282DD1228C4AB1464BB3
:1044D000009394F83C30616A42F62620FFF790FF83
:1044E00008BB228D4AB1414B009394F83C30E16AFD
:1044F00042F62820FFF784FFA8B9236BABB9616BA4
:10450000002938D1A36B002B42D1284607B030BD1B
:10451000374B009394F83C30616842F62920FFF74E
:104520006FFF0028AAD00546EFE71A688DF8102023
:104530001A68120A8DF811205A888DF81220DA783C
:104540008DF813205A688DF814209B688DF815306B
:104550001A0A1B0C8DF81730264B00938DF8162085
:1045600094F83C30082204A942F62320FFF748FFC4
:104570000028C4D0D7E7204B0A79009394F83C3048
:10458000096842F62A20FFF73BFF0028BAD0CAE7A5
:104590001A788DF810205A888DF81120120A8DF89B
:1045A00012209A888DF81320120A8DF81420DB88C7
:1045B0008DF815301B0A8DF81630104B009394F8C7
:1045C0003C30072204A942F65020FFF719FF0028CB
:1045D00018BF054699E700BF6C5600205C560020C6
:1045E000545600204C560020445600203C560020D3
:1045F00064560020345600202C56002024560020FB
:104600006DDF704779DF70477DDF704764DF70478B
:104610002DE9F04F85B000260E9CBDF83CB0B4F8F3
:1046200000A00191074690461D46B1463A884A458A
:1046300005DC002E37D1002005B0BDE8F08F7A6888
:1046400052F82900039000220DF10B0103A8FFF797
:10465000DDFF0028F0D19DF80B20424520D12288B3
:1046600086F0010002EB080101EB4001594524DC12
:104670003EB9013292B2019B2280AB5422880132B2
:10468000228022880DF10B012A4403A8FFF7BEFF08
:104690000028D1D121889DF80B200A4422800126D0
:1046A00009F10109C2E72388013BA3EB0A039BB28E
:1046B000FF2B02D805F80A30BDE70C20BCE72DE936
:1046C000F341089FBDF824801546CDE90078022209
:1046D00004461E46FFF79CFF50B933461022294678
:1046E0002046CDE9087802B0BDE8F041FFF790BF61
:1046F00002B0BDE8F0812DE9F04F00231788138048
:1047000090F82D3085B006460D4614465BB3082F51
:1047100040F2B28102A8FFF773FF002840F0E28068
:104720002388DDF809100822EA54238801339BB25C
:104730001B222380EA54238801339BB2EA1823808A
:10474000E950BDF80D30938023889DF8082006338A
:104750009BB2012A88BF0122238094BFE854EA5407
:10476000238801332380B37803B323880433BB4207
:1047700000F2828102A8FFF745FF002840F0B280D6
:1047800023880322EA54238801339BB21922238011
:10479000EA542388BDF8082001339BB2E91823802E
:1047A000EA54120A4A70238802332380F278A2B1B5
:1047B0002388D91CB94200F25F810221E954238881
:1047C00001339BB201212380E95423880B449BB21F
:1047D0002380EA5423880B4423807368B3B193F990
:1047E00000202388D91CB94200F246810221E954F5
:1047F000238801339BB20A212380E95423880133A3
:104800009BB22380EA542388013323803389002B11
:104810005DD1338A53B1CDE900472B4607220321EE
:1048200006F11000FFF74BFF00285BD1338B53B12B
:10483000CDE900472B461522142106F11800FFF799
:104840003EFF00284ED1326A002A4ED1D6F824808D
:10485000B8F1000F31D0B8F804302188981C8A1CB8
:104860000244BA4200F20881FE2800F205810333B7
:104870006B54238801339BB2FF222380EA542388A0
:1048800001339BB22380B8F80020EA54E918120AD9
:104890004A702088023080B22080B8F8042062B1CB
:1048A000D8F80810002900F0E980284402F00AF83E
:1048B0002388B8F804201344238096F82C30002B6A
:1048C00059D13378002B40F0978000200AE0CDE9E1
:1048D00000472B460622022106F10800FFF7EFFEF3
:1048E000002896D005B0BDE8F08FB4F800C00CF1F8
:1048F0000603BB4200F2C0801188052940F2BE8049
:104900006FF4486E01EB0E039BB24FF27D3E734590
:1049100040F2B4805388052B40F2B0806FF44860B9
:10492000181880B2704540F2A9804FF6FF7081429E
:1049300002D0994200F2A280052305F80C302388AA
:1049400001339BB212212380E954238801339BB2A7
:1049500023801188E954E818090A4170238802333A
:104960009BB223805288EA54E918120A4A702388BD
:10497000023323806AE7B36A002B7FD04FF000092F
:104980004FF00C0A4FF0160B96F82C305FFA89F2B4
:10499000934296D9B16A0AFB02F201EB0208B8F819
:1049A0000430981CFE2867D8208803332B542388B2
:1049B00001339BB2238005F803B0238801339BB2F7
:1049C00023808A5AEA54E918120A4A702088023071
:1049D00080B22080B8F804205AB1D8F80810002915
:1049E0004CD0284401F06EFF2388B8F8042013440B
:1049F000238009F10109C7E73288012A3ED02288C5
:104A0000901CB84238D8012B04D173780233134478
:104A10009F4231D3023FBF1ABFB202A92844ADF86A
:104A20000870FFF7F1FD00287FF45CAF3278BDF825
:104A30000830022A1CD07178994201D3BB4219D99F
:104A4000012A02D18F4228BF0F46ADF80870082115
:104A5000BDF80830FE2B0FD822880133AB542288D2
:104A6000013292B22280A9542288134423802CE779
:104A7000BB42EAD80921EBE70C2033E7072031E7F6
:104A800070B5C8B14AB115880024AC4207D30619E5
:104A900076789E4203D1A14209D800200CE0A142C1
:104AA000FBD9065D013416FA84F4A4B2EDE7A31C29
:104AB0001380005D013880B270BD13B5134600222B
:104AC000ADF806200DF106020446FFF7D9FF10B13C
:104AD000BDF80600204402B010BD90DF7047A5DF8E
:104AE0007047B5DF70471FB50023ADF80810ADF86B
:104AF0000A106A4602A903930093ADF80430FFF749
:104B0000ECFF05B05DF804FB78B14FF017130360BC
:104B10001B2303711723C380038141F61B3200233B
:104B2000016143818281184670470E20704720B191
:104B3000172904D10180002070470E2070470720FC
:104B4000704713B5034680880C4698B91A88242A02
:104B500075D011D8112A52D0232A7DD0102A2BD0FB
:104B6000A37A3BB1E1880020FFF7B9FF10B94FF4F9
:104B70008073638102B010BD3A2A48D0552AEFD124
:104B8000DB88C988A072172B38BF17238B4228BF38
:104B90000B462381FFF7A5FFE37A002BE0D12369C1
:104BA000002BDDD040F6772200922289ADF8042058
:104BB000694620469847D3E7DB7B0A790A73012BC5
:104BC00013D0022B14D0E18823898B4205D2002018
:104BD000FFF785FF70B90123E372217B637B8B4272
:104BE000BED20020FFF77FFFBAE70B88E380EAE739
:104BF0004B88FBE7112804BF0123A372EDE71723BD
:104C0000CB800B8141F61B3348818B81A8E75B8900
:104C1000CA88934228BF1346172B0A6938BF172347
:104C20000B814AB1C97A39B140F677210091ADF8CC
:104C300004306946204690470023638190E71A7A42
:104C40000B694A73002B8BD04DF67A218DF8050045
:104C500000918DF80420ABE7197A237B994228BF95
:104C60001946BFE7D1E90032934208BF0023016033
:104C700043607047436843B10268916852680B44CF
:104C80009342436004BF00234360704773B50191B2
:104C9000019C06466CB100252C46294601A800F06F
:104CA00084FA18B106EB440301349D800135142DBC
:104CB000F3D13046346002B070BD00002DE9F047FA
:104CC00003888488112B8CB005463DD01A2B42D026
:104CD000102B19D1DFF8C080D8F80830DB430093DF
:104CE000D8F804106846FFF7D3F9009901A8FFF738
:104CF000CDFF0DF106090027019B9F4207D3132C1E
:104D000012D90420FFF7D3F90CB0BDE8F08739F8C9
:104D100002AF00260136514608EB860000F03BFA50
:104D20001D2EF7D10137E7E71648214600F02AFA91
:104D30001548214600F026FAEB7B012BE4D01348FE
:104D4000214600F01FFADFE70E4821460CB0BDE80F
:104D5000F04700F020BA037A0D481F2B4FEA1315D5
:104D600021460AD900F00EFA022D0A482146EDD05C
:104D70000CB0BDE8F04700F005BA00F00CFA0548A9
:104D80002146E3E778560020745600207C56002028
:104D9000805600208456002070560020AADF7047FD
:104DA000002301380B70042806D8DFE800F0030662
:104DB000080A0C0011230B7070472123FBE73123F5
:104DC000F9E71223F7E72223F5E7008800F0010056
:104DD0007047F0B58B7891B00C46012B38BF01239A
:104DE0008DF80E3000270B88ADF80C30694605466B
:104DF000607C8DF80270FFF7D3FFA07C0DF10101FC
:104E0000FFF7CEFF1646227D237B013202F003021C
:104E100043EA4203E27B43EAC203227C43EA0213F1
:104E20009DF8022003F01F0322F01F0213433946AE
:104E30001C2209A88DF8023001F018FD637B13F0E5
:104E4000300F14D00DF10901E07CADF808708DF839
:104E50000A70FFF7A5FF11238DF808309DF80A307E
:104E6000012102AA61F342038DF80A300E92637B9E
:104E70008DF82430A37B8DF825300023CDE906334F
:104E8000089303AB0493A388ADF81C30A368CDF856
:104E900014D01BB1E288ADF818200893A2695AB368
:104EA00001A90023ADF804308B701388ADF82C30C5
:104EB0005388ADF82E3053680D91107B0A93FFF79D
:104EC0006FFF0DF10501507BFFF76AFF937B117AAD
:104ED000013303F0030341EA4301937A41EAC3013A
:104EE000D37A41EA03119DF8063001F01F0123F047
:104EF0001F0319438DF80610E36903B10C93334681
:104F000004AA09A92846FFF749FF11B0F0BD75DFD3
:104F1000704776DF70477ADF70477BDF70470000AD
:104F2000034B1A8882420CBF18460020704700BF0E
:104F30000C570020024B9B6903B11847704700BF14
:104F4000F056002073B585B22846FFF7E9FF044606
:104F500068B1174E027A337B9A4211D200F10A01EE
:104F60002846FFF7D4FF20B9237A0133237202B019
:104F700070BD1128FBD002B0BDE87040FFF7DABF6A
:104F800000230372337C43B13B212846FFF7C1FF66
:104F900030F0080301D0FFF7CDFF7369002BE6D096
:104FA00000228DF80420ADF8065001A89847DEE7EE
:104FB000F056002013B50B46497A02460E4871B9E7
:104FC000D0E90141187A002808BF2146586800F04E
:104FD00049FB78B102B0BDE81040FFF7ABBF00213C
:104FE0001972436933B101218DF80410ADF8062020
:104FF00001A8984702B010BDF05600204B880288E7
:105000009A4212D842889A420FD380888B8840F205
:10501000F311884294BF021A421A9A4205D80844F2
:10502000984234BF002001207047002070470000E4
:105030000388122B70B5014659D004D8102B1ED00E
:10504000112B44D070BD502BFCD12F4BC288DB8973
:105050009A42F7D1038A022BF4D186883046FFF7B3
:105060005FFF05460028EDD001F11200FFF7ADFE0D
:1050700038BB686800F03EFB0028E3D00AE0C37B41
:105080008688012BDED14FF6FF70FFF749FF0546FA
:1050900020B90420BDE87040FFF74CBF1B4A0680D2
:1050A000002303721368C0F80A305368C0F80E304A
:1050B00010310A30FFF7A2FF134B6872DB89002B17
:1050C000C0D129463046BDE87040FFF773BF8088E5
:1050D000FFF726FF04460028B4D0406800F00AFB22
:1050E00008B1FFF727FF4FF6FF732380AAE78688F2
:1050F0003046FFF715FF05460028A3D008310A30D7
:10510000FFF77CFF6872DCE7F0560020E8560020CD
:10511000F8B5064648B305460FCD154F3C460FC4BB
:1051200095E8070084E807003068124C3C60B0B195
:10513000FFF7F1FE90B9326813682360536863602B
:105140000D480E4A4FF6FF7303800D4B40F8043FA5
:10515000002100F075FA002818BF0320F8BD204692
:10516000FFF7DBFE0028EBD0F8E70E20F6E700BFE4
:10517000F0560020E85600200C570020454F0F0045
:105180002057002001F01F024B090121914000EB44
:105190008300FEF771BF01F01F0301229A404B0903
:1051A00000EB8300D143FEF773BF4B0901F01F01F1
:1051B00050F82300C84000F001007047094B5A78AE
:1051C00099780132D2B2914208BF002219789142F7
:1051D0001FBF02705A78182101FB023014BF04303F
:1051E000002070475457002073B5054600240DF188
:1051F00007000E468DF80740FEF7F8FE0DF1060099
:10520000FFF7DCFF90B10A4B9DF806200670456061
:105210005A709DF80700FEF70DFF24B9054B4FF4B7
:105220008012C3F80021204602B070BD0424F0E7CC
:105230005457002000E100E0024B4FF43C6043F083
:1052400001031847F06B0F0038B50C4B0C4C4FF4B2
:105250000032C3F8802001254FF48033C4F848336E
:10526000C4F808336560FFF7E7FF064BA56000242C
:105270001C60FFF7E1FF044B1C7038BD00E100E04B
:10528000001001404C57002041570020F8B51F4B3B
:105290001F491B680025C1F84051C1F84451C1F8AD
:1052A0004851C1F84C51C1F80051C1F804514BB3F9
:1052B000D1F8044517490968641A24F07F442F4641
:1052C0001A68A24209D8A41A15441A7CDE691AB1D8
:1052D000D3E905201F749047AEB90F4A0F4B1178E0
:1052E0001B788B4205D10133DBB2022B08BF0023B0
:1052F000137012780A4B43F822500A4B4FF4801275
:10530000C3F80021F8BD3346DAE700BF505700204C
:10531000001001404C570020425700204357002006
:105320004457002000E100E02DE9F04FA149A24AD6
:105330000B781278A14D9A4285B000F09680013327
:10534000DBB2022B08BF00239D4A0B709D491768F2
:1053500051F823003B1823F07F43136000222B6891
:1053600016461446944613B942B12B6006E01968FC
:10537000814268D902B12B60091A19604FF0010906
:105380002B68914FDFF84CB201934FF000087B7807
:10539000002E6DD13A789A4240F084802B68B8F1A3
:1053A000000F05D1019A9A4202D1B9F1000F44D001
:1053B000002B00F0FB80D3F800A0844D804BD5F883
:1053C00004751C68DFF810823E1B98F8003026F048
:1053D0007F4603369BB94FF48033C5F84433C5F894
:1053E00004337B4B4FF400324FF00109C3F88021A6
:1053F0001A60C5F80090FFF71FFF88F80090B245CB
:105400002CBF5444A41924F07F44C5F84045D5F876
:105410000435DB1B23F07F43E41B033324F07F447C
:10542000A3420AD9D5F80435C5F84035FFF704FF83
:10543000674B4FF40032C3F80021664B00221A700C
:1054400005B0BDE8F08F401A0C44D968D3F81CE0D1
:10545000C3F800C031B13A1922F07F42C3E90121FB
:10546000DE611E46734601227DE70026B14687E7CE
:105470003446F669524B60681A68DFF860C1A36869
:10548000811A21F07F4161456FD80B4401212174BD
:10549000296823600022C4E90122E26100296CD15D
:1054A0002C6074E7B978531CDBB2994208BF002323
:1054B0003B70182303FB0272296813799468022B4E
:1054C0001FD0032B4ED0012B7FF461AF237C002B28
:1054D0007FF45DAFD2E90313A3605369E36093697E
:1054E0009BF80020A361002A18BF31466160C1E724
:1054F000944209D09246D269002AF9D1002323743C
:1055000045E70A468A46F7E7544513D1C86928603B
:1055100080B9DFF8B8E00123CDE90221CEF80830E8
:10552000DFF89CE0CEF800002A480370FFF784FE05
:10553000DDE902211068D269CAF81C2012B1136893
:10554000034413602B688B4218BF4FF00108D5E766
:105550000A74C96901230029FAD1002B3FF417AF5F
:10556000296014E733463246F5E7121A22F07F42EB
:105570009A4234BF9B1A002388E70A689A4213D3E1
:10558000D21A0A60E1618BE71B1AD069114638B163
:10559000024610688342F7D8C01A106010460A46C7
:1055A0002360E061D461F2E60A46F2E7FFF74CFEC1
:1055B00043E700BF435700204257002050570020C8
:1055C0004C57002044570020545700200010014041
:1055D00000E100E04057002041570020FEFF7F001F
:1055E00008B5FFF731FE104B00200B2218809A708F
:1055F0000E4B18600E4B18700E4B18700E4B4FF47C
:105600008012C021C3F8802183F814131A6002F1BC
:105610008042A2F56F22C2F8080583F81113074BE8
:10562000D2F804251A6008BD5457002050570020B6
:10563000435700204257002000E100E04C57002073
:10564000074B9B784BB132B128B10368187C20B965
:1056500059745A617047072070470820704700BF8F
:10566000545700202DE9F743DFF8848098F8023082
:1056700005460E461746ABB3A0B3042930D943699B
:1056800083B3437C0024012B0DF107000CBF894636
:10569000A1468DF80740FEF7A9FC0DF10600FFF7C3
:1056A0008DFDD8B1012303700F4B4560D3F804354D
:1056B000C0E90497C0E902369DF8063088F8013049
:1056C0009DF80700FEF7B6FC24B9084B4FF4801292
:1056D000C3F80021204603B0BDE8F0830424EFE7BF
:1056E0000724F7E70824F5E70010014000E100E097
:1056F00054570020064A92783AB130B1426922B13B
:10570000002202740221FFF76FBD0820704700BF1E
:105710005457002072DF704773DF704738B501229D
:1057200004460D46B0F83812D0F83402FFF7C5F938
:1057300000B1057004F13C0204F50D7104F1540050
:10574000BDE83840FFF7E6BF80F830107047F8B585
:1057500004460F4600296BD0002869D091F87A30B2
:105760001BB191F89830002B64D14FF0000C84F8F5
:1057700002C007F178060FCE251D0FC50FCE0FC54D
:1057800096E8070085E8070084F830C0D7F8A43011
:105790006363D7F8A830A36304F50D724FF6FF7367
:1057A000C4F84AC2A4F84832C4F84422C4F84DC22E
:1057B00022780AB984F8543094F82430002B0CBFB6
:1057C0001F23EE2304F15501C4F83412A4F8383233
:1057D00004F50E723846FEF78EFF40BB94F8243075
:1057E000002B0CBF1F23EE2304F24311C4F83C121C
:1057F000A4F8403204F5107207F13C00FEF77BFF7D
:10580000A8B9A369A4F848304FF480730125A4F81F
:10581000503063692064014684F83C50636404F1AD
:105820003C0204F15400FFF775FF00B92570F8BD84
:105830000E20FCE70720FAE7F8B5077804460D4686
:10584000002F00F002810023C0F84A32C0F84D3228
:10585000C388817000F24A260BB1012903D0E37995
:1058600043B1022D06D1636BA3B1012284F851220A
:1058700008209847334604F5147113F8012F12B924
:105880008B42FAD117466B1E032B4DD8DFE803F08D
:10589000050B0F1284F85132ECE7A3791BB194F891
:1058A000243003B94FB9E3790BB1002F3ED1237AED
:1058B000002B3DD1657AAD00EDB2636BA570002B76
:1058C00038D0033D012D35D862799AB394F852222D
:1058D00082BB84F85422012284F85322072098477F
:1058E0001722002104F13D0000F0C0FFE26A01230D
:1058F000511E994284F83C3001D9042A00D1D3B218
:1059000084F8513094F8243033B1012916D9042A8F
:1059100014D0012284F85220A278042A1DD8DFE88E
:1059200002F07A0F243759000025C6E70225C4E7A4
:105930000325C2E7002384F85332D1E7A26AE9E7DE
:10594000012384F831300023C4F84432022384F860
:105950003C3080232664A4F84830A378002B5ED125
:10596000636B002B6DD100206AE0002B0CBF03237A
:10597000072384F83C302369A4F84830002302222E
:10598000C4F84432E36884F8312026646364E4E7B1
:1059900061696164A169A4F8481013B1062384F811
:1059A0003C3063797BB194F8523263B994F8543245
:1059B0004BB1022384F8503004212046FFF7AEFE9D
:1059C0000028CAD1052204F50D7384F83120C4F8EB
:1059D0004432C2E7002B0CBF01230623E16984F89F
:1059E0003C3063796164216AA4F84810002BEAD046
:1059F00094F85232002BE6D194F85432002BE2D0C6
:105A0000022384F8503004212046FFF787FE002847
:105A1000A3D10622D7E7002384F831309DE7D4F8DC
:105A2000441204F13C0204F15400FFF773FE38B94C
:105A300094F8301094F85400FFF76EFE00288FD0D1
:105A4000F8BD94F8310098478DE70820F8E70388FF
:105A5000112B10B50C460AD0262B1FD0102B05D1C8
:105A6000C27B8388012A01D1A1F8483210BD0022EF
:105A7000838881F85222B1F848229A42F6D10B79F4
:105A8000002BF3D101212046FFF7D6FE0028EDD0F0
:105A9000A36B002BEAD0BDE810401847037A013B06
:105AA000012BE3D8897805230131B1FBF3F303EB34
:105AB0008303C91AC9B2E6E770470B4610B4114612
:105AC00028B123B103605DF8044B1B6818470E2012
:105AD0005DF8044B70472DE9F043DDF81C8018B3E6
