:020000022000DC
:1060000000F8002019A8020041A8020043A80200DD
:1060100045A8020047A8020049A8020000000000AD
:106020000000000000000000000000004BA802007B
:106030004DA80200000000004FA802008D6502007C
:1060400053A8020053A8020053A80200517B02008B
:10605000617B020053A802003586020053A80200AB
:10606000898302009D830200B183020053A80200CD
:1060700053A8020053A8020053A8020053A802002C
:1060800053A80200759A020053A8020053A8020008
:10609000119B020053A80200758A020053A8020057
:1060A00053A8020053A80200C5830200D98302004E
:1060B00053A8020053A802000000000000000000E6
:1060C00053A8020053A8020053A8020053A80200DC
:1060D00053A8020053A8020053A8020000000000C9
:1060E00000000000000000000000000000000000B0
:1060F00000000000000000000000000000000000A0
:10610000000000000000000000000000000000008F
:10611000000000000000000000000000000000007F
:10612000000000000000000000000000000000006F
:10613000000000000000000000000000000000005F
:10614000000000000000000000000000000000004F
:10615000000000000000000000000000000000003F
:10616000000000000000000000000000000000002F
:10617000000000000000000000000000000000001F
:10618000000000000000000000000000000000000F
:1061900000000000000000000000000000000000FF
:1061A00000000000000000000000000000000000EF
:1061B00000000000000000000000000000000000DF
:1061C00000000000000000000000000000000000CF
:1061D00000000000000000000000000000000000BF
:1061E00000000000000000000000000000000000AF
:1061F000000000000000000000000000000000009F
:1062000010B5054C237833B9044B13B10448AFF3F0
:1062100000800123237010BDC43000200000000066
:10622000C8AA020008B5034B1BB103490348AFF3EA
:10623000008008BD00000000C8300020C8AA02008D
:10624000A3F5803A704700BF174B002B08BF134BD4
:106250009D46FFF7F5FF00218B460F461348144A71
:10626000121A04F03DFB0E4B002B00D098470D4B4B
:10627000002B00D098470020002104000D000D489D
:10628000002802D00C48AFF3008004F0F7FA200099
:10629000290000F0BBF804F0DDFA00BF00000800A0
:1062A000000000000000000000F80020C4300020C2
:1062B000A44200200000000000000000BFF34F8F48
:1062C0000549064BCA6802F4E0621343CB60BFF392
:1062D0004F8F00BFFDE700BF00ED00E00400FA05AE
:1062E00013DF704718DF7047024B53F8203003B1BB
:1062F00018477047EC30002010B5174802F00AF834
:10630000164B00241C60164B1C60164B19781C7031
:106310000229CAB205D0032A19D0012A1BD1FFF7DE
:10632000CDFF0121104801F0E5F80A210E4801F0E7
:106330001BF820210C4801F025F80A210A4801F039
:1063400013F821460848BDE8104001F0D3B8074BC8
:10635000074A5A60E3E710BD84A90200E430002038
:1063600070310020E03000201830002000F80020BC
:10637000434F494E1E4B73B51E4D1B681E4C2B6080
:1063800023781E4E03F0FF0103B32B6832689B1A7B
:10639000B42B2BD91A4801F0BDFF2B68336023784A
:1063A00018490133DBB22370174BD3F810250123B2
:1063B000D2B221FA02F200930021114801F0CFFF7E
:1063C0000F4802B0BDE8704001F096BF2B68336003
:1063D00023780C480133DBB223700B4BD3F8102524
:1063E0000123D2B2009320FA02F2E6E702B070BDB8
:1063F000E8300020E4300020E03000207031002040
:1064000084A902000024F40000A000401FB501F0A0
:1064100053FD002001F008FD002001F069FD00207F
:1064200001F0EEFD01F0E0FD18B901F023FE0028B7
:10643000F8D04FF0E0234FF6FF125A61464A474C1E
:10644000E02182F8231000229A6107221A6102F0EB
:1064500001F801F077F8424800F0E7FD01F016F985
:10646000404800F0B7FF022368460093FFF73AFF69
:106470003D4BD4F804289A4214BF4FF440334FF4F4
:106480001833C4F80838D4F80808036803F16043E7
:10649000013BB3F5803F0CD258B1B0F5183F08D09E
:1064A000FFF71EFFD4F808385B68984700F052FCED
:1064B000FEE74FF01023D3F80022013203D1D3F8C6
:1064C0000432013325D0294B0122C3F80425D3F827
:1064D0000024002AFBD04FF010224FF0FF31C2F809
:1064E0000012D3F80024002AFBD04FF010234FF005
:1064F000FF32C3F804221D4BD3F80024002AFBD03E
:106500000022C3F80425D3F80024002AFBD0FFF7AB
:10651000D5FE174A1749184801F080FE4FF0A043F6
:1065200016490C22C3F854270224154A0C70152072
:1065300001F0C2FF0121152002F036F8114B124A7A
:106540005A654FF41830FFF7CBFEFF22214604486E
:1065500000F008FDAAE700BF00ED00E000F0002019
:106560000830002018300020424F4F5400E0014016
:10657000F96202003030002084A9020004300020BB
:10658000E9620200EC30002075630200024A1368E1
:1065900001331360704700BFE8300020A8DF704768
:1065A000AADF7047ADDF7047AEDF7047B0DF7047DE
:1065B00062DF70472DE9F0470E4694B0054600288B
:1065C00000F0CF80002900F0CC804B68002B00F059
:1065D000C8804FF6FF730380634B04AA03F1100CCD
:1065E000174618685968144603C4083363452246A1
:1065F000F7D141F230530DF10A013846ADF80830B9
:10660000FFF7D6FF0446002840F0A7802A1D02A904
:106610000120FFF7C3FF0446002840F09E809DF84C
:106620000A70AF7101461C220DA804F059F99DF8BB
:106630003430A888ADF8044043F004038DF83430BA
:1066400041F23253ADF80C3004F0F80343F0030389
:106650008DF806301423CDE90A440DF10408ADF895
:106660002C304FF0110A0DF10C0905F1080308AAAE
:106670000DA98DF80E700C94CDE908988DF805A041
:10668000FFF78EFF27460446002866D101461C22EC
:106690000DA804F025F99DF83430A888ADF8044021
:1066A00023F0180343F018038DF83430AB798DF8DC
:1066B0000E3041F23153ADF80C3007F0E80343F0EF
:1066C00013038DF806301723CDE90A4408AAADF864
:1066D0002C300DA905F110030C94CDE908988DF824
:1066E00005A0FFF75DFF0446002836D101461C22B5
:1066F0000DA804F0F5F89DF83430A888ADF80440F2
:1067000043F002038DF83430AB798DF80E3041F24E
:106710003453ADF80C3007F0F8070223CDE90A44F2
:1067200047F00307ADF82830ADF82C3008AA05F182
:1067300020030DA9CDE908988DF804A08DF8067006
:106740000C96FFF72DFF044638B97368AB62B36847
:1067500003B1EB62054B01221A70204614B0BDE86C
:10676000F0870E24F9E700BF9CA90200E033002067
:1067700030B587B058B302884FF6FF739A4228D0DD
:10678000154B1B782BB3154B0D0A1022D9701D71B8
:106790000D0C090E1A7007240122997100219A70BC
:1067A0005C705D71CDF80B108DF80F10018AADF89B
:1067B00008108DF80A200088ADF806400DF1060299
:1067C00002A9CDE90423FFF7EFFE07B030BD0E208C
:1067D000FBE70820F9E700BFE0330020E1330020A9
:1067E0007FB550B302884FF6FF739A4227D0154BFE
:1067F0001B7823B3144B11221A700A0A9A700A0CE0
:10680000DA700522ADF8062000225970CDF80B2071
:10681000090E8DF80F20028A1971ADF808200122A7
:106820008DF80A2000880DF1060202A9CDE90423A3
:10683000FFF7BAFE07B05DF804FB0E20FAE7082068
:10684000F8E700BFE0330020E133002010B586B048
:1068500020B304884FF6FF739C4221D0114B1B7864
:10686000F3B1114B9A7000221024CDF80B208DF853
:106870000F20028A59701C700321ADF808200122F4
:10688000ADF806108DF80A2000880DF1060202A965
:10689000CDE90423FFF788FE06B010BD0E20FBE70C
:1068A0000820F9E7E0330020E133002070B50D4601
:1068B00088B0044650B149B1826A3AB10B88502B76
:1068C00048D005D8102B42D0112B53D008B070BD42
:1068D000512BFBD18B79022BF8D10989028A914285
:1068E000F4D1AA7B043A022AF0D99DF81620818AB5
:1068F00000888DF8103042F001028DF816202A8AA7
:10690000ADF818206A8AADF81A2005F11402079232
:106910000022ADF8062001AAADF80430CDF808D069
:10692000FFF740FE48B3E36A03B1984740F2FD1316
:106930002088ADF8143004A9FFF738FE0028C5D030
:10694000E36A002BC2D008B0BDE8704018478B88BE
:106950002380BBE7C98803899942B7D108238DF802
:106960001030123535F8023C8DF81830059504A921
:106970009047ABE74FF6FF73EAE7684602F013FE75
:106980000028D3D000262088ADF8146004A9FFF7B2
:106990000DFE0028D4D1297D4B1E072B3ED8DFE801
:1069A00003F004192226282A3B2C6B8A8DF80460F8
:1069B000012B05D8062201212046FFF747FFBDE73E
:1069C000012315358DF80C300295A36A01A92046E4
:1069D00098477BE76A8A01239A428DF80430F0D801
:1069E00006220221E8E702238DF80430EDE70323B5
:1069F000FAE70423F8E70523F6E76B8A022B02D8AF
:106A000003220821D8E7B5F81530ADF80830002B7F
:106A10000CBF07230623E7E70923E5E70322CBE7BB
:106A2000BFF34F8F0549064BCA6802F4E062134377
:106A3000CB60BFF34F8F00BFFDE700BF00ED00E06C
:106A40000400FA0576DF70477ADF70477CDF704715
:106A50007FDF70478FDF7047B1DF704711DF70470E
:106A60000388212B13B5044620D00CD8112B19D044
:106A7000132B25D0102B11D01948214602B0BDE8A8
:106A80001040FFF713BF522B22D0562B01D03B2BC7
:106A9000F2D1A0881321FFF7D5FFEDE78288114BD3
:106AA0001A80E9E70F4B4FF6FF72F9E7002301A9BF
:106AB00080888DF805308DF80430FFF7CBFFDBE7D9
:106AC000084800231A4685210088FFF7C1FFD3E755
:106AD000044800231A4619460088FFF7BDFFCBE79C
:106AE000183E002038300020037823B9024B3B21A8
:106AF0001888FFF7A7BF704738300020436823B1DC
:106B0000062203214069FFF7A1BE0278012A02D0C4
:106B1000022A07D07047054B1968054B1B6899423C
:106B2000EFD0704701221146ECE700BF643E002021
:106B30004C3E00202DE9F3410B7805460E46092B0B
:106B40003CD8DFE813F031003E0046000A001E008A
:106B50002F00C700D0004A00D500694B00221968F9
:106B60004FF4403003F03CFE664B1B8883420CBF61
:106B7000012205220421284602B0BDE8F041FFF7BA
:106B800065BE614B614D4FF44032C3F80828604A3E
:106B9000C3F80428642445F001054FF47A40A8475F
:106BA000013CFAD1FFF73CFF5A4B01221A70544ABC
:106BB00000231360534A1380574A136002B0BDE8A4
:106BC000F081544B0221197073681A78012AF5D1AB
:106BD000D1E7504B03221A70F0E74E4B1978022987
:106BE00017D003291AD00129E8D173689A68444B59
:106BF000B2F5A02F1A600AD20346120B47480132A1
:106C00004FF4403102B0BDE8F04103F08FBB0322E6
:106C1000B1E773689A893B4B1A80CFE7404C414FEC
:106C2000DFF810813B78206871684FF47A7202FBBC
:106C300003004044327A03F045FE317A2368364E31
:106C40000B44236022683368B2F57A7F0B443360CB
:106C500003D02B4A1268934225D12168C1F54031F7
:106C60001944236813F0030318BF236822681CBF6C
:106C700003F00303C3F104031344236023680B44AC
:106C8000B3F5002F23D23A78236800954FF47A7039
:106C900000FB0282214803F01BFB3B7883F00103D9
:106CA0003B7000232360204B1B78002B86D01F4CA9
:106CB0002388013B9BB22380002B7FF47FAF316898
:106CC0002846FFF78DFD1A4B1B88238076E7FFF7D8
:106CD000C5FEE2E7144B01221A70154A8B88138017
:106CE000124A13806AE7104A00231370104AF8E72B
:106CF000094B196802B0BDE8F041FFF739BD00BF8C
:106D00004C3E0020483E002000F0002010AA020067
:106D1000434F494E6D3E0020643E0020B0300020BD
:106D2000EC330020E83300206C3E00206A3E002057
:106D3000683E0020F033002010B5054C00212046AD
:106D400002F0C4FA20461721BDE8104002F0D1BA83
:106D5000503E00202DE9F041B0B0414C03F034F832
:106D6000002601F0EFFD05A90120059601F0B6FE11
:106D700005A801F0F7FE2068616802AD05AB03C30A
:106D80000B22112337498DF808302846FFF75EFEA5
:106D900005A8FFF759FEFFF7CFFF04F1080393E8BA
:106DA000070085E8070029462F48FFF703FC6069C4
:106DB000A16940276B463A4603C3314605A803F054
:106DC0008FFD1423ADF81430284B06930623ADF83D
:106DD0001C30274B0893274BCDF84CD01D68073546
:106DE0004FF0010828468DF8508003F081FDADF882
:106DF000340005A80E9501F00DFFAC22314605A820
:106E000003F06EFD279702231B4F8DF814300523E6
:106E10008DF8173005A944F25063384628938DF851
:106E200090801C3403F087F84146384603F080F820
:106E30000FCC05AD0FC594E8070085E8070005A84D
:106E400002F05AFD0321384603F0F2F80B4B0C48D0
:106E50001968324630B0BDE8F04103F02BBA00BFEC
:106E6000D4A90200ACA90200183E0020B8A9020073
:106E7000CDA9020000300020C03B00203C300020A3
:106E8000B030002008B54FF0E023D3F8F03DDB0729
:106E900000D500BEFFF7C4FD58B143684BB183680D
:106EA0003BB1C3682BB14078B0FA80F04009404252
:106EB00070474FF0FF307047F8B5054618461C463E
:106EC000FFF7EAFF58B951B162B1A6686378284666
:106ED000B0470028A07018BF6FF00100F8BD4FF058
:106EE000FF30FBE76FF00400F8E713B504460191AB
:106EF000FFF7D2FFF8B90122234601A91046FFF798
:106F0000DBFFB0B9234601220DF105010220FFF796
:106F1000D3FF70B9234601220DF106010320FFF7CC
:106F2000CBFF30B9234601220DF107010420FFF702
:106F3000C3FF02B010BD4FF0FF30FAE71FB501905C
:106F4000FFF7AAFF58B9C5228DF80C20019B01223A
:106F500003A94020FFF7B0FF05B05DF804FB4FF038
:106F6000FF30F9E713B504468DF80720FFF794FFCB
:106F7000E0B9012914D0022906D061B923460122C3
:106F80000DF10701322004E0234601220DF1070133
:106F90001020FFF791FF2046FFF7D0FF02B010BD91
:106FA0000A4623460DF107012120F2E74FF0FF309A
:106FB000F4E770B5054618461C46FFF76DFF50B95B
:106FC00049B1666863782846B0470028A07018BFAA
:106FD0006FF0010070BD4FF0FF30FBE710B50246C7
:106FE000FFF75AFF044620B9D36808469847204661
:106FF00010BD4FF0FF34FAE737B50546FFF74CFFF9
:1070000080B9C5238DF8043001A92B4601224F20F9
:10701000FFF752FF322104462846FFF7DFFF2046E4
:1070200003B030BD4FF0FF34F9E737B50023054614
:107030008DF80330FFF730FF30BB2B4601220DF1F6
:107040000301FFF7B6FF0446D8B99DF80330CE2BF5
:107050001DD12B702846FFF7CFFF044688B91421B5
:107060002846FFF7BBFF07238DF806408DF8074041
:107070008DF804308DF8053001992846FFF735FF6B
:107080000446204603B030BD4FF0FF34F9E76FF0FF
:107090000504F6E758B143684BB183683BB1C36858
:1070A0002BB10078B0FA80F04009404270474FF0B1
:1070B000FF307047F8B5054618461C46FFF7EAFF53
:1070C00058B951B162B1A66823782846B047002864
:1070D000A07018BF6FF00100F8BD4FF0FF30FBE764
:1070E0006FF00400F8E71FB50022CDE900018DF82C
:1070F0000F20FFF7CFFFB0B99DF804109DF80520D1
:10710000009B0A439DF806100A439DF807100A43A6
:107110008DF80F200DF10F0101220320FFF7CAFFA8
:1071200005B05DF804FB4FF0FF30F9E71FB5002212
:10713000CDE900018DF80F20FFF7ACFFB0B99DF845
:1071400005109DF80420009B0A439DF806100A4391
:107150009DF807100A438DF80F2001220DF10F0151
:107160001046FFF7A7FF05B05DF804FB4FF0FF30B6
:10717000F9E710B586B002AC84E806000022019061
:107180008DF81720FFF786FFC0B99DF809109DF80C
:107190000820019B0A439DF80A100A439DF80B1032
:1071A0000A439DF80C100A438DF817200DF11701C2
:1071B00001220220FFF77EFF06B010BD4FF0FF3026
:1071C000FAE71FB50022CDE900018DF80F20FFF787
:1071D00061FF98B99DF804109DF80520009B0A43B3
:1071E0009DF806100A438DF80F200DF10F010122C2
:1071F0000420FFF75FFF05B05DF804FB4FF0FF30A0
:10720000F9E707B500908DF80710FFF743FF48B97D
:10721000009B01220DF107010520FFF74BFF03B092
:107220005DF804FB4FF0FF30F9E71FB50022CDE910
:1072300000018DF80F20FFF72DFF98B99DF805107C
:107240009DF80420009B0A439DF806100A438DF820
:107250000F200DF10F0101220720FFF72BFF05B0D2
:107260005DF804FB4FF0FF30F9E710B586B002ACD3
:1072700084E80600002201908DF81720FFF70AFF2E
:10728000C0B99DF809109DF80820019B0A439DF89C
:107290000A100A439DF80B100A439DF80C100A438C
:1072A0008DF817200DF1170101220820FFF702FFCA
:1072B00006B010BD4FF0FF30FAE71FB50022009076
:1072C000ADF804108DF80F20FFF7E4FE80B99DF8AB
:1072D00005109DF80420009B0A438DF80F200DF146
:1072E0000F0101220920FFF7E5FE05B05DF804FB60
:1072F0004FF0FF30F9E7F8B5064618460D461C4634
:10730000FFF7C8FE78B971B1237867683046B8478F
:10731000A0702B78002818BF6FF00100FF2B08BF6A
:107320006FF00600F8BD4FF0FF30FBE71FB501908E
:10733000FFF7B0FEA8B9019B012203A90920FFF7BE
:10734000DAFF019B50B99DF80C2062F07F028DF8A6
:107350000C2003A901220920FFF7ACFE05B05DF85F
:1073600004FB4FF0FF30F9E710B50246FFF792FE3D
:10737000044620B9D36808469847204610BD4FF010
:10738000FF34FAE773B5002305460E468DF8073043
:10739000FFF780FED8B90DF107012B460122FFF758
:1073A000AAFF0A2104462846FFF7DEFF64B99DF8CC
:1073B000071020460E432B4601220DF107018DF8E0
:1073C0000760FFF777FE0446204602B070BD4FF01D
:1073D000FF34F9E72DE9B04F8AB0002381468DF8DC
:1073E00003300DF1200A08938DF824300593FFF740
:1073F00051FE002878D14B4601220DF10301FFF721
:107400007AFF044600286BD14846FFF78FFF00281B
:107410006DD132214846FFF7A7FF21460546484671
:10742000FFF7B0FF284345B278214846FFF7E9FE51
:107430004FF0200B05238DF805308DF804B001992D
:107440004846FFF73AFF2C23284380258DF811305A
:107450008DF810508DF812408DF813404FFA80F8D7
:1074600004994846FFF73FFE48EA00004FF028081D
:107470008DF808508DF80A408DF80980029947B2BE
:107480004846FFF79EFE8DF80C408DF80E403843BD
:107490008DF80D80039945B24846FFF7C6FE40239C
:1074A0008DF819308DF818408DF81B408DF81C4070
:1074B0008DF81AB0DDE9061205434846FFF7D5FE00
:1074C0006DB228439AE8060044B24846FFF751FEE1
:1074D000204344B205994846FFF728FE044364B2AE
:1074E00020460AB0BDE8B08F4FF0FF34F8E76FF0E8
:1074F0000504F5E710B50246FFF7CCFD044628B9B0
:107500001369517008469847204610BD4FF0FF346C
:10751000FAE700000278034B12B901221A70704793
:107520000222FBE74030002038B5054D044645F007
:1075300001054FF47A40A847013CFAD138BD00BF9D
:1075400030AA02001FB5104B0FCB6C4684E80F0029
:107550001A221D23CDE900234FF0C8630293214670
:107560000A4A0B48002300F043F9044650B9084882
:1075700000F0A2F94FF04023029AC3F824252046D8
:1075800004B010BD0E20FBE718AA0200157502001A
:1075900038AA0200F0B51446083487B024F0070476
:1075A00000AFADEB040D844668461D4600F801CBE4
:1075B000561C03F087F914220021381D03F090F9BE
:1075C0007D71134D1348BE6000230122391D2B70BD
:1075D000C7F810D000F080F9642304463B603B6894
:1075E000B3F57A7F01D22B784BB12B78012B0CD1DC
:1075F000002C18BF0D2460B21C37BD46F0BD012021
:10760000FFF792FF3B680133E8E70D24F3E700BF83
:107610004030002038AA020030B589B0174D8DF8EF
:107620000D300123CDE904328DF807000DF1070379
:107630000220CDE906318DF80C00002310482B7094
:10764000122203A900F048F9642304460293029B26
:10765000B3F57A7F01D22B7843B12B78012B0BD174
:10766000002C18BF0D2460B209B030BD0120FFF717
:107670005BFF029B0133E9E70D24F4E74030002073
:1076800038AA020008B1FFF74FBF70474FF0A04380
:107690000322C3F870274FF08052C3F8082500205A
:1076A00070474FF0A0434FF0805218B9C3F80C2533
:1076B00000207047C3F80825FAE70023435082B042
:1076C00043580193019B02B070470000F0B5D0F819
:1076D000243187B004460D469BB14FF49271FFF7F9
:1076E000ECFFD0F8043163B9AB68C0F8083302236B
:1076F000AB60AB68C0F8043301230362436107B099
:10770000F0BDD4F80431002B34D04FF48271204600
:1077100005F10C07FFF7D1FF0FCF01AE0FC63B6895
:10772000336095F82E3073B12B7B012B0CBFD4F84E
:107730003C25D4F84C250292022B0CBFD4F83C35E2
:10774000D4F84C3503934FF4B0712046FFF7B5FFE2
:107750004FF4AE71FFF7B1FF95F8303013B195F8E3
:107760002E30CBB10023C4F80032AB601F4BC4F8FD
:10777000083311E04FF4A4712046FFF79EFF2B7BE6
:10778000EBB905F10C070FCF01AE0FC63B683360B4
:1077900095F83030002BE6D0D4F8C434C4F8C434A3
:1077A0009A071ED501238DF8003095F830300BB9BB
:1077B00085F82F30D5E90031684698479FE74FF4A8
:1077C0000073C4F8003240F20223AB6003F1CE73C1
:1077D000C4F80833AB68C4F804330123A360236200
:1077E0008DE713F0040318BF0223DCE702029C01BB
:1077F000F0B506792E4D4FF0340C0CFB06FC05EB72
:107800000C0494F82D70002F50D163604B7BA7605F
:1078100084F8307084F82F7084F832300C6845F8A2
:107820000C204FF0A04704F5E07340F20C6C47F8D1
:1078300023C04B68006803F5E07E47F82EC0C0F80F
:107840000845C0F80C358B68C0F8243532B340F3D6
:1078500007330A7B002BA8BF03F16041C0F3073058
:107860004FEA5313BCBF00F00F0412494FEA421213
:10787000A8BF01F561414FEA8303D2B203F160432F
:10788000B4BF0A5581F8002303F5614300F01F00DF
:10789000012202FA00F0C3F880011860342303FBD0
:1078A0000655012385F82D300020F0BD0820FCE7A7
:1078B000703E002014ED00E0036802790621C3F851
:1078C0000015044B342101FB0233022283F82D20E2
:1078D000704700BF703E00202DE9F843CB6803F0ED
:1078E0006043B3F1005F0D46904603D0102630464A
:1078F000BDE8F88390F80490924F0468924BC4F866
:107900000833342606FB097696F82F3023B1B36886
:10791000C4F804331126EAE712F0140F0CBF012358
:10792000002386F82F308E46BEE80F0006F10C0CBF
:10793000ACE80F00DEF80030CCF80030C8F30013DC
:1079400086F830306B78C4F888354FF48271204661
:10795000FFF7B3FE4FF49271FFF7AFFE18F001038B
:1079600018BF0123C4F8503518F0020318BF0123D3
:10797000C4F840352B78032B00F2C280DFE803F017
:1079800084AA68022B6903F06043B3F1005FADD1B4
:107990004FF48073C4F80032EA686B68C4F8442579
:1079A0004FF4A871C4F84835FFF787FE4FF4B07163
:1079B000FFF783FE4FF4A471FFF77FFE01232362DC
:1079C000A360D4F85031002BFBD04FF4A8712046AF
:1079D000FFF773FEAB682A69C4F84425C4F848353C
:1079E0005A4A342303FB09739A604FF482710823C7
:1079F000002618F0080F04D12A78032A1CBF0122A0
:107A0000E250342303FB09F3FA18FB58002B7CD116
:107A1000012221440B68002B00F084803422D4F82A
:107A2000C434C4F8C43402FB0977002287F82F203D
:107A3000002B3FF45CAF13F0020F48F2012608BFA1
:107A4000032613F0040F48F2022318BF1E464EE728
:107A50006B68EA68C4F84425C4F848352B6903F01C
:107A60006042B2F1005F7FF441AFAA68C4F83435D8
:107A70004FF48453C4F83825C4F80032342303FB90
:107A8000097340F20222AFE76B68EA68C4F8442544
:107A900018F0200FC4F848354FF034030ED04FF4DF
:107AA000807203FB0973C4F80022284A9A604FF4DD
:107AB000A471FFF702FE0123236298E74FF40072DE
:107AC00003FB0973C4F8002240F202229A604FF4CB
:107AD0008271F0E76B68EA68C4F83425C4F8383579
:107AE0004FF48053C4F80032342303FB097340F28F
:107AF00002229A60012323624FF48271002377E708
:107B00004FF482710823072673E718F0040F1CBF97
:107B10004FF400739360342303FB0977BB68C4F808
:107B20000433E4E6D4F82431002B3FF473AF4FF470
:107B300092712046FFF7C1FD22624FF482716261AB
:107B400067E700BF703E002002029C0100020400B3
:107B500001490248FFF7BABD703E002000300040E6
:107B600002494FF04020FFF7B1BD00BFA43E002006
:107B70004FF0704393F8E02F062A10D1D3F8E42F8A
:107B800012070CD1D3F8E80F00F0F003302B08D027
:107B900000F0E000A0F14003584258417047002037
:107BA0007047012070474FF0704393F8E02F062A8A
:107BB0000CD1D3F8E42F120708D1D3F8E80F00F066
:107BC000F000A0F130035842584170470020704740
:107BD00008B5FFF7CDFF40B14FF080536C4AD3F8A2
:107BE0002433C3F30423C2F84035FFF7DCFF10B1A0
:107BF000684B694A5A67FFF7BBFF48B14FF08053A3
:107C00004FF08042D3F84432C3F34233C2F83C35DC
:107C1000FFF7C9FF30B1614AD2F8FC3023F080731E
:107C2000C2F8FC30FFF7A4FF40B14FF080430022C0
:107C3000C3F80C21C3F81021C3F83825FFF7B3FFB0
:107C400020B14FF080430322C3F8A025FFF7ABFF1C
:107C500060B1534B0522C3F810260122C3F88826D1
:107C60000022C3F818263F22C3F814264FF07043B1
:107C700093F8E02F062A50D1D3F8E42F11074CD106
:107C8000D3F8E83F03F0F003502B46D14FF0805279
:107C9000444BD2F80414C3F82015D2F80814C3F8E2
:107CA0002415D2F80C14C3F82815D2F81014C3F810
:107CB0002C15D2F81414C3F83015D2F81814C3F8E0
:107CC0003415D2F81C14C3F84015D2F82014C3F8A8
:107CD0004415D2F82414C3F84815D2F82814C3F870
:107CE0004C15D2F82C14C3F85015D2F83014C3F840
:107CF0005415D2F83414C3F86015D2F83814C3F808
:107D00006415D2F83C14C3F86815D2F84014C3F8CF
:107D10006C15D2F84424C3F87025FFF729FF48B149
:107D20004FF080534FF08042D3F8583203F04F03A6
:107D3000C2F8E43EFFF71CFF48B14FF08043D3F890
:107D40000024D20744BF6FF00102C3F800244FF0B3
:107D50008053D3F83021062A0AD1D3F83431062BC8
:107D600001BF114AD2F83C3743F48063C2F83C3774
:107D70000A4AD2F8883043F47003C2F88830BFF35F
:107D80004F8FBFF36F8F094B094A1A6008BD00BFC0
:107D90000030014000C007400DF0ADBA00ED00E03A
:107DA0000050004000C0004000100040443000205F
:107DB0000090D00336DF7047012810B504D100F0E1
:107DC000DFF9BDE81040004710BD0000012813B5E1
:107DD000044603D0032813D002B010BD00230DF1D8
:107DE00007008DF8073000F0E1FC00F0C9F910B190
:107DF0002046FFF7DFFF9DF8070000F0FBFCEBE7F4
:107E0000084BC02283F800230122C3F880211A60A6
:107E100000F0B6F90028DFD04FF080430422C3F809
:107E20000423D9E700E100E038B50A4D2B78044679
:107E300063B900F005FE58B90748002C18BF20466A
:107E400000F0A4F908B901232B7038BD8520FCE7A8
:107E50000820FAE7D83E002040AA020042DF70471F
:107E600044DF704738B5074C051E04F1080318BFFE
:107E70001C4623682BB11A6822605B682846984725
:107E8000F7E738BDE43E002020B9054B01225A70C7
:107E9000FFF7E8BF012802D1014A9070F8E7704768
:107EA000DC3E002020B9034B01225A70FFF7DABFF5
:107EB000704700BFDC3E002038B50B4C237883B9F7
:107EC0000A486360A3602361E36000F0F7F80546A9
:107ED00000F0B6FD08B900F0FDF801232370284634
:107EE00038BD8525FBE700BFDC3E0020897E02000F
:107EF00037B5184CA378054603F0FF029BB110B1CB
:107F000043680120984700230DF107008DF80730E2
:107F100000F04CFCE3689DF807000133E36000F0DB
:107F200069FC03B030BD0DF107008DF8072000F0AB
:107F30003DFC25B1226913463BB92A602561E368FF
:107F4000002BE7D100F0DEF8E4E79D42F7D01B6894
:107F5000F2E700BFDC3E002037B50B4C00230DF1EB
:107F600007008DF8073000F021FCE368013BE36077
:107F7000E56815B900F0EEF8A5709DF8070000F06F
:107F800039FC03B030BD00BFDC3E0020012813B532
:107F900008D003281CD018B9114B0122C3F8802047
:107FA00002B010BD0F4C00230DF107008DF8073013
:107FB00000F0FCFB23780BB9FFF77EFFE3689DF828
:107FC00007000133E3600123A37000F013FCE7E72F
:107FD00000F080F802B0BDE81040FFF7BDBF00BF61
:107FE00000E100E0DC3E002008B500F029FD28B9E2
:107FF0004FF08043D3F81804C0F3004008BD0000E0
:1080000037B51B4C6378054603F0FF029BB110B1F6
:1080100043680020984700230DF107008DF80730D2
:1080200000F0C4FB63689DF807000133636000F053
:10803000E1FB03B030BD0DF107008DF8072000F023
:10804000B5FB25B1A268134653B92A60A5606368E1
:10805000002BE7D100F0F4FC30B1FFF7FFFEE1E7C1
:108060009D42F4D01B68EFE700F07DF8DAE700BF2F
:10807000DC3E002007B500F0E3FC48B101A8FFF7A3
:10808000EFFE0198003818BF012003B05DF804FB33
:108090004FF08043D3F80C0400F00110A0F101135D
:1080A00058425841F1E700F18040002382B003605C
:1080B00003680193019B02B070470000044A1379E2
:1080C00023B90121106091801846704785207047C0
:1080D000F03E0020094B1A68D20706D4C02283F86C
:1080E00000230122C3F880211A604FF0804201234F
:1080F000C2F81835024A1370704700BF00E100E073
:10810000F83E002038B54FF48270FFF7CCFF4FF0F7
:1081100080430222C3F804230C4AD2F8FC0040F04A
:108120008073C2F8FC300A4B1C6844F001011960EE
:108130005D685968491BB1F50A5FFAD31C604FF0BE
:108140008043C2F8FC0001229A6038BD00ED00E0D7
:10815000001000E04FF080430122DA60D3F81824C9
:10816000D203FBD4704708B54FF48070FFF79BFF34
:108170004FF080430122C3F804231A6008BD0000B9
:10818000014B1868704700BFFC3E00200D4A137871
:10819000ABB903784FF0804103F00103C1F87835A3
:1081A000094B1968C90706D4C02183F800130121BF
:1081B000C3F88011196001231370002070478520D7
:1081C000704700BF003F002000E100E02DE9F347C9
:1081D000002406460F46904600F5A0754FF48039FE
:1081E000A246A00000F5A07398B22B686BB1D6F838
:1081F000043309FA04F21A4207D0C5F800A02B682C
:108200000193019BD7E9003198470134A04505F15E
:108210000405E6D102B0BDE8F0870000F7B50679A5
:10822000334D0C2474432F193B7A002B5ED12A5115
:108230004A687A60447902681F46D8B284424CD8B2
:1082400042F30733CC78002BA8BF03F16047C2F399
:1082500007304FEA5313BCBF00F00F0C254F4FEA15
:108260004414A8BF07F561474FEA8303E4B203F162
:108270006043B4BF07F80C4087F8004303F561433F
:10828000012400F01F0004FA00F0C3F88001186018
:10829000D2F804054B7820F0030003F003030343F6
:1082A000C2F804358B78D2F8080503F0030320F0F8
:1082B00003000343C2F808350B78D2F8100503F029
:1082C0000F0320F00F010B43C2F810350C2303FB02
:1082D000065500202C7203B0F0BD980000F5A07088
:1082E00001331750105801900198A6E70820F2E7D3
:1082F000043F002014ED00E0036801221A600279B7
:10830000034B0C2101FB023302221A72704700BF9B
:10831000043F0020036801221A610179024B0C20FE
:1083200000FB01331A727047043F002037B54FF449
:10833000803400688C407BB101F150039B00002524
:10834000C550C3580193019BC0F8044301F5A871BF
:1083500040F8212003B030BDC0F80843F6E770B400
:10836000046840F20116D4F800528E4025EA060552
:10837000C4F80052D4F800522B43C4F800329DF8E0
:108380000C3070BCFFF7D2BF024903480422FFF74C
:108390001DBF00BF043F0020008000400249034889
:1083A0000422FFF713BF00BF103F002000900040E1
:1083B000024903480422FFF709BF00BF1C3F002009
:1083C00000A00040024903480622FFF7FFBE00BF9D
:1083D000283F002000A00140024903480622FFF781
:1083E000F5BE00BF343F002000B0014000F18040E6
:1083F00000F5C040002382B0036003680193019B35
:1084000002B07047800000F1A040D0F8002722F4AD
:108410004032C0F80027D0F8003743EA0141C0F8E5
:1084200000177047C208012300F0070003FA00F0AC
:108430008B5C184388547047054B4FF0FF32072878
:1084400043F8202084BFC01880F84820704700BF40
:10845000403F002038B5154D95F858401CBB2022F0
:10846000FF2105F1300002F03BFAE0B20134FFF7E2
:10847000E3FF0C2CF9D10E4B0022C0216A6583F872
:1084800006134021C3F880114FF4BE701960FFF746
:10849000ADFF084B4FF00041C3F80413012385F8EA
:1084A0005830104638BD0820FCE700BF403F002090
:1084B00000E100E0006000402DE9F041DFF8E480D9
:1084C00008EB0003054693F93030002B0F4664DAC1
:1084D0008B78C3F34003002B0BBF082400240C212E
:1084E00008218C4202D10420BDE8F08158F8240014
:1084F00001303DD108EB050166B248F8242081F82F
:1085000030601BB908EB040383F84850BB785A0766
:108510000ED4D9072ED5AB0003F1A043D3F8002722
:1085200022F00202C3F800271D492846FFF77AFF10
:10853000BB783A7813F0020325D0A40004F18044FC
:1085400004F5C0442D02D4F8103523F4473323F446
:108550004073C4F810351204D4F8103505F4F855FA
:1085600002F4403215431D43C4F810550020BBE708
:108570000134B6E77A7805F5E0734FF0A041920038
:1085800041F82320D0E7083E48FA86F696F8505086
:1085900045EA821286F85020E8E70820A4E700BFE9
:1085A000943F0020403F002038B5204C251895F915
:1085B0003020072A18DD083A44FA82F494F8503043
:1085C0009B09032B0BD14FF0A043D3F81015C140EA
:1085D00001F001010231BDE83840FFF713BF012B64
:1085E0000CBF02210321F6E7D3B2072B1DD893005D
:1085F00003F1804303F5C043D3F8100540F00100B8
:10860000C3F8100502F1400040B2800080B2FFF7CD
:10861000EDFE51B195F9303054F823302BB10123E0
:1086200003FA02F2024BC3F8042338BD403F002096
:10863000006000402DE9F04F87B00024584D0394AE
:108640004FF48072012102F1804303F5C04390B2E0
:108650001B68012B06D1D5F804330B4202D0FFF77B
:10866000C5FE0C430432B2F5907F4FEA4101EAD1D6
:108670004B4BD3F87C31012B0AD14FF4BE70FFF77E
:10868000B5FE4FF0A04344F00044D3F810350393F7
:10869000E3B2D3B1434F01260025344210D0AB00E2
:1086A00003F1804303F5C043D3F81005D3F8101548
:1086B00057F8253023B1C1F30141C0F30420984796
:1086C0000135082D4FEA4606E7D1002C61DA002279
:1086D0004FF0FF33CDE90423DFF8C880DFF8C890FE
:1086E000002637464FF0A04B19F9014B631C45D0CB
:1086F000C4F3C20318336B440122E5B204F03F0017
:1087000004F0070402FA04F413F8042C224235D0D2
:1087100008EB0002AD0992F9302058F822A0BAF116
:10872000000F09D1032D29D104A901930090FFF76F
:1087300079FEDDE9000301E0032DF5D000F5E071DD
:1087400013F80C3C5BF821102342C1F3014105D022
:10875000022913D1032D0CD1294604E003290DD1A0
:10876000032D06D1022100900136FFF74BFE009841
:10877000F6B2BAF1000F01D02946D0470137042FD5
:10878000B2D136B14FF0A043039AD3F810359342DB
:1087900002D107B0BDE8F08F0393049B05939DE7DA
:1087A00000600040403F0020903F002070B5EFF394
:1087B000108672B60C4A946801239CB993600B4BE7
:1087C0000B4DD3F8801029401160C3F88050D3F8C6
:1087D000841051604FF0FF32C3F88420047006B952
:1087E00062B670BD0370FAE79C3F002000E100E034
:1087F000FC06FFBD084B9A6810B55AB150B9EFF3AB
:10880000108172B6054A1C6814605C6854609860F8
:1088100001B962B610BD00BF9C3F002000E100E03E
:1088200010B5034653E8000F40EA010243E8002474
:1088300094F0000FF6D110BD10B5034653E8002F99
:1088400042EA010043E8000494F0000FF6D110BDA5
:1088500010B5034653E8002F02EA010043E8000484
:1088600094F0000FF6D110BD0121FFF7D9BF1FB55D
:108870000021039001AA44F20100CDE90111FEF7A5
:1088800001FB05B05DF804FB10DF704711DF704796
:1088900013B504460949684600F0D0FD019808B9AF
:1088A00002B010BDD0E900212046904718B16846BB
:1088B00000F0CEFDF2E71120F2E700BF48AA020067
:1088C00013B504460749684600F0B8FD019B0BB993
:1088D00002B010BD2046D3E900219047684600F061
:1088E000B7FDF3E760AA0200064B9A6822B11A6846
:1088F00022F480021A607047034B4FF48002C3F8E1
:10890000802070479C3F002000E100E00B4991F877
:1089100016335A09EC231341DB0706D5084B9A6836
:108920003AB94FF480030B60704742F20200FFF740
:108930009EBF1A6842F480021A60704700E100E0AE
:108940009C3F0020F7B5194F3C7864BB184E0125B9
:1089500020463570FFF79CFF112821D02046FFF7F5
:10896000AFFF144B8DF80340186801900DF1030020
:10897000FFF71CFF104901A8FFF786FF0446B0FA75
:1089800080F0400938709DF80300FFF733FF3CB9D1
:108990000A4B34701C70FFF7B9FF2846FFF790FFB1
:1089A000204603B0F0BD0824FAE700BFA93F00202D
:1089B000A83F002041AA0200856E0200AA3F0020C5
:1089C000F7B5154F3B781BB3144E01203070FFF7FD
:1089D0005FFF11284FF000051CD00220FFF770FF49
:1089E0000DF107008DF80750FFF7E0FEFFF74EFF8F
:1089F00004469DF807003D70FFF7FCFE2CB90320EC
:108A00003470FFF771FFFFF75BFF204603B0F0BD46
:108A10000824FAE72C46F8E7A93F0020A83F0020E9
:108A2000054B1B7833B1054B1B780BB1FFF7C8BF63
:108A3000FFF788BF08207047A83F0020A93F00200B
:108A4000014B1878704700BFA93F002007B50849BF
:108A5000684600F0F3FC019B13B903B05DF804FB1A
:108A6000D3E900209047684600F0F2FCF3E700BF2E
:108A700054AA0200FFF7EABF60DF704769DF704762
:108A800061DF704730B5134B1B7891B0FBB1124DCD
:108A900034240DF1020103A8ADF80240FFF7F0FF06
:108AA00070B9294601A800F0C9FC029B002BF0D048
:108AB00003A8D3E90021904701A800F0C9FCF4E71E
:108AC000052804D011B0BDE83040FFF7D0BE11B08A
:108AD00030BD00BFAB3F00206CAA02007FB50D4641
:108AE00000293BD000241E4A0A60CDE90144062338
:108AF00001268DF8040001A92020ADF80830039468
:108B00008DF80660FFF7BAFF2A68039401A9402098
:108B1000CDE901448DF80560FFF7B0FF02232A6814
:108B2000039401A93046CDE901448DF80430FFF7E4
:108B3000A5FF4FF4B0632A68019301A9A120CDE9F4
:108B40000244FFF79BFF2A68039401A9A020CDE906
:108B50000144FFF793FF204604B070BD0E20FBE7F1
:108B60000030002008B5FFF787FF10B9014B012244
:108B70001A7008BDAB3F00204BDF70471FB50E4C8D
:108B800001A8FFF7F9FF70B9214602A800F056FCD2
:108B9000039B002BF4D00198D3E90021904702A851
:108BA00000F056FCF4E7052804D004B0BDE81040FE
:108BB000FFF75DBE04B010BD78AA0200A8DF7047C1
:108BC000F0B5074689B014461E460D4611B9084651
:108BD000FFF74DFE14B92046FFF749FE2022002181
:108BE000684601F07DFE02238DF80D30084B0E9A89
:108BF0001888ADF800706946ADF80440ADF806403D
:108C000002958DF8116000F0D2FC09B0F0BD00BFF4
:108C1000E43F002030B587B041F60A035C4AADF866
:108C20000C30044603A901208DF80E00FFF7C6FFA3
:108C30000546002849D12288002A49D1228952B10B
:108C4000544B0093E16894F83C3042F62420FFF73F
:108C5000B7FF002847D1228A52B14F4B0093616978
:108C600094F83C3042F62520FFF7AAFF00283AD1BD
:108C7000228B52B1494B0093E16994F83C3042F6A3
:108C80002720FFF79DFF00282DD1228C4AB1444BAD
:108C90000093616A94F83C3042F62620FFF790FF7B
:108CA00008BB228D4AB13F4B0093E16A94F83C30F7
:108CB00042F62820FFF784FFA8B9236BABB9616B9C
:108CC000002938D1A36B002B42D1284607B030BD14
:108CD000354B0093616894F83C3042F62920FFF749
:108CE0006FFF0028AAD00546EFE71A688DF810201C
:108CF0001A68120A8DF811205A888DF81220DA7835
:108D00008DF813205A688DF814209B688DF8153063
:108D10001A0A1B0C8DF81730244B8DF8162000937F
:108D2000082294F83C3004A942F62320FFF748FFBC
:108D30000028C4D0D7E71E4B0A790093096894F83D
:108D40003C3042F62A20FFF73BFF0028BAD0CAE7A2
:108D50001A788DF810205A888DF81120120A8DF893
:108D600012209A888DF81320120A8DF81420DB88BF
:108D70008DF815301B0A8DF816300E4B0093072224
:108D800094F83C3004A942F65020FFF719FFAAE7F7
:108D9000E43F0020C43F0020DC3F0020B43F00201F
:108DA000AC3F0020E63F0020BC3F0020EE3F00200B
:108DB000D43F0020CC3F00206DDF704779DF704743
:108DC0007DDF704764DF70472DE9F04F85B00025E7
:108DD0000E9CBDF83CB0B4F800A001910746904647
:108DE0001E46A9463A884A450DDC45B12388013B19
:108DF000A3EB0A039BB2FF2B3AD806F80A300020F7
:108E000005B0BDE8F08F7A6852F82900039000227F
:108E10000DF10B0103A8FFF7D5FF0028F0D19DF855
:108E20000B20424521D12288002D14BF00200220B2
:108E300002EB0801014459451ADC3DB9013292B2F6
:108E4000019B2280B35422880132228022880DF1B6
:108E50000B01324403A8FFF7B5FF0028D0D12188C9
:108E60009DF80B200A442280012509F10109B9E788
:108E70000C20C5E72DE9F341089FBDF82480154675
:108E8000CDE90078022204461E46FFF79DFF50B947
:108E90003346102229462046CDE9087802B0BDE8C5
:108EA000F041FFF791BF02B0BDE8F0812DE9F04F2E
:108EB00000231788138090F82D3085B006460D46A4
:108EC00014465BB3082F01D80C2028E102A8FFF755
:108ED00073FF002840F023812388DDF80910082261
:108EE000EA54238801339BB21B222380EA5423884F
:108EF00001339BB2EA182380E950BDF80D3093800E
:108F000023889DF8082006339BB212F0FE0218BF9A
:108F100001222380EA54238801332380B378FBB1F4
:108F200023880433BB42CFD802A8FFF747FF0028AD
:108F300040F0F58023880322EA54238801339BB252
:108F400019222380EA542388BDF8082001339BB2FC
:108F5000E9182380EA54120A4A70238802332380D6
:108F6000F2789AB12388D91CB942ADD80221E954CC
:108F7000238801339BB201212380E95423880B44C9
:108F80009BB22380EA5423880B4423807268AAB1E1
:108F90002388D91CB94297D8022192F90020E954BC
:108FA000238801339BB20A212380E95423880133AB
:108FB0009BB22380EA542388013323803389002B1A
:108FC00040F0A180338A5BB1CDE900472B460722F0
:108FD000032106F11000FFF74DFF002840F09F80AD
:108FE000338B5BB1CDE900472B461522142106F1E6
:108FF0001800FFF73FFF002840F09180326A002AF6
:1090000040F09080D6F82480B8F1000F30D0B8F846
:1090100004302188981C8A1C0244BA423FF654AF9F
:10902000FE283FF651AF03336B54238801339BB2C4
:10903000FF222380EA54238801339BB22380B8F8AF
:109040000020EA54E918120A4A702088023080B2DF
:109050002080B8F804205AB1D8F8081000296BD045
:10906000284401F02FFC2388B8F8042013442380FF
:1090700096F82C30002B40F09880307800284ED0A5
:109080003388012B58D0228802F1020CBC453FF6F0
:109090001BAF012805D17378023313449F42FFF4BC
:1090A00013AF023FBF1ABFB202A905EB0C00ADF827
:1090B0000870FFF785FE90BB3178BDF808300229B3
:1090C00000F0B98072789A4202D39F4280F0B1805A
:1090D000012940F0B280974293B2C0F0AE80ADF863
:1090E00008300821BDF80830FE2B3FF6EDAE22888F
:1090F0000133AB542288013292B22280A9542288D3
:10910000134423800BE0CDE900472B4606220221C1
:1091100006F10800FFF7AEFE00283FF453AF05B09C
:10912000BDE8F08FB4F800C00CF10603BB423FF677
:10913000CBAE1188052901D80720F0E76FF4486EFF
:1091400001EB0E039BB24FF27D3E7345F4D9538879
:10915000052BF1D96FF44860181880B27045EBD92F
:109160004FF6FF70814201D09942E5D8052305F8FA
:109170000C30238801339BB212212380E9542388C9
:1091800001339BB223801188E954E818090A417021
:10919000238802339BB223805288EA54E918120ACA
:1091A0004A702388023323802CE7B36A002BC3D094
:1091B0004FF000084FF00C0A4FF0160BB16A5FFA3F
:1091C00088F20AFB02F201EB0209B9F80430981C9C
:1091D000FE283FF679AE208803332B5423880133D1
:1091E0009BB2238005F803B0238801339BB2238010
:1091F0008A5AEA54E918120A4A702088023080B26A
:109200002080B9F804205AB1D9F80810002993D069
:10921000284401F057FB2388B9F804201344238025
:1092200096F82C2008F101085FFA88F39A42C5D815
:1092300023E7092156E79F42FBD2ADF8087050E7BB
:1092400070B5C0B14AB116880024B44203D30519E1
:109250006D789D4208D0A14201D800200BE0055D49
:1092600001352C44A4B2F0E7A142F6D9A31C138027
:10927000005D013880B270BD13B513460022ADF811
:1092800006200DF106020446FFF7DAFF10B1BDF823
:109290000630E01802B010BD90DF7047A5DF7047C0
:1092A000B5DF70471FB50023ADF80810ADF80A1000
:1092B0006A4602A9ADF80C30ADF80E300093ADF857
:1092C0000430FFF7E9FF05B05DF804FB78B14FF01B
:1092D000171303601B2303711723C380038141F617
:1092E0001B320023016143818281184670470E20A2
:1092F000704720B1172904D10180002070470E204B
:1093000070470720704713B5034680880C46A0B904
:109310001A88242A7CD012D8112A56D0232A00F089
:109320008780102A2ED0A37A3BB1E1880020FFF776
:10933000B5FF10B94FF48073638102B010BD3A2AB3
:109340004BD0552AEFD1DB88C988A072172B38BFC4
:1093500017238B4228BF0B462381FFF7A1FFE27A38
:10936000002AE0D12369002BDDD040F67721ADF84B
:1093700002202289ADF80010ADF80420694620468D
:109380009847D0E7DB7B0A790A73012B13D0022BB5
:1093900014D0E18823898B4205D20020FFF77EFF9D
:1093A00070B90123E372217B637B8B42BBD2002027
:1093B000FFF778FFB7E70B88E380EAE74B88FBE726
:1093C000112804BF0123A372EDE71723CB800B8183
:1093D00041F61B3348818B81A5E75B89CA8893429C
:1093E00028BF1346172B0A6938BF17230B8162B1B8
:1093F000C97A51B140F67721ADF80010ADF80200FE
:10940000ADF80430694620469047002363818AE71F
:109410001A7A0B694A73002B85D04DF67A218DF8A4
:109420000500ADF80010ADF802008DF80420A5E7A6
:10943000197A237B994228BF1946B9E70B684A6815
:109440004360934208BF0023016008BF4360704738
:10945000436843B10268916852680B449342436089
:1094600004BF00234360704773B50191019C064619
:109470006CB100252C46294601A800F08AFA18B1E3
:1094800006EB440301349D800135142DF3D13046A1
:10949000346002B070BD00002DE9F0470388848875
:1094A000112B8CB005463DD01A2B42D0102B19D170
:1094B000DFF8C080D8F80830DB430093D8F80410F8
:1094C0006846FFF7C5F9009901A8FFF7CDFF0DF138
:1094D00008090027019B9F4207D3132C12D90420AF
:1094E000FFF7C5F90CB0BDE8F08739F802AB0026EC
:1094F0000136514608EB860000F041FA1D2EF7D1E7
:109500000137E7E71648214600F030FA15482146B2
:1095100000F02CFAEB7B012BE4D01348214600F03D
:1095200025FADFE70E4821460CB0BDE8F04700F011
:1095300026BA037A0D481F2B4FEA131521460AD984
:1095400000F014FA022D0A482146EDD00CB0BDE817
:10955000F04700F00BBA00F012FA05482146E3E7A5
:1095600000400020FC3F0020044000200840002074
:109570000C400020F83F0020AADF7047002301388C
:109580000B70042806D8DFE800F00306080A0C0078
:1095900011230B7070472123FBE73123F9E71223D6
:1095A000F7E72223F5E7008800F001007047F0B5E7
:1095B0008B7891B00C46012B38BF012300278DF822
:1095C0000E3005460B88607CADF80C306946ADF86E
:1095D00000708DF80270FFF7D1FFA07C0DF1010142
:1095E000FFF7CCFF1646237BE27B217D43EAC203D3
:1095F000227C43EA02139DF80220B94222F01902AC
:1096000003F0190314BF02210121134361F3420344
:109610001C22394609A88DF8023001F061F9637BFC
:1096200013F0300F14D00DF10901E07CADF8087093
:109630008DF80A70FFF7A2FF11238DF808309DF80E
:109640000A30012102AA61F342038DF80A300E921A
:10965000637B8DF82430A37B8DF825300023CDE982
:109660000633089303AB0493A388ADF81C30A368BA
:10967000CDF814D01BB1E288ADF818200893A36987
:1096800073B301A90022ADF804208A701A88ADF8DE
:109690002C205A88ADF82E205A680D91187B0A921A
:1096A000FFF76CFFA3690DF10501587BFFF766FF1B
:1096B000A3699A7A197A41EAC201DA7A9B7B41EA74
:1096C00002119DF80620002B01F0190122F0190269
:1096D00014BF02230123114363F342018DF80610E6
:1096E000E36903B10C93334604AA09A92846FFF79E
:1096F00043FF11B0F0BD75DF704776DF70477ADF4A
:1097000070477BDF70470000034B1A8882420CBF12
:1097100018460020704700BF8C400020024B9B6918
:1097200003B11847704700BF7040002073B585B281
:109730002846FFF7E9FF044638B3174E027A337B19
:109740009A420CD200F10A012846FFF7D4FFF0B18B
:1097500011281AD002B0BDE87040FFF7DFBF002328
:109760000372337C43B13B212846FFF7C6FF30F03C
:10977000080301D0FFF7D2FF736933B100228DF8DF
:109780000420ADF8065001A8984702B070BD237AB6
:1097900001332372F9E700BF7040002037B50B4654
:1097A000497A0F4A79B9D2E901141D7A0246002D8F
:1097B00018BF2146586800F049FB78B103B0BDE8F6
:1097C0003040FFF7ABBF00211972536933B101225A
:1097D000ADF806008DF8042001A8984703B030BD0D
:1097E000704000204B8802889A4212D842889A42E0
:1097F0000FD380888B8840F2F311884294BF021AFD
:10980000421A9A4205D80844984234BF00200120E9
:1098100070470020704700000388122B70B5014686
:1098200059D004D8102B1ED0112B44D070BD502B12
:10983000FCD12F4BC288DB899A42F7D1038A022BD5
:10984000F4D186883046FFF75FFF05460028EDD04B
:1098500001F11200FFF7A7FE38BB686800F03EFB7D
:109860000028E3D009E0C37B012BDFD14FF6FF7066
:10987000FFF74AFF054620B90420BDE87040FFF716
:109880004DBF1C4A8E880680002303721368C0F8FF
:109890000A305368C0F80E3010310A30FFF7A2FFCB
:1098A000134B6872DB89002BC0D129463046BDE8D6
:1098B0007040FFF773BF8088FFF726FF044600283B
:1098C000B4D0406800F00AFB08B1FFF727FF4FF65D
:1098D000FF732380AAE786883046FFF715FF054609
:1098E0000028A3D008310A30FFF77CFF6872DCE75C
:1098F00070400020A0400020F8B5064648B3054659
:109900000FCD154F3C460FC495E8070084E80700CB
:109910003068124C3C60B0B1FFF7F1FEC0B932685C
:1099200013682360536863600D480E4A4FF6FF7357
:1099300003800D4B40F8043F002100F075FA002829
:1099400018BF032004E02046FFF7DBFE0028EBD021
:10995000F8BD0E20FCE700BF70400020A0400020B2
:109960008C4000202D970200A840002001F01F022B
:109970004B090121914000EB8300FEF75DBF01F030
:109980001F0301229A404B0900EB8300D143FEF7ED
:109990005FBF4B0901F01F0150F82300C84000F0E1
:1099A00001007047094B5A7899780132D2B291423E
:1099B00008BF0022197891421FBF02705878182200
:1099C00002FB003014BF043000207047C840002064
:1099D00073B5054600240DF107000E468DF80740CB
:1099E000FEF7E4FE0DF10600FFF7DCFF90B1067014
:1099F000094B9DF8062045605A709DF80700FEF758
:109A0000F9FE24B9054B4FF48012C3F8002120461B
:109A100002B070BD0424F0E7C840002000E100E07F
:109A2000024B4FF43C6043F00103184790AA020038
:109A300038B50C4B0C4C4FF40032C3F88020012594
:109A40004FF48033C4F84833C4F808336560FFF737
:109A5000E7FF064BA56000241C60FFF7E1FF044B05
:109A60001C7038BD00E100E000100140E44100201E
:109A7000D5410020F8B51F4B1F491B680025C1F8D0
:109A80004051C1F84451C1F84851C1F84C51C1F896
:109A90000051C1F804514BB3D1F804451749096886
:109AA000641A24F07F442F461A68A24209D8A41AE7
:109AB00015441A7CDE691AB1D3E905201F7490475A
:109AC000AEB90F4A0F4B11781B788B4205D1013389
:109AD000DBB2022B08BF0023137012780A4B43F845
:109AE00022500A4B4FF48012C3F80021F8BD3346D0
:109AF000DAE700BFE841002000100140E441002007
:109B0000E1410020E0410020D841002000E100E0D8
:109B10002DE9F04FA14AA24913780978A14D994245
:109B200085B03CD00133DBB2022B08BF0023137099
:109B30009D4912789D4B0F6853F822003B1823F083
:109B40007F4300220B602B6816461446944613B9D7
:109B500042B12B6006E0196881420ED902B12B6038
:109B6000091A196001272B68DFF848A201934FF00A
:109B70000008BEB9DFF844B260E0401A0C44D9686E
:109B8000D3F81CE0C3F800C031B13A1922F07F428B
:109B9000C3E90121DE611E4673460122D7E7002694
:109BA0003746E0E73446F6697F4B60681B68DFF8AC
:109BB00010C2A168C21A22F07F42624500F2A6805C
:109BC0000A442260012222742A680023C4E9013376
:109BD000E361002A40F0A3802C60CAE79BF80210E2
:109BE0005A1CD2B291428BF8002004BF00228BF89D
:109BF0000020182202FB03B32A6819799C68022905
:109C000075D003297FD0012918D1207CB0B9D3E9C0
:109C10000312A2605A69E2609A69654BA2611A78E0
:109C2000002A18BF01466160BEE78C4200F09480B4
:109C30008946C9690029F8D1002323749BF80030B4
:109C40009BF801209A42C9D12B68B8F1000F04D1CA
:109C5000019A9A4201D1002F43D0002B79D0D3F83A
:109C600000A0544D504BD5F804751C68DFF85481A2
:109C70003E1B98F8003026F07F4603369BB94FF420
:109C80008033C5F84433C5F804334B4B4FF40032EE
:109C90004FF00109C3F880211A60C5F80090FFF762
:109CA000BFFE88F80090B2452CBF5444A41924F09C
:109CB0007F44C5F84045D5F80435DB1B23F07F43CE
:109CC000E41B033324F07F44A3420AD9D5F80435BA
:109CD000C5F84035FFF7A4FE374B4FF40032C3F808
:109CE0000021334B00221A7005B0BDE8F08F1146F9
:109CF00091469FE71174D2690123002AFAD1002B03
:109D00009CD02A609AE700231946F6E71B1A23F035
:109D10007F438B4234BFCB1A0023236052E7216874
:109D20001368994213D85B1A1360E26154E7091A69
:109D3000D8691A4638B1034618688842F7D3401AE2
:109D40001860184613462160E061DC6111E7134694
:109D5000F2E7FFF76DFEC4E74C4511D1D3692B60E4
:109D600073B9DFF844E00120CDE90212CAF8080017
:109D7000CEF800300E4B1870FFF752FEDDE90212EC
:109D80000B68C969C9F81C1011B1086803440B605D
:109D90002B68934218BF4FF001084DE7E0410020C7
:109DA000E1410020E8410020E4410020D8410020AA
:109DB000D44100200010014000E100E0C840002034
:109DC000FEFF7F00D541002008B5FFF731FE104BA4
:109DD00000200B2218809A700E4B18600E4B1870E2
:109DE0000E4B18700E4B4FF48012C021C3F8802127
:109DF00083F814131A6002F18042A2F56F22C2F8B0
:109E0000080583F81113074BD2F804251A6008BD22
:109E1000C8400020E8410020E0410020E14100204E
:109E200000E100E0E4410020074B9B784BB132B1E8
:109E300028B10368187C20B959745A61704707200B
:109E400070470820704700BFC84000202DE9F74345
:109E5000DFF8848098F8023005460E461746ABB30B
:109E6000A0B3042930D9436983B3437C0024012B78
:109E70000DF107000CBF8946A1468DF80740FEF79B
:109E800095FC0DF10600FFF78DFDD8B1012303709D
:109E90000F4B4560D3F80435C0E90497C0E902369A
:109EA0009DF8063088F801309DF80700FEF7A2FC07
:109EB00024B9084B4FF48012C3F80021204603B0A8
:109EC000BDE8F0830424EFE70724F7E70824F5E76B
:109ED0000010014000E100E0C8400020064A9278EE
:109EE0003AB130B1426922B1002202740221FFF777
:109EF0006FBD0820704700BFC840002072DF704768
:109F000073DF704738B5012204460D46B0F83812A9
:109F1000D0F83402FFF7B0F900B1057004F13C024B
:109F200004F50D7104F15400BDE83840FFF7E6BFB9
:109F300080F830107047F8B504460F46002973D0FA
:109F4000002871D091F87A301BB191F89830002B2D
:109F50006CD1D7F8A030042B68D0D7F89C30042BF4
:109F600064D04FF0000C84F802C007F178060FCEE1
:109F7000251D0FC50FCE0FC596E8070085E8070021
:109F800084F830C0D7F8A4306363D7F8A830A3634F
:109F900004F50D724FF6FF73C4F84AC2A4F84832B4
:109FA000C4F84422C4F84DC222780AB984F8543067
:109FB00094F82430002B14BFEE231F2304F1550125
:109FC000C4F83412A4F8383204F50E723846FEF79D
:109FD0006DFF40BB94F82430002B14BFEE231F23E9
:109FE00004F24311C4F83C12A4F8403204F5107294
:109FF00007F13C00FEF75AFFA8B9A369A4F848305E
:10A000004FF480730125A4F8503063692064014641
:10A0100084F83C50636404F13C0204F15400FFF7FF
:10A020006DFF00B92570F8BD0E20FCE70720FAE7A8
:10A03000F8B5067804460D46002E00F00381002393
:10A04000C0F84A32C0F84D32C388817000F24A2706
:10A050000BB1012903D0E37943B1022D06D1636B23
:10A06000A3B1012284F851220820984704F24B2220
:10A0700004F2512112F8013B5BB99142FAD16A1EF8
:10A08000032A4FD8DFE802F0070D111484F851328B
:10A09000ECE73346F3E7A2791AB194F8242002B929
:10A0A0005BB9E2790AB1002B3ED1237A002B3DD176
:10A0B000637A002B0CBF00250425636BA570002B71
:10A0C00036D0033D012D33D862798AB394F85222F9
:10A0D00072BB84F85422012284F853220720984747
:10A0E00004F13C0518220021284600F0F9FBE26A41
:10A0F0000123511E994284F83C3098BFD3B284F8B2
:10A10000513094F8243088BF00261BB1A6B1A26A52
:10A1100084F85220A278042A1ED8DFE802F07A0FD1
:10A1200025385C000025C8E70225C6E70325C4E7FB
:10A13000002384F85332D3E70122E9E7012384F8AE
:10A1400031300023C4E91073C4F84432022384F888
:10A150003C308023A4F84830A378002B5DD1636B9A
:10A16000002B6BD1002068E0002B14BF07230323D2
:10A1700084F83C302369A4F8483000230222C4F854
:10A180004432E36884F8312027646364E4E7626959
:10A190006264A269A4F8482013B1062384F83C3015
:10A1A0006379B3B194F852329BB994F8543283B1C5
:10A1B000022384F8503004212046FFF7A3FE002834
:10A1C000CAD1052384F8313004F50D73C4F8443244
:10A1D000C2E70323F6E7E2696264226AA4F8482032
:10A1E00013B1062384F83C30637983B194F852327A
:10A1F0006BB994F8543253B1022384F850300421DF
:10A200002046FFF77FFE0028A6D10623DAE70423C5
:10A21000D8E7002384F831309EE7D4F844122A4668
:10A2200004F15400FFF76AFE38B994F8301094F83E
:10A230005400FFF765FE002891D0F8BD94F8310076
:10A2400098478FE70820F8E70388112B10B50C46D4
:10A250000AD0262B1FD0102B05D1C37B012B02D196
:10A260008388A1F8483210BD0022838881F85222E9
:10A27000B1F848229A42F6D10B79002BF3D1012193
:10A280002046FFF7D5FE0028EDD0A36B002BEAD0C7
:10A29000BDE810401847037A013B012BE3D88978C9
:10A2A00005230131B1FBF3F303EB8303C91AC9B2F0
:10A2B000E6E770470B4610B4114628B123B103609E
:10A2C0005DF8044B1B6818470E205DF8044B70477F
:10A2D0002DE9F04308B302B3D0F800E0BEF1000F5F
:10A2E0001ED0FBB14568D5F80490B3FBF9F509FB26
:10A2F0001535BDB942EA010C1CF0030F14D1C56835
:10A30000A94211D34D1EEC180569AC420CD8DEF8F9
:10A310000C40A446BDE8F04360470E20BDE8F08342
:10A320000820FBE70920F9E71020F7E7F0B5D8B1DE
:10A33000D0F800C0BCF1000F18D0CAB14568D5F8FC
:10A3400000E00EF1FF350D4214D1C568A94211D3CA
:10A350004D1E0EFB02540569AC420BD8DCF81040D0
:10A36000A446BDE8F04060470E20F0BD0820FCE7A1
:10A370000920FAE71020F8E729DF704728DF704747
:10A3800070B503689E6886B004460D466EB114220F
:10A390000021684600F0A4FAA3680593237901958B
:10A3A0002BB1012B0DD06846B04706B070BD01231C
:10A3B0008DF8003023690293E36803936369049383
:10A3C000F1E702238DF80030E3681B030293F5E701
:10A3D0000846704700207047024B187A003818BFB3
:10A3E0000120704788420020034B187A0122B0FAFE
:10A3F00080F05A74400970478842002008B5104622
:10A400001A4600F05FFA002008BD000008B51422CB
:10A410000021044800F064FA034800F04AF90020E3
:10A4200008BD00BF884200207842002010B5094CCA
:10A43000094B43602046FEF717FA40B9FEF700FBD0
:10A44000064920741C2306488C2200F01FF90020C6
:10A4500010BD00BF8842002098AA0200EC410020F5
:10A460007842002038B5234D234C2B7A3BB9234941
:10A47000234800F07AF9206008B9686038BD0223EB
:10A4800024682B72237973B1012B24D02046032139
:10A49000FFF776FF00232B726B6018491848BDE860
:10A4A000384000F08DB9D4E90523D21AB2F5806F97
:10A4B000D4E9031028BF4FF480629208012A38BF04
:10A4C000012219441844FFF757FF50B11128DDD17C
:10A4D00001232B72D2E7D4E903031844FFF74EFFA0
:10A4E000F3E72B7C002BC9D1BDE83840022000F0F7
:10A4F00009B800BF88420020A04200209C420020F2
:10A500007842002038B5234C237A002B41D0022B0F
:10A5100009D1032830D0204B00221B68E2601A7951
:10A520003AB1012A22D0637C7BBBBDE83840FFF7FB
:10A5300099BFD3E905128D1AB5F5806F94BF5219F2
:10A5400002F580629A619142EDD102284FF000033A
:10A5500008BF19462372104B18BF0D211868FFF76A
:10A560000FFF0E490E4800F02BF9DCE71A690132A3
:10A570001A615B699A42E7E7E3680133082B01D867
:10A58000E360D0E70023E360DFE7BDE83840FEF793
:10A5900047BA38BD88420020A04200209C420020DB
:10A5A00078420020831E012B01D8FFF7ABBF704714
:10A5B00000F0FD03012B08D1044B00225A74421E07
:10A5C000504250411874FFF74DBF70478842002039
:10A5D00010B5064C201DFEF747F928B9637C1BB95E
:10A5E000BDE81040FFF73EBF10BD00BF884200200D
:10A5F0002DE9F34180460D46104801A916461F4635
:10A6000000F079F80446B0B118220021043000F0BF
:10A6100067F92D0B0123237101A90848C4F80080B4
:10A62000A760E560666100F090F8FFF7D1FF0020B9
:10A6300002B0BDE8F0810420FAE700BF78420020B4
:10A640002DE9F34180460F460F4801A916461D46E5
:10A6500000F051F80446A8B118220021043000F09F
:10A660003FF9089BA36001A9C4E903670648C4F841
:10A670000080656100F069F8FFF7AAFF002002B0D2
:10A68000BDE8F0810420FAE77842002010B561B1FE
:10A69000B2FBF3F403FB1424A4B244B9C0E90014E0
:10A6A00084608281C381204610BD0E20FCE7092012
:10A6B000FAE782B050E8022FC188B2EB324F4FF078
:10A6C000000317BF92B241EA014142EA014104E0AE
:10A6D0004268B2EB324F08BF012340E80212002A61
:10A6E000E8D18DF807309DF80730002B0CBF112002
:10A6F000002002B0704737B550E8013F9DB2C489D1
:10A7000025448489A54228BF2D1B0489A54202BF88
:10A71000BFF32F8F002207E0C5EA030540E801548C
:10A72000002CE9D14FF001028DF803200193019A2A
:10A730000A609DF8031001F0FF0321B1006810FAD0
:10A7400082F003B030BD1846FBE70A884B889A4276
:10A7500009D150E8012FC2EA024240E80123002B50
:10A76000F7D1012070470020704737B550E8023F0D
:10A770001FFAA3F5C488A54202BFBFF32F8F0022A2
:10A780000DE0C48925448489A54228BF2D1BC3EA56
:10A79000054540E80254002CE8D14FF001028DF845
:10A7A00003200193019A0A609DF8031001F0FF0352
:10A7B00021B1006800EB124003B030BD1846FBE742
:10A7C0000A884B889A4209D150E8022FC2EA2242F5
:10A7D00040E80223002BF7D101207047002070478A
:10A7E00003462AB110881A4619448A4203D1704799
:10A7F0004FF6FF70F7E712F8013B40BA80B25840BD
:10A80000C0F30313584080EA0033580100F4FF50AE
:10A810009BB25840E9E700000649074A074B9B1ADC
:10A8200003DD043BC858D050FBDCFDF7D1F9FBF742
:10A830000BFD000064AB020000300020C43000209B
:10A84000FEE7FEE7FEE7FEE7FEE7FEE7FEE7FEE7E0
:10A85000FEE7FEE708B5074B044613B10021AFF34E
:10A860000080054B1868836A03B19847204600F0C2
:10A8700047F800BF00000000C4AA020070B50D4DEB
:10A880000D4C641BA4100026A64209D10B4D0C4CA4
:10A8900000F038F8641BA4100026A64205D170BD54
:10A8A00055F8043B98470136EEE755F8043B9847C6
:10A8B0000136F2E7A8300020A8300020A8300020A0
:10A8C000AC3000200A44914200F1FF3300D17047C0
:10A8D00010B511F8014B03F8014F9142F9D110BDA9
:10A8E00002440346934200D1704703F8011BF9E785
:10A8F000034613F8012B002AFBD1181A01387047C0
:10A90000FEE700BFF8B500BFF8BC08BC9E46704724
:10A91000F8B500BFF8BC08BC9E467047696E666F0C
:10A92000203A20434F494E45535F496E7465726E1D
:10A93000616C5F56322E392E305F52432D323336E2
:10A940002D67663831643261316131207C204E6F71
:10A950007620323820323032332C30393A33313AA3
:10A960003030207C204743432031302E332E31209D
:10A970003230323130383234202872656C65617380
:10A980006529000000A000400204000000A0014072
:10A990000306000000B001400406000023D1BCEA19
:10A9A0005F782315DEEF1212000000004E49434C81
:10A9B0004120284446552900426F7363682053653F
:10A9C0006E736F7274656320476D6248004150502A
:10A9D000332E30000800180000009001080000002D
:10A9E000356B0200000000000100A30960000001B7
:10A9F000000000000080020000000F0003000000C3
:10AA000000000000E96A02000000000000000000F1
:10AA10000338FDD8704700001F0000001F00000031
:10AA20000000980106000000000000000000000087
:10AA30000338FDD8704700000040004001000000CE
:10AA400000010000070000003CAB020044AB020024
:10AA5000080000002CAB02003CAB02000800000024
:10AA600044AB02005CAB020008000000F4AA020044
:10AA70002CAB020008000000CCAA0200F4AA0200DD
:10AA800008000000000000000000000000000000BE
:10AA90000338FDD8704700000010000004000000DB
:10AAA000010000002DA402000DA40200FDA302007D
:10AAB00041A60200F1A50200D1A30200D5A3020025
:0CAAC000D9A30200483000200000000074
:10AACC00B97D020000000000A57E0200000000001D
:10AADC00A5A5020000000000B3A202007431002002
:08AAEC00B3A20200C03B0020F0
:10AAF400999402000000000049A202007431002071
:10AB040007930200CC33002049A20200C03B00207E
:10AB140007930200503E0020199802000000000034
:08AB2400616A0200000000005C
:10AB2C00858A0200000000007D8B020000000000FE
:08AB3C00E9A302000000000083
:10AB4400CD7D0200000000008D7F020000000000A7
:08AB5400B1A5020000000000A1
:08AB5C00E4B6FF7F01000000D8
:10AB64001CA902000100060000530000197602002F
:10AB740095750200857602006A01000019760200CC
:10AB84009575020085760200A3760200000000009D
:10AB94000400030300000000FFFF0000A4AA020059
:10ABA400020000000090D00300000000000000003C
:10ABB4000000000000000000000000000000000091
:10ABC4000000000000000000000000000000000081
:10ABD4000000000000000000000000000000000071
:10ABE4000000000000000000000000000000000061
:10ABF4000000000000000000000000000000000051
:10AC04000000000000000000256202000162020052
:10AC14000000000000000000FD6A020000000300C4
:04AC24000000080024
:040000032000A81918
:00000001FF
