:020000022000DC
:1060000000F80020C9A90200F1A90200F3A90200CA
:10601000F5A90200F7A90200F9A90200000000009A
:10602000000000000000000000000000FBA90200CA
:10603000FDA9020000000000FFA90200B1650200F6
:10604000D183020003AA0200F57B0200AD760200B4
:1060500003AA020003AA0200D587020003AA0200D5
:1060600003AA020003AA02004185020003AA02005B
:1060700003AA020003AA020003AA020003AA020064
:1060800003AA0200219C020003AA020003AA020044
:10609000BD9C020003AA0200F18B020003AA0200C9
:1060A00003AA020003AA020003AA020003AA020034
:1060B00003AA020003AA0200000000000000000082
:1060C00003AA020003AA020003AA020003AA020014
:1060D00003AA020003AA020003AA020000000000B3
:1060E00000000000000000000000000000000000B0
:1060F00000000000000000000000000000000000A0
:10610000000000000000000000000000000000008F
:10611000000000000000000000000000000000007F
:10612000000000000000000000000000000000006F
:10613000000000000000000000000000000000005F
:10614000000000000000000000000000000000004F
:10615000000000000000000000000000000000003F
:10616000000000000000000000000000000000002F
:10617000000000000000000000000000000000001F
:10618000000000000000000000000000000000000F
:1061900000000000000000000000000000000000FF
:1061A00000000000000000000000000000000000EF
:1061B00000000000000000000000000000000000DF
:1061C00000000000000000000000000000000000CF
:1061D00000000000000000000000000000000000BF
:1061E00000000000000000000000000000000000AF
:1061F000000000000000000000000000000000009F
:1062000010B5054C237833B9044B13B10448AFF3F0
:1062100000800123237010BDBC300020000000006E
:1062200068AC020008B5034B1BB103490348AFF348
:10623000008008BD00000000C030002068AC0200F3
:10624000A3F5803A704700BF174B002B08BF134BD4
:106250009D46FFF7F5FF00218B460F461348144A71
:10626000121A04F015FC0E4B002B00D098470D4B72
:10627000002B00D098470020002104000D000D489D
:10628000002802D00C48AFF3008004F0CFFB2000C0
:10629000290000F0CBF804F0B5FB00BF00000800B7
:1062A000000000000000000000F80020BC300020CA
:1062B000004600200000000000000000BFF34F8FE8
:1062C0000549064BCA6802F4E0621343CB60BFF392
:1062D0004F8F00BFFDE700BF00ED00E00400FA05AE
:1062E00018DF704713DF7047024B53F8203003B1BB
:1062F00018477047E430002010B5184802F0E6F85F
:10630000174B00241C70174B1C60174B1C60174B5D
:1063100019781C700229CAB205D0032A19D0012AA3
:106320001BD1FFF7CBFF0121114801F09CF80A2196
:106330000F4800F0DEFF20210D4800F0E8FF0A21A1
:106340000B4800F0D6FF21460948BDE8104001F097
:106350008AB8084B084A5A60E3E710BD14AB020044
:10636000D9300020DC30002068310020D8300020F7
:106370001430002000F80020434F494EF7B5234B5E
:10638000234D1B68234C2B602378234E03F0FF0121
:106390001BB32B6832689B1AB42B1CD91F48204FA3
:1063A00002F094F8002139702B68336023781D487F
:1063B0000133DBB223701C4BD3F810250124D2B279
:1063C00020FA02F223461548009402F0A4F813487C
:1063D00002F06EF83C7003B0F0BD2B683360237898
:1063E00010480133DBB223700F4BD3F81025012482
:1063F000D2B2234620FA02F20094084802F08BF849
:10640000064802F055F8064B1C70E4E7E030002027
:10641000DC300020D83000206831002014AB0200AE
:10642000D93000200024F40000A000401FB501F086
:10643000C7FD002001F07CFD002001F0E5FD0020FB
:1064400001F074FE01F066FE18B901F0A9FE002803
:10645000F8D04FF0E0234FF6FF125A61474AE0218F
:1064600082F82310002407229C611A6102F0BCF814
:1064700001F020F8424800F0E8FD01F0C7F841487B
:1064800000F06DFFCDE9014403943F4C02236846C0
:106490000093FFF725FF3D4BD4F804289A4214BF20
:1064A0004FF440334FF41833C4F80838D4F80808D0
:1064B000036803F16043013BB3F5803F0CD258B150
:1064C000B0F5183F08D0FFF70DFFD4F808385B6827
:1064D000984700F051FCFEE74FF01023D3F800225C
:1064E000013203D1D3F80432013325D0284B0122E5
:1064F000C3F80425D3F80024002AFBD04FF0102263
:106500004FF0FF31C2F80012D3F80024002AFBD06C
:106510004FF010234FF0FF32C3F804221C4BD3F886
:106520000024002AFBD00022C3F80425D3F800245D
:10653000002AFBD0FFF7C2FE164A1749174801F0A0
:106540004FFF4FF0A04316490C22C3F854270224F2
:10655000144A0C70152002F07FF80121152002F07A
:10656000F3F8114B114A5A654FF41830FFF7BAFE91
:10657000FF222146024800F005FDAAE700ED00E0F9
:10658000043000201430002000F00020424F4F540F
:1065900000E00140F96202002830002014AB020044
:1065A00000300020E9620200E43000207D63020038
:1065B000024A136801331360704700BFE0300020C7
:1065C000A8DF7047AADF7047ADDF7047AEDF7047C6
:1065D000B0DF704762DF70472DE9F0470E4694B098
:1065E0000546002800F0CF80002900F0CC804B68E1
:1065F000002B00F0C8804FF6FF730380634B04AAA2
:1066000003F1100C174618685968144603C4083380
:1066100063452246F7D141F230530DF10A01384665
:10662000ADF80830FFF7D6FF0446002840F0A780F9
:106630002A1D02A90120FFF7C3FF0446002840F0ED
:106640009E809DF80A70AF7101461C220DA804F0CF
:106650001FFA9DF83430A888ADF8044043F00403D5
:106660008DF8343041F23253ADF80C3004F0F803B9
:1066700043F003038DF806301423CDE90A440DF1ED
:106680000408ADF82C304FF0110A0DF10C0905F19A
:10669000080308AA0DA98DF80E700C94CDE908988E
:1066A0008DF805A0FFF78EFF27460446002866D127
:1066B00001461C220DA804F0EBF99DF83430A8889F
:1066C000ADF8044023F0180343F018038DF834307C
:1066D000AB798DF80E3041F23153ADF80C3007F044
:1066E000E80343F013038DF806301723CDE90A447D
:1066F00008AAADF82C300DA905F110030C94CDE9D2
:1067000008988DF805A0FFF75DFF0446002836D1F4
:1067100001461C220DA804F0BBF99DF83430A8886E
:10672000ADF8044043F002038DF83430AB798DF8B6
:106730000E3041F23453ADF80C3007F0F807022365
:10674000CDE90A4447F00307ADF82830ADF82C3006
:1067500008AA05F120030DA9CDE908988DF804A039
:106760008DF806700C96FFF72DFF044638B9736854
:10677000AB62B36803B1EB62054B01221A7020468D
:1067800014B0BDE8F0870E24F9E700BF2CAB02007F
:10679000B435002030B587B058B302884FF6FF7388
:1067A0009A4228D0154B1B782BB3154B0D0A10229B
:1067B000D9701D710D0C090E1A70072401229971F0
:1067C00000219A705C705D71CDF80B108DF80F1080
:1067D000018AADF808108DF80A200088ADF806404F
:1067E0000DF1060202A9CDE90423FFF7EFFE07B081
:1067F00030BD0E20FBE70820F9E700BFB4350020CC
:10680000B53500207FB550B302884FF6FF739A422A
:1068100027D0154B1B7823B3144B11221A700A0A88
:106820009A700A0CDA700522ADF806200022597021
:10683000CDF80B20090E8DF80F20028A1971ADF8E2
:10684000082001228DF80A2000880DF1060202A915
:10685000CDE90423FFF7BAFE07B05DF804FB0E2074
:10686000FAE70820F8E700BFB4350020B53500206E
:1068700010B586B020B304884FF6FF739C4221D038
:10688000114B1B78F3B1114B9A7000221024CDF8F4
:106890000B208DF80F20028A59701C700321ADF86F
:1068A00008200122ADF806108DF80A2000880DF1AD
:1068B000060202A9CDE90423FFF788FE06B010BD49
:1068C0000E20FBE70820F9E7B4350020B53500209D
:1068D00070B50D4688B0044650B149B1826A3AB1EC
:1068E0000B88502B48D005D8102B42D0112B53D0F9
:1068F00008B070BD512BFBD18B79022BF8D10989DF
:10690000028A9142F4D1AA7B043A022AF0D99DF876
:106910001620818A00888DF8103042F001028DF82F
:1069200016202A8AADF818206A8AADF81A2005F1D7
:10693000140207920022ADF8062001AAADF8043037
:10694000CDF808D0FFF740FE48B3E36A03B198479B
:1069500040F2FD132088ADF8143004A9FFF738FE8B
:106960000028C5D0E36A002BC2D008B0BDE8704053
:1069700018478B882380BBE7C98803899942B7D120
:1069800008238DF81030123535F8023C8DF8183098
:10699000059504A99047ABE74FF6FF73EAE7684611
:1069A00002F0D3FE0028D3D000262088ADF8146072
:1069B00004A9FFF70DFE0028D4D1297D4B1E072B1B
:1069C0003ED8DFE803F004192226282A3B2C6B8AE4
:1069D0008DF80460012B05D8062201212046FFF71F
:1069E00047FFBDE7012315358DF80C300295A36AEA
:1069F00001A9204698477BE76A8A01239A428DF8CD
:106A00000430F0D806220221E8E702238DF8043092
:106A1000EDE70323FAE70423F8E70523F6E76B8A9B
:106A2000022B02D803220821D8E7B5F81530ADF8BB
:106A30000830002B0CBF07230623E7E70923E5E70F
:106A40000322CBE7BFF34F8F0549064BCA6802F418
:106A5000E0621343CB60BFF34F8F00BFFDE700BF81
:106A600000ED00E00400FA0576DF70477ADF70473A
:106A70007CDF70477FDF70478FDF7047B1DF704783
:106A800011DF70470388212B13B5044620D00CD8A2
:106A9000112B19D0132B25D0102B11D019482146BA
:106AA00002B0BDE81040FFF713BF522B22D0562B87
:106AB00001D03B2BF2D1A0881321FFF7D5FFEDE7E2
:106AC0008288114B1A80E9E70F4B4FF6FF72F9E706
:106AD000002301A980888DF804308DF80530FFF778
:106AE000CBFFDBE7084800231A4685210088FFF723
:106AF000C1FFD3E7044800231A4619460088FFF770
:106B0000BDFFCBE7C841002030300020037823B917
:106B1000024B3B211888FFF7A7BF70473030002099
:106B2000436823B1062203214069FFF7A1BE027822
:106B3000012A02D0022A07D07047054B1968054B7D
:106B40001B689942EFD0704701221146ECE700BF65
:106B500014420020FC4100202DE9F3410B7805464A
:106B60000E46092B3CD8DFE813F031003E0046000A
:106B70000A001E002F00C700D0004A00D500694B54
:106B8000002219684FF4403003F002FF664B1B8867
:106B900083420CBF012205220421284602B0BDE831
:106BA000F041FFF765BE614B614D4FF44032C3F8D1
:106BB0000828604AC3F80428642445F001054FF40E
:106BC0007A40A847013CFAD1FFF73CFF5A4B01221B
:106BD0001A70544A00231360534A1380574A1360B3
:106BE00002B0BDE8F081544B0221197073681A7825
:106BF000012AF5D1D1E7504B03221A70F0E74E4B32
:106C00001978022917D003291AD00129E8D173680D
:106C10009A68444BB2F5A02F1A600AD20346120BB1
:106C2000474801324FF4403102B0BDE8F04103F073
:106C300054BC0322B1E773689A893B4B1A80CFE7B3
:106C4000404C414FDFF810813B78206871684FF469
:106C50007A7202FB03004044327A03F00BFF317A70
:106C60002368364E0B44236022683368B2F57A7F7E
:106C70000B44336003D02B4A1268934225D121681C
:106C8000C1F540311944236813F0030318BF23688A
:106C900022681CBF03F00303C3F104031344236001
:106CA00023680B44B3F5002F23D23A78236800956C
:106CB0004FF47A7000FB0282214803F0E0FB3B783E
:106CC00083F001033B7000232360204B1B78002BD3
:106CD00086D01F4C2388013B9BB22380002B7FF47E
:106CE0007FAF31682846FFF78DFD1A4B1B88238044
:106CF00076E7FFF7C5FEE2E7144B01221A70154A4A
:106D00008B881380124A13806AE7104A002313709D
:106D1000104AF8E7094B196802B0BDE8F041FFF7E7
:106D200039BD00BFFC410020F841002000F00020E8
:106D3000A0AB0200434F494E1D42002014420020E8
:106D4000A8300020C0350020BC3500201C420020A7
:106D50001A42002018420020C435002010B5054C0E
:106D60000021204602F078FB20461721BDE81040A4
:106D700002F085BB004200202DE9F041B0B03F4C4D
:106D800003F0F8F8002601F09BFE05A90120059606
:106D900001F062FF05A801F0A3FF2068616802AD61
:106DA00005AB03C30B22112335498DF80830284663
:106DB000FFF75EFE05A8FFF759FEFFF7CFFF04F1CE
:106DC000080393E8070085E8070029462D48FFF7E8
:106DD00003FC6069A16940276B463A4603C331460C
:106DE00005A803F055FE1423ADF81430264B069386
:106DF0000623ADF81C30254B0893254BCDF84CD01D
:106E00001D6807354FF0010828468DF8508003F0C3
:106E100047FEADF8340005A80E9501F0B9FFAC228D
:106E2000314605A803F034FE27971A4F1A4B0593F5
:106E300005A944F25063384628938DF890801C349D
:106E400003F053F94146384603F04CF90FCC05AD39
:106E50000FC594E8070085E8070005A802F01EFEAC
:106E60000321384603F0BEF90C4B0D481968324631
:106E700030B0BDE8F04103F0F4BA00BF64AB0200EB
:106E80003CAB0200C841002048AB02005DAB0200F1
:106E900010AB0200943D00200200000534300020B9
:106EA000A830002008B54FF0E023D3F8F03DDB0711
:106EB00000D500BEFFF7C6FD58B143684BB18368EB
:106EC0003BB1C3682BB14078B0FA80F04009404232
:106ED00070474FF0FF307047F8B5054618461C461E
:106EE000FFF7EAFF58B951B162B1A6686378284646
:106EF000B0470028A07018BF6FF00100F8BD4FF038
:106F0000FF30FBE76FF00400F8E713B5044601918A
:106F1000FFF7D2FFF8B90122234601A91046FFF777
:106F2000DBFFB0B9234601220DF105010220FFF776
:106F3000D3FF70B9234601220DF106010320FFF7AC
:106F4000CBFF30B9234601220DF107010420FFF7E2
:106F5000C3FF02B010BD4FF0FF30FAE71FB501903C
:106F6000FFF7AAFF58B9C5228DF80C20019B01221A
:106F700003A94020FFF7B0FF05B05DF804FB4FF018
:106F8000FF30F9E713B504468DF80720FFF794FFAB
:106F9000E0B9012914D0022906D061B923460122A3
:106FA0000DF10701322004E0234601220DF1070113
:106FB0001020FFF791FF2046FFF7D0FF02B010BD71
:106FC0000A4623460DF107012120F2E74FF0FF307A
:106FD000F4E770B5054618461C46FFF76DFF50B93B
:106FE00049B1666863782846B0470028A07018BF8A
:106FF0006FF0010070BD4FF0FF30FBE710B50246A7
:10700000FFF75AFF044620B9D36808469847204640
:1070100010BD4FF0FF34FAE737B50546FFF74CFFD8
:1070200080B9C5238DF8043001A92B4601224F20D9
:10703000FFF752FF322104462846FFF7DFFF2046C4
:1070400003B030BD4FF0FF34F9E737B500230546F4
:107050008DF80330FFF730FF30BB2B4601220DF1D6
:107060000301FFF7B6FF0446D8B99DF80330CE2BD5
:107070001DD12B702846FFF7CFFF044688B9142195
:107080002846FFF7BBFF07238DF806408DF8074021
:107090008DF804308DF8053001992846FFF735FF4B
:1070A0000446204603B030BD4FF0FF34F9E76FF0DF
:1070B0000504F6E758B143684BB183683BB1C36838
:1070C0002BB10078B0FA80F04009404270474FF091
:1070D000FF307047F8B5054618461C46FFF7EAFF33
:1070E00058B951B162B1A66823782846B047002844
:1070F000A07018BF6FF00100F8BD4FF0FF30FBE744
:107100006FF00400F8E71FB50022CDE900018DF80B
:107110000F20FFF7CFFFB0B99DF804109DF80520B0
:10712000009B0A439DF806100A439DF807100A4386
:107130008DF80F200DF10F0101220320FFF7CAFF88
:1071400005B05DF804FB4FF0FF30F9E71FB50022F2
:10715000CDE900018DF80F20FFF7ACFF98B99DF83D
:1071600004109DF80520009B0A439DF806100A4371
:107170008DF80F200DF10F0101220420FFF7AAFF67
:1071800005B05DF804FB4FF0FF30F9E707B500905C
:107190008DF80710FFF78EFF48B9009B01220DF113
:1071A00007010520FFF796FF03B05DF804FB4FF0E1
:1071B000FF30F9E71FB50022CDE900018DF80F205F
:1071C000FFF778FF98B99DF805109DF80420009B03
:1071D0000A439DF806100A438DF80F200DF10F01A8
:1071E00001220720FFF776FF05B05DF804FB4FF0A2
:1071F000FF30F9E710B586B002AC84E80600002243
:1072000001908DF81720FFF755FFC0B99DF80910C0
:107210009DF80820019B0A439DF80A100A439DF837
:107220000B100A439DF80C100A438DF817200DF13E
:10723000170101220820FFF74DFF06B010BD4FF0E7
:10724000FF30FAE71FB500220090ADF804108DF86A
:107250000F20FFF72FFF80B99DF805109DF804203F
:10726000009B0A438DF80F200DF10F010122092028
:10727000FFF730FF05B05DF804FB4FF0FF30F9E792
:10728000F8B5064618460D461C46FFF713FF78B9B9
:1072900071B1237867683046B847A0702B78002812
:1072A00018BF6FF00100FF2B08BF6FF00600F8BD9C
:1072B0004FF0FF30FBE71FB50190FFF7FBFEA8B9C9
:1072C000019B012203A90920FFF7DAFF019B50B9B6
:1072D0009DF80C2062F07F028DF80C2003A901229A
:1072E0000920FFF7F7FE05B05DF804FB4FF0FF3013
:1072F000F9E710B50246FFF7DDFE044620B9D36872
:1073000008469847204610BD4FF0FF34FAE773B5A2
:10731000002305460E468DF80730FFF7CBFED8B99F
:107320000DF107012B460122FFF7AAFF0A210446AF
:107330002846FFF7DEFF64B99DF8071020460E438C
:107340002B4601220DF107018DF80760FFF7C2FE01
:107350000446204602B070BD4FF0FF34F9E72DE936
:10736000B04F88B0002381468DF80730FFF7A2FEAA
:10737000002872D14B4601220DF10701FFF780FF73
:107380008246002865D14846FFF795FF002867D15F
:1073900032214846FFF7ADFF514680464846FFF789
:1073A000B6FF48EA00004FFA80F878214846FFF718
:1073B000EDFE4FF0200B06238DF809308DF808B054
:1073C00002994846FFF73EFF2C2348EA00004FF0A1
:1073D00080088DF815308DF816A08DF817A08DF85F
:1073E000148047B205994846FFF78DFE02233843C3
:1073F00028278DF80E308DF80C808DF80D700399CC
:1074000045B24846FFF7A2FE8DF810A08DF812A0F5
:107410008DF81170049905434846FFF7CBFE4023D1
:107420008DF8193008238DF818A08DF81B308DF8D1
:107430001CA08DF81AB00DEB0B036DB245EA0004E9
:1074400013E906004846FFF7D5FE64B220434FFA21
:1074500080FA504608B0BDE8B08F4FF0FF3AF8E729
:107460006FF0050AF5E710B50246FFF723FE044664
:1074700028B91369517008469847204610BD4FF04F
:10748000FF34FAE70278034B12B901221A707047F1
:107490000222FBE73830002038B5054D044645F0A0
:1074A00001054FF47A40A847013CFAD138BD00BF2E
:1074B000C0AB02001FB5144B0FCB6C4684E80F0025
:1074C00010220F23CDE900234FF0C86302934FF041
:1074D000A04340F20C72C3F83C272146C3F8402772
:1074E0000A480B4A002300F09FF9044648B90748B0
:1074F00000F006FA074B029AC3F82425204604B090
:1075000010BD0E20FBE700BFA8AB0200C8AB020015
:107510008574020000300040F0B51446083487B08E
:1075200024F0070400AFADEB040D844668461D4609
:1075300000F801CB561C03F09DFA7D71144D1548DF
:10754000C7F810D00022C7E902623A717A612A7046
:10755000391D012200F0E4F9642304463B603B68D6
:10756000B3F57A7F01D22B784BB12B78012B0CD15C
:10757000002C18BF0D2460B21C37BD46F0BD0120A1
:10758000FFF78AFF3B680133E8E70D24F3E700BF0C
:1075900038300020C8AB020030B589B0174D8DF8E7
:1075A0000D300123CDE904328DF807000DF10703FA
:1075B0000220CDE906318DF80C00002310482B7015
:1075C000122203A900F0ACF9642304460293029B43
:1075D000B3F57A7F01D22B7843B12B78012B0BD1F5
:1075E000002C18BF0D2460B209B030BD0120FFF798
:1075F00053FF029B0133E9E70D24F4E73830002004
:10760000C8AB020008B1FFF747BF70474FF0A04377
:107610000322C3F864274FF00072C3F80825002046
:1076200070474FF0A0434FF0007218B9C3F80C2513
:1076300000207047C3F80825FAE70023435082B0C2
:1076400043580193019B02B070470B7B032B2AD850
:10765000DFE803F022261A028B685A0304D5D0F81B
:107660004C350A699A4207D18B685B031BD4D0F86A
:107670004C354A699A4216D000230622C0F80035DC
:10768000C0F8002518467047D0F84C350A699A4270
:10769000F2D1D0F83C35ECE7D0F84C350A69E9E78F
:1076A000D0F83C35FAE7012070470000F0B5594D9D
:1076B000594CD5F8243187B0FBB14FF4927128466C
:1076C000FFF7BBFFD5F80431BBB9A368C5F8083391
:1076D0000223A360A368C5F80433D5F860311BB159
:1076E000D5F800329F0503D44A4B01221A625A6131
:1076F000012384F82E3007B0F0BDD5F80431002BFB
:1077000050D044484FF48271FFF797FF236A5E061A
:1077100009D494F82E3033B93F49FFF796FF80F033
:10772000010084F82E00236A5D0720D43B4E0FCE63
:1077300001AD0FC5336837482B604FF4B071FFF7C8
:107740007CFF4FF4AE71FFF778FF94F8303013B13F
:1077500094F82E305BB12F4B0022C3F80022A260B8
:107760002F4AC3F808232F4B0822C3F88021294A47
:10777000D2F8C434C2F8C43498073DD501238DF83B
:10778000003094F830300BB984F82F30236A5B074F
:1077900003D594F82E30002BADD0D4E900316846E3
:1077A0009847A8E71B484FF4A471FFF746FF237BD7
:1077B00083B91A4F0FCF01AE0FC63B68336094F800
:1077C0003030002BD3D1C5F80032A360144BC5F87C
:1077D0000833C8E74FF40073C5F8003240F20223C3
:1077E000A36003F1CE73C5F80833A368C5F804336A
:1077F0000123AB602B627EE7590701D50223BEE768
:10780000DA0701D50323BAE794F82E30002BB6D05F
:107810000423B4E700300040204200202C42002026
:1078200002029C0100E100E02DE9F84F0679304D9D
:107830004FF0340A0AFB06FA05EB0A079B4697F855
:107840002D3080460C469146002B4DD129490068C9
:1078500000F0D6F9002849D12168637B87F83230DF
:1078600001F5E0724FF0A043B860C7F804B087F8A4
:107870002F0087F8300040F20C6745F80A9043F873
:107880002270626802F5E07C43F82C70D8F8003072
:10789000C3F80815C3F80C25A268C3F82425B9F16C
:1078A000000F14D0227B43F3073152010029C3F3A8
:1078B0000733D2B213DB104C671887F8002301227C
:1078C000490903F01F0302FA03F344F8213034237B
:1078D00003FB0655012385F82D30BDE8F88F0749D5
:1078E00003F00F03CA54F2E70820F6E71120F4E78B
:1078F00020420020AD76020000E100E014ED00E03F
:10790000036802790621C3F80015044B342101FBFA
:107910000233022283F82D20704700BF204200204E
:107920002DE9F843DFF8C88290F804900468342603
:1079300006FB0986002386F82E30CB6803F06043EF
:10794000B3F1005F0D46174603D010263046BDE860
:10795000F883A64BC4F8083396F82F3023B1B368E8
:10796000C4F804331126F1E712F0140F0CBF012301
:10797000002386F82F308E46BEE80F0006F10C0C6F
:10798000ACE80F00DEF80030CCF80030C7F300138D
:1079900086F8303037626B78C4F8883520464FF46B
:1079A0008271FFF74AFE4FF49271FFF746FE4FF4E3
:1079B000B071FFF742FE4FF4A471FFF73EFE17F0DF
:1079C000010318BF0123C4F8503517F0020318BF94
:1079D0000123C4F840352B78032B00F2B580DFE893
:1079E00003F084A069022B6903F06043B3F1005FE8
:1079F000ABD14FF48073C4F80032EA686B68C4F806
:107A000044254FF4A871C4F84835FFF716FE01234A
:107A10002362A360D4F85031002BFBD04FF4A8713F
:107A20002046FFF70AFEAB682A69C4F84425C4F86B
:107A30004835342303FB09834FF480229A600823DE
:107A400000263A0704D42A78032A1CBF0122E250F8
:107A5000342303FB09F308EB030258F80330002B2F
:107A600075D10125D4F84821D4F80431002B40F019
:107A70008980003A18BF0122D4F82431002B00F08D
:107A800088804FF492712046FFF7D7FDD4F860113B
:107A9000D4F8003209B1980504D425626561002943
:107AA000E0D00022D90574D54FF4A4712046FFF729
:107AB000C4FDD7E76B68EA68C4F84425C4F84835C4
:107AC0002B6903F06042B2F1005F7FF43EAFAA6819
:107AD000C4F834354FF48453C4F83825C4F8003260
:107AE000342303FB0983022212E06B68EA68C4F8BE
:107AF000442517F0200FC4F848354FF034030BD05D
:107B00004FF48072C4F8002203FB09834FF48022F3
:107B10009A600123236292E74FF40072C4F80022B6
:107B2000DFE76B68EA68C4F83425C4F838354FF4E9
:107B30008053C4F80032342303FB098302229A6085
:107B40000123236200237BE70823072679E77B07CD
:107B500044BF002393607D0606D4342303FB0983CE
:107B60009A6842F002029A60342303FB0988D8F82D
:107B7000083043F40073C8F80830D8F80830C4F867
:107B80000433E3E64FF482712046FFF756FD0122ED
:107B900072E7002A3FF466AF3421D4F8C434C4F845
:107BA000C43401FB0982002082F82F0093B113F046
:107BB000010F14BF4FF40246032648F2012213F0CE
:107BC000020F18BF164613F0040F48F2022318BF25
:107BD0001E46BBE67B063FF5B9AE09FB0181204698
:107BE000FFF733FD002808BF0326AFE602029C0121
:107BF00020420020014B1B68184700BF5442002060
:107C00000E4B984237B50C4602D0002003B030BD71
:107C100000230DF107008DF8073000F081FE084BBE
:107C20001D7915B901221C601A719DF8070000F03A
:107C30009BFE002DE9D01120E8E700BF00200040A6
:107C4000544200204FF08053D3F83001421C04BF4F
:107C50004FF0704393F8E00F831F5842584170472C
:107C60004FF0704393F8E02F062A09D1D3F8E83F8C
:107C7000C3F30313033B042B02D8024AD05C7047C2
:107C800000207047DFAB020008B5FFF7DBFF40B113
:107C90004FF080537E4AD3F82433C3F30423C2F851
:107CA0004035FFF7DDFF10B17A4B7B4A5A67FFF78B
:107CB000C9FF48B14FF080534FF08042D3F84432AF
:107CC000C3F34233C2F83C35FFF7CAFF30B1734A01
:107CD000D2F8FC3023F08073C2F8FC30FFF7B2FF1B
:107CE00040B14FF080430022C3F80C21C3F81021AB
:107CF000C3F83825FFF7B4FF20B14FF080430322CB
:107D0000C3F8A025FFF7ACFF60B1654B0522C3F8AF
:107D100010260122C3F888260022C3F818263F2225
:107D2000C3F814264FF08053D3F83021511C09BFFB
:107D30004FF07043D3F8343193F8E02FD3F8E83F95
:107D400008BFC3F30313062A4DD1033B042B03D80A
:107D5000544AD35C002B46D04FF08052524BD2F89D
:107D60000414C3F82015D2F80814C3F82415D2F867
:107D70000C14C3F82815D2F81014C3F82C15D2F837
:107D80001414C3F83015D2F81814C3F83415D2F807
:107D90001C14C3F84015D2F82014C3F84415D2F8C7
:107DA0002414C3F84815D2F82814C3F84C15D2F897
:107DB0002C14C3F85015D2F83014C3F85415D2F867
:107DC0003414C3F86015D2F83814C3F86415D2F827
:107DD0003C14C3F86815D2F84014C3F86C15D2F8F7
:107DE0004424C3F87025FFF72DFF48B14FF08053AE
:107DF0004FF08042D3F8583203F04F03C2F8E43E0C
:107E0000FFF720FF48B14FF08043D3F80024D2079A
:107E100044BF6FF00102C3F800244FF08053D3F841
:107E20003021062A0ED1D3F83431033B042B02D87B
:107E30001E4AD35C33B11E4AD2F83C3743F4806308
:107E4000C2F83C37154AD2F8883043F47003C2F8C0
:107E50008830BFF34F8FBFF36F8F4FF08053D3F84D
:107E60003021062A0FD1D3F83431033B042B02D83A
:107E7000104AD35C3BB14FF01023D3F808224FF0E7
:107E80008043C3F858250C4B0C4A1A6008BD00BF4C
:107E90000030014000C007400DF0ADBA00ED00E039
:107EA00000500040D0AB020000C00040D5AB020043
:107EB00000100040DAAB02003C3000200090D003FC
:107EC00036DF7047012810B504D100F027FABDE86D
:107ED0001040004710BD0000012813B5044603D030
:107EE000032813D002B010BD00230DF107008DF858
:107EF000073000F015FD00F011FA10B12046FFF731
:107F0000DFFF9DF8070000F02FFDEBE7074BC022D5
:107F100083F8002301221A6000F000FA0028E1D063
:107F20004FF080430422C3F80423DBE700E100E0C4
:107F300038B50A4D2B78044663B900F03FFE58B9B6
:107F40000748002C18BF204600F0EEF908B90123BD
:107F50002B7038BD8520FCE70820FAE75C42002042
:107F6000E4AB020042DF704744DF704738B5074C8E
:107F7000051E04F1080318BF1C4623682BB11A68BC
:107F800022605B6828469847F7E738BD68420020C2
:107F900020B9054B01225A70FFF7E8BF012802D132
:107FA000014A9070F8E770476042002020B9034B07
:107FB00001225A70FFF7DABF704700BF604200200D
:107FC00038B50E4C2378B3B90D486360A3602361C4
:107FD000E36000F009F9054600F0F0FD08B900F093
:107FE0000FF901232370074BD3F800340BB10123A1
:107FF000A370284638BD8525F5E700BF6042002004
:10800000917F02000000014037B5184CA378054667
:1080100003F0FF029BB110B1436801209847002391
:108020000DF107008DF8073000F07AFCE3689DF849
:1080300007000133E36000F097FC03B030BD0DF1A1
:1080400007008DF8072000F06BFC25B1226913466C
:108050003BB92A602561E368002BE7D100F0E6F820
:10806000E4E79D42F7D01B68F2E700BF60420020C2
:1080700037B50D4C00230DF107008DF8073000F0E7
:108080004FFCE368013BE360E36833B9074BD3F887
:10809000005415B900F0F2F8A5709DF8070000F043
:1080A00063FC03B030BD00BF60420020000001400F
:1080B000012813B50CD0032820D038B9134B012266
:1080C000C3F88020BFF34F8FBFF36F8F02B010BD96
:1080D0000F4C00230DF107008DF8073000F020FC55
:1080E00023780BB9FFF76CFFE3689DF807000133B5
:1080F000E3600123A37000F037FCE7E700F080F8AD
:1081000002B0BDE81040FFF7B3BF00BF00E100E0E0
:108110006042002008B500F051FD28B94FF08043BF
:10812000D3F81804C0F3004008BD000037B51B4C5D
:108130006378054603F0FF029BB110B1436800204D
:10814000984700230DF107008DF8073000F0E8FB99
:1081500063689DF807000133636000F005FC03B01D
:1081600030BD0DF107008DF8072000F0D9FB25B1D7
:10817000A268134653B92A60A5606368002BE7D153
:1081800000F01CFD30B1FFF7EDFEE1E79D42F4D0B9
:108190001B68EFE700F083F8DAE700BF60420020D9
:1081A00007B500F00BFD48B101A8FFF7DDFE01980F
:1081B000003818BF012003B05DF804FB4FF0804386
:1081C000D3F80C0400F00110A0F1011358425841FB
:1081D000F1E700F18040002382B00360036801935F
:1081E000019B02B070470000044A137923B90121B2
:1081F00010609180184670478520704774420020B7
:10820000084B1A68D20704D4C02283F80023012245
:108210001A604FF080420123C2F81835024A1370E9
:10822000704700BF00E100E07C42002038B54FF409
:108230008270FFF7CEFF4FF080430222C3F8042381
:108240000C4AD2F8FC0040F08073C2F8FC300A4BB4
:108250001C6844F0010119605D685968491BB1F55B
:108260000A5FFAD31C604FF08043C2F8FC00012281
:108270009A6038BD00ED00E0001000E04FF0804251
:1082800008B50223C2F808334FF48270FFF7A1FF4C
:108290000123D360D2F81834DB03FBD408BD08B542
:1082A0004FF48070FFF795FF4FF080430122C3F831
:1082B00004231A6008BD00004FF0804110B5D1F8CA
:1082C000003163B14FF48070FFF783FF0D4B587995
:1082D0000122C1F8082310B95A711B6898474FF062
:1082E0008042D2F8043163B14FF48270FFF771FF1E
:1082F0000223C2F80833034BBDE810401B6801207D
:10830000184710BD7442002000F18040002382B065
:10831000036003680193019B02B07047014B18682A
:10832000704700BF804200200C4A13789BB9037845
:108330004FF0804103F00103C1F87835084B19680C
:10834000C90704D4C02183F8001301211960012357
:108350001370002070478520704700BF88420020BE
:1083600000E100E04FF0804310B5D3F8044361070B
:1083700009D5D3F8083133B14FF48470FFF7C4FF47
:10838000114B1B689847A2060CD54FF08043D3F8D9
:1083900014313BB14FF48A70FFF7B6FF0B4B00204E
:1083A0001B68984763060ED54FF08043D3F8183109
:1083B0004BB14FF48C70FFF7A7FF044BBDE81040A2
:1083C0001B680120184710BD804200208442002015
:1083D00008B5FFF7C7FFBDE80840FFF76DBF000015
:1083E000F7B506792F4D0C237343EF183C7A002C18
:1083F00055D1EA504B687B60477903682246A44612
:10840000D4B2A7423CD8CA7843F307345201002CB7
:10841000C3F30733D2B23DDB234F07EB040C8CF8D8
:1084200000230122640903F01F0302FA03F347F853
:10843000243003684A78D3F8040502F0030220F0E0
:1084400003000243C3F80425D3F808058A7820F016
:10845000030002F003020243C3F80825D3F8100515
:108460000A7820F00F0102F00F020A43C3F810252A
:108470000C2303FB065501232B72002003B0F0BD33
:10848000940004F5A074013243F804C01C5901940F
:10849000019CB5E7054C03F00F03E254C9E708203F
:1084A000ECE700BF8C42002000E100E014ED00E0AA
:1084B000036801221A600279034B0C2101FB02338D
:1084C00002221A72704700BF8C420020036801220A
:1084D0001A610179024B0C2000FB01331A727047BC
:1084E0008C42002037B54FF4803400688C407BB15B
:1084F0008B0003F5A0730025C550C3580193019B61
:10850000C0F8044301F5A87140F8212003B030BD44
:10851000C0F80843F6E770B4046840F20116D4F8D6
:1085200000528E4025EA0605C4F80052D4F80052E5
:108530002B43C4F800329DF80C3070BCFFF7D2BF5B
:108540002DE9F341104C114F114E00254FF48038A6
:10855000236883B1D7F8043308FA05F21A420AD027
:10856000002323602368019304F5C040019B80B27F
:10857000D6E9003198470135042D04F10404E7D110
:1085800002B0BDE8F08100BF40A1004000A0004063
:108590008C42002000F1804000F5C040002382B0F2
:1085A000036003680193019B02B07047800000F1F3
:1085B000A040D0F8002722F44032C0F80027D0F8BD
:1085C000003743EA0141C0F800177047054B4FF0F0
:1085D000FF32072843F8202084BFC01880F84820C5
:1085E000704700BF9842002010B5184991F85830E4
:1085F00053BB4FF0FF3222FA03F0C00748BFC81840
:1086000003F1010348BF80F83020202BF3D1002470
:10861000E0B20134FFF7DAFF0C2CF9D10C4B002249
:10862000C0204A6583F80603402018604FF4BE70EE
:10863000FFF7B0FF074B4FF00040C3F804030123DE
:1086400081F85830104610BD0820FCE79842002001
:1086500000E100E000600040F0B5394E331893F9B6
:108660003030002B69DA8D78C5F34005002D0BBF43
:10867000082300230C240824A34201D10420F0BDC8
:1086800056F82370013743D137185CB246F82320DF
:1086900087F8304015B9F21882F848008A785507F3
:1086A00016D4D70736D5820002F1A042D2F800577F
:1086B00025F00205C2F80057224FC50800F0070C4C
:1086C000012202FA0CF217F805C042EA0C027A55B0
:1086D0008A780D7812F0020225D09B0003F18043C6
:1086E00003F5C0430002D3F8102522F4473222F4E8
:1086F0004072C3F810252D04D3F8102500F4F8506B
:1087000005F4403528431043C3F810050020B6E7B0
:108710000133B1E74D7800F5E0724FF0A047AD00AE
:1087200047F82250C8E7083C46FA84F494F8500011
:1087300040EA851584F85050E8E708209FE700BF1D
:1087400098420020EC42002038B5204C251895F9BD
:108750003020072A18DD083A44FA82F494F85030A1
:108760009B09032B0BD14FF0A043D3F81015C14048
:1087700001F001010231BDE83840FFF717BF012BBE
:108780000CBF02210321F6E7D3B2072B1DD89300BB
:1087900003F1804303F5C043D3F8100540F0010016
:1087A000C3F8100502F1400040B2800080B2FFF72C
:1087B000F1FE51B195F9303054F823302BB101233B
:1087C00003FA02F2024BC3F8042338BD984200209A
:1087D000006000402DE9F74F00244E4D01944FF406
:1087E0008072012102F1804303F5C04390B21B68FF
:1087F000012B06D1D5F804330B4202D0FFF7CAFE95
:108800000C430432B2F5907F4FEA4101EAD1414B6B
:10881000D3F87C31012B0CD14FF4BE70FFF7BAFEB8
:108820004FF0A04344F00044D3F820250192C3F850
:108830002025E3B2D3B1384F01260025344210D0B1
:10884000AB0003F1804303F5C043D3F81005D3F820
:10885000101557F8253023B1C1F30141C0F30420AE
:1088600098470135082D4FEA4606E7D1002C48DA33
:10887000294D4FF0A048294E4FF00009012716F965
:10888000013B5A1C31D0C3F3C20208326A44DCB245
:1088900012F8042C03F03F0A03F0070307FA03F36E
:1088A0001A4222D00AF5E073504658F82330C3F339
:1088B000014BBBF1020F0CBF03210221FFF776FE33
:1088C00007FA0AF3C8F8203505EB0A0393F93030AC
:1088D00055F823304BB1A109032904D0BBF1020F95
:1088E00012D1012901D15046984709F10109B9F186
:1088F000040FC4D1D8F820350193C8F82035002BD7
:10890000B9D103B0BDE8F08FBBF1030FEDD102295F
:10891000E8E700BF0060004098420020E8420020E5
:1089200070B5EFF3108672B60C4A946801239CB9B7
:1089300093600B4B0B4DD3F8801029401160C3F8A6
:108940008050D3F8841051604FF0FF32C3F8842078
:10895000047006B962B670BD0370FAE7F4420020F5
:1089600000E100E0FC06FFBD084B9A6810B55AB163
:1089700050B9EFF3108172B6054A1C6814605C6848
:108980005460986001B962B610BD00BFF442002087
:1089900000E100E010B5034653E8000F40EA010291
:1089A00043E8002494F0000FF6D110BD10B5034643
:1089B00053E8002F42EA010043E8000494F0000F5E
:1089C000F6D110BD10B5034653E8002F02EA0100AE
:1089D00043E8000494F0000FF6D110BD0121FFF729
:1089E000D9BF1FB50021039001AA44F20100CDE9CF
:1089F0000111FEF757FA05B05DF804FB10DF704770
:108A000011DF704713B504460949684600F0CBFDF5
:108A1000019808B902B010BDD0E900212046904766
:108A200018B1684600F0C9FDF2E71120F2E700BF77
:108A3000ECAB020013B504460749684600F0B3FDED
:108A4000019B0BB902B010BD2046D3E9002190472D
:108A5000684600F0B2FDF3E704AC0200084B9A68E8
:108A600022B11A6822F480021A607047054B4FF455
:108A70008002C3F88020BFF34F8FBFF36F8F704722
:108A8000F442002000E100E00B4991F816335A0946
:108A9000EC231341DB0706D5084B9A683AB94FF42B
:108AA00080030B60704742F20200FFF79ABF1A681A
:108AB00042F480021A60704700E100E0F4420020B6
:108AC000F7B5194F3C7864BB184E01252046357028
:108AD000FFF798FF112821D02046FFF7ABFF144B7A
:108AE0008DF80340186801900DF10300FFF718FF9F
:108AF000104901A8FFF782FF0446B0FA80F0400950
:108B000038709DF80300FFF72FFF3CB90A4B347013
:108B10001C70FFF7B9FF2846FFF78CFF204603B013
:108B2000F0BD0824FAE700BF014300200043002005
:108B3000E5AB0200A56E020002430020F7B5154F19
:108B40003B781BB3144E01203070FFF75BFF1128F8
:108B50004FF000051CD00220FFF76CFF0DF107005D
:108B60008DF80750FFF7DCFEFFF74AFF04469DF83B
:108B700007003D70FFF7F8FE2CB903203470FFF7B3
:108B80006DFFFFF757FF204603B0F0BD0824FAE75A
:108B90002C46F8E70143002000430020054B1B78DA
:108BA00033B1054B1B780BB1FFF7C8BFFFF788BF88
:108BB000082070470043002001430020014B187833
:108BC000704700BF0143002007B50849684600F020
:108BD000EAFC019B13B903B05DF804FBD3E9002064
:108BE0009047684600F0E9FCF3E700BFF8AB0200ED
:108BF000FFF7EABF60DF704769DF704761DF7047EA
:108C000030B5134B1B7891B0FBB1124D34240DF1EC
:108C1000020103A8ADF80240FFF7F0FF70B9294642
:108C200001A800F0C0FC029B002BF0D003A8D3E900
:108C30000021904701A800F0C0FCF4E7052804D00B
:108C400011B0BDE83040FFF7CCBE11B030BD00BF61
:108C50000343002010AC02007FB50D4600293BD035
:108C600000241E4A0A60CDE90144062301268DF83E
:108C7000040001A92020ADF8083003948DF80660A7
:108C8000FFF7BAFF2A68039401A94020CDE9014407
:108C90008DF80560FFF7B0FF02232A68039401A94D
:108CA0003046CDE901448DF80430FFF7A5FF4FF4BD
:108CB000B0632A68019301A9A120CDE90244FFF71E
:108CC0009BFF2A68039401A9A020CDE90144FFF786
:108CD00093FF204604B070BD0E20FBE7003000205B
:108CE00008B5FFF787FF10B9014B01221A7008BDC4
:108CF000034300204BDF70471FB50E4C01A8FFF760
:108D0000F9FF70B9214602A800F04DFC039B002B2F
:108D1000F4D00198D3E90021904702A800F04DFC5F
:108D2000F4E7052804D004B0BDE81040FFF759BEB1
:108D300004B010BD1CAC0200A8DF7047F0B50746B8
:108D400089B014461E460D4611B90846FFF749FE84
:108D500014B92046FFF745FE20220021684601F0A5
:108D600097FE02238DF80D30084B0E9A1888ADF847
:108D700000706946ADF80440ADF8064002958DF8E4
:108D8000116000F0E6FC09B0F0BD00BF3C430020DC
:108D900030B587B041F60A035C4AADF80C300446A2
:108DA00003A901208DF80E00FFF7C6FF0546002835
:108DB00049D12288002A49D1228952B1544B0093CB
:108DC000E16894F83C3042F62420FFF7B7FF002812
:108DD00047D1228A52B14F4B0093616994F83C30DD
:108DE00042F62520FFF7AAFF00283AD1228B52B184
:108DF000494B0093E16994F83C3042F62720FFF795
:108E00009DFF00282DD1228C4AB1444B0093616A0A
:108E100094F83C3042F62620FFF790FF08BB228DE5
:108E20004AB13F4B0093E16A94F83C3042F6282067
:108E3000FFF784FFA8B9236BABB9616B002938D168
:108E4000A36B002B42D1284607B030BD354B0093B1
:108E5000616894F83C3042F62920FFF76FFF002844
:108E6000AAD00546EFE71A688DF810201A68120A92
:108E70008DF811205A888DF81220DA788DF8132099
:108E80005A688DF814209B688DF815301A0A1B0C4F
:108E90008DF81730244B8DF816200093082294F893
:108EA0003C3004A942F62320FFF748FF0028C4D035
:108EB000D7E71E4B0A790093096894F83C3042F6D4
:108EC0002A20FFF73BFF0028BAD0CAE71A788DF8AE
:108ED00010205A888DF81120120A8DF812209A88D5
:108EE0008DF81320120A8DF81420DB888DF81530C8
:108EF0001B0A8DF816300E4B0093072294F83C3075
:108F000004A942F65020FFF719FFAAE73C430020CE
:108F10001C430020344300200C4300200443002065
:108F20003E43002014430020464300202C430020F1
:108F3000244300206DDF704779DF70477DDF704785
:108F400064DF70472DE9F04F85B000250E9CBDF819
:108F50003CB0B4F800A00191074690461E46A946D1
:108F60003A884A450DDC45B12388013BA3EB0A034F
:108F70009BB2FF2B3AD806F80A30002005B0BDE8B6
:108F8000F08F7A6852F82900039000220DF10B014E
:108F900003A8FFF7D5FF0028F0D19DF80B2042452C
:108FA00021D12288002D14BF0020022002EB0801ED
:108FB000014459451ADC3DB9013292B2019B22802D
:108FC000B35422880132228022880DF10B013244F1
:108FD00003A8FFF7B5FF0028D0D121889DF80B200A
:108FE0000A442280012509F10109B9E70C20C5E7EF
:108FF0002DE9F341089FBDF824801546CDE900789E
:10900000022204461E46FFF79DFF50B93346102248
:1090100029462046CDE9087802B0BDE8F041FFF7C7
:1090200091BF02B0BDE8F0812DE9F04F0023178811
:10903000138090F82D3085B006460D4614465BB37C
:10904000082F01D80C2028E102A8FFF773FF0028A1
:1090500040F023812388DDF809100822EA54238890
:1090600001339BB21B222380EA54238801339BB235
:10907000EA182380E950BDF80D30938023889DF8CD
:10908000082006339BB212F0FE0218BF0122238093
:10909000EA54238801332380B378FBB12388043357
:1090A000BB42CFD802A8FFF747FF002840F0F58069
:1090B00023880322EA54238801339BB21922238098
:1090C000EA542388BDF8082001339BB2E9182380B5
:1090D000EA54120A4A70238802332380F2789AB144
:1090E0002388D91CB942ADD80221E9542388013321
:1090F0009BB201212380E95423880B449BB2238037
:10910000EA5423880B4423807268AAB12388D91CAF
:10911000B94297D8022192F90020E95423880133FB
:109120009BB20A212380E954238801339BB2238018
:10913000EA542388013323803389002B40F0A18037
:10914000338A5BB1CDE900472B460722032106F1A4
:109150001000FFF74DFF002840F09F80338B5BB17C
:10916000CDE900472B461522142106F11800FFF720
:109170003FFF002840F09180326A002A40F0908042
:10918000D6F82480B8F1000F30D0B8F80430218828
:10919000981C8A1C0244BA423FF654AFFE283FF6A0
:1091A00051AF03336B54238801339BB2FF222380DA
:1091B000EA54238801339BB22380B8F80020EA5494
:1091C000E918120A4A702088023080B22080B8F86C
:1091D00004205AB1D8F8081000296BD0284401F0B7
:1091E00049FC2388B8F804201344238096F82C30D7
:1091F000002B40F09880307800284ED03388012B27
:1092000058D0228802F1020CBC453FF61BAF012862
:1092100005D17378023313449F42FFF413AF023F2A
:10922000BF1ABFB202A905EB0C00ADF80870FFF73A
:1092300085FE90BB3178BDF80830022900F0B98076
:1092400072789A4202D39F4280F0B180012940F0A7
:10925000B280974293B2C0F0AE80ADF808300821DA
:10926000BDF80830FE2B3FF6EDAE22880133AB543B
:109270002288013292B22280A9542288134423808A
:109280000BE0CDE900472B460622022106F108003B
:10929000FFF7AEFE00283FF453AF05B0BDE8F08FF6
:1092A000B4F800C00CF10603BB423FF6CBAE118808
:1092B000052901D80720F0E76FF4486E01EB0E0393
:1092C0009BB24FF27D3E7345F4D95388052BF1D9FB
:1092D0006FF44860181880B27045EBD94FF6FF70F4
:1092E000814201D09942E5D8052305F80C30238846
:1092F00001339BB212212380E954238801339BB2AE
:1093000023801188E954E818090A41702388023340
:109310009BB223805288EA54E918120A4A702388C3
:10932000023323802CE7B36A002BC3D04FF0000830
:109330004FF00C0A4FF0160BB16A5FFA88F20AFB85
:1093400002F201EB0209B9F80430981CFE283FF63E
:1093500079AE208803332B54238801339BB22380BA
:1093600005F803B0238801339BB223808A5AEA545C
:10937000E918120A4A702088023080B22080B9F8B9
:1093800004205AB1D9F80810002993D0284401F0DC
:1093900071FB2388B9F804201344238096F82C200D
:1093A00008F101085FFA88F39A42C5D823E709213A
:1093B00056E79F42FBD2ADF8087050E730B5C8B110
:1093C000F2B10024651C8D4206DA1588A54212D838
:1093D00005196D789D420ED1A14211D9005D48B1A9
:1093E000013880B230B10234A3B210FA84F4A14241
:1093F00006DB138030BD055D01352C44A4B2E1E7E6
:109400000020F7E713B513460022ADF806200DF152
:1094100006020446FFF7D2FF10B1BDF80630E0188F
:1094200002B010BD90DF7047A5DF7047B5DF704711
:109430001FB50023ADF80810ADF80A106A4602A95E
:10944000ADF80C30ADF80E300093ADF80430FFF7F6
:10945000E9FF05B05DF804FB78B14FF01713036026
:109460001B2303711723C380038141F61B320023A2
:10947000016143818281184670470E20704720B1F8
:10948000172904D10180002070470E207047072063
:10949000704713B5034680880C4698B91A88242A69
:1094A0006BD011D8112A45D0232A76D0102A2ED07D
:1094B000A37A3BB1E1880020FFF7B6FF10B94FF463
:1094C0008073638102B010BD3A2A3BD0552AEFD198
:1094D000DB88C988A072172B38BF17238B4228BF9F
:1094E0000B462381FFF7A2FFE27A002AE0D123692D
:1094F000002BDDD040F67721ADF802202289ADF8AF
:109500000010ADF80420694620469847D0E7DB7B81
:1095100009792173012B08D0022B09D0637B8B4280
:10952000C6D20020FFF784FFC2E72388E380F5E777
:109530006388FBE71723CB800B8141F61B334881FF
:109540008B81B5E75B89CA88934228BF1346172BE6
:109550000A6938BF17230B8162B1C97A51B140F64D
:109560007721ADF80010ADF80200ADF8043069467F
:1095700020469047002363819AE71A7A0B694A7361
:10958000002B95D04DF67A218DF80500ADF800102E
:10959000ADF802008DF80420B5E7197A237B9942D3
:1095A00028BF1946BEE70B684A684360934208BF6C
:1095B0000023016008BF43607047436843B10268FD
:1095C000916852680B449342436004BF0023436098
:1095D00070470AB100F09CBA00F0A3BA73B50191CC
:1095E000019C06466CB100252C46294601A800F0D6
:1095F000A2FA18B106EB440301349D800135142D05
:10960000F3D13046346002B070BD00002DE9F04760
:1096100003888488103B8CB005460A2B21D8DFE8EC
:1096200003F0064020202020202020654700DFF89E
:10963000E880D8F80830DB430093D8F80410684677
:10964000FFF7C0F9009901A8FFF7C8FF0DF108095D
:109650000027019B9F4207D3132C12D90420FFF748
:10966000C0F90CB0BDE8F08739F802AB002601362E
:10967000514608EB860000F054FA1E2EF7D1013750
:10968000E7E71F48214600F043FA1E48214600F054
:109690003FFAEB7B022BE4D11B48214600F038FA5D
:1096A000DFE7174821460CB0BDE8F04700F039BAB3
:1096B000027A16483F2A4FEA1215214694BF00222B
:1096C0000122FFF786FF022D94BF002201221048DD
:1096D0002146FFF77EFF012D0E4894BF0022012294
:1096E00021460CB0BDE8F047FFF773BF037A002BAB
:1096F000B7D1427A0548C2F3C0022146F1E700BF64
:1097000058430020544300205C430020684300205D
:10971000644300206043002050430020AADF7047CC
:10972000002301380B70042806D8DFE800F0030698
:10973000080A0C0011230B7070472123FBE731232B
:10974000F9E71223F7E72223F5E7008800F001008C
:109750007047F0B58B7891B00C46012B38BF0123D0
:1097600000278DF80E3005460B88607CADF80C3074
:109770006946ADF800708DF80270FFF7D1FFA07C4C
:109780000DF10101FFF7CCFF1646237BE27B217D23
:1097900043EAC203227C43EA02139DF80220B94245
:1097A00022F0190203F0190314BF0221012113430F
:1097B00061F342031C22394609A88DF8023001F0FA
:1097C00067F9637B13F0300F14D00DF10901E07CD1
:1097D000ADF808708DF80A70FFF7A2FF11238DF81D
:1097E00008309DF80A30012102AA61F342038DF886
:1097F0000A300E92637B8DF82430A37B8DF82530E0
:109800000023CDE90633089303AB0493A388ADF896
:109810001C30A368CDF814D01BB1E288ADF8182035
:109820000893A36973B301A90022ADF804208A70DC
:109830001A88ADF82C205A88ADF82E205A680D9160
:10984000187B0A92FFF76CFFA3690DF10501587BA5
:10985000FFF766FFA3699A7A197A41EAC201DA7AB8
:109860009B7B41EA02119DF80620002B01F01901B3
:1098700022F0190214BF02230123114363F34201B2
:109880008DF80610E36903B10C93334604AA09A9C5
:109890002846FFF743FF11B0F0BD75DF704776DF54
:1098A00070477ADF70477BDF70470000034B1A88F0
:1098B00082420CBF18460020704700BFE8430020DA
:1098C000024B9B6903B11847704700BFCC4300208F
:1098D00073B585B22846FFF7E9FF044638B3174E43
:1098E000027A337B9A420CD200F10A012846FFF734
:1098F000D4FFF0B111281AD002B0BDE87040FFF7D4
:10990000DFBF00230372337C43B13B212846FFF7BE
:10991000C6FF30F0080301D0FFF7D2FF736933B1FF
:1099200000228DF80420ADF8065001A8984702B037
:1099300070BD237A01332372F9E700BFCC430020C6
:1099400037B50B46497A0F4A79B9D2E901141D7A25
:109950000246002D18BF2146586800F04DFB78B133
:1099600003B0BDE83040FFF7ABBF00211972536967
:1099700033B10122ADF806008DF8042001A8984704
:1099800003B030BDCC4300204B8802889A4212D8E5
:1099900042889A420FD380888B8840F2F311884224
:1099A00094BF021A421A9A4205D80844984234BF1A
:1099B0000020012070470020704700000388122B10
:1099C00070B5014659D004D8102B1ED0112B44D0AD
:1099D00070BD502BFCD12F4BC288DB899A42F7D146
:1099E000038A022BF4D186883046FFF75FFF0546D5
:1099F0000028EDD001F11200FFF7A7FE38BB686820
:109A000000F046FB0028E3D009E0C37B012BDFD147
:109A10004FF6FF70FFF74AFF054620B90420BDE866
:109A20007040FFF74DBF1C4A8E88068000230372EA
:109A30001368C0F80A305368C0F80E3010310A308D
:109A4000FFF7A2FF134B6872DB89002BC0D12946B8
:109A50003046BDE87040FFF773BF8088FFF726FFF0
:109A600004460028B4D0406800F012FB08B1FFF7AC
:109A700027FF4FF6FF732380AAE786883046FFF75B
:109A800015FF05460028A3D008310A30FFF77CFFF8
:109A90006872DCE7CC430020FC430020F8B50646A2
:109AA00048B305460FCD154F3C460FC495E8070057
:109AB00084E807003068124C3C60B0B1FFF7F1FE5B
:109AC000C0B9326813682360536863600D480E4A5A
:109AD0004FF6FF7303800D4B40F8043F002100F068
:109AE00079FA002818BF032004E02046FFF7DBFEC8
:109AF0000028EBD0F8BD0E20FCE700BFCC430020CF
:109B0000FC430020E8430020D198020004440020D8
:109B100001F01F024B090121914000EB8300FEF789
:109B200045BF01F01F0301229A404B0900EB83005F
:109B3000D143FEF747BF4B0901F01F0150F8230046
:109B4000C84000F001007047094B5A7899780132FB
:109B5000D2B2914208BF0022197891421FBF027011
:109B60005878182202FB003014BF043000207047E0
:109B70002444002073B5054600240DF107000E466D
:109B80008DF80740FEF7CCFE0DF10600FFF7DCFF75
:109B900090B10670094B9DF8062045605A709DF8FB
:109BA0000700FEF7E1FE24B9054B4FF48012C3F81D
:109BB0000021204602B070BD0424F0E724440020B8
:109BC00000E100E0024B4FF43C6043F00103184712
:109BD00030AC020038B50E4B4FF40032C3F8802091
:109BE000BFF34F8FBFF36F8F0A4C4FF480330125C3
:109BF000C4F84833C4F808336560FFF7E3FF064B49
:109C0000A56000241C60FFF7DDFF044B1C7038BD0D
:109C100000E100E0001001404045002031450020F7
:109C2000F8B51F4B1F491B680025C1F84051C1F80A
:109C30004451C1F84851C1F84C51C1F80051C1F824
:109C400004514BB3D1F8044517490968641A24F04C
:109C50007F442F461A68A24209D8A41A15441A7CD8
:109C6000DE691AB1D3E905201F749047AEB90F4AD7
:109C70000F4B11781B788B4205D10133DBB2022BDD
:109C800008BF0023137012780A4B43F822500A4B86
:109C90004FF48012C3F80021F8BD3346DAE700BF65
:109CA0004445002000100140404500203D45002073
:109CB0003C4500203445002000E100E02DE9F04F54
:109CC000A14AA24913780978A14D994285B03CD0A8
:109CD0000133DBB2022B08BF002313709D491278B9
:109CE0009D4B0F6853F822003B1823F07F4300225E
:109CF0000B602B6816461446944613B942B12B608C
:109D000006E0196881420ED902B12B60091A196068
:109D100001272B68DFF848A201934FF00008BEB975
:109D2000DFF844B260E0401A0C44D968D3F81CE074
:109D3000C3F800C031B13A1922F07F42C3E90121D2
:109D4000DE611E4673460122D7E700263746E0E76C
:109D50003446F6697F4B60681B68DFF810C2A16863
:109D6000C21A22F07F42624500F2A6800A442260B5
:109D7000012222742A680023C4E90133E361002A26
:109D800040F0A3802C60CAE79BF802105A1CD2B2A4
:109D900091428BF8002004BF00228BF8002018228B
:109DA00002FB03B32A6819799C68022975D003293C
:109DB0007FD0012918D1207CB0B9D3E90312A26069
:109DC0005A69E2609A69654BA2611A78002A18BF45
:109DD00001466160BEE78C4200F094808946C96903
:109DE0000029F8D1002323749BF800309BF8012050
:109DF0009A42C9D12B68B8F1000F04D1019A9A4256
:109E000001D1002F43D0002B79D0D3F800A0544DBE
:109E1000504BD5F804751C68DFF854813E1B98F848
:109E2000003026F07F4603369BB94FF48033C5F8E7
:109E30004433C5F804334B4B4FF40032C3F8802150
:109E40001A604FF00109C5F80090FFF7BBFE88F8D3
:109E50000090B2452CBF5444A41924F07F44C5F8A7
:109E60004045D5F80435DB1B23F07F43E41B033367
:109E700024F07F44A3420AD9D5F80435C5F840350B
:109E8000FFF7A0FE374B4FF40032C3F80021334BED
:109E900000221A7005B0BDE8F08F114691469FE789
:109EA0001174D2690123002AFAD1002B9CD02A60B8
:109EB0009AE700231946F6E71B1A23F07F438B42EB
:109EC00034BFCB1A0023236052E7216813689942FC
:109ED00013D85B1A1360E26154E7091AD8691A466D
:109EE00038B1034618688842F7D3401A18601846FC
:109EF00013462160E061DC6111E71346F2E7FFF7EA
:109F000069FEC4E74C4511D1D3692B6073B9DFF802
:109F100044E00120CDE90212CAF80800CEF8003072
:109F20000E4B1870FFF74EFEDDE902120B68C9698F
:109F3000C9F81C1011B1086803440B602B689342E8
:109F400018BF4FF001084DE73C4500203D4500207B
:109F50004445002040450020344500203045002085
:109F60000010014000E100E024440020FEFF7F00DB
:109F70003145002008B5FFF72DFE104B00200B22C5
:109F800018809A700E4B18600E4B18700E4B18709C
:109F90000E4B4FF48012C021C3F8802183F81413B4
:109FA0001A6002F18042A2F56F22C2F8080583F818
:109FB0001113074BD2F804251A6008BD2444002071
:109FC000444500203C4500203D45002000E100E0E4
:109FD00040450020074B9B784BB132B128B1036854
:109FE000187C20B959745A617047072070470820BF
:109FF000704700BF244400202DE9F743DFF88C8030
:10A0000098F8023005460E461746BBB3B0B31C4B5A
:10A010004A1F9A4230D8436983B3437C0024012B02
:10A020000DF107000CBF8946A1468DF80740FEF7E9
:10A0300077FC0DF10600FFF787FDD8B1012303700F
:10A04000104B4560D3F80435C0E90497C0E90236E7
:10A050009DF8063088F801309DF80700FEF784FC73
:10A0600024B9094B4FF48012C3F80021204603B0F5
:10A07000BDE8F0830424EFE70724F7E70824F5E7B9
:10A08000FAFFFF000010014000E100E0244400203E
:10A09000064A92783AB130B1426922B10022027484
:10A0A0000221FFF767BD0820704700BF244400204D
:10A0B00072DF704773DF704738B5012204460D46E2
:10A0C000B0F81414D0F81004FFF79CF900B1057033
:10A0D00004F13C0204F5826104F15400BDE838400B
:10A0E000FFF7E6BF80F830107047F8B504460F461A
:10A0F000002973D0002871D091F87A301BB191F803
:10A100009830002B6CD1D7F8A030042B68D0D7F84A
:10A110009C30042B64D04FF0000C84F802C007F18F
:10A1200078060FCE251D0FC50FCE0FC596E8070088
:10A1300085E8070084F830C0D7F8A4306363D7F807
:10A14000A830A36304F582624FF6FF73C4F826C4F7
:10A15000A4F82434C4F82024C4F829C422780AB905
:10A1600084F8543094F82430002B14BFEE231F23BE
:10A1700004F15501C4F81014A4F8143404F2144284
:10A180003846FEF751FF40BB94F82430002B14BF33
:10A19000EE231F2304F23121C4F81814A4F81C3450
:10A1A00004F21C4207F13C00FEF73EFFA8B9A36988
:10A1B000A4F848304FF480730125A4F85030636947
:10A1C0002064014684F83C50636404F13C0204F1CD
:10A1D0005400FFF76DFF00B92570F8BD0E20FCE7B5
:10A1E0000720FAE7F8B5077804460D46002F00F07F
:10A1F00001810023C0F82634C0F82934C388817057
:10A2000000F226460BB1012903D0E37943B1022DB8
:10A2100006D1636BABB1012284F82D240820984746
:10A2200004F2274304F22D4113F8012B12B999428D
:10A23000FAD117466B1E032B4ED8DFE803F0050B4F
:10A240000F1284F82D34EBE7A3791BB194F8243076
:10A2500003B95FB9E3790BB1002F3FD1237A002B0B
:10A260003ED1637A002B0CBF00250425636BA570DB
:10A27000002B37D0033D012D34D8627992B394F886
:10A280002E247ABB84F83024012284F82F2407205E
:10A29000984704F13C0518220021284600F0F8FBFD
:10A2A000E26A531E0121022B28BF0A4684F851207E
:10A2B00094F8242084F83C1032B1A36A581E022876
:10A2C00028BF0B4684F85230A378042B1CD8DFE853
:10A2D00003F0780D23365A000025C7E70225C5E7AD
:10A2E0000325C3E7002384F82F34D2E7012384F841
:10A2F00031300023C4E91063C4F82034022384F809
:10A300003C308023A4F84830A378002B5DD1636BE8
:10A31000002B6BD1002068E00223002A84F8313042
:10A3200014BF0723032384F83C302369A4F8483082
:10A330000023C4F82034E36826646364E4E76369B7
:10A340006364A369A4F8483012B1062384F83C3052
:10A350006379B3B194F82E349BB994F8303483B157
:10A36000022384F8503004212046FFF7A5FE002880
:10A37000CAD1052384F8313004F58263C4F820344F
:10A38000C2E70323F6E7E3696364236AA4F848306D
:10A3900012B1062384F83C30637983B194F82E34EB
:10A3A0006BB994F8303453B1022384F8503004214F
:10A3B0002046FFF781FE0028A6D10623DAE7042312
:10A3C000D8E7002384F831309EE7D4F820142A46D9
:10A3D00004F15400FFF76CFE38B994F8301094F88B
:10A3E0005400FFF767FE002891D0F8BD94F83100C3
:10A3F00098478FE70820F8E70388112B10B50C4623
:10A400000AD0262B1FD0102B05D1C37B012B02D1E4
:10A410008388A1F8243410BD0022838881F82E247B
:10A42000B1F824249A42F6D10B79002BF3D1012103
:10A430002046FFF7D7FE0028EDD0A36B002BEAD013
:10A44000BDE810401847037A013B012BE3D8897817
:10A4500005230131B1FBF3F303EB8303C91AC9B23E
:10A46000E6E70B4610B4114628B123B103605DF84E
:10A47000044B1B6818470E205DF8044B70472DE90C
:10A48000F04308B302B3D0F800E0BEF1000F1ED0D5
:10A49000FBB14568D5F80490B3FBF9F509FB153518
:10A4A000BDB942EA010C1CF0030F14D1C568A942E2
:10A4B00011D34D1EEC180569AC420CD8DEF80C40E7
:10A4C000A446BDE8F04360470E20BDE8F0830820B5
:10A4D000FBE70920F9E71020F7E7F0B5D8B1D0F88D
:10A4E00000C0BCF1000F18D0CAB14568D5F800E033
:10A4F0000EF1FF350D4214D1C568A94211D34D1E8E
:10A500000EFB02540569AC420BD8DCF81040A4469F
:10A51000BDE8F04060470E20F0BD0820FCE70920B0
:10A52000FAE71020F8E729DF704728DF704770B599
:10A5300003689E6886B004460D466EB11422002161
:10A54000684600F0A5FAA3680593237901952BB11D
:10A55000012B0DD06846B04706B070BD01238DF8C1
:10A56000003023690293E368039363690493F1E77E
:10A5700002238DF80030E3681B030293F5E70846D9
:10A580007047002070470000024B187A003818BF4F
:10A5900001207047E4450020034B187A0122B0FAED
:10A5A00080F05A7440097047E445002008B5104611
:10A5B0001A4600F05FFA002008BD000008B514221A
:10A5C0000021044800F064FA034800F04AF9002032
:10A5D00008BD00BFE4450020D445002010B5094C5B
:10A5E000094B43602046FEF7F9F940B9FEF7E6FA59
:10A5F000064920741C2306488C2200F01FF9002015
:10A6000010BD00BFE445002038AC020048450020E2
:10A61000D445002038B5234D234C2B7A3BB9234930
:10A62000234800F07AF9206008B9686038BD022339
:10A6300024682B72237973B1012B24D02046032187
:10A64000FFF775FF00232B726B6018491848BDE8AF
:10A65000384000F08DB9D4E90523D21AB2F5806FE5
:10A66000D4E9031028BF4FF480629208012A38BF52
:10A67000012219441844FFF756FF50B11128DDD1CB
:10A6800001232B72D2E7D4E903031844FFF74DFFEF
:10A69000F3E72B7C002BC9D1BDE83840022000F045
:10A6A00009B800BFE4450020FC450020F845002023
:10A6B000D445002038B5234C237A002B41D0022BFF
:10A6C00009D1032830D0204B00221B68E2601A79A0
:10A6D0003AB1012A22D0637C7BBBBDE83840FFF74A
:10A6E00099BFD3E905128D1AB5F5806F94BF521941
:10A6F00002F580629A619142EDD102284FF0000389
:10A7000008BF19462372104B18BF0D211868FFF7B8
:10A710000EFF0E490E4800F02BF9DCE71A690132F2
:10A720001A615B699A42E7E7E3680133082B01D8B5
:10A73000E360D0E70023E360DFE7BDE83840FEF7E1
:10A740002DBA38BDE4450020FC450020F845002026
:10A75000D4450020831E012B01D8FFF7ABBF704703
:10A7600000F0FD03012B08D1044B00225A74421E55
:10A77000504250411874FFF74DBF7047E445002028
:10A7800010B5064C201DFEF729F928B9637C1BB9CA
:10A79000BDE81040FFF73EBF10BD00BFE4450020FC
:10A7A0002DE9F34180460D46104801A916461F4683
:10A7B00000F079F80446B0B118220021043000F00E
:10A7C00067F92D0B0123237101A90848C4F8008003
:10A7D000A760E560666100F090F8FFF7D1FF002008
:10A7E00002B0BDE8F0810420FAE700BFD4450020A4
:10A7F0002DE9F34180460F460F4801A916461D4634
:10A8000000F051F80446A8B118220021043000F0ED
:10A810003FF9089BA36001A9C4E903670648C4F88F
:10A820000080656100F069F8FFF7AAFF002002B020
:10A83000BDE8F0810420FAE7D445002010B561B1ED
:10A84000B2FBF3F403FB1424A4B244B9C0E900142E
:10A8500084608281C381204610BD0E20FCE7092060
:10A86000FAE782B050E8022FC188B2EB324F4FF0C6
:10A87000000317BF92B241EA014142EA014104E0FC
:10A880004268B2EB324F08BF012340E80212002AAF
:10A89000E8D18DF807309DF80730002B0CBF112050
:10A8A000002002B0704737B550E8013F9DB2C4891F
:10A8B00025448489A54228BF2D1B0489A54202BFD7
:10A8C000BFF32F8F002207E0C5EA030540E80154DB
:10A8D000002CE9D14FF001028DF803200193019A79
:10A8E0000A609DF8031001F0FF0321B1006810FA1F
:10A8F00082F003B030BD1846FBE70A884B889A42C5
:10A9000009D150E8012FC2EA024240E80123002B9E
:10A91000F7D1012070470020704737B550E8023F5B
:10A920001FFAA3F5C488A54202BFBFF32F8F0022F0
:10A930000DE0C48925448489A54228BF2D1BC3EAA4
:10A94000054540E80254002CE8D14FF001028DF893
:10A9500003200193019A0A609DF8031001F0FF03A0
:10A9600021B1006800EB124003B030BD1846FBE790
:10A970000A884B889A4209D150E8022FC2EA224243
:10A9800040E80223002BF7D10120704700207047D8
:10A9900003462AB110881A4619448A4203D17047E7
:10A9A0004FF6FF70F7E712F8013B40BA80B258400B
:10A9B000C0F30313584080EA0033580100F4FF50FD
:10A9C0009BB25840E9E700000649074A074B9B1A2B
:10A9D00003DD043BC858D050FBDCFDF755F9FBF70D
:10A9E00033FC0000F4AC020000300020BC3000203A
:10A9F000FEE7FEE7FEE7FEE7FEE7FEE7FEE7FEE72F
:10AA0000FEE7FEE708B5074B044613B10021AFF39C
:10AA10000080054B1868836A03B19847204600F010
:10AA200047F800BF0000000064AC020070B50D4D97
:10AA30000D4C641BA4100026A64209D10B4D0C4CF2
:10AA400000F038F8641BA4100026A64205D170BDA2
:10AA500055F8043B98470136EEE755F8043B984714
:10AA60000136F2E7A0300020A0300020A030002006
:10AA7000A43000200A44914200F1FF3300D1704716
:10AA800010B511F8014B03F8014F9142F9D110BDF7
:10AA900002440346934200D1704703F8011BF9E7D3
:10AAA000034613F8012B002AFBD1181A013870470E
:10AAB000FEE700BFF8B500BFF8BC08BC9E46704773
:10AAC000F8B500BFF8BC08BC9E467047696E666F5B
:10AAD000203A2046656220323020323032332C3129
:10AAE000343A34373A3239207C20474343203130DE
:10AAF0002E332E3120323032313038323420287229
:10AB0000656C6561736529207C2076302E310000EC
:10AB1000CCAA020000A000400004000000000000D9
:10AB200000000000000000000000000023D1BCEA8B
:10AB30005F782315DEEF1212000000004E49434CEF
:10AB40004120284446552900426F736368205365AD
:10AB50006E736F7274656320476D62480041505098
:10AB6000332E30000800180000009001080000009B
:10AB7000596B0200000000000100A3096000000101
:10AB8000000000000080020000000F000300000031
:10AB9000000000000D6B020000000000000000003B
:10ABA0000338FDD8704700001F0000001F000000A0
:10ABB00000009801060100000000000000000000F5
:10ABC0000338FDD87047000000300040000000004E
:10ABD000000001010100000001010000000001016E
:10ABE000000000000001000007000000CCAC0200E3
:10ABF000D4AC020008000000BCAC0200CCAC0200E7
:10AC000008000000D4AC0200ECAC02000800000018
:10AC100084AC0200BCAC0200080000006CAC020076
:10AC200084AC0200080000000000000000000000EA
:10AC30000338FDD870470000001000000400000039
:10AC400001000000DDA50200BDA50200ADA50200C7
:10AC5000F1A70200A1A702007FA5020083A50200C0
:0CAC600089A50200403000200000000028
:10AC6C00C57E020000000000AD7F02000000000065
:08AC7C0055A7020000000000D2
:10AC84000D96020000000000F9A302006C310020C0
:10AC940093940200A0350020F9A30200943D002003
:10ACA4009394020000420020BD99020000000000BD
:08ACB400856A020000000000A7
:10ACBC00018C020000000000F98C02000000000072
:08ACCC0099A502000000000040
:10ACD400D97E020000000000B180020000000000E4
:08ACE40061A70200000000005E
:08ACEC0054B5FF7F01000000D8
:10ACF4000100060000530000997502001975020056
:10AD0400057602006A0100009975020019750200B7
:10AD1400057602002376020004000303000000000D
:10AD2400FFFF000044AC0200020000000090D003CA
:10AD3400000000000000000000000000000000000F
:10AD440000000000000000000000000000000000FF
:10AD540000000000000000000000000000000000EF
:10AD640000000000000000000000000000000000DF
:10AD740000000000000000000000000000000000CF
:10AD840000000000000000000000000000000000BF
:08AD94002562020001620200C9
:10AD9C000000000000000000216B02000000030016
:04ADAC00000008009B
:040000032000A9C967
:00000001FF
