:02000002F0000C
:100000000000012005490F002D490F002F490F0066
:1000100031490F0033490F0035490F00000000003F
:1000200000000000000000000000000037490F0041
:1000300039490F00000000003B490F003D490F0007
:10004000B1280F003F490F003F490F003F490F0003
:100050003F490F003F490F003F490F003F490F0044
:100060003F490F003F490F003F490F003F490F0034
:100070003F490F003F490F003F490F003F490F0024
:100080003F490F00613B0F003F490F003F490F0000
:10009000FD3B0F003F490F00892B0F003F490F0028
:1000A0003F490F003F490F003F490F003F490F00F4
:1000B0003F490F003F490F00000000000000000012
:1000C0003F490F003F490F003F490F003F490F00D4
:1000D0003F490F003F490F003F490F00BD240F006B
:1000E0003F490F003F490F003F490F00000000004B
:1000F000000000003F490F00000000003F490F00D2
:1001000000000000000000000000000000000000EF
:1001100000000000000000000000000000000000DF
:1001200000000000000000000000000000000000CF
:1001300000000000000000000000000000000000BF
:1001400000000000000000000000000000000000AF
:10015000000000000000000000000000000000009F
:10016000000000000000000000000000000000008F
:10017000000000000000000000000000000000007F
:10018000000000000000000000000000000000006F
:10019000000000000000000000000000000000005F
:1001A000000000000000000000000000000000004F
:1001B000000000000000000000000000000000003F
:1001C000000000000000000000000000000000002F
:1001D000000000000000000000000000000000001F
:1001E000000000000000000000000000000000000F
:1001F00000000000000000000000000000000000FF
:100200000348044B834202D0034B03B118477047A5
:100210002030002020300020000000000548064B60
:100220001B1AD90F01EBA301491002D0034B03B1F4
:1002300018477047203000202030002000000000C8
:1002400010B5064C237843B9FFF7DAFF044B13B11E
:100250000448AFF300800123237010BD3430002028
:1002600000000000F44C0F0008B5054B1BB1054918
:100270000548AFF30080BDE80840FFF7CFBF00BFDF
:100280000000000038300020F44C0F00A3F5803A45
:10029000704700BF174B002B08BF134B9D46FFF75D
:1002A000F5FF00218B460F461348144A121A04F03A
:1002B00059FB0E4B002B00D098470D4B002B00D064
:1002C00098470020002104000D000D48002802D0AE
:1002D0000C48AFF3008004F04DFB2000290000F033
:1002E0006DF804F02DFB00BF0000080000000000C6
:1002F00000000000000001203430002028580020B9
:10030000000000000000000018DF704711DF704798
:1003100013DF70471FB5022368460093FFF7F4FF11
:10032000FFF7F4FF224BD3F8103513F4007F214B75
:1003300022D14FF42032C3F8F82F1E4CD4F8F80F16
:10034000036803F16043013BB3F5802F08D2B0F599
:10035000702F05D0FFF7DCFFD4F8F83F5B689847B3
:100360004FF47020FFF7D4FF4FF0A0434FF48052BA
:10037000C3F80C2504B010BD4FF0A042D2F81025F0
:10038000920102D44FF47022D5E7D3F8F41F0A4A41
:10039000914208D1D3F8F83F1B6803F16043013B59
:1003A000B3F5802FC9D3034B4FF44032C3E700BFEE
:1003B0000003005000F00320434F494E08B50B4B9B
:1003C0000C22C3F824274FF0A043C3F8642703226C
:1003D000C3F830274FF48052C3F80825FFF79AFF7F
:1003E00000F0A0FD01F00CF8FEE700BF0003005094
:1003F00011DF704738B50C4C0C4A236893420FD874
:100400000B4A0C49158818462A4604F0D7FA0346C9
:100410002B44236000210522074B19701A7138BD47
:1004200001210A22F8E700BF04300020EFFF83001B
:10043000DC420020DE420020D43200202DE9F047CB
:100440001D4E1E4DD6F800A0BAF5702F31D21C4FAC
:100450001C4B3C68B3F80090DFF870801A4908EB39
:1004600004004A464C4404F0A9FAB4F5805F3C60AD
:1004700019D104234FF0000950462B7185F80090E4
:1004800001F08AF830684FF48062414601F09CF830
:100490003368224603F58053FF214046336004F061
:1004A00061FAC7F80090002205232A702B71BDE87D
:1004B000F08701220A23F8E708300020D432002018
:1004C000C8320020DC420020DE420020DB32002067
:1004D000074A0023022113701171064A1360064B6C
:1004E0004FF440321A60054B4FF401021A60704716
:1004F000D4320020BC32002008300020043000201C
:1005000010B5104C43882370FFF7E2FF237853B9EE
:100510000D4B0E4A1A600E4B0E4A1A600E4B4FF4EA
:1005200001021A6010BD012BFCD1FFF761FF064BE1
:100530000A4A1A60064B0A4A1A600A4B4FF44032C4
:10054000EFE700BFDA320020C432002085050F003B
:10055000C0320020F5030F0004300020AD050F006D
:100560003D040F000830002008B5FFF7B1FF02F08E
:1005700099F802F0B3F801F08FFCBDE808400120C3
:1005800001F02ABD064B1A68064B9A4201D9FFF7C3
:10059000EBBF054B00221A7009221A71704700BF89
:1005A00004300020F0FF8300D4320020064B1B688B
:1005B000B3F5702F01D9FFF7D7BF044B00221A7093
:1005C00009221A71704700BF08300020D432002081
:1005D000F8B5454D03682B6043686B600378212BA9
:1005E000044659D14378062B55D8DFE803F0082D8F
:1005F000545404540400BDE8F840FFF769BF3B4B76
:100600001B78DBB93A4B4FF40102C3F8F82F394B92
:10061000394AC3F8F420BFF34F8FBFF36F8FBFF396
:100620005F8FBFF34F8F3549354BCA6802F4E062E4
:100630001343CB60BFF34F8F00BFFDE7012BE6D123
:100640002B4B4FF44032E0E72E4B2F491A682F4BCB
:100650001A602F4BC2881A8000F084FEED88D5B94D
:10066000224B1B78012B16D12A4F3868B0F5702F1A
:1006700011D2294C294E25700423237100F08CFFE0
:100680003268274938689208013200F09DFF05233F
:10069000356025702371F8BDA12BFCD14378022B66
:1006A00007D0032BF7D1BDE8F8401B49062200F024
:1006B00006BD0E4BC2881B7893B91A4E3568124896
:1006C000294604F07BF9E3881D443560E2880E4931
:1006D000204600F0F4FC144B1A680C4B1A60DAE761
:1006E000012BF3D10B4EE9E7CC320020DA320020A7
:1006F00000F0032000FF0320434F494E00ED00E0CF
:100700000400FA05C0320020DE420020BC32002086
:10071000DC42002008300020D4320020C832002003
:10072000DB32002004300020C432002010B5034C1E
:10073000236813B198470023236010BDBC3200200A
:10074000A8DF7047AADF7047ADDF7047AEDF7047A4
:10075000B0DF704762DF70472DE9F0470E4694B076
:100760000546002800F0D080002900F0CD804B68BD
:10077000002B00F0C9804FF6FF730380634B04AA7F
:1007800003F1100C174618685968144603C408335F
:1007900063452246F7D141F230530DF10A01384644
:1007A000ADF80830FFF7D6FF0446002840F0A880D7
:1007B0002A1D02A90120FFF7C3FF0446002840F0CC
:1007C0009F809DF80A70AF7101461C220DA804F0AD
:1007D000C9F89DF834308DF80E7043F004038DF89D
:1007E000343041F23253ADF80C3004F0F80343F0EA
:1007F00003038DF806301423CDE90A44A888ADF828
:100800002C3001AF4FF0110A0DF10C0805F108036F
:1008100008AA0DA9ADF804400C94CDE908878DF81D
:1008200005A0FFF78FFFA1460446002868D10146C6
:100830001C220DA804F096F89DF83430A888ADF875
:10084000044023F0180343F018038DF83430AB79DB
:100850008DF80E3041F23153ADF80C3009F0E80359
:1008600043F013038DF806301723CDE90A4408AA94
:10087000ADF82C300DA905F110030C94CDE90887D3
:100880008DF805A0FFF75EFF0446002838D1014629
:100890001C220DA804F066F89DF83430CDF82A40EB
:1008A00043F002038DF83430AB798DF80E3041F20D
:1008B0003453ADF80C3009F0F80343F003038DF81E
:1008C00006300223ADF82830ADF82C30A888ADF8FA
:1008D000044005F1200308AA0DA9CDE908878DF889
:1008E00004A0ADF82E900C96FFF72CFF044638B903
:1008F0007368AB62B36803B1EB62054B01221A70F7
:10090000204614B0BDE8F0870E24F9E7A14A0F0095
:100910009345002030B587B058B302884FF6FF7377
:100920009A4228D0154B1B782BB3154B0D0A102279
:10093000D9701D710D0C090E1A70072401229971CE
:1009400000219A705C705D71CDF80B108DF80F105E
:10095000018AADF808108DF80A200088ADF806402D
:100960000DF1060202A9CDE90423FFF7EFFE07B05F
:1009700030BD0E20FBE70820F9E700BF93450020BB
:100980008C4500207FB550B302884FF6FF739A4222
:1009900027D0154B1B7823B3144B11221A700A0A67
:1009A0009A700A0CDA700522ADF806200022597000
:1009B000CDF80B20090E8DF80F20028A1971ADF8C1
:1009C000082001228DF80A2000880DF1060202A9F4
:1009D000CDE90423FFF7BAFE07B05DF804FB0E2053
:1009E000FAE70820F8E700BF934500208C45002077
:1009F00010B586B020B304884FF6FF739C4221D017
:100A0000114B1B78F3B1114B9A7000221024CDF8D2
:100A10000B208DF80F20028A59701C700321ADF84D
:100A200008200122ADF806108DF80A2000880DF18B
:100A3000060202A9CDE90423FFF788FE06B010BD27
:100A40000E20FBE70820F9E7934500208C450020A5
:100A500070B50D4688B0044650B149B1826A3AB1CA
:100A60000B88502B48D005D8102B42D0112B53D0D7
:100A700008B070BD512BFBD18B79022BF8D10989BD
:100A8000028A9142F4D1AA7B043A022AF0D99DF855
:100A90001620818A00888DF8103042F001028DF80E
:100AA00016202A8AADF818206A8AADF81A2005F1B6
:100AB000140207920022ADF8062001AAADF8043016
:100AC000CDF808D0FFF740FE48B3E36A03B198477A
:100AD00040F2FD132088ADF8143004A9FFF738FE6A
:100AE0000028C5D0E36A002BC2D008B0BDE8704032
:100AF00018478B882380BBE7C98803899942B7D1FF
:100B000008238DF81030123535F8023C8DF8183076
:100B1000059504A99047ABE74FF6FF73EAE76846EF
:100B200002F0BDFD0028D3D000262088ADF8146067
:100B300004A9FFF70DFE0028D4D1297D4B1E072BF9
:100B40003ED8DFE803F004192226282A3B2C6B8AC2
:100B50008DF80460012B05D8062201212046FFF7FD
:100B600047FFBDE7012315358DF80C300295A36AC8
:100B700001A9204698477BE76A8A01239A428DF8AB
:100B80000430F0D806220221E8E702238DF8043071
:100B9000EDE70323FAE70423F8E70523F6E76B8A7A
:100BA000022B02D803220821D8E7B5F81530ADF89A
:100BB0000830002B14BF06230723E7E70923E5E7E6
:100BC0000322CBE7BFF34F8F0549064BCA6802F4F7
:100BD000E0621343CB60BFF34F8F00BFFDE700BF60
:100BE00000ED00E00400FA0576DF70477ADF704719
:100BF0007CDF70477FDF70478FDF7047B1DF704762
:100C000011DF70470388212B13B5044620D00CD880
:100C1000112B19D0132B23D0102B11D0184821469B
:100C200002B0BDE81040FFF713BF522B20D0562B67
:100C300001D03B2BF2D1A0881321FFF7D5FFEDE7C0
:100C40008288104B1A80E9E70E4B4FF6FF72F9E7E6
:100C5000002301A98088ADF80430FFF7CDFFDDE760
:100C6000084800231A4685210088FFF7C3FFD5E70F
:100C7000044800231A4619460088FFF7BFFFCDE756
:100C8000804D002010300020037823B9024B3B2117
:100C90001888FFF7A9BF7047103000202DE9F341F5
:100CA0000B7805460E46092B3CD8DFE813F03100DF
:100CB0003E0046000A001E002F00C700D0004A0078
:100CC000D500694B002219684FF4403003F0FCFD59
:100CD000664B1B8883420CBF012205220421284653
:100CE00002B0BDE8F041FFF783BE614B614D4FF4A8
:100CF0004032C3F8F82F604AC3F8F42F642445F05B
:100D000001054FF47A40A847013CFAD1FFF75AFF9A
:100D10005A4B01221A70544A00231360534A13801D
:100D2000574A136002B0BDE8F081544B022119709C
:100D300073681A78012AF5D1D1E7504B03221A7053
:100D4000F0E74E4B1978022917D003291AD0012950
:100D5000E8D173689A68444BB2F5402F1A600AD202
:100D60000346120B474801324FF4403102B0BDE850
:100D7000F04103F04CBB0322B1E773689A893B4B07
:100D80001A80CFE7404C414FDFF810813B78206854
:100D900071684FF47A7202FB03004044327A03F028
:100DA0000DFE337A2268364E1A44226032681344AC
:100DB00022683360B2F57A7F03D02B4A12689342DF
:100DC00025D12168C1F540311944236813F003038C
:100DD00018BF236822681CBF03F00303C3F1040398
:100DE0001344236023680B44B3F5702F23D23A7861
:100DF000236800954FF47A7000FB0282214803F0CB
:100E0000D4FA3B7883F001033B7000232360204B2E
:100E10001B78002B86D01F4C2388013B9BB223807C
:100E2000002B7FF47FAF31682846FFF7ABFD1A4BEC
:100E30001B88238076E7FFF7E3FEE2E7144B0122ED
:100E40001A70154A8B881380124A13806AE7104A79
:100E500000231370104AF8E7094B196802B0BDE887
:100E6000F041FFF757BD00BF6C4D0020704D0020D2
:100E700000F00320C04A0F00434F494E784D002038
:100E8000744D00202030002098450020944500201B
:100E90007E4D00207A4D00207C4D00209C45002096
:100EA000436810B533B106220321BDE81040406904
:100EB000FFF79EBD0278012A02D0022A1CD010BD85
:100EC0004FF0A044D4F80435D94301F4805103F421
:100ED0008053C4F80815C4F80C35094B1968094B40
:100EE0001B689942EBD140690321FFF781FD4FF464
:100EF0008053C4F80C35E2E701221146D5E700BF64
:100F0000744D00206C4D002010B5054C002120468A
:100F100002F064FA20461721BDE8104002F071BAD1
:100F2000085000202DE9F041B0B0414C414F02F093
:100F3000C1FF002601F090FD05A90120059601F0F2
:100F400057FE05A801F098FE2068616802AD05AB68
:100F500003C31222112338498DF808302846FFF7C1
:100F600047FE05A8FFF742FEFFF7CEFF04F1080396
:100F700093E8070085E8070029463048FFF7ECFBB7
:100F80006069A1696B4603C33E2231460DF116002C
:100F900003F0E8FC1423ADF81430294B0693062324
:100FA000ADF81C30274B0893274BCDF84CD01D686B
:100FB00007354FF0010828468DF8508003F00CFDEE
:100FC000ADF8340005A80E9501F0AEFE3146AC2216
:100FD00005A803F0C7FC02238DF814300523402236
:100FE0008DF8173005A944F250633846CDE9272320
:100FF0008DF890801C3403F014F84146384603F015
:101000000DF80FCC05AD0FC594E8070085E8070083
:1010100005A802F0E7FC0321384603F077F80B4BF4
:101020000B481968324630B0BDE8F04103F0AFB963
:10103000C84A0F00B04D0020614A0F00804D0020CB
:10104000744A0F00894A0F00003000200C30002045
:101050002030002008B54FF0E023D3F8F03DDB0747
:1010600000D500BEFFF7AEFD0378022B08BF438812
:101070000BB901F019B901F01AB9012808B509D066
:10108000022813D0D0B900F0D3FFB8B9BDE80840AA
:1010900000F002BF00F0D6FF08B101F003FB00F042
:1010A000C7FF58B1BDE8084001F018BB00F0CAFF07
:1010B00020B9BDE80840012000F08EBF08BD1FB573
:1010C000C3880191934294BF0293029201A9002325
:1010D0008020039301F00AF805B05DF804FB0000DE
:1010E00013B503780446062B08D8DFE803F00C0993
:1010F0000409092D1300884B01221A7002B010BD9B
:10110000854B0022F9E7854A136801331360844B4D
:101110001B78F3E7C378032BF0D0FFF707FBA37826
:10112000802B0ED14FF08053D3F83021082A03D101
:10113000D3F83431002BE1D002B0BDE8104001F00B
:10114000B3B8002BDAD1EDE7684601F049F8BDF8F5
:101150000420042A0AD19DF80130EE2B06D1BDF8F7
:10116000062070496846FFF7AAFFC7E79DF80030E0
:1011700003F07F01212903D16846FFF729FABDE773
:101180009DF801100B2900F2BD8001A050F821F05C
:10119000C1110F0003120F0005130F000B120F00F7
:1011A00005130F00FD100F0013120F0005130F00A1
:1011B000D5120F00E5120F0001130F000B130F00E3
:1011C000812B0BD0822B15D0802B40F09B80D2B28C
:1011D000002A40F0978054490222C3E7504B1B7805
:1011E000002B00F08F80D2B2002A40F08B804F4954
:1011F0000222B7E7D2B2002A40F084804C49022292
:10120000B0E76846FFF730FF78E76846FFF72CFF46
:1012100074E7BDF80220110A013909293FF66EAFC3
:1012200001A050F821F000BF51120F005D120F0015
:1012300069120F00B5120F00FD100F00C9120F0048
:10124000FD100F00FD100F00FD100F00C9120F0060
:10125000802B7FF453AF3749122283E7802B7FF432
:101260004DAF354924227DE7802B7FF447AFD2B2C2
:10127000052A07D8013A042A0AD8DFE802F00C0F41
:1012800012151800EE2A7FF439AF2C49122269E7B3
:101290002B49042266E72B492A2263E72A492422A4
:1012A00060E72A491A225DE7294908225AE72949B5
:1012B0000C2257E7802B7FF421AFD2B2002A7FF4B3
:1012C0001DAF254909224DE7802B7FF417AF00F0B1
:1012D000EBFF13E7124B1B7801220BB11F4941E7CB
:1012E0001F493FE7002B7FF409AFBDF806301A43D2
:1012F0007FF404AFBDF80230FF2B3FF6FFAEE6E708
:10130000212BE4D000F0D3FFF8E6012BFAD1684698
:10131000FFF7F6F8DBE700BF305000202C5000202C
:10132000315000200C4B0F000A4B0F00084B0F00F0
:10133000064B0F00D04B0F00AC4B0F00344B0F008F
:10134000A84B0F007E4B0F005A4B0F00325000206D
:10135000524B0F00464B0F00B54B0F00054B0F00D3
:10136000044B0F001FB50446CDE90112002001A96E
:10137000039000F0BBFE00F055FFE3880BB900F0CE
:1013800093FF04B010BD00004FF080520E49D2F818
:10139000A830D2F8A4206FEA834330B56FEA9343B4
:1013A0000A4D9BB2A1F10C0002F00F0412092C5D52
:1013B00001F8014D814242EA03724FEA1313F3D15F
:1013C00000230373024830BD28500020904A0F00CC
:1013D0001C50002010B5FFF7D7FF084B1A221A70D7
:1013E00003225A700021421E0B3012F8014F9C70EC
:1013F0008242D97003F10203F7D110BD32500020B0
:1014000008B5094800F032FE4021002000F028FE17
:101410004021802000F024FE044800F083F9BDE85C
:101420000840FFF7D7BF00BFE1100F00004B0F00CF
:101430004FF08053D3F83021082A03BFD3F834018A
:10144000B0FA80F0400900207047000008B54FF066
:1014500080430022C3F80C21C3F81021C3F83825BB
:101460004FF0805203F54043D2F80414C3F820151E
:10147000D2F80814C3F82415D2F80C14C3F82815B0
:10148000D2F81014C3F82C15D2F81414C3F8301580
:10149000D2F81814C3F83415D2F81C14C3F8401548
:1014A000D2F82014C3F84415D2F82414C3F8481510
:1014B000D2F82814C3F84C15D2F82C14C3F85015E0
:1014C000D2F83014C3F85415D2F83414C3F86015A8
:1014D000D2F83814C3F86415D2F83C14C3F8681570
:1014E000D2F84014C3F86C15D2F84424C3F8702520
:1014F000FFF79EFF18B11D4B1D4AC3F88C26FFF75E
:1015000097FF18B11B4BFB22C3F81825FFF790FF7C
:1015100058B14FF080424FF08051D2F8E43ED1F8FC
:10152000581261F30303C2F8E43EFFF781FF20B1D4
:10153000114B4FF40072C3F840264FF08043D3F8AC
:101540000024D20744BF6FF00102C3F800240B4A05
:10155000D2F8883043F47003C2F88830BFF34F8F5D
:10156000BFF36F8F064B074A1A6008BD005000405A
:101570004881030000F000400090024000ED00E0D0
:10158000143000200090D003024AD2F80034002B1F
:10159000FBD0704700E001400A4908B50223C1F8BA
:1015A0000435BFF36F8FBFF34F8FC1F80805FFF706
:1015B000EBFF0023C1F80435BFF36F8FBFF34F8FEC
:1015C00008BD00BF00E0014070B50E4E0123154676
:1015D000C6F80435BFF36F8FBFF34F8F0024AC42C2
:1015E00007D10023C6F80435BFF36F8FBFF34F8FC9
:1015F00070BD51F8243040F82430FFF7C5FF0134A6
:10160000EDE700BF00E0014036DF70474DDF704777
:101610004EDF70474FDF704750DF704710B504460C
:10162000FFF7F6FF40B92046FFF7F0FF20B920464C
:10163000BDE81040FFF7EEBF10BD012810B504460D
:1016400002D101F0BFF8804701F0C2F8034668B14B
:101650000A2C07D00B2C07D0092C07D10220BDE89B
:10166000104018470020FAE70120F8E710BD0000FD
:10167000012813B5044603D003281CD002B010BDC6
:1016800000230DF107008DF8073001F019F901F082
:1016900099F810B12046FFF7B7FF9DF8070001F059
:1016A00033F901F095F80028E8D0012002B0BDE838
:1016B0001040FFF7B3BF0D4BC02283F80023012277
:1016C000C3F880211A6001F07DF820B14FF080430B
:1016D0000422C3F8042301F07BF80028CED04FF099
:1016E00080434FF46072C3F80423C7E700E100E0D1
:1016F00013B500240DF107008DF8074001F0E0F864
:1017000001F028FA58B12046FFF788FF9DF807003E
:1017100001F0FAF802B0BDE8104001F073B801F032
:101720006AF8F3E713B50446FFF7E2FF204601F03D
:1017300055F801F00FFAA8B10120FFF76FFF04463A
:1017400068B901A8FFF768FF044640B9019BDB07B1
:1017500004D501F03DF80346204698470024204672
:1017600002B010BD01F040F8F8E700F1804000F54C
:101770001C3001230360BFF36F8FBFF34F8F70479F
:1017800010F0080F074B06D0D3F8C00410F4803FC8
:1017900018BF0020704700F00F0000F5947053F858
:1017A00020007047007002404FF08053D3F8302182
:1017B000082A03BFD3F83401B0FA80F040090020B2
:1017C00070474FF08053D3F83021082A07D1D3F85F
:1017D0003401013802288CBF00200120704700200E
:1017E000704730B5D1E900549C4229BFC0E900538D
:1017F0000021E41AED1832BFC0E900514C600D60C1
:10180000934203D1201E18BF012030BD0020FCE709
:101810004B6810B59A420C6828BF1A46C0E90042CE
:10182000981A0B684860134400380B6018BF0120F9
:1018300010BD30B54C680B68A24228BF2246002A72
:1018400014BF1D460025A4EB02041344C0E9005256
:101850004C600B6014BF0120002030BD054B10F020
:10186000800F03F1900218BF134600F00F0003EB46
:1018700000107047D0530020C343C3F3C01300F0DF
:101880000F0000EB03107047034A0023C2F81C3C12
:10189000024A1370704700BF00700240F4540020E9
:1018A00007B5074A00231370064A137001230193FA
:1018B000054B01A81B68984703B05DF804FB00BF07
:1018C00001550020005500200455002070470000FD
:1018D00013B5124C0122236802FA01F10B43236075
:1018E0000F4B1B68194003060DD551B906238DF81F
:1018F00004308DF806008DF807100A4B01A81B680C
:10190000984702B010BD0029FBD106238DF80430A2
:101910008DF806008DF80720EFE700BFFC5400208B
:10192000F85400200455002008B5054B1A781046DD
:10193000FFF7A2FFBDE8084001461046FFF7C8BF09
:10194000005500201C4B13B5D3F80044C3F80044E5
:10195000BFF36F8FBFF34F8FBFF36F8FBFF34F8F07
:10196000E10508D5154B01221A7002230193144B8F
:1019700001A81B689847A20508D5104B00221A70D1
:10198000032301930E4B01A81B689847630511D5EB
:101990000A4B1A7872B100221A70074B0122C3F861
:1019A00008255820FFF7E1FE04230193044B01A80A
:1019B0001B68984702B010BD00700240015500201E
:1019C000045500204B689A4228BF1A460A4B70B54E
:1019D0000C46064609681846154602F0EFFFC6E9B0
:1019E000000560682368401B60602B44003823605A
:1019F00018BF012070BD00BFB85200204B689A424A
:101A000028BF1A4670B506460D46144682B10968CD
:101A1000084802F0D3FF074BC6E900346B681B1B74
:101A20006B602B68201E23442B6018BF012070BD03
:101A30001346F1E7B852002008B5FFF725FF084B21
:101A400093F89E20032A06D1BDE8084005486FF0B0
:101A5000010100F087BFD3F89030002BF4D008BD0F
:101A6000D0530020F854002008B5FFF70DFF0146C1
:101A7000FFF7F4FE837B032B0AD10846FFF7FCFE39
:101A800001218140BDE808400348C94300F06ABF16
:101A90000368002BF1D008BDF85400208720FFF721
:101AA000E3BF8620FFF7E0BF8520FFF7DDBF84207E
:101AB000FFF7DABF8320FFF7D7BF8220FFF7D4BF3D
:101AC0008120FFF7D1BF000007B500238DF8043057
:101AD0000B4BD3F82025ADF80620D3F8C034094AC3
:101AE000002B136814BF4FF001214FF480710B439A
:101AF0001360054B01A81B68984703B05DF804FB11
:101B000000700240FC5400200455002007B5FFF788
:101B1000BBFE114B93F81E21032A07D10F486FF427
:101B2000807103B05DF804EB00F01CBFD3F81031F6
:101B300073B90A486FF4807100F014FF06238DF822
:101B400004308823ADF80630054B01A81B68984780
:101B500003B05DF804FB00BFD0530020F854002010
:101B60000455002007B5FFF78FFE0D4B93F88E202C
:101B7000032A11D0D3F8803073B90A486FF080710E
:101B800000F0F0FE06238DF804300823ADF806308F
:101B9000054B01A81B68984703B05DF804FB00BF24
:101BA000D0530020F8540020045500202DE9F04FB8
:101BB000724B1B7885B0002B40F08480DFF8D48115
:101BC0006F4DD8F800102B6819407BD011F001231D
:101BD0007BD093FAA3F3B3FA83F10F2986BFA1F167
:101BE0001004E4B241F080042046FFF737FE4FFABC
:101BF00084FA4FF0010B0BFA01FBBAF1000F81469A
:101C00006FEA0B0B66DA03688289416802A898477D
:101C100008B9C9F800005B4B58498222C3F81C2C54
:101C200001220A702A68D9F8081002EA0B022A6019
:101C3000039ABAF1000F1144C9F8081004F0080023
:101C4000029904F00F0473DA002869D0C3F8A016D3
:101C5000C3F8A426FFF7A8FD26B2A3004A4A4B49C1
:101C60004FEADA756400002872D0002D484D454FC8
:101C700012BF042028200A461E18144445F001050E
:101C80004FF00008C7F80481BFF36F8FBFF34F8F89
:101C90003046FFF76AFD8020A847D7F80431002BB3
:101CA000F0D04FF4F060A847D7F874349B064DD5B8
:101CB0004020A847238803F1804303F51C331B68A9
:101CC000002BDDD005B0BDE8F08F91FAA1F1B1FA9B
:101CD00081F182E72046FFF753FDB9F80C20D9F8CF
:101CE0000410D9F800600346074602A8B047029ADC
:101CF000002A8DD0039A97428AD9022789F80E705C
:101D00005946244800F02EFE06238DF80430224B5D
:101D10008DF806401B688DF8077001A8984750E7BA
:101D2000142000FB0433C3F80016C3F8042691E71F
:101D300020B1C3F8A017C3F8A4278BE7142000FB39
:101D40000433C3F80017C3F8042783E78020AAE709
:101D5000BAF1000FACBF28200420002D08BF0A46AE
:101D60001844FFF702FD32F8163003F1804303F503
:101D70001C331A68002AFCD0A4E700BFF4540020EA
:101D8000FC54002000700240F44B0F00E24B0F00A7
:101D9000104C0F00F85400200455002037B5FFF711
:101DA00073FD0446FFF75AFD837B032B0DD12046BC
:101DB000FFF762FD01218140C943104800F0D2FDC8
:101DC00003B0BDE83040FFF7F1BE0568002DF7D144
:101DD0002046FFF751FD01218140C943074800F02B
:101DE000C1FD06238DF80430054B8DF806401B68B5
:101DF0008DF8075001A89847E2E700BFF85400208B
:101E0000045500200720FFF7C9BF0620FFF7C6BF13
:101E10000520FFF7C3BF0420FFF7C0BF0320FFF773
:101E2000BDBF0220FFF7BABF0120FFF7B7BF000018
:101E300038B5174BD3F86C44C3F86C44BFF36F8FBD
:101E4000BFF34F8FFFF7B0FC38B1124A136823F08D
:101E5000011103F001130C43136001251CB9BDE807
:101E60003840FFF7A3BE94FAA4F1B1FA81F30F2B27
:101E7000C8BFA3F110001946D4BF43F08000C0B220
:101E800005FA03F324EA0304FFF722FDE6E700BFA7
:101E900000700240F0540020494B4FF4006213B52B
:101EA000C3F80024BFF36F8FBFF34F8FFFF789FC98
:101EB000C0B100230DF107008DF8073000F000FDE0
:101EC000404BD3F8001C0322002970D149F2753130
:101ED000C3F8001CC3F8142DC3F8001C9DF80700BC
:101EE00000F012FD00230DF107008DF8073000F01F
:101EF000E7FC344BD3F8001CC02200295AD149F228
:101F00007531C3F8001CC3F8142CC3F8001C9DF8ED
:101F1000070000F0F9FC2A4B0122C3F80025BFF3AB
:101F20006F8FBFF34F8FD3F800241205FBD54FF40A
:101F30000062C3F80024BFF36F8FBFF34F8F0024FC
:101F40000DF107008DF8074000F0BAFC1D4BD3F8E7
:101F5000001C91BB49F27532C3F8002CC3F8141C65
:101F6000C3F8002C9DF8070000F0CEFC144B40F2A3
:101F7000E372C3F800284022C3F80428BFF36F8F30
:101F8000BFF34F8F00218022C3F81C25C3F8301502
:101F90000D4B40F2FF121A600C4B1960FFF774FCF6
:101FA0000B4B19700B4B02221A7002B010BDC3F814
:101FB000142D93E7C3F8142CA9E7C3F8144CD1E708
:101FC0000070024000E00640FC540020F85400205D
:101FD000005500200855002008B5104B00221A704B
:101FE000C8B9FFF7E1FB0E4B0E4A002808BF1346A5
:101FF0000D4AC2F804330D4BC02183F8271380210A
:10200000C3F8841159600123C2F80435BFF36F8F00
:10201000BFF34F8F08BD024BEAE700BF0155002018
:102020000714E0010714C0010070024000E100E065
:10203000034B1878012894BF00200120704700BF8F
:1020400008550020044B1B78012B83BF034B5868B5
:10205000C0F3C010002070470855002000E100E0E8
:1020600008B5FFF7FBFB818108BD000070B50028B3
:1020700033D01C4B1C7894BB1B4A106001221A7091
:10208000264664F07F0514F0080FEDB20CBF402126
:102090004FF400712846FFF7E3FF2846FFF7DEFB09
:1020A0000134092C867306608660EAD10024254637
:1020B00014F0080FE6B20CBF40214FF40071304617
:1020C000FFF7CEFF3046FFF7C9FB0134092C8573BB
:1020D00005608560ECD1002070BD0720FCE708207A
:1020E000FAE700BF08550020045500202DE9F3470A
:1020F000002380460DF107008A468DF8073000F076
:10210000DFFB18F00F0503D12A4B1B7843454CD158
:10211000294B2A4F1C683E684046FFF7ADFBE4435D
:10212000A4B24FF00109344309FA00F914EA090492
:102130003DD14046FFF792FB0C2218F0800F03467A
:1021400002FB05F52DD01E4ADAF80010154401F007
:102150006041DAF80820B1F1005F02F001021BD102
:10216000C2B9184A1A609AE8070085E807000022F9
:102170009A609A735D60144B46EA090680223E60BD
:10218000C3F804219DF8070000F0BEFB204602B012
:10219000BDE8F0870D4AE5E70AB90D4AE2E70D4AC6
:1021A000E0E70D4A15440D4ADCE71024EAE7112464
:1021B000E8E700BF00550020FC540020F854002040
:1021C0006453002011180F0000E100E033180F00E5
:1021D000C5190F00FD190F00F8520020E3170F007A
:1021E0000023036043600E4BD3F880240270D3F8C1
:1021F00084244270D3F88824D3F88C1442EA012254
:102200004280D3F89024D3F8941442EA01228280C9
:10221000D3F89824D3F89C3442EA0323C380704750
:102220000070024008B5FFF7BFFA58B1EFF3108213
:1022300072B64C20FFF799FA4C20FFF796FA82F31A
:10224000108808BDBDE808404C20FFF78EBA00009A
:1022500013B5FFF719FB114B9A7B032A07D11048DE
:102260006FF4803102B0BDE8104000F07BBB1C6809
:102270007CB96FF480310A4800F074FB06238DF8B6
:102280000430084BADF806401B6801A8984702B01F
:1022900010BD02B0BDE81040FFF7C4BFD05300200E
:1022A000F8540020045500205020FFF75EBA542057
:1022B000FFF75BBA73B50446FFF776FA214D10B30A
:1022C00000260DF107008DF8076000F0F9FA2046AE
:1022D000FFF7D2FA012303FA00F02B6804F00F0491
:1022E00023EA00032B606400174B04F2C574C3F8A3
:1022F0000048C3F80468D3F804389DF8070000F0DC
:1023000003FB02B070BD8DF807000DF1070000F06F
:10231000D7FA2046FFF7B0FA012303FA00F02B6842
:1023200014F0080223EA00032B60E6D104F00F0446
:10233000054B04F5947443F82420BFF36F8FBFF36B
:102340004F8FDAE7FC540020007002402DE9F34182
:10235000002304460DF103008DF8033000F0B0FABD
:102360002046FFF77BFA14F0800F354905461FD150
:102370002046FFF781FA0A68012303FA00F030EAE9
:1023800002030BD02046FFF795FF0323AB739DF8A4
:10239000030000F0B9FA02B0BDE8F08122EA0002C1
:1023A0002B600A60274A136823EA00031360ECE7F6
:1023B000230715D4802C244B35D004F00F0202F2F1
:1023C000DA325200C3F80028D3F80428D3F80408FE
:1023D000D2B242F002020243C3F80428D3F8043810
:1023E000184F0E683A682046FFF746FA012366EA5E
:1023F000020803FA00F018EA000FC8D026EA000627
:1024000000230E602B6003230243AB738DF807306B
:102410000E4B3A6006221B688DF804208DF80640AA
:1024200001A89847B3E740F2B472C3F80028D3F884
:102430000428D3F80408D2B242F00402CBE700BF6C
:10244000F8540020FC540020007002400455002085
:1024500073B5154B154CD3F880542368144EDA43EA
:10246000144B31781B6892B208461A43FFF704FAFE
:1024700001238340134202D00846FFF767FF6FF045
:10248000011125F07F050B48357000F06BFA2368C9
:1024900043F00103236005230193074B01A81B6848
:1024A000984702B070BD00BF00700240FC5400208D
:1024B00000550020F854002004550020604B2DE901
:1024C000F041D3F80443002122460E460125002A9C
:1024D00040F09280FFF768F900287ED0594B1B78B6
:1024E000002B7AD1880278D5554B554F40F2A9720E
:1024F000C3F80028D3F8040810F0FF001CBFD3F87D
:102500000428104040F2AA72C3F80028D3F8042827
:1025100012F0FF021CBFD3F804381A4040F2AB732C
:10252000C7F80038D7F8043813F0FF031CBFD7F8FA
:1025300004582B4040F2AC75C7F80058D7F804583F
:102540002840414D0AD02E6806432E6040F2A976FD
:10255000C7F80068C7F80408D7F80408384840F2FC
:10256000AD76C0F80068D0F8046832400BD02E6811
:1025700046EA02462E6040F2AA76C0F80068C0F82B
:102580000428D0F804282E4A40F2AE70C2F80008A1
:10259000D2F80428134011D043F3000202F40002E1
:1025A0001143DA06264A40F2AB70C2F80008C2F8BE
:1025B0000438D2F8043848BF41F001012B6833F0E9
:1025C00001121CBF04F08070014313F0011F04D0FE
:1025D000630544BF2A6041F480611C4F01F400068A
:1025E00021F400044FF00108E4B9FFF7DFFA2EB33D
:1025F000BDE8F041FFF72CBF92FAA2F31448B3FAFA
:1026000083F39F00384407683FB10660BFF36F8FC4
:10261000BFF34F8F05FA03F0014305FA03F322EAF3
:10262000030254E794FAA4F5B5FA85F557F8253076
:1026300008FA05F5984724EA0504D5E7BDE8F081D6
:1026400000700240F4540020F0540020184C0F0099
:1026500000710240F8B5114E114B34681B686FF3DE
:102660000F041C4301271CB940F2FF133360F8BD6F
:1026700094FAA4F0B0FA80F50F2D2846C6BFA5F154
:102680001000C0B240F08000030701D4FFF75EFEE7
:1026900007FA05F524EA0504E5E700BFFC5400202D
:1026A000F854002010B50B4C63681B0610D5FFF7DB
:1026B000D1FF094B0022C3F80425BFF36F8FBFF38E
:1026C0004F8F8022C4F884204FF0FF32C3F80823D4
:1026D00010BD00BF00E100E00070024013B5FFF73D
:1026E000E1FF174B0024D3F80423C3F80823C3F8F1
:1026F0000045BFF36F8FBFF34F8FFFF7C5F8114B46
:1027000001221A70FFF75DF8A8B10DF107008DF8EE
:10271000074000F0D5F80C4BD3F8001C69B949F21A
:102720007532C3F8002CC3F8141DC3F8002C9DF8B3
:10273000070000F0E9F802B010BDC3F8144DF6E749
:10274000007002400855002000E0064000F1804083
:10275000002382B0036003680193019B02B07047BD
:102760004FF0804110B5D1F8003163B14FF4807063
:10277000FFF7ECFF0D4B58790122C1F8082310B97F
:102780005A711B6898474FF08042D2F8043163B108
:102790004FF48270FFF7DAFF0223C2F80833034BCD
:1027A000BDE810401B680120184710BD0C550020E3
:1027B00000F180431A68002A1BBF0022012000207C
:1027C0001A607047014B1868704700BF1C55002005
:1027D000014B1868704700BF14550020014B026878
:1027E0001A607047145500204FF080434FF4607218
:1027F000C3F8042370474FF080434FF46072C3F86E
:1028000008237047014B00221A60704714550020BE
:102810004FF0804310B5D3F80443620707D54FF457
:102820008470FFF7C5FF10B11E4B1B689847A306C5
:1028300008D54FF48A70FFF7BBFF18B11A4B002080
:102840001B689847600608D54FF48C70FFF7B0FFFF
:1028500018B1154B01201B689847210608D54FF485
:102860008E70FFF7A5FF18B1104B00201B6898472A
:10287000E20508D54FF49070FFF79AFF18B10B4BA3
:1028800001201B689847A3050AD54FF49270FFF703
:102890008FFF28B1054BBDE810401B680220184788
:1028A00010BD00BF1C5500201855002014550020F5
:1028B00008B5FFF7ADFFBDE80840FFF751BF0000C6
:1028C00070B5EFF3108672B60C4A9468012384B990
:1028D00093600B4B0B4DD3F8801029401160C3F867
:1028E0008050D3F8841051604FF0FF32C3F8842039
:1028F0002346037006B962B670BD00BF20550020A4
:1029000000E100E0FC06FFBD084B9A6810B55AB123
:1029100050B9EFF3108172B6054A1C6814605C6808
:102920005460986001B962B610BD00BF2055002008
:1029300000E100E010B5034653E8000F40EA010251
:1029400043E8002494F0000FF6D110BD10B5034603
:1029500053E8002F42EA010043E8000494F0000F1E
:10296000F6D110BD10B5034653E8002F02EA01006E
:1029700043E8000494F0000FF6D110BD0121FFF7E9
:10298000D9BF1FB50021039001AA44F20100CDE98F
:102990000111FEF75FFB05B05DF804FB10DF704727
:1029A00011DF704713B504460949684600F0C4FDBD
:1029B000019808B902B010BDD0E90031204698470F
:1029C00018B1684600F0C0FDF2E71120F2E700BF41
:1029D000944C0F0013B504460749684600F0ACFD5F
:1029E000019B0BB902B010BD2046D3E900219047EE
:1029F000684600F0A9FDF3E7884C0F00064B9A6883
:102A000022B11A6822F480021A607047034B4FF417
:102A10008002C3F8802070472055002000E100E0CC
:102A20000B4991F81623EC2352091341DB0706D515
:102A3000084B9A683AB94FF480030B60704742F232
:102A40000200FFF79EBF1A6842F480021A607047C6
:102A500000E100E020550020F7B5194F3C7864BB39
:102A6000184E012520463570FFF79CFF112821D014
:102A70002046FFF7AFFF144B8DF803401868019014
:102A80000DF10300FFF71CFF104901A8FFF786FFB7
:102A90000446B0FA80F0400938709DF80300FFF753
:102AA00033FF3CB90A4B34701C70FFF7B9FF28465E
:102AB000FFF790FF204603B0F0BD0824FAE700BFFF
:102AC0002E5500202C550020A04C0F0055100F0053
:102AD0002D550020F7B5154F3B781BB3144E012040
:102AE0003070FFF75FFF11284FF000051CD0022067
:102AF000FFF770FF0DF107008DF80750FFF7E0FEBC
:102B0000FFF74EFF04469DF807003D70FFF7FCFEFF
:102B10002CB903203470FFF771FFFFF75BFF2046ED
:102B200003B0F0BD0824FAE72C46F8E72E55002044
:102B30002C550020054B1B7833B1054B1B780BB18E
:102B4000FFF7C8BFFFF788BF082070472C5500204B
:102B50002E550020014B1878704700BF2E550020DD
:102B600007B50849684600F0E7FC019B13B903B0BC
:102B70005DF804FBD3E900209047684600F0E4FCD0
:102B8000F3E700BF7C4C0F00FFF7EABF60DF704740
:102B900069DF704761DF704730B5134B1B7891B028
:102BA000FBB1124D34240DF1020103A8ADF802402F
:102BB000FFF7F0FF70B9294601A800F0BDFC029BA9
:102BC000002BF0D003A8D3E90021904701A800F022
:102BD000BBFCF4E7052804D011B0BDE83040FFF796
:102BE000D0BE11B030BD00BF2F550020A44C0F0047
:102BF0007FB50D4600293BD000241E4A0A60CDE96E
:102C00000144062301268DF8040001A92020ADF817
:102C1000083003948DF80660FFF7BAFF2A68039422
:102C200001A94020CDE901448DF80560FFF7B0FF10
:102C300002232A68039401A93046CDE901448DF8A6
:102C40000430FFF7A5FF4FF4B0632A68019301A990
:102C5000A120CDE90244FFF79BFF2A68039401A954
:102C6000A020CDE90144FFF793FF204604B070BDDA
:102C70000E20FBE70030002008B5FFF787FF10B9F2
:102C8000014B01221A7008BD2F5500204BDF704701
:102C90001FB50E4C01A8FFF7F9FF70B9214602A835
:102CA00000F04AFC039B002BF4D00198D3E90021EB
:102CB000904702A800F048FCF4E7052804D004B0CF
:102CC000BDE81040FFF75DBE04B010BDB04C0F0072
:102CD000A8DF7047F0B5074689B014461E460D467A
:102CE00011B90846FFF74DFE14B92046FFF749FE1B
:102CF0001E2200210DF1020001F034FE02238DF8A6
:102D00000D30084B0E9A1888ADF800706946ADF882
:102D10000440ADF8064002958DF8116000F0C3FC48
:102D200009B0F0BD7855002030B587B041F60A03F0
:102D30005E4AADF80C30044603A901208DF80E0060
:102D4000FFF7C6FF0546002849D12288002A49D14D
:102D5000228952B1564B009394F83C30E16842F618
:102D60002420FFF7B7FF002847D1228A52B1514BE8
:102D7000009394F83C30616942F62520FFF7AAFFE2
:102D800000283AD1228B52B14B4B009394F83C303F
:102D9000E16942F62720FFF79DFF00282DD1228C04
:102DA0004AB1464B009394F83C30616A42F62620C3
:102DB000FFF790FF08BB228D4AB1414B009394F876
:102DC0003C30E16A42F62820FFF784FFA8B9236B64
:102DD000ABB9616B002938D1A36B002B42D12846D7
:102DE00007B030BD374B009394F83C30616842F631
:102DF0002920FFF76FFF0028AAD00546EFE71A68E1
:102E00008DF810201A68120A8DF811205A888DF852
:102E10001220DA788DF813205A688DF814209B68F8
:102E20008DF815301A0A1B0C8DF81730264B0093BD
:102E30008DF8162094F83C30082204A942F623208D
:102E4000FFF748FF0028C4D0D7E7204B0A7900934A
:102E500094F83C30096842F62A20FFF73BFF00282F
:102E6000BAD0CAE71A788DF810205A888DF8112048
:102E7000120A8DF812209A888DF81320120A8DF804
:102E80001420DB888DF815301B0A8DF81630104B96
:102E9000009394F83C30072204A942F65020FFF733
:102EA00019FF002818BF054699E700BF7855002094
:102EB00068550020605500205855002050550020CE
:102EC00048550020705500204055002038550020FE
:102ED000305500206DDF704779DF70477DDF704728
:102EE00064DF70472DE9F04F85B000260E9CBDF8D9
:102EF0003CB0B4F800A00191074690461D46B1468B
:102F00003A884A4505DC002E37D1002005B0BDE8DF
:102F1000F08F7A6852F82900039000220DF10B011E
:102F200003A8FFF7DDFF0028F0D19DF80B204245F4
:102F300020D1228886F0010002EB080101EB40015C
:102F4000594524DC3EB9013292B2019B2280AB5438
:102F500022880132228022880DF10B012A4403A825
:102F6000FFF7BEFF0028D1D121889DF80B200A442D
:102F70002280012609F10109C2E72388013BA3EB66
:102F80000A039BB2FF2B02D805F80A30BDE70C20DC
:102F9000BCE72DE9F341089FBDF824801546CDE933
:102FA0000078022204461E46FFF79CFF50B93346C4
:102FB000102229462046CDE9087802B0BDE8F0414C
:102FC000FFF790BF02B0BDE8F0812DE9F04F00237C
:102FD0001788138090F82D3085B006460D461446AC
:102FE0005BB3082F40F2B28102A8FFF773FF0028FD
:102FF00040F0E2802388DDF809100822EA54238893
:1030000001339BB21B222380EA54238801339BB2F5
:10301000EA182380E950BDF80D30938023889DF88D
:10302000082006339BB2012A88BF0122238094BF67
:10303000E854EA54238801332380B37803B3238808
:103040000433BB4200F2828102A8FFF745FF00284B
:1030500040F0B28023880322EA54238801339BB2D4
:1030600019222380EA542388BDF8082001339BB23B
:10307000E9182380EA54120A4A7023880233238015
:10308000F278A2B12388D91CB94200F25F810221F3
:10309000E954238801339BB201212380E95423881A
:1030A0000B449BB22380EA5423880B44238073682B
:1030B000B3B193F900202388D91CB94200F24681AC
:1030C0000221E954238801339BB20A212380E95469
:1030D000238801339BB22380EA5423880133238061
:1030E0003389002B5DD1338A53B1CDE900472B469C
:1030F0000722032106F11000FFF74BFF00285BD1E8
:10310000338B53B1CDE900472B461522142106F12C
:103110001800FFF73EFF00284ED1326A002A4ED138
:10312000D6F82480B8F1000F31D0B8F804302188E7
:10313000981C8A1C0244BA4200F20881FE2800F260
:10314000058103336B54238801339BB2FF22238014
:10315000EA54238801339BB22380B8F80020EA5454
:10316000E918120A4A702088023080B22080B8F82C
:10317000042062B1D8F80810002900F0E980284442
:1031800001F01CFC2388B8F804201344238096F82F
:103190002C30002B59D13378002B40F09780002041
:1031A0000AE0CDE900472B460622022106F108007D
:1031B000FFF7EFFE002896D005B0BDE8F08FB4F819
:1031C00000C00CF10603BB4200F2C0801188052943
:1031D00040F2BE806FF4486E01EB0E039BB24FF2DB
:1031E0007D3E734540F2B4805388052B40F2B08099
:1031F0006FF44860181880B2704540F2A9804FF60D
:10320000FF70814202D0994200F2A280052305F8A6
:103210000C30238801339BB212212380E954238888
:1032200001339BB223801188E954E818090A4170E0
:10323000238802339BB223805288EA54E918120A89
:103240004A702388023323806AE7B36A002B7FD059
:103250004FF000094FF00C0A4FF0160B96F82C3087
:103260005FFA89F2934296D9B16A0AFB02F201EB46
:103270000208B8F80430981CFE2867D82088033369
:103280002B54238801339BB2238005F803B0238895
:1032900001339BB223808A5AEA54E918120A4A7011
:1032A0002088023080B22080B8F804205AB1D8F8C3
:1032B000081000294CD0284401F080FB2388B8F87E
:1032C00004201344238009F10109C7E73288012A49
:1032D0003ED02288901CB84238D8012B04D1737894
:1032E000023313449F4231D3023FBF1ABFB202A937
:1032F0002844ADF80870FFF7F1FD00287FF45CAFBB
:103300003278BDF80830022A1CD07178994201D376
:10331000BB4219D9012A02D18F4228BF0F46ADF80E
:1033200008700821BDF80830FE2B0FD82288013321
:10333000AB542288013292B22280A95422881344CD
:1033400023802CE7BB42EAD80921EBE70C2033E7C6
:10335000072031E770B5C8B14AB115880024AC42E6
:1033600007D3061976789E4203D1A14209D80020DE
:103370000CE0A142FBD9065D013416FA84F4A4B234
:10338000EDE7A31C1380005D013880B270BD13B55A
:1033900013460022ADF806200DF106020446FFF7A1
:1033A000D9FF10B1BDF80600204402B010BD90DF77
:1033B0007047A5DF7047B5DF70471FB50023ADF834
:1033C0000810ADF80A106A4602A903930093ADF8FD
:1033D0000430FFF7ECFF05B05DF804FB78B14FF067
:1033E000171303601B2303711723C380038141F666
:1033F0001B320023016143818281184670470E20F1
:10340000704720B1172904D10180002070470E2099
:1034100070470720704713B5034680880C4698B95B
:103420001A88242A75D011D8112A52D0232A7DD087
:10343000102A2BD0A37A3BB1E1880020FFF7B9FF17
:1034400010B94FF48073638102B010BD3A2A48D09E
:10345000552AEFD1DB88C988A072172B38BF1723F4
:103460008B4228BF0B462381FFF7A5FFE37A002B91
:10347000E0D12369002BDDD040F67722009222892B
:10348000ADF80420694620469847D3E7DB7B0A79EC
:103490000A73012B13D0022B14D0E18823898B42AD
:1034A00005D20020FFF785FF70B90123E372217B6D
:1034B000637B8B42BED20020FFF77FFFBAE70B8809
:1034C000E380EAE74B88FBE7112804BF0123A372DE
:1034D000EDE71723CB800B8141F61B3348818B81AD
:1034E000A8E75B89CA88934228BF1346172B0A694D
:1034F00038BF17230B814AB1C97A39B140F6772119
:103500000091ADF80430694620469047002363815E
:1035100090E71A7A0B694A73002B8BD04DF67A210B
:103520008DF8050000918DF80420ABE7197A237B14
:10353000994228BF1946BFE7D1E90032934208BF3C
:103540000023016043607047436843B1026891689B
:1035500052680B449342436004BF002343607047AA
:1035600073B50191019C06466CB100252C46294695
:1035700001A800F084FA18B106EB440301349D80E1
:103580000135142DF3D13046346002B070BD000017
:103590002DE9F04703888488112B8CB005463DD077
:1035A0001A2B42D0102B19D1DFF8C080D8F8083080
:1035B000DB430093D8F804106846FFF7D3F900996D
:1035C00001A8FFF7CDFF0DF106090027019B9F42DF
:1035D00007D3132C12D90420FFF7D3F90CB0BDE8A0
:1035E000F08739F802AF00260136514608EB860015
:1035F00000F03BFA1D2EF7D10137E7E716482146C8
:1036000000F02AFA1548214600F026FAEB7B012B40
:10361000E4D01348214600F01FFADFE70E482146A8
:103620000CB0BDE8F04700F020BA037A0D481F2B1C
:103630004FEA131521460AD900F00EFA022D0A4866
:103640002146EDD00CB0BDE8F04700F005BA00F01F
:103650000CFA05482146E3E78455002080550020F8
:10366000885500208C550020905500207C55002066
:10367000AADF7047002301380B70042806D8DFE862
:1036800000F00306080A0C0011230B707047212379
:10369000FBE73123F9E71223F7E72223F5E7008858
:1036A00000F001007047F0B58B7891B00C46012B0B
:1036B00038BF01238DF80E3000270B88ADF80C3091
:1036C00069460546607C8DF80270FFF7D3FFA07C49
:1036D0000DF10101FFF7CEFF1646227D237B01325B
:1036E00002F0030243EA4203E27B43EAC203227C84
:1036F00043EA02139DF8022003F01F0322F01F0289
:10370000134339461C2209A88DF8023001F02AF92A
:10371000637B13F0300F14D00DF10901E07CADF89C
:1037200008708DF80A70FFF7A5FF11238DF8083097
:103730009DF80A30012102AA61F342038DF80A3094
:103740000E92637B8DF82430A37B8DF82530002307
:10375000CDE90633089303AB0493A388ADF81C307E
:10376000A368CDF814D01BB1E288ADF818200893F7
:10377000A2695AB301A90023ADF804308B701388F5
:10378000ADF82C305388ADF82E3053680D91107B76
:103790000A93FFF76FFF0DF10501507BFFF76AFFFA
:1037A000937B117A013303F0030341EA4301937AD7
:1037B00041EAC301D37A41EA03119DF8063001F0D2
:1037C0001F0123F01F0319438DF80610E36903B1AD
:1037D0000C93334604AA09A92846FFF749FF11B004
:1037E000F0BD75DF704776DF70477ADF70477BDFAB
:1037F00070470000034B1A8882420CBF1846002015
:10380000704700BF18560020024B9B6903B1184750
:10381000704700BFFC55002073B585B22846FFF7FE
:10382000E9FF044668B1174E027A337B9A4211D2FF
:1038300000F10A012846FFF7D4FF20B9237A0133AB
:10384000237202B070BD1128FBD002B0BDE87040F9
:10385000FFF7DABF00230372337C43B13B212846D4
:10386000FFF7C1FF30F0080301D0FFF7CDFF736908
:10387000002BE6D000228DF80420ADF8065001A8F8
:103880009847DEE7FC55002013B50B46497A0246FF
:103890000E4871B9D0E90141187A002808BF2146C5
:1038A000586800F049FB78B102B0BDE81040FFF75E
:1038B000ABBF00211972436933B101218DF80410A7
:1038C000ADF8062001A8984702B010BDFC550020B5
:1038D0004B8802889A4212D842889A420FD3808835
:1038E0008B8840F2F311884294BF021A421A9A421E
:1038F00005D80844984234BF0020012070470020BA
:10390000704700000388122B70B5014659D004D8C7
:10391000102B1ED0112B44D070BD502BFCD12F4B3F
:10392000C288DB899A42F7D1038A022BF4D18688B8
:103930003046FFF75FFF05460028EDD001F1120089
:10394000FFF7ADFE38BB686800F03EFB0028E3D00F
:103950000AE0C37B8688012BDED14FF6FF70FFF7AC
:1039600049FF054620B90420BDE87040FFF74CBF71
:103970001B4A0680002303721368C0F80A3053689C
:10398000C0F80E3010310A30FFF7A2FF134B6872F7
:10399000DB89002BC0D129463046BDE87040FFF7D7
:1039A00073BF8088FFF726FF04460028B4D0406824
:1039B00000F00AFB08B1FFF727FF4FF6FF732380E3
:1039C000AAE786883046FFF715FF05460028A3D0F2
:1039D00008310A30FFF77CFF6872DCE7FC550020F5
:1039E000F4550020F8B5064648B305460FCD154FEF
:1039F0003C460FC495E8070084E807003068124C85
:103A00003C60B0B1FFF7F1FE90B9326813682360F3
:103A1000536863600D480E4A4FF6FF7303800D4BE9
:103A200040F8043F002100F075FA002818BF032079
:103A3000F8BD2046FFF7DBFE0028EBD0F8E70E20AC
:103A4000F6E700BFFC550020F45500201856002072
:103A500019380F002C56002001F01F024B090121DC
:103A6000914000EB8300FEF771BF01F01F030122BC
:103A70009A404B0900EB8300D143FEF773BF4B091B
:103A800001F01F0150F82300C84000F0010070470A
:103A9000094B5A7899780132D2B2914208BF00227C
:103AA000197891421FBF02705A78182101FB023029
:103AB00014BF0430002070476056002073B50546DF
:103AC00000240DF107000E468DF80740FEF7F8FEC2
:103AD0000DF10600FFF7DCFF90B10A4B9DF80620C0
:103AE000067045605A709DF80700FEF70DFF24B977
:103AF000054B4FF48012C3F80021204602B070BD80
:103B00000424F0E76056002000E100E0024B4FF48F
:103B10003C6043F001031847C04C0F0038B50C4B14
:103B20000C4C4FF40032C3F8802001254FF4803351
:103B3000C4F84833C4F808336560FFF7E7FF064B65
:103B4000A56000241C60FFF7E1FF044B1C7038BD2A
:103B500000E100E000100140585600204D560020C2
:103B6000F8B51F4B1F491B680025C1F84051C1F82B
:103B70004451C1F84851C1F84C51C1F80051C1F845
:103B800004514BB3D1F8044517490968641A24F06D
:103B90007F442F461A68A24209D8A41A15441A7CF9
:103BA000DE691AB1D3E905201F749047AEB90F4AF8
:103BB0000F4B11781B788B4205D10133DBB2022BFE
:103BC00008BF0023137012780A4B43F822500A4BA7
:103BD0004FF48012C3F80021F8BD3346DAE700BF86
:103BE0005C56002000100140585600204E56002020
:103BF0004F5600205056002000E100E02DE9F04F24
:103C0000A149A24A0B781278A14D9A4285B000F0E2
:103C100096800133DBB2022B08BF00239D4A0B7054
:103C20009D49176851F823003B1823F07F43136028
:103C300000222B6816461446944613B942B12B60F5
:103C400006E01968814268D902B12B60091A19602F
:103C50004FF001092B68914FDFF84CB201934FF000
:103C600000087B78002E6DD13A789A4240F084802B
:103C70002B68B8F1000F05D1019A9A4202D1B9F12F
:103C8000000F44D0002B00F0FB80D3F800A0844D3F
:103C9000804BD5F804751C68DFF810823E1B98F83D
:103CA000003026F07F4603369BB94FF48033C5F8C9
:103CB0004433C5F804337B4B4FF400324FF0010915
:103CC000C3F880211A60C5F80090FFF71FFF88F83D
:103CD0000090B2452CBF5444A41924F07F44C5F889
:103CE0004045D5F80435DB1B23F07F43E41B033349
:103CF00024F07F44A3420AD9D5F80435C5F84035ED
:103D0000FFF704FF674B4FF40032C3F80021664B06
:103D100000221A7005B0BDE8F08F401A0C44D96833
:103D2000D3F81CE0C3F800C031B13A1922F07F4249
:103D3000C3E90121DE611E46734601227DE70026AC
:103D4000B14687E73446F669524B60681A68DFF877
:103D500060C1A368811A21F07F4161456FD80B448F
:103D600001212174296823600022C4E90122E26153
:103D700000296CD12C6074E7B978531CDBB29942EE
:103D800008BF00233B70182303FB027229681379D4
:103D90009468022B1FD0032B4ED0012B7FF461AF10
:103DA000237C002B7FF45DAFD2E90313A36053693A
:103DB000E36093699BF80020A361002A18BF314695
:103DC0006160C1E7944209D09246D269002AF9D1D4
:103DD0000023237445E70A468A46F7E7544513D182
:103DE000C869286080B9DFF8B8E00123CDE9022175
:103DF000CEF80830DFF89CE0CEF800002A480370C7
:103E0000FFF784FEDDE902211068D269CAF81C20A0
:103E100012B11368034413602B688B4218BF4FF034
:103E20000108D5E70A74C96901230029FAD1002BDA
:103E30003FF417AF296014E733463246F5E7121A0C
:103E400022F07F429A4234BF9B1A002388E70A6817
:103E50009A4213D3D21A0A60E1618BE71B1AD06928
:103E6000114638B1024610688342F7D8C01A106074
:103E700010460A462360E061D461F2E60A46F2E7A2
:103E8000FFF74CFE43E700BF4F5600204E56002080
:103E90005C560020585600205056002060560020E6
:103EA0000010014000E100E04C5600204D5600207B
:103EB000FEFF7F0008B5FFF731FE104B00200B22FC
:103EC00018809A700E4B18600E4B18700E4B1870BD
:103ED0000E4B4FF48012C021C3F8802183F81413D5
:103EE0001A6002F18042A2F56F22C2F8080583F839
:103EF0001113074BD2F804251A6008BD6056002044
:103F00005C5600204F5600204E56002000E100E095
:103F100058560020074B9B784BB132B128B103684B
:103F2000187C20B959745A617047072070470820DF
:103F3000704700BF605600202DE9F743DFF884800A
:103F400098F8023005460E461746ABB3A0B30429D5
:103F500030D9436983B3437C0024012B0DF1070062
:103F60000CBF8946A1468DF80740FEF7A9FC0DF16C
:103F70000600FFF78DFDD8B1012303700F4B45609C
:103F8000D3F80435C0E90497C0E902369DF806303D
:103F900088F801309DF80700FEF7B6FC24B9084BFD
:103FA0004FF48012C3F80021204603B0BDE8F0832F
:103FB0000424EFE70724F7E70824F5E700100140A1
:103FC00000E100E060560020064A92783AB130B134
:103FD000426922B1002202740221FFF76FBD08205E
:103FE000704700BF6056002072DF704773DF704774
:103FF00038B5012204460D46B0F83812D0F8340224
:10400000FFF7C5F900B1057004F13C0204F50D712C
:1040100004F15400BDE83840FFF7E6BF80F83010E7
:104020007047F8B504460F4600296BD0002869D0C8
:1040300091F87A301BB191F89830002B64D14FF091
:10404000000C84F802C007F178060FCE251D0FC5BD
:104050000FCE0FC596E8070085E8070084F830C04A
:10406000D7F8A4306363D7F8A830A36304F50D72C2
:104070004FF6FF73C4F84AC2A4F84832C4F8442289
:10408000C4F84DC222780AB984F8543094F8243028
:10409000002B0CBF1F23EE2304F15501C4F834128A
:1040A000A4F8383204F50E723846FEF78EFF40BB96
:1040B00094F82430002B0CBF1F23EE2304F243118D
:1040C000C4F83C12A4F8403204F5107207F13C0029
:1040D000FEF77BFFA8B9A369A4F848304FF48073BA
:1040E0000125A4F8503063692064014684F83C50EF
:1040F000636404F13C0204F15400FFF775FF00B95A
:104100002570F8BD0E20FCE70720FAE7F8B5077820
:1041100004460D46002F00F002810023C0F84A3209
:10412000C0F84D32C388817000F24A260BB10129D4
:1041300003D0E37943B1022D06D1636BA3B1012211
:1041400084F8512208209847334604F5147113F877
:10415000012F12B98B42FAD117466B1E032B4DD893
:10416000DFE803F0050B0F1284F85132ECE7A37976
:104170001BB194F8243003B94FB9E3790BB1002F88
:104180003ED1237A002B3DD1657AAD00EDB2636B51
:10419000A570002B38D0033D012D35D862799AB334
:1041A00094F8522282BB84F85422012284F85322CC
:1041B000072098471722002104F13D0000F0D2FBB0
:1041C000E26A0123511E994284F83C3001D9042A45
:1041D00000D1D3B284F8513094F8243033B101299E
:1041E00016D9042A14D0012284F85220A278042A75
:1041F0001DD8DFE802F07A0F243759000025C6E702
:104200000225C4E70325C2E7002384F85332D1E72F
:10421000A26AE9E7012384F831300023C4F844326C
:10422000022384F83C3080232664A4F84830A37825
:10423000002B5ED1636B002B6DD100206AE0002B58
:104240000CBF0323072384F83C302369A4F84830CB
:1042500000230222C4F84432E36884F83120266443
:104260006364E4E761696164A169A4F8481013B16B
:10427000062384F83C3063797BB194F8523263B9F9
:1042800094F854324BB1022384F850300421204674
:10429000FFF7AEFE0028CAD1052204F50D7384F89D
:1042A0003120C4F84432C2E7002B0CBF012306239F
:1042B000E16984F83C3063796164216AA4F84810AC
:1042C000002BEAD094F85232002BE6D194F8543205
:1042D000002BE2D0022384F8503004212046FFF75F
:1042E00087FE0028A3D10622D7E7002384F83130C7
:1042F0009DE7D4F8441204F13C0204F15400FFF7A6
:1043000073FE38B994F8301094F85400FFF76EFE3D
:1043100000288FD0F8BD94F8310098478DE7082029
:10432000F8E70388112B10B50C460AD0262B1FD0B6
:10433000102B05D1C27B8388012A01D1A1F8483214
:1043400010BD0022838881F85222B1F848229A4297
:10435000F6D10B79002BF3D101212046FFF7D6FED1
:104360000028EDD0A36B002BEAD0BDE81040184721
:10437000037A013B012BE3D8897805230131B1FB96
:10438000F3F303EB8303C91AC9B2E6E770470B46A0
:1043900010B4114628B123B103605DF8044B1B68CB
:1043A00018470E205DF8044B70472DE9F043DDF807
:1043B0001C8018B312B3D0F800E0BEF1000F20D07B
:1043C0000BB34768D7F80490B3FBF9F709FB17372D
:1043D000CFB942EA010C1CF0030F16D1C768B942ED
:1043E00013D305694C1E1C44AC420ED8CDF81C807A
:1043F000DEF80C40A446BDE8F04360470E20BDE85F
:10440000F0830820FBE70920F9E71020F7E7F0B573
:10441000D8B1D0F800C0BCF1000F18D0CAB14768BD
:10442000D7F800E00EF1FF370F4214D1C768B94248
:1044300011D305694C1E0EFB0244AC420BD8DCF8CC
:104440001040A446BDE8F04060470E20F0BD0820B3
:10445000FCE70920FAE71020F8E729DF704728DF9A
:10446000704770B503689E6886B004460D466EB10D
:1044700014220021684600F075FAA3680593237999
:1044800001952BB1012B0DD06846B04706B070BD29
:1044900001238DF8003023690293E3680393636975
:1044A0000493F1E702238DF80030E3681B030293C5
:1044B000F5E708467047002070470000024B187A65
:1044C000003818BF0120704774570020034B187A3A
:1044D0000122B0FA80F05A744009704774570020E6
:1044E00008B510461A4600F069FA002008BD000021
:1044F00008B514220021044800F034FA034800F003
:104500004CF9002008BD00BF7457002088570020D8
:1045100010B5094C094B43602046FEF72FFA40B90D
:10452000FEF718FB064920741C2306488C2200F075
:1045300021F9002010BD00BF74570020E84C0F0087
:10454000985700208857002038B5234C234D237AF4
:104550003BB92349234800F07CF9286008B9606022
:1045600038BD022323722B681A7972B1012A24D034
:1045700028680321FFF775FF002323726360184941
:104580001848BDE8384000F08FB9D3E90520121A69
:10459000B2F5806FD3E9031328BF4FF4806292080D
:1045A000012A014438BF01221844FFF756FF50B1D9
:1045B0001128DDD101232372D2E7D3E90303184484
:1045C000FFF74DFFF3E7237C002BC9D1BDE838404E
:1045D000022000F009B800BF745700207057002077
:1045E0006C5700208857002038B5234C237A002BC5
:1045F00041D0022B09D1032830D0204B00221B6868
:10460000E2601A793AB1012A22D0637C7BBBBDE813
:104610003840FFF799BFD3E905128D1AB5F5806FC1
:1046200094BF521902F580629A619142EDD102283D
:104630004FF0000308BF19462372104B18BF0D211D
:104640001868FFF70EFF0E490E4800F02DF9DCE761
:104650001A6901321A615B699A42E7E7E36801333C
:10466000082B01D8E360D0E70023E360DFE7BDE873
:104670003840FEF75FBA38BD7457002070570020ED
:104680006C57002088570020831E012B01D8FFF7AC
:10469000ABBF704700F0FD03012B08D1044B002293
:1046A0005A74421E504250411874FFF74DBF704774
:1046B0007457002008B50648FEF760F930B9054B7D
:1046C0005B7C1BB9BDE80840FFF73EBF08BD00BFDB
:1046D00078570020745700202DE9F34180460D469D
:1046E000104801A916461F4600F079F80446B0B1FB
:1046F00017220021053000F035F92D0B012323711D
:1047000001A90848C4F80080A760E560666100F070
:1047100090F8FFF7CFFF002002B0BDE8F081042041
:10472000FAE700BF885700202DE9F34180460F4685
:104730000F4801A916461D4600F051F80446A8B1DD
:1047400018220021043000F00DF9089BA36001A994
:10475000C4E903670648C4F80080656100F069F8A1
:10476000FFF7A8FF002002B0BDE8F0810420FAE7BF
:104770008857002010B561B1B2FBF3F403FB142499
:10478000A4B244B9C0E9001484608281C381204688
:1047900010BD0E20FCE70920FAE782B050E8022F96
:1047A000C188B2EB324F4FF0000317BF92B241EA1B
:1047B000014142EA014104E04268B2EB324F08BFD6
:1047C000012340E80212002AE8D18DF807309DF855
:1047D0000730002B0CBF1120002002B0704737B506
:1047E00050E8013F9DB2C48925448489A54228BF71
:1047F0002D1B0489A54202BFBFF32F8F002207E0C3
:10480000C5EA030540E80154002CE9D14FF001024C
:104810008DF803200193019A0A609DF8031001F0BE
:10482000FF0321B1006810FA82F003B030BD1846D2
:10483000FBE70A884B889A4209D150E8012FC2EA67
:10484000024240E80123002BF7D1012070470020ED
:10485000704737B550E8023F1FFAA3F5C488A54258
:1048600002BFBFF32F8F00220DE0C4892544848945
:10487000A54228BF2D1BC3EA054540E80254002C81
:10488000E8D14FF001028DF803200193019A0A60EC
:104890009DF8031001F0FF0321B1006800EB124006
:1048A00003B030BD1846FBE70A884B889A4209D10D
:1048B00050E8022FC2EA224240E80223002BF7D13F
:1048C000012070470020704703462AB110881A461D
:1048D00019448A4203D170474FF6FF70F7E743BA95
:1048E00012F8010B9BB25840C0F3031343401BB2B4
:1048F00083EA03331BB2580100F4FF50434098B2DF
:10490000E7E700000649074A074B9B1A03DD043B13
:10491000C858D050FBDCFCF799FDFBF7BBFC00004E
:10492000D84D0F000030002034300020FEE7FEE7B5
:10493000FEE7FEE7FEE7FEE7FEE7FEE7FEE7FEE74F
:1049400008B5064B044613B10021AFF30080044BB9
:104950001B6803B19847204600F046F800000000AD
:104960002458002002440346934200D1704703F8C4
:10497000011BF9E770B50D4D0D4C641BA41000260A
:10498000A64209D10B4D0C4C00F030F8641BA4106A
:104990000026A64205D170BD55F8043B9847013664
:1049A000EEE755F8043B98470136F2E7183000204F
:1049B00018300020183000201C3000200A4491429A
:1049C00000F1FF3300D1704710B511F8014B03F827
:1049D000014F9142F9D110BD034613F8012B002A73
:1049E000FBD1181A01387047FEE700BFF8B500BFC9
:1049F000F8BC08BC9E467047F8B500BFF8BC08BCC0
:104A00009E467047696E666F203A20434F494E4577
:104A1000535F496E7465726E616C5F56322E392E2B
:104A2000305F52432D3731362D67616462623662E2
:104A3000636465207C204D61722032352032303233
:104A4000342C31373A32393A3336207C20474343CD
:104A50002031332E322E3120323032333130303962
:104A600000415050332E3020426F61726420284440
:104A700046552900426F7363682053656E736F72E9
:104A800074656320476D624800415050332E3000FA
:104A90003031323334353637383941424344454674
:104AA0000023D1BCEA5F782315DEEF12120000006C
:104AB00000000000000000000000000000000000F6
:104AC0000338FDD87047000008001800000090016E
:104AD000080000009D0C0F00000000000100A6026D
:104AE00030AB0003000000000080020000000F0057
:104AF0000300000000000000890C0F00000000000F
:104B00007B100F00000100000000000028000000E2
:104B100000010400010000000000000000005749EF
:104B20004E5553420000000000000000000000004D
:104B30000000000012034D005300460054003100F5
:104B400030003000EE000C0346004C0041005300E2
:104B500048000803520041004D002403410050006A
:104B6000500033002E003000200042006F00610032
:104B700072006400280044004600550029002A0302
:104B800042006F007300630068002000530065005E
:104B90006E0073006F0072007400650063002000F7
:104BA00047006D0062004800040309040902240064
:104BB000010100E0320904000000FE0102040904C2
:104BC000000100FE010205092103FF004000100161
:104BD00012010002000000408C103DAB00010102F8
:104BE00003013001340138013C0140014401480116
:104BF0004C01500108010C011001140118011C01A5
:104C0000200124012C010000000000000000000031
:104C10000338FDD870470000A1180F00CD180F0011
:104C2000391A0F00C11A0F00BB1A0F00B51A0F0076
:104C3000AF1A0F00A91A0F00A31A0F009D1A0F0038
:104C400029190F000D1B0F0051220F00291E0F0004
:104C5000231E0F001D1E0F00171E0F00111E0F0038
:104C60000B1E0F00051E0F00651B0F00C91A0F0059
:104C700045190F0051240F00311E0F00A84D0F00E1
:104C8000B84D0F0008000000C04D0F00D04D0F00C0
:104C900008000000B84D0F00C04D0F0008000000D4
:104CA00001000007504D0F00A84D0F000800000044
:104CB000204D0F00504D0F000800000000000000C4
:104CC0000338FDD87047000011450F00F1440F0074
:104CD000E1440F0029470F00D9460F00B3440F00ED
:104CE000B7440F00BD440F00001000000400000096
:104CF000010000001000000000000000017A5200D6
:104D0000027C0E011B0C0D001000000018000000BA
:104D1000C8FCFFFF100000000000000000000000C1
:104D20003B160F000000000089460F000000000045
:104D30008D430F00503000208D430F002043002092
:104D40008D430F00B04D00208D430F004C500020CC
:104D500091350F000000000023430F005030002069
:104D600017340F00A832002023430F0020430020F7
:104D700017340F007845002023430F00B04D00206A
:104D800017340F000850002023430F004C50002020
:104D900017340F00A452002005390F000000000056
:084DA000050C0F0000000000EB
:104DA800992B0F0000000000912C0F00000000005C
:084DB800CD440F0000000000D3
:104DC00071160F000000000095460F000000000063
:084DD000BCB4FF7F01000000EC
:104DD800044A0F000000810000000300C84C0F00C7
:104DE800FFFF00000090D00369020F0041020F008E
:104DF8000000000000000000A10E0F0000000300EA
:044E080000000F0097
:04000003F0004905BB
:00000001FF
