:020000023000CC
:1000000000F800206DA5030095A503004139030009
:1000100099A503009BA503009DA503000000000017
:100020000000000000000000000000009FA5030089
:10003000A1A5030000000000A3A503002D120300EA
:1000400085220300A7A50300A93603006D2903003C
:100050007D290300A7A503005D20030025370300C9
:10006000A7A50300A7A5030005280300A7A5030073
:10007000A7A50300A7A50300A7A50300A7A5030044
:10008000A7A50300259C0300A7A50300A7A50300BF
:10009000C19C0300A7A50300C93D0300A7A5030059
:1000A000A7A50300A7A50300192803002D28030016
:1000B000A7A50300A7A503000000000000000000A2
:1000C000A7A50300A7A50300A7A503009522030089
:1000D000A91B0300A7A50300A7A5030000000000BB
:1000E0000000000000000000000000000000000010
:1000F0000000000000000000000000000000000000
:1001000000000000000000000000000000000000EF
:1001100000000000000000000000000000000000DF
:1001200000000000000000000000000000000000CF
:1001300000000000000000000000000000000000BF
:1001400000000000000000000000000000000000AF
:10015000000000000000000000000000000000009F
:10016000000000000000000000000000000000008F
:10017000000000000000000000000000000000007F
:10018000000000000000000000000000000000006F
:10019000000000000000000000000000000000005F
:1001A000000000000000000000000000000000004F
:1001B000000000000000000000000000000000003F
:1001C000000000000000000000000000000000002F
:1001D000000000000000000000000000000000001F
:1001E000000000000000000000000000000000000F
:1001F00000000000000000000000000000000000FF
:100200000348044B834202D0034B03B118477047A5
:100210007C3300207C330020000000000548064BA2
:100220001B1AD90F01EBA301491002D0034B03B1F4
:10023000184770477C3300207C330020000000000A
:1002400010B5064C237843B9FFF7DAFF044B13B11E
:100250000448AFF300800123237010BD80330020D9
:1002600000000000B443040008B5054B1BB105496C
:100270000548AFF30080BDE80840FFF7CFBF00BFDF
:100280000000000084330020B4430400A3F5803A4A
:10029000704700BF174B002B08BF134B9D46FFF75D
:1002A000F5FF00218B460F461348144A121A10F02E
:1002B00012FF0E4B002B00D098470D4B002B00D0A7
:1002C00098470020002104000D000D48002802D0AE
:1002D0000C48AFF3008010F0A1FF200029000EF0C1
:1002E000E7FC0FF029FD00BF00000800000000003F
:1002F0000000000000F8002080330020D09900208A
:100300000000000000000000BFF34F8F0549064BBE
:10031000CA6802F4E0621343CB60BFF34F8F00BFA3
:10032000FDE700BF00ED00E00400FA05052801BF6D
:10033000024A136801331360704700BF9C330020EA
:1003400008B500F0C5FD024804F047FD08BD00BF38
:10035000B830002038B5044638B1044D45F00105E9
:100360004FF47A40A847013CFAD138BDB0310400BF
:1003700008B5054B054A5A60054B1A68054BC3F88A
:100380000828FFF7C1FF00BF00F80020434F494E87
:100390000830002000F0002050B108230371112321
:1003A000038040F25913C38010234380002070471C
:1003B0006FF00800704708B500F060FDBDE8084028
:1003C000012104F059BC000013B50B4B0B4A18680F
:1003D00000909B880A48ADF80430694601F088FB1C
:1003E000044630B90648012101F0D0FB044801F071
:1003F000C1FB204602B010BDD83104002D0303001C
:10040000D0310400022808B50A460BD8074B08492A
:1004100003EBC00002F044F9002814BF6FF0130092
:10042000002008BD6FF01400FBE700BFB8310400E6
:1004300000300020022813B516D80D4A52F830308B
:1004400002EBC004D3F8102509010123D2B221FA2E
:1004500002F200930021204602F0BFF9204602F08C
:100460007DF9002002B010BD6FF01400FAE700BF64
:10047000B8310400022810B50BD8074C04EBC004B7
:10048000204602F085F910B1204602F075F90020EF
:1004900010BD6FF01400FBE7B83104004FF0FF30DF
:1004A00070474FF0FF3070476FF0250070476FF0D6
:1004B0001700704708B54FF01023D3F8002201321F
:1004C00003D1D3F80432013325D0134B0122C3F8F2
:1004D0000425D3F80024002AFBD04FF010224FF05F
:1004E000FF31C2F80012D3F80024002AFBD04FF0ED
:1004F00010234FF0FF32C3F80422074BD3F8002437
:10050000002AFBD00022C3F80425D3F80024002AD7
:10051000FBD0FFF7F9FE08BD00E0014008B54FF041
:100520001023D3F80C32DB071DD50F4B0122C3F883
:100530000425D3F80024002AFBD04FF01022D2F873
:100540000C3223F00103C2F80C32074BD3F800241D
:10055000002AFBD00022C3F80425D3F80024002A87
:10056000FBD0FFF7D1FE08BD00E001400278034B4D
:1005700012B901221A7070470222FBE79030002066
:100580000278034B12B901225A7070470222FBE72E
:10059000903000200228F8B504461FD8104E335C76
:1005A000E3B1104D05EBC005284602F08DFA0E4A66
:1005B0000E4952F82420002301EB0411284633553C
:1005C00002F0E4F90746284602F052FA27B1BDE8E6
:1005D000F840074810F0B4BA01233355F8BD00BF06
:1005E00063360020103D0400043D0400603000200C
:1005F000DE31040002282DE9F041044675D83E4E54
:10060000335C002B74D1302964D03ED80639CBB28C
:10061000122B56D80E2954D8DFE801F05653085350
:100620000853085353530853535308004FF0804363
:10063000324F334807EB04152946AB6000232A7379
:1006400000EBC4001A464FEA041801F04FFE0028E0
:1006500046D117F808200123335502F5E0724FF018
:10066000A04340F2033143F822106A7802F5E072A9
:1006700040F20F3143F82210AA7802F5E0724FF4ED
:10068000417143F82210BDE8F08178291FD012D8BB
:1006900050291FD008D832291CD03C2914BF4FF054
:1006A00000534FF08053C3E7642914BF4FF0005349
:1006B0004FF00063BCE7C8290FD0F0290DD0962970
:1006C000F3E74FF00053B3E74FF00043B0E74FF0CC
:1006D0000063ADE74FF08053AAE74FF08063A7E7D0
:1006E000002333556FF00200CDE76FF00B00CAE72F
:1006F0006FF00C00C7E700BF6036002030300020EC
:10070000EC3C0400022838B504460AD8084D2B5C9E
:1007100053B1084800EBC40001F0C6FE0020285584
:1007200038BD6FF00B00FBE76FF00D00F8E700BF7E
:1007300060360020EC3C04002DE9F0470446884672
:100740001AB1012A0BD0022A12D0022C4ED8294EFF
:10075000335D03F0FF099BB10020BDE8F087264A16
:1007600002EB001103010F2048601021D150ECE78B
:10077000214A02EB00110301162048601721F5E71A
:100780001D4800EB04154FF0A0436A6802F5E072C3
:1007900040F20C71270143F82210C259174F02F59D
:1007A000E07207EBC40A43F82210154A4B4652F890
:1007B00024202946504602F0E9F890B9504602F04C
:1007C00057F9B8F1000F09D14FF0CC7357F8342026
:1007D000AB60C2F8243501233355BDE74FF0C86341
:1007E000F4E706F804906FF00200B6E76FF00F0030
:1007F000B3E700BF6336002060300020103D0400E6
:10080000043D04000022FFF797BF0000022870B5E6
:1008100004460ED80A4E335C73B10A4D05EBC00591
:10082000284602F035F9284602F04EF900203055EE
:1008300070BD6FF00F00FBE76FF01000F8E700BF2E
:1008400063360020103D04002DE9F04186B000AF72
:1008500016463A8E0D46194602F108030446DB0897
:100860006846A0EBC303022C02F101089D4642D862
:10087000244B1B5D002B41D0684600F8016B10F043
:100880004FFD14220021381D10F025FC012C7D7134
:10089000C7F80880C7F810D005D11B4D284602F0D4
:1008A0004FF90028FAD11948194E00230122391DA9
:1008B00000EBC400335502F04DF9054600F094FDFD
:1008C000386000F091FD3B68C01AB0F57A7F01D224
:1008D000335D6BB1335D012B02D02046FFF75AFE2A
:1008E000281E18BF012040421837BD46BDE8F081E0
:1008F0000AF00AFCE5E76FF00F00F5E76FF0100073
:10090000F2E700BF63360020183D0400103D0400EC
:100910009030002070B588B0022805468DF8072079
:100920003BD8214A125C002A3AD002228DF80C20D2
:1009300001220492BDF8302005921C4E8DF80D1056
:100940000DF10702CDE90623002333541848122283
:1009500003A900EBC50002F0FDF8044600F044FDD9
:10096000029000F041FD029BC01AB0F57A7F09D3D6
:10097000735D012B0CD02846FFF70CFE6FF00100D1
:1009800008B070BD735D002BF2D10AF0BDFBE8E743
:10099000201E18BF01204042F2E76FF00F00EFE782
:1009A0006FF01000ECE700BF6336002090300020AD
:1009B000103D0400F0B5022887B005460F461446E6
:1009C0001E462FD81A4B1B5C7BB31422002101A8B2
:1009D00010F081FB17480296174E04940023012261
:1009E00001A900EBC50073558DF8057002F0B2F84F
:1009F000044600F0F9FC009000F0F6FC009BC01AE1
:100A0000B0F57A7F02D2735D002BF5D0735D012BB8
:100A100002D02846FFF7BEFD201E18BF012040422D
:100A200007B0F0BD6FF00F00FAE76FF01000F7E7C6
:100A300063360020103D040090300020F0B50228FD
:100A400087B005460F4614461E4634D81D4B1B5C26
:100A5000002B33D0122200210DF1060010F03BFBD9
:100A6000194802960123194E8DF804300222002302
:100A700001A900EBC500735504948DF8057002F0D0
:100A800069F8044600F0B0FC009000F0ADFC009B5B
:100A9000C01AB0F57A7F02D2735D002BF5D0735D7A
:100AA000012B02D02846FFF775FD201E18BF01203C
:100AB000404207B0F0BD6FF00F00FAE76FF0100092
:100AC000F7E700BF63360020103D0400903000209F
:100AD0002DE9F04F85B000AF0228B7F838B0BB6001
:100AE000FA7363D8344B1B5C002B62D0334B5D5CD4
:100AF0006B1EDBB2FD2B26D84FF0A04305F5E0724C
:100B0000032143F82210DFF8BC9001224FEA001ABB
:100B100002FA05F507F10F01C3F80C5549F80A1060
:100B2000274909EB001401EBC0086260214600224E
:100B30004046C4E9022201F0F9FC064648B14FF0F4
:100B4000A043C3F808554FF0FF301437BD46BDE849
:100B5000F08FC4E901B0BB68E06002462146404620
:100B600049F80A3001F0E2FC102816D10BF1070316
:100B70006A46DB08A2EBC303C7F804D09D46B968F8
:100B80005A46684610F0CCFB32462146404649F8AA
:100B90000AD001F0CBFCD7F804D000384FF0A043C6
:100BA00018BF0120C3F808554042CEE76FF00B0094
:100BB000CBE76FF00D00C8E760360020E33000207F
:100BC000EC3C0400303600202DE9F34702281F4694
:100BD0008DF8072045D8264B1B5C002B44D0254BB5
:100BE0005D5C6B1EDBB2FD2B24D805F5E073DFF8EE
:100BF0008C804FF0A046032246F8232008EB001417
:100C0000012303FA05F5C6F80C5563601A4B4FEA49
:100C100000190DF1070203EBC00A48F8092021462C
:100C200000225046C4E9022201F080FC024630B1A5
:100C3000C6F808554FF0FF3002B0BDE8F087C4E9B0
:100C4000010748F80900BDF82830E3602146504606
:100C500001F06CFC003818BF0120C6F8085540426E
:100C6000EAE76FF00B00E7E76FF00D00E4E700BF85
:100C700060360020E3300020EC3C040030360020D9
:100C8000BFF34F8F0549064BCA6802F4E062134375
:100C9000CB60BFF34F8F00BFFDE700BF00ED00E06A
:100CA0000400FA0504230B7070470000024B53F850
:100CB000203003B1184770472C3D002010B50220AA
:100CC000FFF7D8FB1A4B00241C601A4B1C601A4B10
:100CD00019781C700229CAB20CD0032A23D0012A29
:100CE00025D1164804F061FA1448322104F0EBFAD9
:100CF000FFF7C6FF12480FF08BFF01210F4804F0E9
:100D0000F0FA0A210D4804F0DEFA20210B4804F025
:100D100001FA0A21094804F0D6FA21460748BDE83D
:100D2000104004F0DEBA074B074A5A60E0E710BDF6
:100D3000243D0020203D0020283D0020C830002018
:100D4000F431040000F80020424F4F54000000002E
:100D50007FB5294800238DF80F304378012B01D14E
:100D600004F080FB244804A904F0F7F99DF8103042
:100D700013B9214804F0DEFB1F480DF10F0104F008
:100D80001BFB78BB9DF80F000EF008FB18A3D3E9FE
:100D900000230EF06DFB194B00220EF093FC184B54
:100DA00000220EF065FB0EF0FDFD80B207EE900A0A
:100DB000DFED146A144AF8EE677A87EEA67AF0EE51
:100DC000087A37EE677ADFED116AC7EE267A9FED73
:100DD000107A67EE877AFCEEE77ACDED017A9DF81E
:100DE0000430137007B05DF804FB00BFAFF3008060
:100DF000CDCCCCCCCCCC1040C83000200000594029
:100E000000408F4000007A441C3D00209899993F93
:100E10000000C84207B5002301A90348019304F06C
:100E20006FFA03B05DF804FBC830002070B50E4BBC
:100E30000E4D1B680E4C2B6023780E4E3BB12B6879
:100E400032689B1AB42B0ED90220FFF713FB2B68D4
:100E50003360237808490133DBB22370BDE870406A
:100E60000220FFF7E7BA70BDB43D0020243D00200A
:100E7000283D0020203D002040420F00014B187803
:100E8000704700BF1C3D002008B50E490E4807F012
:100E9000EBFEB0B10D480FF0BBFE0A490A4807F05F
:100EA0007FFE002802DA032002F024FD05490648EF
:100EB00007F0DAFE002804DABDE80840032002F05B
:100EC00019BD08BD283D0400FC3A0020083204008A
:100ED00008B5054807F0C6FE002804DABDE808405A
:100EE000032002F007BD08BDFC3A002030B5144BCA
:100EF0001B5C581EC0B2FD281ED861B9002A0CBF69
:100F00000122032203F5E0734FF0A041920041F863
:100F10002320002030BD0129FBD14FF0A04003F574
:100F2000E074032540F82450994012B9C0F80C151C
:100F3000EFE7C0F80815ECE74FF0FF30EAE700BF35
:100F4000E3300020114B185C431EDBB2FD2B17D899
:100F50005AB9C1B100F5E0704FF0A04353F820300A
:100F600003F001030B70002070474FF0A043D3F84B
:100F70001035C34003F0010313700029F3D0E9E7F3
:100F80004FF0FF3070476FF008007047E3300020EB
:100F900038B50F4B1C5C631EDBB2FD2B0D4616D81B
:100FA0001AB90C4B03221A7005E0012A01D1094B32
:100FB000F9E7022AFBD0084A0649204600F040FF24
:100FC0000121204600F0B2FF044B43F8245038BD05
:100FD000E3300020E0300020AD0C03002C3D002069
:100FE000F0B5054687B00F46002900F0A180534BAD
:100FF0000193534B0293534B1B680493524B0026AF
:101000001B78059603968DF8143000F0ABFB841B1B
:1010100018BF01243046640000F0D4FC08B144F04D
:101020000404002000F0BAFB002000F03FFC00F0B8
:1010300031FC18B900F074FC0028F8D0FFF7C4F9AF
:1010400008B144F020044FF0E0234FF6FF125A613C
:101050003E4AE02182F8231000229A6107221A6199
:1010600000F0BAFE08B144F01004394B1B680021AF
:1010700058680FF0D5FD5CB114F0060F00D0FEE704
:1010800014F4F87F04D06FF01804204607B0F0BDC8
:1010900004F072FA04F09CFA2E4804F0A3F82E49EA
:1010A0000120FFF7AFF90028EDD12C490120FFF70F
:1010B000C1F92B4803F0D4FEFFF7FCF929490220BF
:1010C000FFF7A0F904460028DDD1014601221B20CC
:1010D000FFF70CFF244902221B20FFF759FFFFF7FF
:1010E0001DFA3A682146204604F0A0FC18BB022DE8
:1010F00002D101A803F0E0FB002206211046FFF711
:1011000079FA04460028BED104F03AFCFFF7BCFE91
:10111000022D01D008F030FF144A1548012108F0D3
:101120005BFF00224FF42031124808F067FFACE764
:101130006FF00804A9E76FF02A04A6E7A50C0300E6
:10114000B7030300B03D00201F31002000ED00E098
:10115000B8310020C8300020510D030040420F007C
:10116000B8300020BD0C03002D0E0300150E030047
:10117000803D0400FC3C002010B5094A145C621E4E
:10118000D2B2FD2A0BD8074A002142F8201020468F
:1011900000F02EFF2046BDE8104000F007BF10BD54
:1011A000E33000202C3D002010B560B909490A4CFD
:1011B0000A88238892B29BB29A4203D220880B8875
:1011C000C01A80B210BD022802D1044B1868F8E79B
:1011D0000020F7E7904B0020924B0020A84300200E
:1011E000022803BF024B1878C0B20020704700BF2E
:1011F000B93D00200346084611460BB904F080BCF7
:10120000022B01D103F0F6BC704708B5034608462F
:1012100011461BB9BDE8084004F046BC022B03D1BF
:1012200003F00EFD80B208BD0020FCE7024A1368FF
:1012300001331360704700BFB43D0020431E012BF3
:1012400070B50D4614460BD8002603E0012104F0CA
:1012500057FC0136A64205EB0600F7DB204670BDC1
:1012600003380428FAD813460A460449542404FBD8
:101270000011BDE87040024807F05EBE043900204E
:10128000FC3A002070B504461346084674B90E4D6A
:101290000E492C880A88A4B292B2A41A9C42F8DBA8
:1012A00099B204F001FC0346184670BD033C042CBF
:1012B000FAD80A460649542000FB0411BDE87040E4
:1012C000044807F005BE00BF924B0020904B002061
:1012D00004390020FC3A0020F7B50E461A490546AD
:1012E0000FF0C4FF30B9002E0CBF0924082420469B
:1012F00003B0F0BD154F3B68052B02DD4FF0FF3406
:10130000F5E7134A0023D15CA9B90121D154DC1CB3
:10131000104BE21E542101FB02310F4B00937EB9AA
:1013200001230E482A4607F0A1FD0028E6DB3B68B2
:1013300001333B60DBE70133052BE4D10024E7E711
:1013400040F20313EDE700BF1F320400F83800201D
:10135000FC38002004390020743D0400FC3A0020D1
:101360000B4B10B55421C41E01FB0431094807F092
:1013700097FD0028A1BF084B084A00201855A3BFBD
:10138000136803F1FF3313604FF0FF3010BD00BF4F
:1013900004390020FC3A0020FC380020F8380020F6
:1013A0004FF0FF3070474FF0FF3070474FF0FF3085
:1013B000704770474FF0FF3070470000B1FA81F27C
:1013C00052095242012808B5D2B202D0022800D0F8
:1013D00020B90146034803F0C3FC08BD6FF00700C5
:1013E000FBE700BFB8300020014B1868704700BF12
:1013F000B43D00204FF0E023F0B59869D3F8042DF8
:10140000144D154E03F55063510158BF5B6A2968AE
:1014100054BFC3F3C02301234FF0E024726852018C
:1014200056BF726A0122C2F3C022934210D12F68C4
:10143000B9420DD1A76987420AD86269121A0B44D2
:10144000C2F38B124FF47A7000FB03200021F0BD31
:101450001346E3E7B43D002000ED00E007B580232C
:101460008DF80430B1F5487F4FF000038DF8063059
:101470000FD9A1F548716423B1FBF3F1C9B289001A
:101480008DF805100199054803F0CEFD03B05DF815
:1014900004FB09B98DF804100021F0E7C8300020E2
:1014A000704713B5002304460DF107008DF807308F
:1014B00002F0E6F904B1A0479DF8070002F004FA33
:1014C00002B010BD4FF0704393F8E02F062A10D100
:1014D000D3F8E42F12070CD1D3F8E80F00F0F00393
:1014E000302B08D000F0E000A0F1400358425841F2
:1014F000704700207047012070474FF0704393F809
:10150000E02F062A0CD1D3F8E42F120708D1D3F824
:10151000E80F00F0F000A0F1300358425841704746
:101520000020704708B5FFF7CDFF40B14FF0805362
:101530006C4AD3F82433C3F30423C2F84035FFF7D1
:10154000DCFF10B1684B694A5A67FFF7BBFF48B12F
:101550004FF080534FF08042D3F84432C3F342330C
:10156000C2F83C35FFF7C9FF30B1614AD2F8FC3010
:1015700023F08073C2F8FC30FFF7A4FF40B14FF0B6
:1015800080430022C3F80C21C3F81021C3F838258A
:10159000FFF7B3FF20B14FF080430322C3F8A0252B
:1015A000FFF7ABFF60B1534B0522C3F810260122B1
:1015B000C3F888260022C3F818263F22C3F8142651
:1015C0004FF0704393F8E02F062A50D1D3F8E42F60
:1015D00011074CD1D3F8E83F03F0F003502B46D16C
:1015E0004FF08052444BD2F80414C3F82015D2F8BF
:1015F0000814C3F82415D2F80C14C3F82815D2F82F
:101600001014C3F82C15D2F81414C3F83015D2F8FE
:101610001814C3F83415D2F81C14C3F84015D2F8C6
:101620002014C3F84415D2F82414C3F84815D2F88E
:101630002814C3F84C15D2F82C14C3F85015D2F85E
:101640003014C3F85415D2F83414C3F86015D2F826
:101650003814C3F86415D2F83C14C3F86815D2F8EE
:101660004014C3F86C15D2F84424C3F87025FFF772
:1016700029FF48B14FF080534FF08042D3F85832E1
:1016800003F04F03C2F8E43EFFF71CFF48B14FF0F0
:101690008043D3F80024D20744BF6FF00102C3F89F
:1016A00000244FF08053D3F83021062A0AD1D3F812
:1016B0003431062B01BF114AD2F83C3743F4806322
:1016C000C2F83C370A4AD2F8883043F47003C2F8B3
:1016D0008830BFF34F8FBFF36F8F094B094A1A60F1
:1016E00008BD00BF0030014000C007400DF0ADBA9A
:1016F00000ED00E00050004000C00040001000403D
:10170000443100200090D00342DF704744DF70472F
:1017100038B5074C051EA4F1080308BF1C46236812
:101720002BB11A6822605B6828469847F7E738BDF6
:101730005C40002020B9054B01225A70FFF7E8BF3A
:10174000012802D1014A9070F8E770474C40002010
:1017500020B9034B01225A70FFF7DABF704700BF70
:101760004C40002038B50B4C237883B90A4863609D
:10177000A3602361E36000F071FA054602F00AFB02
:1017800008B900F077FA01232370284638BD852573
:10179000FBE700BF4C4000203517030037B5184C5D
:1017A000A378054603F0FF029BB110B14368012006
:1017B000984700230DF107008DF8073002F060F81C
:1017C000E3680133E3609DF8070002F07DF803B0A1
:1017D00030BD0DF107008DF8072002F051F825B15A
:1017E000226913463BB92A602561E368002BE7D1E3
:1017F00000F058FAE4E79D42F7D01B68F2E700BF1B
:101800004C40002037B50B4C00230DF107008DF83C
:10181000073002F035F8E368013BE360E56815B98D
:1018200000F068FAA5709DF8070002F04DF803B0CB
:1018300030BD00BF4C400020012813B508D003285C
:101840001CD018B9114B0122C3F8802002B010BD82
:101850000F4C00230DF107008DF8073002F010F84F
:1018600023780BB9FFF77EFFE3689DF8070001338B
:10187000E3600123A37002F027F8E7E700F0FAF92C
:1018800002B0BDE81040FFF7BDBF00BF00E100E0BF
:101890004C40002008B502F07DFA28B94FF0804393
:1018A000D3F81804C0F3004008BD000037B51B4C46
:1018B0006378054603F0FF029BB110B14368002036
:1018C000984700230DF107008DF8073001F0D8FF8D
:1018D0006368013363609DF8070001F0F5FF03B012
:1018E00030BD0DF107008DF8072001F0C9FF25B1CB
:1018F000A268134653B92A60A5606368002BE7D13C
:1019000002F048FA30B1FFF7FFFEE1E79D42F4D064
:101910001B68EFE700F0F7F9DAE700BF4C40002062
:1019200007B502F037FA48B101A8FFF7EFFE0198BA
:10193000003818BF012003B05DF804FB4FF080436E
:10194000D3F80C0400F00110A0F1011358425841E3
:10195000F1E736DF7047012810B504D100F03AFCFA
:10196000BDE81040004710BD012813B5044603D060
:10197000032813D002B010BD00230DF107008DF82D
:10198000073001F07DFF00F025FC10B12046FFF785
:10199000E0FF9DF8070001F097FFEBE7084BC0223E
:1019A00083F800230122C3F880211A6000F012FCA2
:1019B0000028DFD04FF080430422C3F80423D9E786
:1019C00000E100E038B50B4D2B7804466BB902F00E
:1019D000E1F960B9084B002C14BF2046184600F00E
:1019E000FFFB08B901232B7038BD8520FCE70820D8
:1019F000FAE700BF60400020843D04001FB5037873
:101A00008DF8003043680193037A8DF80830C3687D
:101A1000054A0393054B684653F8213052F82110CC
:101A2000984705B05DF804FB644000206840002042
:101A30001FB503788DF800304368019383688DF8F3
:101A40000830C368054A0393054B684653F82130B4
:101A500052F82110984705B05DF804FB644000205F
:101A600068400020F0B5194B90F800C091F81DE0D7
:101A700043F82C20164B16460A6943F82C20154BC8
:101A80000C4603F80CE007460FCC89B06D460FC535
:101A900094E80F0085E80F00CDF810C0BEF1000FEC
:101AA00009D0002E0C4A694608BF3246381D01F0A5
:101AB00015FA09B0F0BD002E084A694608BF324643
:101AC00007F10C0001F070FCF3E700BF6840002054
:101AD0006440002061400020FD190300311A03001A
:101AE0000023435082B043580193019B02B07047DA
:101AF000F0B51D4B44791D4E43F8242004EB4403FC
:101B00006500F35C73BB90F904308A78002BADBF9D
:101B100003F16047164F03F00F0C07F561474FEADA
:101B20004212D2B2B4BF07F80C2087F8002303F0AA
:101B30001F025B099B0003F1604303F5614301272A
:101B400007FA02F2C3F880211A6003680A88C3F812
:101B500008252B19F2180879F754C978507091703C
:101B60000020F0BD0820FCE7704000206C40002001
:101B700014ED00E0036801221A604379024A03EB86
:101B800043030221D15470476C40002008B500681F
:101B90000A464FF48271FFF7A3FF0223C0F84433D3
:101BA0000AB1C0F8043308BD2DE9F041234E244F9B
:101BB000DFF8908000254FF48034D7F804332342B7
:101BC0000FD033686BB1A6F58041C7F8484338465B
:101BD000C7F8084389B2FFF783FFD8F80030E8B2AE
:101BE00098470135042D4FEA440406F10406E4D178
:101BF000134CD4F80433DA070BD5D4F8003143B1D1
:101C000020464FF48071FFF76BFF0E4B28461B6890
:101C10009847D4F804339B070DD5D4F8043153B159
:101C200007484FF48271FFF75BFF064BBDE8F041B8
:101C30001B6805201847BDE8F08100BF4041024005
:101C4000004002407040002000F18040002382B03C
:101C5000036003680193019B02B07047044B024686
:101C6000187918B91A6001229A8070478520704748
:101C700078400020094B1A68D20706D4C02283F8A6
:101C800000230122C3F880211A604FF08042012313
:101C9000C2F81835024A1370704700BF00E100E037
:101CA0007440002038B54FF48270FFF7CDFF4FF03D
:101CB00080430222C3F804230C4AD2F8FC0040F00F
:101CC0008073C2F8FC300A4B1C6844F001011960B3
:101CD0005D685968491BB1F50A5FFAD31C604FF083
:101CE0008043C2F8FC0001229A6038BD00ED00E09C
:101CF000001000E04FF080430122DA60D3F818248E
:101D0000D203FBD4704708B54FF48070FFF79CFFF7
:101D10004FF080430122C3F804231A6008BD00007D
:101D20004FF0804110B5D1F8003163B14FF48070AD
:101D3000FFF78AFF0D4B58790122C1F8082310B92B
:101D40005A711B6898474FF08042D2F8043163B152
:101D50004FF48270FFF778FF0223C2F80833034B79
:101D6000BDE810401B680120184710BD78400020D6
:101D700000F1804000F5C040002382B0036003689A
:101D80000193019B02B07047800000F1A040D0F8A1
:101D9000003723F44033C0F80037D0F8003743EA67
:101DA0000143C0F800377047C208012300F0070064
:101DB0008340885C03438B5470470000054B4FF011
:101DC000FF32072843F8202084BF1B1883F84820DF
:101DD000704700BF8040002038B5154D95F8584039
:101DE00024BB2022FF2105F130000FF074F9E0B28E
:101DF0000134FFF7E3FF0C2CF9D10E4B00221A60DF
:101E00000D4BC02183F806134021C3F880114FF415
:101E1000BE701960FFF7ACFF084B4FF00041C3F8EC
:101E20000413012385F85830104638BD0820FCE71C
:101E300080400020D440002000E100E0006000402D
:101E40002DE9F041DFF8E08008EB0003044693F948
:101E50003030002B0F4663DA8978C1F34001002946
:101E60000BBF082300230C260826B34202D104200E
:101E7000BDE8F08158F8230001304FEA83053AD1DC
:101E800008EB04005EB248F8232080F8306011B9F6
:101E9000434483F84840BB7859070ED4DA072CD561
:101EA000A30003F1A043D3F8002722F00202C3F8F5
:101EB00000271C492046FFF777FFBB783A789B073D
:101EC00024D505F1804303F5C0432402D3F810154F
:101ED00021F4473121F44071C3F810151204D3F8EE
:101EE000101504F4F85402F4403214430C43C3F8C0
:101EF00010450020BCE70133B7E77A7804F5E073BA
:101F00004FF0A041920041F82320D2E7083E48FA62
:101F100086F696F8503043EA821386F85030E8E7A8
:101F20000820A5E7D44000208040002010B51D4CBB
:101F3000231893F93020072A16DD144494F848300A
:101F40009B09032B0BD14FF0A043D3F81015C140D0
:101F500001F001010231BDE81040FFF715BF012B70
:101F60000CBF02210321F6E7D3B2072B19D8930047
:101F700003F1804303F5C043D3F8100540F001009E
:101F8000C3F8100502F14000800080B2FFF7F0FEB8
:101F900039B154F8223023B101239340024AC2F8E8
:101FA000043310BD80400020006000400E4B03440D
:101FB00093F93020072A02DD0021FFF7E5BED3B2F6
:101FC000072B0FD8930003F1804303F5C043D3F8E8
:101FD000101521F00101C3F8101501239340034AA5
:101FE000C2F80833704700BF804000200060004006
:101FF000F8B50446FFF7DAFF15490A1992F93030AF
:1020000092F83020072A9FBF124A03F5A2730020DE
:1020100042F8230004F00702012393400E48E2082F
:10202000855C1D420AD004F5E0754FF0A0460227FA
:1020300046F82570855C25EA03038354214491F812
:102040003000FFF7BBFEFF2381F83030F8BD00BF42
:102050008040002000600040D44000202DE9F04F77
:1020600087B00024584D03944FF48072012102F18F
:10207000804303F5C0431B68012B07D1D5F8043317
:10208000194203D090B2FFF773FE0C430432B2F54D
:10209000907F4FEA4101EAD14B4BD3F87C31012BC1
:1020A0000AD14FF4BE70FFF763FE4FF0A04344F037
:1020B0000044D3F810350393E3B2D3B1434F012664
:1020C0000025344210D0AB0003F1804303F5C04338
:1020D000D3F81005D3F8101557F8253023B1C1F304
:1020E0000141C0F3042098470135082D4FEA460608
:1020F000E7D1002C64DA00224FF0FF33CDE904234E
:10210000DFF8C890DFF8C8800026374618F9014F7D
:10211000631C46D0C4F3C20318336B440122E5B2FA
:1021200004F03F0A04F0070402FA04F413F8042C44
:10213000224236D009EB0A02AD0992F9302059F853
:1021400022B0BBF1000F08D1032D2AD104A95046BB
:102150000193FFF729FE019B01E0032DF6D00AF55C
:10216000E0714FF0A04213F80C3C52F821102342CA
:10217000C1F3014105D0022913D1032D0BD129460A
:1021800004E003290DD1032D05D102215046FFF7AC
:10219000FBFD0136F6B2BBF1000F02D029465046D6
:1021A000D8470137042FB1D156B14FF0A043039A5D
:1021B000D3F810359A4203D00393049B0593A1E70B
:1021C00007B0BDE8F08F00BF0060004080400020F5
:1021D000CF400020014B1868704700BFE04000204E
:1021E0000D4A1378ABB903784FF0804103F0010337
:1021F000C1F87835094B1968C90706D4C02183F89E
:1022000000130121C3F8801119600123137000200D
:1022100070478520704700BFE440002000E100E0E7
:102220004FF0804310B5D3F80443610708D5D3F8C5
:1022300008212AB10022C3F80821104B1B689847D7
:10224000A2060AD54FF08043D3F814212AB100200A
:10225000C3F814010A4B1B68984763060DD54FF06D
:102260008043D3F8182142B10022C3F81821044B4F
:10227000BDE810401B680120184710BDE040002059
:10228000DC40002008B5FFF7CBFFBDE80840FFF7B2
:1022900047BD0000124BD3F8182182B0EAB10022EA
:1022A000C3F81821D3F818310193019B0D4BD97F46
:1022B000FF2907D0987F01228A404FF0A04148B102
:1022C000C1F80C2500225A771A72D3E9002106487A
:1022D00002B01047C1F80825F4E702B0704700BF0C
:1022E00000300240E8400020F04000202DE9F74F88
:1022F00090F80480694E01924FF0240909FB08F917
:1023000006EB090B9A469BF81C3007460C46002B3F
:1023100040F0C08005686249284601F0CBF90028EA
:1023200040F0BA80019B46F80930CBF804A094F83D
:1023300000C0217B4FF0A042012303FA0CF30129D6
:1023400094BFC2F80C35C2F808350CF5E0734FF0B5
:10235000010E42F823E06378FF2B1FBF0EFA03FE45
:10236000C2F80CE503F5E07E4FF0030918BF42F810
:102370002E90A27808BF4FF0FF33FF2A1FBF02F54F
:10238000E07E4FF0A04A4FF0040B4AF82EB04FF019
:10239000240E0EFB086E18BF91468EF82020E278BE
:1023A0008EF81F2008BF4FF0FF39FF2A19D094F88C
:1023B00004A04FF0010B0BFA02FB4FF0A04EBAF154
:1023C000000F37D0CEF80CB502F5E0724FF0030BDA
:1023D0004EF822B0314A4FF0240E0EFB082282F84C
:1023E0001EA0C5F808C5C5F80C35A368C5F810953A
:1023F000C5F82435637B003B18BF012302291CD09C
:1024000003291DD0012901D143F00203C5F8543539
:10241000019AA379C5F8C0350723A2B9C5F80035DC
:10242000242303FB0866002373770123337703B06B
:10243000BDE8F08FCEF808B5C6E743F00403E5E742
:1024400043F00603E2E74022C5F80423C5F800354F
:102450003B68627943F30733002BADBF03F1604162
:10246000104903F00F0401F561414FEA4212D2B264
:10247000B4BF0A5581F8002303F01F015B099B00DC
:1024800003F1604303F5614301228A40C3F88021D0
:102490001A60C5E70820CAE71120C8E7E840002015
:1024A0009522030014ED00E0F8B505791C4C006896
:1024B00024236B43E618E358D3B140F307335A099A
:1024C000184F03F01F030121203201FA03F347F8EC
:1024D0002230154BC0F80833737F4BB14161D0F8FF
:1024E0000431002BFBD0242303FB054300225A7741
:1024F000242303FB0543002693F82030FF2B1FBF46
:1025000003F5E0734FF0A042022142F82310C0F817
:10251000006501F0EFF8242303FB05442677F8BD9E
:10252000E840002000E100E0520108002DE9F743F7
:1025300090F804C0454E242303FB0CF31546F21813
:102540000C46517F864600297DD156F80380B8F1AC
:10255000000F04D015F0140F04BF0123537794E843
:102560000F00242707FB0C6707F10C0989E80F000F
:10257000FA7FFF2A07D0B87F012393404FF0A04194
:10258000D0B1C1F808352068DEF8003020B100F085
:102590006041B1F1005F06D1A16881B101F06047EF
:1025A000B7F1005F0BD0242303FB0C6300225A77A2
:1025B000102003B0BDE8F083C1F80C35E3E767688D
:1025C000C3F84405C3F84875E068C3F83415002122
:1025D000C3F83805C3F81811D3F8181101910199FF
:1025E00015F0010118BF0121C3F8501515F00201C3
:1025F00018BF0121C3F8401529075CBF01211961EB
:10260000B8F1000F15D1D3F818110029FBD0FF2A1B
:102610000AD001239340242202FB0C664FF0A04213
:10262000B17F19B1C2F80C350020C2E7C2F80835F5
:10263000FAE715F0040F4FF0400214BFC3F8082367
:10264000C3F80423F0E71120B3E700BFE8400020FF
:102650002DE9F347002406460F46904600F5A07585
:102660004FF48039A2462B688BB1D6F8043309FAAF
:1026700004F21A420BD0C5F800A02B680193A00009
:10268000019B00F5A07398B2D7E900319847013457
:10269000444505F10405E6D102B0BDE8F08700002D
:1026A000F7B505792B4C0C266E43A7193B7A002B06
:1026B0004ED1A2514A687A60467902681F46D8B264
:1026C00086423CD842F30733C878002BADBF03F1F4
:1026D0006046214E03F00F0706F561464FEA4010B1
:1026E000C0B2B4BFF05586F8000303F01F005B09C9
:1026F0009B0003F1604303F56143012606FA00F0F5
:10270000C3F8800118604878D2F8043560F30103FB
:10271000C2F804358878D2F8083560F30103C2F8AE
:1027200008350978D2F8103561F30303C2F8103583
:102730000C2303FB05440020267203B0F0BD980073
:1027400000F5A07001331750105801900198B6E7BA
:102750000820F2E70C41002014ED00E0036801229C
:102760001A600279034B0C2101FB023302221A7218
:10277000704700BF0C410020036801221A610179F3
:10278000024B0C2000FB01331A7270470C410020F1
:102790000279044B0C2101FB0233187A831E584244
:1027A000584170470C41002037B54FF48034006821
:1027B0008C407BB101F150039B000025C550C358EC
:1027C0000193019BC0F8044301F5A87140F8212052
:1027D00003B030BDC0F80843F6E770B4046840F2B7
:1027E0000116D4F800528E4025EA0605C4F80052BE
:1027F000D4F800522B43C4F800329DF80C3070BC62
:10280000FFF7D2BF024903480422FFF721BF00BFF0
:102810000C41002000A00040024903480622FFF7B7
:1028200017BF00BF1841002000A001400249034823
:102830000622FFF70DBF00BF2441002000B0014079
:102840000023435082B043580193019B02B070476C
:10285000F0B5D0F8243187B004460D469BB14FF453
:102860009271FFF7EDFFD0F8043163B9AB68C0F89F
:1028700008330223AB60AB68C0F804330123036262
:10288000436107B0F0BDD4F8043193B34FF48271C3
:10289000204605F10C07FFF7D3FF0FCF01AE0FC69F
:1028A00095F82E203B68336072B12B7B012B0CBF57
:1028B000D4F83C15D4F84C150291022B0CBFD4F877
:1028C0003C35D4F84C3503934FF4B0712046FFF7F4
:1028D000B7FF4FF4AE71FFF7B3FF95F8303003B197
:1028E000CAB10023C4F80032AB601F4BC4F80833F0
:1028F00011E04FF4A4712046FFF7A2FF2B7B03BB2E
:1029000005F10C070FCF01AE0FC63B68336095F899
:102910003030002BE6D0D4F8C434C4F8C4349A075D
:102920005ABFC3F380035B0001238DF8003095F894
:1029300030300BB985F82F30D5E90031684698471B
:102940009FE74FF40073C4F8003240F20223AB60FB
:1029500003F1CE73C4F80833AB68C4F80433012321
:10296000A36023628DE700BF02029C010149024877
:10297000FFF76EBF304100200030004002494FF0A9
:102980004020FFF765BF00BF644100202DE9F84FEC
:102990000579344C4FF0340A0AFB05FA04EB0A06B9
:1029A0009B4696F82D3080460F469146002B55D118
:1029B0002D4B006853F8251000F07CFE00284FD105
:1029C00039687B7B86F8323001F5E0724FF0A04326
:1029D000B060C6F804B086F82F0086F8300040F2E8
:1029E0000C6644F80A9043F822607A6802F5E07CAD
:1029F00043F82C60D8F80030C3F80815C3F80C254C
:102A0000BA68C3F82425B9F1000F1FD043F3073388
:102A1000002B3A7BB5BF154903F1604103F00F0667
:102A200001F561414FEA4212D2B2B4BF8A5581F832
:102A3000002303F01F015B099B0003F1604303F5D2
:102A4000614301228A40C3F880211A60342303FBCA
:102A50000544012384F82D30BDE8F88F0820FBE7FA
:102A60001120F9E730410020883D040014ED00E01A
:102A7000036802790621C3F80015044B342101FBD9
:102A80000233022283F82D20704700BF304100201E
:102A900001790B4B0268342000FB01330949002007
:102AA0009860C2F80813D2F8001221F4BC51C2F8A1
:102AB0000012C2F80005012283F82D20704700BFE4
:102AC0003041002002029C0170B506791A4D342372
:102AD00073430446EB5863B1036843F307335A0961
:102AE000012103F01F03994002F12003134A42F829
:102AF00023102046FFF7CCFF206800F0FBFD3423B5
:102B000003FB065393F832307BB92068D0F80835C0
:102B10004FF0A04203F5E073022142F82310D0F8F1
:102B20000C3503F5E07342F82310342303FB0655FC
:102B3000002385F82D3070BD3041002000E100E019
:102B40000279034B342101FB023393F82F007047C5
:102B5000304100202DE9F843CB680779046803F081
:102B60006043B3F1005F0D46904603D01025284620
:102B7000BDE8F8838F4E904BC4F808334FF0340C07
:102B80000CFB076C9CF82F302BB1DCF80830C4F834
:102B900004331125EBE712F0140F0CBF01230023BF
:102BA0008CF82F308946B9E80F000CF10C0EAEE816
:102BB0000F00D9F80030CEF80030C8F300138CF8BD
:102BC00030306B78C4F888354FF482712046FFF7B7
:102BD00037FE4FF49271FFF733FE18F0010318BF70
:102BE0000123C4F8503518F0020318BF0123C4F8BC
:102BF00040352A78032A00F2AD80DFE802F06F95B5
:102C00005302D5F8109009F06043B3F1005FADD1E5
:102C10004FF48073E968C4F800326B68C4F8441557
:102C2000C4F848354FF4A871FFF70AFE4FF4B071AD
:102C3000FFF706FE4FF4A471FFF702FE01232362A3
:102C4000A360D4F85031002BFBD04FF4A87120467C
:102C5000FFF7F6FDAB685949C4F84495C4F8483508
:102C6000342303FB076399604FF482710823002526
:102C700018F0080F03D1032A1CBF0122E2503423AD
:102C80007B43F218F358002B76D018F0040F1CBFCA
:102C90004FF400739360342303FB07639B68C4F80D
:102CA000043364E76B68E968C4F84415C4F8483530
:102CB0002B6903F06041B1F1005F7FF457AFA96861
:102CC000C4F834354FF48453C4F83815C4F80032CE
:102CD000342303FB076340F20221C4E76B68E96811
:102CE000C4F8441518F0200FC4F848354FF03403E9
:102CF0000ED04FF4807103FB0763C4F800122F4914
:102D000099604FF4A471FFF79BFD01232362ADE7A7
:102D10004FF4007103FB0763C4F8001240F2022174
:102D200099604FF48271F0E76B68E968C4F8341574
:102D3000C4F838354FF48053C4F80032342303FB11
:102D4000076340F202219960012323624FF48271EC
:102D500000238CE74FF482710823072588E7D4F815
:102D6000243153B14FF492712046FFF769FD0123DE
:102D700023624FF48271636121440B68002BEED013
:102D80003422D4F8C434C4F8C43402FB07660022E9
:102D900086F82F20002B3FF4EAAE13F0020F48F222
:102DA000012508BF032513F0040F48F2022318BFC2
:102DB0001D46DCE63041002002029C0100020400B6
:102DC0000023435082B043580193019B02B07047E7
:102DD0001FB501238DF80030054B8DF808000191D7
:102DE0006846D3E90012904705B05DF804FB00BFC8
:102DF000984100207FB5374AD2F82461002E47D091
:102E000010464FF49271FFF7DBFF02238DF800307C
:102E1000D2F88034C2F880340393D2F83C358DF870
:102E200008302D4BDA6801920022C3E90622684679
:102E3000D3E9001290472748D0F844316BB14FF4E2
:102E4000A271FFF7BDFF244B9A6932B10022D0F87E
:102E50003C05D9689A61FFF7BBFF1E48D0F82031C6
:102E6000A3B14FF49071FFF7ABFF1B4B5A696AB1E6
:102E7000D0F84C158DF80810002299688DF80020C4
:102E800001915A616846D3E90012904704B070BDC1
:102E9000D2F81031002BCED04FF488711046FFF7D6
:102EA0008FFF0D4BD2F83C0599698842C3D1DC698C
:102EB000D96864B1D2F8005225F02005C2F800525A
:102EC0001A699C61DA60DE61FFF782FFB3E79C61FB
:102ED000FAE700BF00200040984100202DE9F047AC
:102EE000584D90F80480242303FB0853814693F83F
:102EF00020300C469246002B40F09F8052490068DB
:102F000000F0D8FB0746002840F099802368D9F8E4
:102F10000060591C0AD04FF0A04101229A40C1F82C
:102F2000082503F5E072032041F8220061684A1C7D
:102F30001FBF01F5E0724FF0A0404FF0000C40F8C9
:102F400022C0A269C6F82425207D627D012842EABC
:102F50000002C6F86C25C6F80C35C6F814151CD14D
:102F6000A268501C1FBF02F5E0734FF0A041002083
:102F700041F82300E368591C0BD04FF0A040012119
:102F80009940C0F8081503F5E0714FF0030C40F8C4
:102F900021C0C6F80835C6F81025242303FB08F322
:102FA000EA18C2F804A02269EA50BAF1000F34D03E
:102FB000D9F80000227F4FF48871FFF701FF4FF42A
:102FC0009071FFF7FDFE4FF49271FFF7F9FE4FF499
:102FD000A271FFF7F5FE1D4BC0F8043340F3073331
:102FE000002BADBF03F16041194903F00F0001F55B
:102FF00061414FEA4212D2B2B4BF0A5481F80023B1
:1030000003F01F015B099B0003F1604303F561437B
:1030100001228A40C3F880211A600823C6F80035CF
:10302000242303FB08550023C5E906336B61012304
:1030300085F820303846BDE8F0870827FAE71127E1
:10304000F8E700BF98410020F52D030010030200AF
:1030500014ED00E00279044B242101FB023358698E
:10306000003818BF01207047984100202DE9F8432F
:1030700001F06043B3F1005F05460F4690462FD143
:10308000FFF7E8FF044668BB95F80490174A2D68DF
:10309000242606FB09264FF490712846C6F81480B2
:1030A000B760FFF78DFE4FF4AC71FFF789FE012387
:1030B000C5F84475C5F84885AB607368A3B9D5F801
:1030C0002031D5F858010343F9D0242303FB09220A
:1030D00000284FF0000318BF0F205361BDE8F883AC
:1030E0001020FBE71120F9E72046F7E79841002080
:1030F0002DE9F84301F06043B3F1005F0E4667D15C
:103100000779344D242303FB0753D3F80480B8F127
:10311000000F04D003684FF40471C3F8081324238C
:1031200003FB0753996969B1D96900293ED0B8F109
:10313000000F04D003684FF40472C3F80423112075
:10314000BDE8F8839A61DE6089462423046803FBA6
:1031500007532046D9614FF48871FFF731FE4FF4D1
:10316000A271FFF72DFEC4F83465C4F83825B9F113
:10317000000F20D101232360B8F1000F22D1D4F831
:103180001021D4F84431D4F824011A4302D1002884
:10319000F5D01346242202FB07550022904218BFA7
:1031A00003209342AA6118BF0F20C9E71E61114690
:1031B0004FF00109C9E7D4F8003243F02003C4F806
:1031C0000032D9E74FF40473C4F804330020B7E7A2
:1031D0001020B5E7984100200023435082B04358A7
:1031E0000193019B02B070470A4610B54FF48E71EF
:1031F000FFF7F2FF136A9168C95C136A0133136227
:10320000C0F81C1510BD8B690A4610B54FF48471C7
:1032100023B9FFF7E1FFD0F8183510BDFFF7DCFF49
:10322000536AD168D0F81805C854536A0133536201
:10323000F3E700001FB501238DF80030044BCDE902
:103240000110D3E900126846904705B05DF804FB11
:10325000BC41002008B54FF49271FFF7BDFF4FF459
:103260008471FFF7B9FF0123036008BD30B54C4DF1
:10327000D5F804339A0585B051D5D5F82431002B03
:103280004DD04FF492712846FFF7A6FF4FF401731B
:10329000C5F80833434B93F829200AB901226A6024
:1032A0003F4902228DF80020D1F88024C1F8802403
:1032B00003929A690292DA6801920022C3E9062217
:1032C0006846D3E9001290473548D0F81C315BB10D
:1032D000344A136A5469A3424DD292F82830002B25
:1032E00049D11146FFF780FF2D48D0F84431002B1B
:1032F00054D04FF4A271FFF76FFF2A4B93F82920A7
:103300000AB1012202609A69002A47D0586AD96836
:1033100000229A6105B0BDE83040FFF78BBFD5F8B9
:1033200004335B07D0D5D5F80831002BCCD01D4C29
:103330001B482146FFF767FF636AA2699A42C3D11F
:10334000E369E1684BB1A3612369E3600023606A2C
:10335000E3616362FFF76EFFB6E794F829300BB9BB
:1033600001236B600E4B4FF40172C3F80823002356
:10337000606AA361EEE70A484FF48E71FFF72CFFF5
:10338000002CB1D09168019100238DF80030536179
:103390000294D2E9001368469847A5E705B030BD0E
:1033A00000200040BC4100202DE9F047554D90F829
:1033B00004802C2303FB0853814693F82A300C46E3
:1033C0009246002B40F099804F49006800F072F956
:1033D0000746002840F093802368D9F80060591C04
:1033E0000AD04FF0A04101229A40C1F8082503F508
:1033F000E072032041F8220061684A1C1FBF01F5FA
:10340000E0724FF0A0404FF0000C40F822C0A269DB
:10341000C6F82425207D627D012842EA0002C6F814
:103420006C25C6F81415C6F80C351CD1A268501CC2
:103430001FBF02F5E0734FF0A041002041F82300C8
:10344000E368591C0BD04FF0A04001219940C0F80F
:10345000081503F5E0714FF0030C40F821C0C6F8E1
:103460000835C6F810252C2303FB08F3EA18C2F828
:1034700004A02269EA50BAF1000F2CD0D9F800005C
:10348000227F4FF48E71FFF7A7FE4FF4A271FFF772
:10349000A3FE1E4BC0F8043340F30733002BADBF2F
:1034A00003F160411A4903F00F0001F561414FEA51
:1034B0004212D2B2B4BF0A5481F8002303F01F01B4
:1034C0005B099B0003F1604303F5614301228A40DD
:1034D000C3F880211A600423C6F800352C2303FBAF
:1034E00008530022C3E9062283F829205A610122E9
:1034F00083F82A203846BDE8F0870827FAE7112725
:10350000F8E700BFBC4100206D32030080000200DC
:1035100014ED00E00279044B2C2101FB02335869C1
:10352000003818BF01207047BC4100202DE9F84F3A
:10353000074689469346FFF7EDFF044600283BD136
:1035400097F804801D4E2C2508FB056A4FF48E71F8
:10355000CAF820008AF828003868CAF814B0CAF8F7
:103560000890FFF739FE012383605146FFF73CFEC8
:10357000DAF80430554663B12046BDE8F88F95F877
:103580002830BBB9D0F81C31002BF8D05146FFF7DA
:103590002BFE2A6A6B699A42F4D3D0F81C31002BB7
:1035A000FBD00123C36000202C2303FB086600230B
:1035B0007361E2E70F20F7E71120DEE7BC4100204E
:1035C0002DE9F843374C06792C2303FB06430546C7
:1035D0005F6827B103684FF40170C3F808032C2318
:1035E00003FB0643986950B1D86900283DD027B144
:1035F0002B684FF40172C3F80423112033E09A6161
:10360000D9605862024601462C2303FB0643DA6167
:1036100093F82930286813B909B9FFF71BFEBFBB1F
:103620004FF4A2714FF02C08FFF7D6FD06FB0847B8
:10363000B8462868D0F82421D0F80811D0F84431D1
:10364000194315D1002AF4D000232C2101FB064494
:103650000021A1610ABB13BB94F829102B68012239
:10366000A1B11A600020BDE8F88319610121CBE700
:1036700053EA0209E9D13946FFF7C5FDD8F82430ED
:10368000D8F818209A42D4D84A46DDE75A60E9E7CC
:103690004FF40173C0F80433E4E70320E3E70F209D
:1036A000E1E700BFBC410020014B1B68184700BF89
:1036B000E84100200D4B984237B50C4611D100234C
:1036C0000DF107008DF8073000F0DAF8084B1D798E
:1036D00015B901221C601A719DF8070000F0F4F87A
:1036E00015B9002003B030BD1120FBE700200040D9
:1036F000E8410020034B984201BF034B00221A60AF
:103700001A71704700200040E841002000F180401D
:1037100000F5E040002382B0036003680193019B41
:1037200002B07047F0B5544B544CD3F8043194F8C0
:103730002E2085B0002B3BD04FF48270FFF7E6FFC0
:103740002AB394F82F3013BB4B4AD2F80031002B28
:1037500032D04FF48070FFF7D9FF638B94F82D00BF
:10376000834250D921891B1A9BB289B26383CB1A39
:10377000616801EB4301C2F82C16C2F830064FF421
:103780008270FFF7C3FF3C4B01225A6014E063686C
:1037900002932389ADF80C30E36800218DF8041002
:1037A00033BB2374236801A89847002384F82F3083
:1037B00094F82E30002BC7D12F4BD3F810315BB1CA
:1037C0004FF48870FFF7A2FF0023237402238DF8C3
:1037D000043001A823689847274BD3F814310BB362
:1037E0004FF48A70FFF792FF0023237405B0F0BDF9
:1037F000208B608363602081E160002AD2D11E4B60
:1038000001221A60CEE7BAD1E168012084F82F00C6
:1038100031B100206083C2F82C16C2F83036AEE712
:103820006183ACE766694FF000470125002EDDD0CB
:10383000B6FA86F227FA02F34632920026EA030627
:1038400002F1804303F5E0431B68002BEED01046E5
:10385000A2F58C72FFF75AFFD30882F00402C2F37C
:1038600080028DF808308DF8045023688DF8092007
:1038700001A89847DAE700BF00700040F04100203F
:1038800070B5EFF3108672B60C4A9468012384B9C0
:1038900093600B4B0B4DD3F8801029401160C3F897
:1038A0008050D3F8841051604FF0FF32C3F8842069
:1038B0002346037006B962B670BD00BF20420020E7
:1038C00000E100E0FC06FFBD084B9A6810B55AB154
:1038D00050B9EFF3108172B6054A1C6814605C6839
:1038E0005460986001B962B610BD00BF204200204C
:1038F00000E100E01FB50021039001AA44F201009D
:10390000CDE9011100F004F805B05DF804FB0000FA
:1039100072B6094BD3F8F020D20700D500BEBFF332
:103920004F8FD968054A01F4E0610A43DA60BFF3BA
:103930004F8F00BFFDE700BF00ED00E00400FA0577
:103940001EF0040F1CBFEFF309800AE0EFF30880BC
:103950000549064A884201D8904202D88D464FF068
:103960000000034B1847000000F8002000D800209A
:1039700099390300BFF34F8F0549064BCA6802F41B
:10398000E0621343CB60BFF34F8F00BFFDE700BF82
:1039900000ED00E00400FA0508B5034B9A6ADB6A03
:1039A000FFF7E8FF08BD00BF00ED00E010B50346DB
:1039B00053E8000F40EA010243E8002494F0000FAE
:1039C000F6D110BD10B5034653E8002F42EA0100BE
:1039D00043E8000494F0000FF6D110BD10B5034683
:1039E00053E8002F02EA010043E8000494F0000FBE
:1039F000F6D110BD0121FFF7D9BF0021FFF7EEBFBF
:103A000010B5034649B152B1541E14EA020006D162
:103A1000986019609C80D86010BD0E20FCE70920DA
:103A2000FAE710B58468C2688388121B934208D3F2
:103A3000C26813400268D154C3680133C3600020D8
:103A400010BD0420FCE78268C3689A420AD08268ED
:103A5000838813400268D35C0B70836801338360F2
:103A600000207047052070470648074A0378074939
:103A7000D35C012213B10430FFF73ABB0C30FFF7DF
:103A80009FBD00BF48310020614000204D42002012
:103A90000648074A03780749D35C012213B1043072
:103AA000FFF7E4BA0C30FFF741BD00BF48310020FA
:103AB000614000204E42002037B50578012D05D029
:103AC000022D25D0002D2ED003B030BD43681D4CF3
:103AD00019782046FFF7A5FF78B18DF800500190C6
:103AE000194B68461B689847A168E368A2885B1A6F
:103AF0009A4209D3FFF7B8FFE6E7A268E3689A4263
:103B0000F2D08DF80000EBE7104B01221A70DBE7D2
:103B1000C3688DF800500193FFF7A6FF0A4B684673
:103B20001B689847D0E70A490A48FFF78CFF20B97D
:103B300003B0BDE83040FFF7ABBF03238DF8003082
:103B4000ECE700BF3C420020504200204C420020E5
:103B50004E4200202C420020F0B51F46234B89B076
:103B600004461A600D4600293DD08A88204809681D
:103B7000FFF746FF002834D1AA89A9681D48FFF73E
:103B80003FFF00282DD11C4E0FCE6D460FC596E885
:103B90000F0085E80F0063690693237C174A1848D5
:103BA0008DF81C70003B18BF01238DF81430637C26
:103BB000002B0CBF00230E238DF81530E368029311
:103BC000A368039323680193694663680093FDF734
:103BD00049FF30B90B4B18702368013301D0FFF750
:103BE00043FF09B0F0BD0720FBE700BF50420020B3
:103BF0003C4200202C420020903D0400B93A0300D2
:103C0000483100204C42002070B5084D014608485C
:103C10002E78FFF718FF044636B100232B70FFF70C
:103C200023FF08B1FFF766FE204670BD4C4200201E
:103C30003C42002010B501460E48FFF7F2FE044654
:103C4000A8B90D480D4A0378D35C63B10430FFF77F
:103C500001FA60B90A490748FFF7F5FE38B9BDE82F
:103C60001040FFF715BF0C30FFF754FCF1E720467A
:103C700010BD00BF2C4200204831002061400020D0
:103C80004E42002010DF704713B5044609496846CC
:103C900000F08AFC019808B902B010BDD0E90031EB
:103CA0002046984718B1684600F086FCF2E71120DC
:103CB000F2E700BFC83D040013B504460749684653
:103CC00000F072FC019B0BB902B010BD2046D3E995
:103CD00000219047684600F06FFCF3E7BC3D04000C
:103CE0000B4991F81623EC2352091341DB0706D543
:103CF000084B9A683AB94FF480030B60704742F260
:103D00000200FFF7F7BD1A6842F480021A6070479C
:103D100000E100E020420020F7B5194F3C7864BB79
:103D2000184E012520463570FFF7AEFF112821D02F
:103D30002046FFF7C1FF144B8DF80340186801902F
:103D40000DF10300FFF79CFD104901A8FFF79AFF52
:103D50000446B0FA80F0400938709DF80300FFF780
:103D6000B3FD3CB90A4B34701C70FFF7B9FF28460D
:103D7000FFF7A2FF204603B0F0BD0824FAE700BF1A
:103D80005642002054420020D43D04001139030063
:103D900055420020014B1878704700BF5642002062
:103DA00007B50849684600F0FFFB019B13B903B053
:103DB0005DF804FBD3E900209047684600F0FCFB67
:103DC000F3E700BFB03D0400FFF7EABF60DF7047D4
:103DD00069DF704761DF704730B5134DADF5017D88
:103DE0004FF4FA740DF1020103A8ADF80240FFF799
:103DF000F1FF70B9294601A800F0D6FB029B002B09
:103E0000F0D003A8D3E90021904701A800F0D4FB2B
:103E1000F4E7052805D00DF5017DBDE83040FFF73A
:103E200069BD0DF5017D30BDD83D0400024B1B7806
:103E30000BB1FFF7D1BF704757420020F0B50646DF
:103E400085B00D46002948D00024254A0A60CDE9F6
:103E50000144062301278DF8040001A92020ADF8B4
:103E6000083003948DF80670FFF7B2FF2A680394B8
:103E700001A94020CDE901448DF80570FFF7A8FFA6
:103E8000F7232A68039401A92320CDE90144ADF862
:103E900006308DF80460FFF79BFF02232A68039425
:103EA00001A93846CDE901448DF80430FFF790FFB1
:103EB0004FF4B0632A68019301A9A120CDE902441F
:103EC000FFF786FF2A68039401A9A020CDE90144E9
:103ED000FFF77EFF204605B0F0BD0E20FBE700BFD8
:103EE0000030002008B5FFF771FF10B9014B012227
:103EF0001A7008BD574200204BDF70471FB50E4CAB
:103F000001A8FFF7F9FF70B9214602A800F04CFBA9
:103F1000039B002BF4D00198D3E90021904702A81D
:103F200000F04AFBF4E7052804D004B0BDE81040D7
:103F3000FFF7E0BC04B010BDE43D04006DDF704746
:103F400079DF70477DDF704764DF70472DE9F04F00
:103F500085B000260E9CBDF83CB0B4F800A00191DD
:103F6000074690461D46B1463A884A4505DC002E74
:103F700037D1002005B0BDE8F08F7A6852F82900EB
:103F8000039000220DF10B0103A8FFF7DDFF0028CD
:103F9000F0D19DF80B20424520D1228886F0010007
:103FA00002EB080101EB4001594524DC3EB9013226
:103FB00092B2019B2280AB54228801322280228857
:103FC0000DF10B012A4403A8FFF7BEFF0028D1D151
:103FD00021889DF80B200A442280012609F101095D
:103FE000C2E72388013BA3EB0A039BB2FF2B02D855
:103FF00005F80A30BDE70C20BCE72DE9F341089F26
:10400000BDF824801546CDE90078022204461E46FC
:10401000FFF79CFF50B93346102229462046CDE9D0
:10402000087802B0BDE8F041FFF790BF02B0BDE8EC
:10403000F0812DE9F04F00231788138090F82D3080
:1040400085B006460D4614465BB3082F40F2B28198
:1040500002A8FFF773FF002840F0E2802388DDF814
:1040600009100822EA54238801339BB21B222380C3
:10407000EA54238801339BB2EA182380E950BDF843
:104080000D30938023889DF8082006339BB2012AC7
:1040900088BF0122238094BFE854EA542388013367
:1040A0002380B37803B323880433BB4200F28281B8
:1040B00002A8FFF745FF002840F0B28023880322C2
:1040C000EA54238801339BB219222380EA542388BF
:1040D000BDF8082001339BB2E9182380EA54120A84
:1040E0004A70238802332380F278A2B12388D91C36
:1040F000B94200F25F810221E954238801339BB267
:1041000001212380E95423880B449BB22380EA5485
:1041100023880B4423807368B3B193F9002023886C
:10412000D91CB94200F246810221E95423880133A7
:104130009BB20A212380E954238801339BB2238058
:10414000EA542388013323803389002B5DD1338ADD
:1041500053B1CDE900472B460722032106F1100099
:10416000FFF74BFF00285BD1338B53B1CDE90047FC
:104170002B461522142106F11800FFF73EFF0028F8
:104180004ED1326A002A4ED1D6F82480B8F1000F01
:1041900031D0B8F804302188981C8A1C0244BA42F5
:1041A00000F20881FE2800F2058103336B54238856
:1041B00001339BB2FF222380EA54238801339BB250
:1041C0002380B8F80020EA54E918120A4A702088BF
:1041D000023080B22080B8F8042062B1D8F808100C
:1041E000002900F0E98028440DF09AF82388B8F8F7
:1041F00004201344238096F82C30002B59D13378B7
:10420000002B40F0978000200AE0CDE900472B46C4
:104210000622022106F10800FFF7EFFE002896D0E3
:1042200005B0BDE8F08FB4F800C00CF10603BB4246
:1042300000F2C0801188052940F2BE806FF4486EFC
:1042400001EB0E039BB24FF27D3E734540F2B4800A
:104250005388052B40F2B0806FF44860181880B284
:10426000704540F2A9804FF6FF70814202D099421A
:1042700000F2A280052305F80C30238801339BB29D
:1042800012212380E954238801339BB223801188B3
:10429000E954E818090A4170238802339BB223804D
:1042A0005288EA54E918120A4A702388023323809C
:1042B0006AE7B36A002B7FD04FF000094FF00C0A79
:1042C0004FF0160B96F82C305FFA89F2934296D98C
:1042D000B16A0AFB02F201EB0208B8F80430981C3C
:1042E000FE2867D8208803332B54238801339BB2E0
:1042F000238005F803B0238801339BB223808A5AB8
:10430000EA54E918120A4A702088023080B22080EC
:10431000B8F804205AB1D8F8081000294CD0284425
:104320000CF0FEFF2388B8F804201344238009F121
:104330000109C7E73288012A3ED02288901CB84282
:1043400038D8012B04D17378023313449F4231D300
:10435000023FBF1ABFB202A92844ADF80870FFF7A8
:10436000F1FD00287FF45CAF3278BDF80830022AF6
:104370001CD07178994201D3BB4219D9012A02D1CC
:104380008F4228BF0F46ADF808700821BDF80830ED
:10439000FE2B0FD822880133AB542288013292B20F
:1043A0002280A9542288134423802CE7BB42EAD8F8
:1043B0000921EBE70C2033E7072031E770B5C8B1DE
:1043C0004AB115880024AC4207D3061976789E427C
:1043D00003D1A14209D800200CE0A142FBD9065D1F
:1043E000013416FA84F4A4B2EDE7A31C1380005D37
:1043F000013880B270BD13B513460022ADF8062017
:104400000DF106020446FFF7D9FF10B1BDF8060012
:10441000204402B010BD90DF7047A5DF7047B5DFC4
:1044200070471FB50023ADF80810ADF80A106A46B2
:1044300002A903930093ADF80430FFF7ECFF05B039
:104440005DF804FB80B14FF0F7130360FB230371A9
:10445000F723C3801723038141F6FB320023016158
:1044600043818281184670470E20704730B1A1F118
:104470001703E02B04D80180002070470E207047FE
:104480000720704713B5034680880C4698B91A88F0
:10449000242A76D011D8112A52D0232A7ED0102A6D
:1044A0002BD0A37A3BB1E1880020FFF7B6FF10B90B
:1044B0004FF48073638102B010BD3A2A49D0552A67
:1044C000EFD1DB88C988A072172B38BF17238B4226
:1044D00028BF0B462381FFF7A2FFE37A002BE0D130
:1044E0002369002BDDD040F6772200922289ADF8B7
:1044F0000420694620469847D3E7DB7B0A790A7394
:10450000012B13D0022B14D0E18823898B4205D2D2
:104510000020FFF782FF70B90123E372217B637BE8
:104520008B42BED20020FFF77CFFBAE70B88E38006
:10453000EAE74B88FBE7112804BF0123A372EDE7EC
:10454000F723CB8017230B8141F6FB3348818B8106
:10455000A7E75B89CA88934228BF1346172B0A69CD
:1045600038BF17230B814AB1C97A39B140F6772198
:104570000091ADF8043069462046904700236381DE
:104580008FE71A7A0B694A73002B8AD04DF67A218D
:104590008DF8050000918DF80420AAE7197A237B95
:1045A000994228BF1946BEE7D1E90032934208BFBD
:1045B0000023016043607047436843B1026891681B
:1045C00052680B449342436004BF0023436070472A
:1045D0006DDF704776DF704777DF70477ADF7047AF
:1045E0007CDF70477FDF70478FDF7047A8DF704741
:1045F000AADF7047B0DF7047B1DF704762DF7047F6
:10460000014B5B68184700BF744300207047704738
:104610007047FFF76FB900000388212B07B52BD037
:1046200008D8112B1ED0132B32D0102B0DD003B075
:104630005DF804FB522B33D0562B01D03B2BF6D127
:1046400013218088FFF7C6FF05E0194B81881948C0
:10465000198005F021FA0028E9D003B05DF804EBD9
:10466000FFF748B9124B4FF6FF721A80124A002327
:104670001370124A1370DAE700238088ADF8043013
:1046800001A9FFF7B1FF0028D1D0FFF733F9CEE73A
:10469000074800231A4685210088FFF7A3FFDAE7C1
:1046A000034800231A4619460088FFF7A5FFD2E702
:1046B0006831002054470020B93D0020B83D00205B
:1046C00010B50C7814B1012C12D010BD0C4B012286
:1046D0001A700C4B5B6898470B4822464FF4C02178
:1046E00005F08CFC0028F0D0BDE81040FFF702B9BF
:1046F000034B054800221A7005F0C8FCF2E700BF22
:10470000B83D002074430020B043002007B5037873
:10471000032B14D8DFE803F00216191D838A016900
:104720000D48019301AA05F0A3FE20B90B4A019997
:1047300013680B4413600A4B9B6803B1984703B09E
:104740005DF804FB074B002201E0074B01221A70C1
:10475000F5E7054BF7E700BFF43D0400A843002050
:1047600074430020AC430020B93D002030B504461E
:1047700089B041B138B10388502B4ED005D8102BE9
:1047800043D0112B45D009B030BD512BFBD142890C
:1047900042F66E239A42F6D1102200210DEB020060
:1047A0000CF099FC284B00251B688DF807500DF183
:1047B000070102A89847DDED027A9FED247A67EEA3
:1047C000877AFDEEE77A17EE903A23F07F4343F0C5
:1047D0007E430393A379012BD5D18DF810309DF83A
:1047E0000730ADF81A3003AB07939DF81630A08858
:1047F000ADF8145043F001038DF8163004A9E38995
:10480000ADF81830FFF7F6FEBDE78288104BDA816D
:10481000B9E70F4B4FF6FF72F9E70D4DC2886B8970
:104820009A42B0D1038A022BADD12B68002BAAD0BB
:10483000123004F0C7FE80F001008DF810002B68E4
:1048400004A9284698479EE7744300200000C84208
:1048500058420020094B4A881B889A420DD10A8889
:1048600040F677239A4208D18B88054805490068AD
:10487000033B9BB201220CF0DBB97047683100208A
:104880007042002074420020FFF734B808B5084990
:104890000848FFF7D7FD08B1FFF72CF80548F721C6
:1048A000FFF7E4FD18B1BDE80840FFF723B808BDE5
:1048B00055480300604700202DE9F043AF4D0368E1
:1048C0002B6043686B608368AB60C368EB60C5B006
:1048D00090F910302B7405F04FFB28B9A84AA9486D
:1048E000012105F079FB08B1FFF704F8FFF714FA8E
:1048F00008B1FEF7FFFF002319A901201993FFF764
:104900009DFA08B1FEF7F6FF19A8FFF7EBFA08B118
:10491000FEF7F0FF08A8FFF75BFE68B9EA689DF8AC
:1049200021109DF82230009102B9974A9749984882
:104930000CF032FA964BEB60EC68112320468DF8B0
:1049400050300CF0FBFC214682B214A8FFF748FE61
:1049500008B1FEF7CFFF0023ADF868308D4B1993F7
:1049600019A84FF4C873ADF86A30FFF737FE08B1E5
:10497000FEF7C0FFFFF78AFF002110220CA80CF001
:10498000AAFB854B8548059305A905F073F808B186
:10499000FEF7B0FF824B8348049304A904F076FB32
:1049A00008B1FEF7A7FF00230B9341F211137E4ECF
:1049B000ADF82C3011238DF82E307C4B0A933360E8
:1049C0004FF6FF73F3817A4B10AA03F1100C1746D0
:1049D00018685968144603C4083363452246F7D162
:1049E00074493846FFF70AFE0446002851D1337C4B
:1049F0008DF81A30704A41F61A0306A90120ADF865
:104A00001830FFF7F3FD0446002842D101468DF827
:104A10000A001C2219A89DF82D909DF82E800CF0FC
:104A20005AFB41F21113ADF808309DF80A30CDF869
:104A30005A40012262F342038DF80A309DF8643037
:104A4000B088CDF85E4043F002038DF86430337CCB
:104A50008DF81E300B2242F66E23ADF81C308DF817
:104A60000E2003AB07AACDE914230823ADF8583074
:104A7000ADF85C3002AF514BADF8624014AA19A9F1
:104A80001E978DF80C908DF80D80FFF7B1FD044650
:104A900010B12046FEF72EFF0023CDE90D33484B21
:104AA0000C9301238DF8343003F101336233454810
:104AB0000F930CA904F0C1FB08B1FEF71BFF002106
:104AC000AC2219A80CF007FB02238DF864300623F2
:104AD0008DF867300323ADF8B0303B4B2D930123A5
:104AE0008DF8E03040233B933848394B429319A965
:104AF00005F0F9FA08B1FEF7FDFE3448012105F092
:104B0000EFFA1422002119A80CF0E5FA4FF47023F3
:104B10004FF42032CDE91A2303238DF870302D4B4A
:104B20001E9319A82C4B1F9304F038FF08B1FEF711
:104B3000E1FE2648032105F053FB08B1FEF7DAFE3B
:104B4000224B95F9102093F854100120FFF744FDF3
:104B500008B1FEF7CFFE214921480BF05DFF214B44
:104B6000214918601E480BF057FF204B1860204861
:104B700005F075FC45B0BDE8F08300BF744300202C
:104B800001460300F03D04002832040038320400DE
:104B90008843002006000800134603005447002005
:104BA0000D4703006C310020584200200D460300E1
:104BB000003E0400684200205C4200205E4200206B
:104BC000C1460300E84400205C310020FC44002082
:104BD000114603000F4603008948030046320400D3
:104BE0001F32040070420020A43704006C420020F1
:104BF000F43D040073B50F4A0F4D92682B88019164
:104C000004465AB90D4E2B8801AA2146304604F0BD
:104C1000B9FA13280BD106F077FAF4E7014601AA96
:104C2000064804F0AFFA132801D10023019301983C
:104C300002B070BD74430020683100206C31002048
:104C400007B5019101AA0146094805F04EFC60B97B
:104C50000198084B28B11A68121A1A6003B05DF85F
:104C600004FB18604FF0FF30F8E70020F6E700BFC4
:104C7000F43D0400A8430020014608B54FF6FE723B
:104C8000034804F049FB003818BF0120404208BD2A
:104C9000E844002058B143684BB183683BB1C36816
:104CA0002BB14078B0FA80F04009404270474FF095
:104CB000FF307047F8B5054618461C46FFF7EAFF77
:104CC00058B951B162B1A66863782846B047002848
:104CD000A07018BF6FF00100F8BD4FF0FF30FBE788
:104CE0006FF00400F8E713B504460191FFF7D2FF17
:104CF000F8B90122234601A91046FFF7DBFFB0B93E
:104D0000234601220DF105010220FFF7D3FF70B900
:104D1000234601220DF106010320FFF7CBFF30B936
:104D2000234601220DF107010420FFF7C3FF02B063
:104D300010BD4FF0FF30FAE707B50246FFF7AAFFB4
:104D400058B9C5238DF8043001A91346402001222B
:104D5000FFF7B0FF03B05DF804FB4FF0FF30F9E759
:104D600013B504468DF80720FFF794FFE8B9012931
:104D70000FD0022905D091B12046FFF7DDFF02B028
:104D800010BD234601220DF107011020FFF792FF0D
:104D9000F2E70A4623460DF107012120F6E72346F4
:104DA00001220DF107013220F0E74FF0FF30E6E776
:104DB00070B5054618461C46FFF76CFF50B949B15F
:104DC000666863782846B0470028A07018BF6FF067
:104DD000010070BD4FF0FF30FBE713B50023044620
:104DE0008DF80730FFF756FF80B9012223460DF1F9
:104DF00007011046FFF7DCFF30B9012223460DF111
:104E000007011046FFF756FF02B010BD4FF0FF300C
:104E1000FAE710B50246FFF73DFF044620B9D36814
:104E200008469847204610BD4FF0FF34FAE737B5E3
:104E30000546FFF72FFF80B9C5238DF8043001A97F
:104E40002B4601224F20FFF735FF3221044628462A
:104E5000FFF7DFFF204603B030BD4FF0FF34F9E726
:104E600013B5002304468DF80330FFF713FFD0B9C4
:104E7000234601220DF10301FFF79AFF88B99DF83F
:104E80000330CE2B12D123702046FFF7D0FF40B95C
:104E900014212046FFF7BDFF40F207712046FFF7BF
:104EA00022FF02B010BD4FF0FF30FAE76FF00500AF
:104EB000F7E758B143684BB183683BB1C3682BB186
:104EC0000078B0FA80F04009404270474FF0FF3060
:104ED0007047F8B5054618461C46FFF7EAFF58B973
:104EE00051B162B1A66823782846B0470028A07067
:104EF00018BF6FF00100F8BD4FF0FF30FBE76FF017
:104F00000400F8E71FB504460191FFF7D2FFA8B9E6
:104F10009DF804309DF805201A439DF806301A4389
:104F20009DF807301A438DF80F20234601220DF11A
:104F30000F010320FFF7CDFF04B010BD4FF0FF308D
:104F4000FAE71FB504460191FFF7B3FFA8B99DF832
:104F500005309DF804201A439DF806301A439DF849
:104F600007301A438DF80F20012223460DF10F015F
:104F70001046FFF7AEFF04B010BD4FF0FF30FAE768
:104F80001FB56B4683E806000446FFF792FFC0B9E1
:104F90009DF801309DF800201A439DF802301A4315
:104FA0009DF803301A439DF804301A438DF80F2002
:104FB000234601220DF10F010220FFF78AFF04B002
:104FC00010BD4FF0FF30FAE71FB504460191FFF71F
:104FD00070FF90B99DF804309DF805201A439DF8A4
:104FE00006301A438DF80F20234601220DF10F01E0
:104FF0000420FFF76EFF04B010BD4FF0FF30FAE75A
:1050000007B502468DF80710FFF753FF48B913465E
:105010000DF1070101220520FFF75BFF03B05DF8EA
:1050200004FB4FF0FF30F9E71FB504460191FFF78D
:1050300040FF90B99DF805309DF804201A439DF873
:1050400006301A438DF80F20234601220DF10F017F
:105050000720FFF73EFF04B010BD4FF0FF30FAE726
:105060001FB56B4683E806000446FFF722FFC0B970
:105070009DF801309DF800201A439DF802301A4334
:105080009DF803301A439DF804301A438DF80F2021
:10509000234601220DF10F010820FFF71AFF04B08B
:1050A00010BD4FF0FF30FAE71FB50246ADF804100F
:1050B000FFF7FFFE80B99DF805109DF804300B4303
:1050C0008DF80F300DF10F01134609200122FFF773
:1050D00000FF05B05DF804FB4FF0FF30F9E7F8B5CD
:1050E000064618460D461C46FFF7E3FE78B971B137
:1050F000237867683046B847A0702B78002818BF1F
:105100006FF00100FF2B08BF6FF00600F8BD4FF0F5
:10511000FF30FBE737B5002305460C468DF8073016
:10512000FFF7C7FEB0B901222B460DF10701FFF7CB
:10513000D6FF024658B99DF8073001221C430DF1F5
:1051400007012B468DF80740FFF7C3FE02461046C5
:1051500003B030BD4FF0FF32F9E713B5002302462C
:105160000C468DF80730FFF7A4FED8B913460DF1B1
:1051700007010122FFF7B3FF90B99DF807309A09A4
:105180002270C3F300126270C3F3C002A270C3F3B3
:105190008002E270C3F3400203F0010322716371E5
:1051A00002B010BD4FF0FF30FAE713B50446FFF729
:1051B00080FEA0B92346012201A90920FFF78FFF35
:1051C00058B99DF8043063F07F038DF80430012254
:1051D000234601A90920FFF77CFE02B010BD4FF065
:1051E000FF30FAE7F0B58BB0002305468DF80330A9
:1051F00008AE08938DF824300593FFF75AFE002877
:105200005BD12B4601220DF10301FFF768FF074632
:1052100000284FD12846FFF7C8FF002850D1394653
:105220002846FFF777FF782104462846FFF7E8FE77
:105230004FF4A463ADF8043001992846FFF734FF1A
:105240004FF4325104432846FFF75CFE4FF42253DB
:10525000ADF808308DF80A7064B20299044328460C
:10526000FFF7B2FE4FF42053ADF80C308DF80E70FE
:1052700064B2039904432846FFF7D6FE64B24FF4A4
:1052800001138DF81C701946079A069304432846AB
:10529000FFF7E6FE64B296E8060004432846FFF7EF
:1052A0006FFE64B2044305992846FFF74AFE64B2D4
:1052B000044367B238460BB0F0BD4FF0FF37F9E753
:1052C0006FF00507F6E710B50246FFF7F2FD04465A
:1052D00020B9D36808469847204610BD4FF0FF34E8
:1052E000FAE710B50246FFF7E4FD044628B9136952
:1052F000517008469847204610BD4FF0FF34FAE73A
:10530000F0B585B0002304468DF80330FFF7D1FDDA
:105310000E46054600284AD1012120466778FFF74E
:10532000E0FF4FF4C463ADF8043001992046FFF765
:10533000BBFE4FF42253ADF808308DF80A500299A5
:105340002046FFF741FE1B4903912046FFF7DAFD97
:10535000012223460DF103011046FFF7C0FE05466A
:1053600060B99DF80330DA093270C3F380127270AD
:10537000C3F34012C3F30013B270F37000238DF82F
:105380000E3003992046FFF7BDFD05238DF805304B
:10539000019906462046FFF787FE06433543394606
:1053A00020466DB2FFF79DFF284605B0F0BD4FF0D7
:1053B000FF35F9E7802C0200F7B580238DF8063021
:1053C000002305460C468DF80730FFF772FD0028D4
:1053D00045D1012128466E78FFF783FF2B46012235
:1053E0000DF106010A20FFF774FD40B16FF00107CF
:1053F00031462846FFF775FF384603B0F0BD2B460F
:1054000001220DF107010A20FFF769FE0746002877
:10541000ECD19DF80730C3F34112022AC3F3820393
:105420000ED0032A0ED0012A0CBF46223C22013B9B
:10543000062B0AD8DFE803F0080B0D0D0F0F110043
:105440005022F4E75A22F2E702322270D0E7043207
:10545000FBE70632F9E70832F7E70A32F5E74FF0E3
:10546000FF37C9E7F0B585B00546FFF722FD0746CF
:1054700000285AD12E7D002E41D101212846FFF768
:1054800030FF4FF4C463ADF8003000992846FFF7B1
:105490000BFE4FF42253ADF804308DF806600199ED
:1054A00004462846FFF790FD21490291044328460F
:1054B000FFF728FD64B2044303A92846FFF720FF45
:1054C00001992846FFF780FD05238DF8013064B26D
:1054D000009904432846FFF7E7FD64B28DF80A609F
:1054E000029904432846FFF70DFD64B2044364B2F9
:1054F00031462846FFF7F5FE204605B0F0BD012EE7
:1055000013D14FF42253ADF804308DF80600019901
:105510002846FFF759FD4FF4325104462846FFF75D
:10552000F1FC044364B23946E3E74FF0FF34E3E7AC
:10553000802C020073B50546FFF7BBFC0646C0B9D8
:105540004FF432512846FFF7DDFC4FF42253ADF8FB
:1055500000308DF80260009904462846FFF734FDBC
:1055600001210443284664B2FFF7BBFE204602B087
:1055700070BD4FF0FF34F9E708B5034B01211878EF
:10558000FBF740F940B208BD7847002013B592B24E
:105590000092024604480C46007819462346FBF761
:1055A00053F902B010BD00BF7847002013B592B286
:1055B0000092024604480C46007819462346FBF741
:1055C000A9F902B010BD00BF78470020FAF7C2BEAB
:1055D000012208B511461C20FBF788FC40B208BD2B
:1055E000012808B502464FF0010128BF01221C2006
:1055F000FBF77CFC40B208BD07B50C4B0C4918709A
:105600000B6001234B6001AB00228B600948ADF8B1
:1056100004200223CB60FCF789FF10B106480BF091
:10562000F7FA9DF8050003B05DF804FB7948002007
:1056300080490020103E0400483204002DE9F0416A
:10564000124E144680460F464FF4827200213046B7
:105650001D460BF040FD30462246394600F8018BCE
:105660000BF05EFE0A49BDF818300A480E6001349E
:105670000022C1E90145CB60FCF758FF18B106488C
:105680000BF0C6FA0320BDE8F08100BF7948002086
:1056900080490020103E04006832040037B5002421
:1056A000054600942346224621460620FFF7C6FF02
:1056B000B5F5001F2ED2194B4FF4827221461846C1
:1056C0000BF009FD2022164902702A0C42702A0AAA
:1056D0008270C570086004231248CC602246C1E97C
:1056E0000134FCF723FF28B10F480BF091FA032097
:1056F00003B030BD0520FFF77FFFC307FAD42B208E
:10570000FFF77AFF10F0600F06D008480BF080FA20
:105710000820EDE70120EBE70720E9E779480020C2
:1057200080490020103E040083320400A1320400AE
:1057300038B5036A8B4205460C4602D20720FEF7B5
:10574000D9F8E8696043FFF7A9FF002038BD0000E1
:105750002DE9F341002407460E46154600942346E2
:10576000224621460620FFF769FF002F3AD0731E1C
:10577000FE2B27D8B5F5001F36D2DFF884804FF412
:105780008072214640460BF0A6FC184B4FF4827203
:10579000214618460BF09FFC0322154902702A0C83
:1057A000427004232A0A8270C1E90138C57008607A
:1057B000F3181048CB602246FCF7B8FE30B10E4813
:1057C0000BF026FA032002B0BDE8F0810520FFF7B8
:1057D00013FFC307FAD40949324638460BF0A0FD3F
:1057E0000920F0E70220EEE70120ECE779480020ED
:1057F00080490020103E0400B13204007D470020A3
:1058000079470020F8B516461F46D0E907328A428C
:1058100005460C4604D301FB03615A43914202D969
:105820000720FEF767F8EA69069902FB046238462A
:10583000FFF78EFF0020F8BD2DE9F34100248046DC
:105840000D46174600942346224621460620FFF7C0
:10585000F5FEB8F1000F2DD075B3B7F5001F2DD2AE
:10586000174E4FF48272214630460BF034FC02236F
:1058700033703B0C2A46737041463B0A301DB370AF
:10588000F7700BF04DFD0F490F480E6004352246AE
:10589000C1E90154CC60FCF749FE10B10B480BF094
:1058A000B7F90520FFF7A8FEC307FAD40C2002B011
:1058B000BDE8F0810220FAE70320F8E70120F6E7CF
:1058C0007948002080490020103E0400CC320400BA
:1058D000F8B516461F46D0E907328A4205460C46FF
:1058E00004D301FB03615A43914202D90720FEF71A
:1058F00001F8EA69069902FB04623846FFF79CFF4B
:105900000020F8BD114B13B59021197010490022E9
:10591000DA700B60042304464B600E4800920623A5
:10592000ADF80420C1F808D0CB60FCF7FFFD28B12A
:1059300009480BF06DF9032002B010BD9DF804304A
:1059400023709DF805306380F6E700BF794800209A
:1059500080490020103E0400EB32040007B500230C
:1059600000931A4619469920FFF768FE0520FFF7B5
:1059700043FEC307FAD403B05DF804FB0020704770
:105980001FB5002423462246214600940620FFF737
:1059900055FE23462246214600946620FFF74EFE20
:1059A000FFF7DCFF23462246214600940620FFF73E
:1059B00045FE03A8FFF7A6FF204604B010BD000077
:1059C00010B50378012B21D0022B17D0ABB9124CA4
:1059D0002046FEF719F9114B11491A88207892B226
:1059E00088541A8840F2FE3192B28A429DBF1A88CA
:1059F000013292B240F2FF321A8010BD4068FDF7CA
:105A000079FF0848BDE810400BF002B94068FDF787
:105A100071FF0548F6E700BF944F0020924B00202D
:105A2000944B0020083304001F33040010B50038E5
:105A30008AB018BF01200B46092411461422CDE973
:105A400004428DF82030144A8DF8210000230020F4
:105A500009F0C8FF114B124A009300F500604FF4A3
:105A600080736FF30B00CDE9022309900D4A019377
:105A70006946032304A8FEF76FF8049B4FF0A04289
:105A800003F5E0730C2142F82310044608B1FDF73A
:105A900031FF20460AB010BD0024F400904A0020D7
:105AA00090490020C1590300F0B5124B124DDFF8A8
:105AB0004CC0064600241F882A88BFB292B2974283
:105AC000A0B206D919882A8889B292B291420DD221
:105AD000F0BD8142F6D91A8892B21CF802203255E4
