:020000023000CC
:1000000000F80020F5A603001DA70300D539030062
:1000100021A7030023A7030025A703000000000079
:1000200000000000000000000000000027A70300FF
:1000300029A70300000000002BA7030015120300EE
:10004000A12203002FA703003D370300C1290300AD
:10005000D12903002FA7030079200300BD37030037
:100060002FA703002FA70300592803002FA7030081
:100070002FA703002FA703002FA703002FA703001C
:100080002FA70300B59D03002FA703002FA7030090
:10009000519E03002FA70300553E03002FA7030026
:1000A0002FA703002FA703006D280300812803005A
:1000B0002FA703002FA7030000000000000000008E
:1000C0002FA703002FA703002FA70300B1220300CF
:1000D000A51B03002FA703002FA7030000000000AB
:1000E0000000000000000000000000000000000010
:1000F0000000000000000000000000000000000000
:1001000000000000000000000000000000000000EF
:1001100000000000000000000000000000000000DF
:1001200000000000000000000000000000000000CF
:1001300000000000000000000000000000000000BF
:1001400000000000000000000000000000000000AF
:10015000000000000000000000000000000000009F
:10016000000000000000000000000000000000008F
:10017000000000000000000000000000000000007F
:10018000000000000000000000000000000000006F
:10019000000000000000000000000000000000005F
:1001A000000000000000000000000000000000004F
:1001B000000000000000000000000000000000003F
:1001C000000000000000000000000000000000002F
:1001D000000000000000000000000000000000001F
:1001E000000000000000000000000000000000000F
:1001F00000000000000000000000000000000000FF
:100200000348044B834202D0034B03B118477047A5
:10021000B8330020B8330020000000000548064B2A
:100220001B1AD90F01EBA301491002D0034B03B1F4
:1002300018477047B8330020B83300200000000092
:1002400010B5064C237843B9FFF7DAFF044B13B11E
:100250000448AFF300800123237010BDB8330020A1
:10026000000000004853040008B5054B1BB10549C8
:100270000548AFF30080BDE80840FFF7CFBF00BFDF
:1002800000000000BC33002048530400A3F5803A6E
:10029000704700BF174B002B08BF134B9D46FFF75D
:1002A000F5FF00218B460F461348144A121A11F02D
:1002B000DFF90E4B002B00D098470D4B002B00D0E0
:1002C00098470020002104000D000D48002802D0AE
:1002D0000C48AFF3008011F06DFA200029000EF0F9
:1002E00063FF0FF0D3FF00BF000008000000000014
:1002F0000000000000F80020B833002010B30020F8
:1003000000000000000000007FB505AB00930C4921
:1003100004AB03AA10F0F6FF03280ED1039B094893
:10032000049A00EA0330084B03EA82131843059B42
:10033000184380B207B05DF804FB0020FAE700BF65
:10034000FC40040000F0FF0FC0FF3F00BFF34F8FE1
:100350000549064BCA6802F4E0621343CB60BFF361
:100360004F8F00BFFDE700BF00ED00E00400FA057D
:10037000052801BF024A136801331360704700BFAC
:100380006436002008B500F083FD024804F072FDD9
:1003900000B208BDBC30002038B5044638B1044D69
:1003A00045F001054FF47A40A847013CFAD138BD29
:1003B0002041040020B1034B800143F001031847A2
:1003C000704700BF2041040008B5054B054A5A603C
:1003D000054B1A68054BC3F80828FFF7B7FF00BFA5
:1003E00000F80020434F494E0030002000F000206C
:1003F00010B5044660B1082303711123038040F255
:100400005913C3800448FFF77FFF6080002010BDB0
:100410006FF00800FBE700BF0641040007B50023AA
:100420000DF105010DF10600ADF806308DF805302F
:1004300000F0A0FE9DF80500012104F06BFC03B064
:100440005DF804FB13B50B4B0B4A186800909B88B2
:100450000A48ADF80430694601F042FB044630B961
:100460000648012101F090FB044801F081FB204681
:1004700002B010BD0E4104007103030028410400C6
:10048000022808B50A460BD8074B084903EBC00001
:1004900002F020F900280CBF00206FF0130008BD07
:1004A0006FF01400FBE700BF30410400283000204B
:1004B00002281FB5034617D80D4A52F8333002EB15
:1004C000C000D3F81025039001230901D2B221FA0C
:1004D00002F20093002102F0AAF9039802F068F9F1
:1004E000002005B05DF804FB6FF01400F9E700BFD1
:1004F00030410400022810B50BD8074C04EBC004AF
:10050000204602F06FF918B1204602F05FF9002092
:1005100010BD6FF01400FBE7304104004FF0FF30D6
:1005200070474FF0FF3070476FF0250070476FF055
:100530001700704708B54FF01023D3F8002201329E
:1005400003D1D3F80432013325D0134B0122C3F871
:100550000425D3F80024002AFBD04FF010224FF0DE
:10056000FF31C2F80012D3F80024002AFBD04FF06C
:1005700010234FF0FF32C3F80422074BD3F80024B6
:10058000002AFBD00022C3F80425D3F80024002A57
:10059000FBD0FFF7DBFE08BD00E0014008B54FF0DF
:1005A0001023D3F80C32DB071DD50F4B0122C3F803
:1005B0000425D3F80024002AFBD04FF01022D2F8F3
:1005C0000C3223F00103C2F80C32074BD3F800249D
:1005D000002AFBD00022C3F80425D3F80024002A07
:1005E000FBD0FFF7B3FE08BD00E001400278034BEB
:1005F00012B901221A7070470222FBE73030002046
:100600000278034B12B901225A7070470222FBE7AD
:10061000303000200228F8B504461FD8104E335C55
:10062000E3B1104D05EBC005284602F07DFA0E4AF5
:100630000E4952F82420002301EB041128463355BB
:1006400002F0CEF90746284602F042FA27B1BDE88B
:10065000F840074810F012BD01233355F8BD00BF24
:10066000683600206C4104006041040034300020F2
:100670004841040002282DE9F041044673D83D4E5C
:10068000335C002B72D1302962D00ED80639122982
:1006900055D80E2953D8DFE801F04F525552555224
:1006A0005552525255525252550078294DD03DD88C
:1006B00050294DD033D832294AD03C2914BF4FF0AD
:1006C00000534FF080532C4F2C4807EB041529465C
:1006D000AB6000232A7300EBC4001A464FEA0418EB
:1006E00001F012FED0BB17F808200123335502F5A4
:1006F000E0724FF0A04340F2033143F822106A78D1
:1007000002F5E07240F20F3143F82210AA7802F5A8
:10071000E0724FF4417143F82210BDE8F081642982
:1007200014BF4FF000534FF00063CCE7C82912D03C
:10073000F02910D09629F3E74FF00043C3E74FF0BC
:100740000053C0E74FF08043BDE74FF00063BAE7C6
:100750004FF08053B7E74FF08063B4E70023335581
:100760006FF00200D9E76FF00B00D6E76FF00C00D6
:10077000D3E700BFFC38002088300020844104000B
:10078000022838B504460BD8084D2B5C5BB10848ED
:1007900000EBC40001F0A2FE00232B55184638BD23
:1007A0006FF00B00FBE76FF00D00F8E7FC3800205E
:1007B000844104002DE9F047044688461AB1012A15
:1007C00037D0022A3ED0022C4DD8284E335D03F09C
:1007D000FF0963BB264800EB04154FF0A0436A688D
:1007E00002F5E07240F20C71270143F82210C25961
:1007F000204F02F5E07207EBC40A43F822101E4AAC
:100800004B4652F824202946504602F0E9F820BB16
:10081000504602F05DF9B8F1000F1BD14FF0CC73D8
:1008200057F83420AB60C2F824350123335500203B
:1008300017E00F4A02EB001103010F20486010215E
:10084000D150C0E70A4A02EB0011030116204860AC
:100850001721F5E74FF0C863E2E706F804906FF060
:100860000200BDE8F0876FF00F00FAE7683600205D
:10087000343000206C410400604104000022FFF786
:1008800099BF0000022837B5044610D80B4D2B5CE9
:1008900083B10B4800EBC400019002F029F90198E4
:1008A00002F042F900232B55184603B030BD6FF01B
:1008B0000F00FAE76FF01000F7E700BF683600207E
:1008C0006C410400F0B587B000AF0D4619463B8E71
:1008D000044603F10800EC46C008ACEBC000022C53
:1008E00003F10106854641D82348005D002840D029
:1008F000684600F8012B1A4610F0E2FF142200218E
:10090000381D10F0B5FE012C7D71BE60C7F810D007
:1009100005D11A4D284602F043F90028FAD1184EA5
:100920001848002333550122391D00EBC40002F0A2
:1009300041F9054600F050FD386000F04DFD3B6880
:10094000C01AB0F57A7F01D2335D63B1335D012BFC
:1009500002D02046FFF75EFE281E18BF012040424D
:100960001C37BD46F0BD0AF019FEE6E76FF00F0038
:10097000F6E76FF01000F3E76836002074410400DA
:10098000303000206C41040070B588B00228054664
:100990008DF807203AD8204A125C002A39D002226A
:1009A0008DF80C2001220492BDF8302005921B4ED8
:1009B0008DF80D100DF10702CDE906230023335405
:1009C0001748122203A900EBC50002F0F3F8044611
:1009D00000F002FD029000F0FFFC029BC01AB0F58F
:1009E0007A7F01D2735D4BB1735D012B09D028462C
:1009F000FFF710FE6FF0010008B070BD0AF0CEFDE9
:100A0000E9E7201E18BF01204042F5E76FF00F0014
:100A1000F2E76FF01000EFE768360020303000207A
:100A20006C410400F0B5022887B005460F46144615
:100A30001E462FD81A4B1B5C7BB31422002101A841
:100A400010F016FE02961748174E049400237355B3
:100A5000012201A900EBC5008DF8057002F0AAF88B
:100A6000044600F0B9FC009000F0B6FC009BC01AF0
:100A7000B0F57A7F02D2735D002BF5D0735D012B48
:100A800002D02846FFF7C6FD201E18BF01204042B5
:100A900007B0F0BD6FF00F00FAE76FF01000F7E756
:100AA000683600206C41040030300020F0B5022888
:100AB00087B005460F4614461E4633D81C4B1B5CB8
:100AC000002B32D01422002101A810F0D1FD012307
:100AD00002961848184E8DF80430002373550222F0
:100AE00001A900EBC50004948DF8057002F062F8CE
:100AF000044600F071FC009000F06EFC009BC01AF0
:100B0000B0F57A7F02D2735D002BF5D0735D012BB7
:100B100002D02846FFF77EFD201E18BF012040426C
:100B200007B0F0BD6FF00F00FAE76FF01000F7E7C5
:100B3000683600206C410400303000202DE9F04F71
:100B400085B000AF0228B7F838B0FA7399465CD880
:100B5000324B1B5C002B5BD0314B5B5C5A1ED2B21C
:100B6000FD2A58D84FF0A04103F5E072DFF8B880B5
:100B70002C4D032441F8224008EB0014012202FA14
:100B800003F34FEA001A002605EBC005BB602846B8
:100B9000C1F80C3507F10F036260C4E90266324602
:100BA000214648F80A3001F0DBFC08BBC4E901B07B
:100BB000E06002462146284648F80A9001F0D0FC41
:100BC000102815D10BF107026B46D2087B60A3EB0E
:100BD000C2039D465A464946684610F071FE3246A9
:100BE0002146284648F80AD001F0BAFC7B689D46A9
:100BF00000384FF0A043BA68C3F8082518BF012099
:100C000040421437BD46BDE8F08F6FF00B00F8E7A7
:100C10006FF00D00F5E74FF0FF30F2E7FC380020F1
:100C2000F030002084410400003900202DE9F74312
:100C300002281F468DF8072042D8264B1B5C002B4C
:100C400041D0254B5D5C6B1EDBB2FD2B3ED84FF0D7
:100C5000A04205F5E073032142F82310DFF88080FD
:100C60001E4E01234FEA001903FA05F5C2F80C5590
:100C700008EB00140DF1070248F8092006EBC00646
:100C80000022C4E9022263602146304601F068FC7C
:100C900058B9BDF8283048F80900C4E901070246F0
:100CA000E3602146304601F05BFC00384FF0A04382
:100CB00018BF0120C3F80855404203B0BDE8F083D7
:100CC0006FF00B00F9E76FF00D00F6E74FF0FF3023
:100CD000F3E700BFFC380020F0300020844104001E
:100CE00000390020BFF34F8F0549064BCA6802F454
:100CF000E0621343CB60BFF34F8F00BFFDE700BF3F
:100D000000ED00E00400FA0504230B7070470000BA
:100D1000024B53F8203003B118477047F03B0020D6
:100D200010B50220FFF7E6FB1A4B00241C601A4B9B
:100D30001C601A4B19781C700229CAB20CD0032A05
:100D400023D0012A25D1164804F066FA144832212E
:100D500004F080FAFFF7C6FF124810F0F5F9012100
:100D60000F4804F029FB0A210D4804F073FA2021F2
:100D70000B4804F006FA0A21094804F06BFA2146F0
:100D80000748BDE8104004F017BB074B074A5A60FC
:100D9000E0E710BD64390020743C00206239002077
:100DA0002C3100209C41040000F80020424F4F5499
:100DB00010B509484378012B01D104F0F1FB074C31
:100DC0000548214604F000FA237823B9BDE8104015
:100DD000014804F052BC10BD2C3100205C390020C9
:100DE00007B5002301A90348019304F0F4FA03B006
:100DF0005DF804FB2C3100200E4B70B50E4D1B68C6
:100E00000E4C2B6023780E4E3BB12B6832689B1A38
:100E1000B42B0ED90220FFF76DFB2B6833602378CB
:100E200008490133DBB223700220BDE87040FFF7B0
:100E30003FBB70BDEC3B00206439002062390020CC
:100E4000743C002040420F0008B50E490E4807F0E0
:100E5000CBFFB0B10D4810F077F90A490A4807F006
:100E60005FFF002802DA032002F08EFD05490648E4
:100E700007F0BAFF002804DABDE80840032002F0BA
:100E800083BD08BDD4410400783C0020B04104007B
:100E900008B5054807F0A6FF002804DABDE80840B9
:100EA000032002F071BD08BD783C002030B5144B22
:100EB0001B5C581EC0B2FD281ED861B9002A14BFA1
:100EC0000322012203F5E0734FF0A040920040F8A6
:100ED0002320002012E00129FBD14FF0A04003F5B0
:100EE000E074032540F82450994012B9C0F80C155D
:100EF000EFE7C0F80815ECE74FF0FF3030BD00BF5A
:100F0000F0300020114B185C431EDBB2FD2B17D8CC
:100F10005AB9C1B100F5E0704FF0A04353F820304A
:100F200003F001030B70002070474FF0A043D3F88B
:100F30001035C34003F0010313700029F3D0E9E733
:100F40004FF0FF3070476FF008007047F03000201E
:100F500038B50F4B1C5C631EDBB2FD2B0D4614D85D
:100F60001AB90C4B03221A7003E0012A0ED0022A90
:100F70000CD0094A0749204600F06CFF01212046A9
:100F800000F0E0FF054B43F8245038BD014BEAE781
:100F9000F0300020B9300020110D0300F03B00209C
:100FA00070B5054686B00E46002900F0A3801022D9
:100FB000002102A810F05CFB514B0093514B0193B0
:100FC000514B1B680493514B1B788DF8143000F083
:100FD000C3FB041E18BF01240020640000F0ECFCD9
:100FE00008B144F00404002000F0D2FB002000F01F
:100FF00057FC00F049FC18B900F08CFC0028F8D030
:10100000FFF720FA08B144F020044FF0E0234FF638
:10101000FF125A613E4AE02182F8231000229A61B1
:1010200007221A6100F0E4FE08B144F01004394BC5
:101030001B680021586810F08FF85CB114F0060F9F
:1010400000D0FEE714F4F87F04D06FF018042046B7
:1010500006B070BD04F038FB04F062FB2E4804F0CB
:101060002AF92E490120FFF70BFA0028EDD12C496F
:101070000120FFF71DFA2B4803F040FFFFF75AFA53
:1010800029490220FFF7FCF904460028DDD101467A
:1010900001221B20FFF70AFF244902221B20FFF731
:1010A00057FFFFF77BFA32682146204604F068FDBF
:1010B00018BB022D02D1684603F04AFC002206212B
:1010C0001046FFF7D7FA04460028BED104F002FD0F
:1010D000FFF7BAFE022D01D009F012F8144A1548A4
:1010E000012109F03DF800224FF42031124809F0A7
:1010F00049F8ACE76FF00804A9E76FF02A04A6E707
:10110000090D03001D04030034390020B83000200D
:1011100000ED00E0403200202C310020B10D030032
:1011200040420F00BC300020210D0300F90D0300E8
:10113000E10D0300D04104003C39002007B50B4A03
:101140000346105C421ED2B2FD2A0CD8084A019018
:10115000002142F8231000F05BFF019803B05DF816
:1011600004EB00F033BF03B05DF804FBF030002067
:10117000F03B00200A4608B50146044804F0E4F9B3
:10118000003818BF0120404208BD00BF2C310020AC
:1011900010B560B909490A4C0A88238892B29BB2FB
:1011A0009A4203D220880B88C01A80B210BD022850
:1011B00002D1044B1868F8E70020F7E7D449002073
:1011C000D64A0020B8420020022803BF024B1878FC
:1011D000C0B20020704700BF3839002003460846DF
:1011E00011460BB904F038BD022B01D103F050BDFC
:1011F000704708B50346084611461BB9BDE80840CC
:1012000004F0FEBC022B03D103F068FD80B208BDE0
:101210000020FCE7024A136801331360704700BFE7
:10122000EC3B002037B51346421E012A0D460ED86E
:10123000002405E00121019304F00EFD019B01341F
:101240009C4205EB0400F5DB184603B030BDC41E1C
:10125000042CF9D80A460549542000FB041104481F
:1012600003B0BDE8304007F027BF00BF7039002051
:10127000783C002070B504461346084674B90E4DFC
:101280000E492C880A88A4B292B2A41A9C42F8DBB8
:1012900099B204F0B5FC0346184670BD033C042C1B
:1012A000FAD80A460649542000FB0411BDE87040F4
:1012B000044807F0CDBE00BFD64A0020D449002024
:1012C00070390020783C00207FB50D461A49039004
:1012D00010F098FA039A30B9002D0CBF09240824A5
:1012E000204604B070BD154E3368052B02DD4FF06B
:1012F000FF34F5E712490023C85CA0B90120C854A7
:10130000DC1C104BE11E542000FB01310E4B0093FE
:1013100075B901230D4807F069FE0028E7DB336843
:1013200001333360DCE70133052BE5D10024E8E726
:1013300040F20313EEE700BFC7410400E83B002082
:10134000683900207039002020420400783C0020D9
:101350000B4B10B55421C41E01FB0431094807F0A2
:101360005FFE0028A1BF084B084A00201855A3BF04
:10137000136803F1FF3313604FF0FF3010BD00BF5F
:1013800070390020783C002068390020E83B0020BC
:101390004FF0FF3070474FF0FF3070474FF0FF3095
:1013A000704770474FF0FF3070470000B1FA81F18D
:1013B00049094A42012808B5D2B202D0022800D019
:1013C00028B90146034803F019FD00B208BD6FF0CB
:1013D0000700FBE7BC300020014B1868704700BFD6
:1013E000EC3B00204FF0E02370B59869D3F8042D52
:1013F000144D154E03F55063510158BF5B6A2968BF
:1014000054BFC3F3C02301234FF0E024726852019C
:1014100056BF726A0122C2F3C022934210D12A68D9
:101420009142F3D1A2698242F0D86269121A0B4448
:10143000C2F38B124FF47A7000FB0320002170BDC1
:101440001346E3E7EC3B002000ED00E007B5802306
:101450008DF80430B1F5487F4FF000038DF8063069
:1014600010D96423A1F54871B1FBF3F1CBB29B0015
:101470008DF805300199064803F0FAFE00B203B07A
:101480005DF804FB0029F2D18DF804100B46EEE75D
:101490002C310020704713B5002304460DF10700DE
:1014A0008DF8073002F036FA04B1A0479DF8070026
:1014B00002F054FA02B010BD4FF0704393F8E02FE1
:1014C000062A10D1D3F8E42F12070CD1D3F8E80F75
:1014D00000F0F003302B08D000F0E000A0F1400352
:1014E00058425841704700207047012070474FF024
:1014F000704393F8E02F062A0CD1D3F8E42F12079B
:1015000008D1D3F8E80F00F0F000A0F13003584202
:10151000584170470020704708B5FFF7CDFF40B134
:101520004FF080536C4AD3F82433C3F30423C2F83A
:101530004035FFF7DCFF10B1684B694A5A67FFF787
:10154000BBFF48B14FF080534FF08042D3F8443294
:10155000C3F34233C2F83C35FFF7C9FF30B1614AEB
:10156000D2F8FC3023F08073C2F8FC30FFF7A4FF00
:1015700040B14FF080430022C3F80C21C3F8102182
:10158000C3F83825FFF7B3FF20B14FF080430322A3
:10159000C3F8A025FFF7ABFF60B1534B0522C3F89A
:1015A00010260122C3F888260022C3F818263F22FD
:1015B000C3F814264FF0704393F8E02F062A50D159
:1015C000D3F8E42F11074CD1D3F8E83F03F0F00330
:1015D000502B46D14FF08052444BD2F80414C3F83C
:1015E0002015D2F80814C3F82415D2F80C14C3F847
:1015F0002815D2F81014C3F82C15D2F81414C3F817
:101600003015D2F81814C3F83415D2F81C14C3F8E6
:101610004015D2F82014C3F84415D2F82414C3F8A6
:101620004815D2F82814C3F84C15D2F82C14C3F876
:101630005015D2F83014C3F85415D2F83414C3F846
:101640006015D2F83814C3F86415D2F83C14C3F806
:101650006815D2F84014C3F86C15D2F84424C3F8C6
:101660007025FFF729FF48B14FF080534FF08042BB
:10167000D3F8583203F04F03C2F8E43EFFF71CFFE3
:1016800048B14FF08043D3F80024D20744BF6FF035
:101690000102C3F800244FF08053D3F83021062A0A
:1016A0000AD1D3F83431062B01BF114AD2F83C37A6
:1016B00043F48063C2F83C370A4AD2F8883043F4D6
:1016C0007003C2F88830BFF34F8FBFF36F8F094BA1
:1016D000094A1A6008BD00BF0030014000C0074041
:1016E0000DF0ADBA00ED00E00050004000C0004039
:1016F00000100040443100200090D00342DF7047CA
:1017000044DF704738B5074C051E04F1080318BFC5
:101710001C4623682BB11A6822605B6828469847EC
:10172000F7E738BD9040002020B9054B01225A70E0
:10173000FFF7E8BF012802D1014A9070F8E770472F
:101740008840002020B9034B01225A70FFF7DABF0E
:10175000704700BF8840002038B50B4C237883B910
:101760000A486360A3602361E36000F075FA0546F0
:1017700002F056FB08B900F07BFA012323702846DB
:1017800038BD8525FBE700BF8840002029170300EE
:1017900037B5184CA378054603F0FF029BB110B192
:1017A00043680120984700230DF107008DF80730AA
:1017B00002F0B0F8E3689DF807000133E36002F03F
:1017C000CDF803B030BD0DF107008DF8072002F011
:1017D000A1F825B1226913463BB92A602561E36867
:1017E000002BE7D100F05CFAE4E79D42F7D01B68DC
:1017F000F2E700BF8840002037B50B4C00230DF105
:1018000007008DF8073002F085F8E368013BE360DC
:10181000E56815B900F06CFAA5709DF8070002F0B4
:101820009DF803B030BD00BF88400020012813B5EB
:1018300008D003281CD018B9114B0122C3F880200E
:1018400002B010BD0F4C00230DF107008DF80730DA
:1018500002F060F823780BB9FFF77EFFE3689DF88C
:1018600007000133E3600123A37002F077F8E7E794
:1018700000F0FEF902B0BDE81040FFF7BDBF00BFA9
:1018800000E100E08840002008B502F0C9FA28B95C
:101890004FF08043D3F81804C0F3004008BD0000A7
:1018A00037B51B4C6378054603F0FF029BB110B1BE
:1018B00043680020984700230DF107008DF807309A
:1018C00002F028F863689DF807000133636002F0B6
:1018D00045F803B030BD0DF107008DF8072002F088
:1018E00019F825B1A268134653B92A60A560636848
:1018F000002BE7D102F094FA30B1FFF7FFFEE1E7E9
:101900009D42F4D01B68EFE700F0FBF9DAE700BF77
:101910008840002007B502F083FA48B101A8FFF71C
:10192000EFFE0198003818BF012003B05DF804FBFA
:101930004FF08043D3F80C0400F00110A0F1011324
:1019400058425841F1E736DF7047012810B504D1FD
:1019500000F04EFCBDE81040004710BD012813B553
:10196000044603D0032813D002B010BD00230DF1AC
:1019700007008DF8073001F0CDFF00F039FC10B101
:101980002046FFF7E0FF9DF8070001F0E7FFEBE7D7
:10199000084BC02283F800230122C3F880211A607B
:1019A00000F026FC0028DFD04FF080430422C3F86B
:1019B0000423D9E700E100E038B50A4D2B7804464E
:1019C00063B902F02DFA58B90748002C18BF204619
:1019D00000F014FC08B901232B7038BD8520FCE70A
:1019E0000820FAE79C4000202C4204001FB5037831
:1019F0008DF8003043680193037A8DF80830C3688E
:101A0000054A0393054B684653F8213052F82110DC
:101A1000984705B05DF804FBA0400020A4400020DA
:101A20001FB503788DF800304368019383688DF803
:101A30000830C368054A0393054B684653F82130C4
:101A400052F82110984705B05DF804FBA040002033
:101A5000A4400020F0B5194B90F800C091F81DE0AB
:101A600043F82C20164B16460A6943F82C20154BD8
:101A700003F80CE00C4607460FCC89B06D460FC545
:101A800094E80F0085E80F00CDF810C0BEF1000FFC
:101A900009D0002E0C4A694608BF3246381D01F0B5
:101AA00051FA09B0F0BD002E084A694608BF324617
:101AB00007F10C0001F0B8FCF3E700BFA4400020E0
:101AC000A0400020A8400020ED190300211A0300C7
:101AD0000023435082B043580193019B02B07047EA
:101AE000F0B5204B4579204F43F8252005EB450301
:101AF0006E00FB5CA3BB90F9043002798C78002B5C
:101B0000A8BF03F1604C4FEA5313BCBF02F00F0EA5
:101B1000DFF858C04FEA4414A8BF0CF5614C4FEAF7
:101B20008303E4B203F16043B4BF0CF80E408CF8B9
:101B3000004303F56143012402F01F0204FA02F29C
:101B4000C3F880211A6003680A88C3F808252E4468
:101B5000BB190A795A70BC55CA789A700020F0BD3A
:101B60000820FCE7AC400020A940002014ED00E074
:101B7000036801221A604379024A03EB43030221FE
:101B8000D1547047A940002008B500680A464FF4B8
:101B90008271FFF79DFF0223C0F844330AB1C0F8F9
:101BA000043308BD2DE9F041234E244FDFF8908027
:101BB00000254FF48034D7F80433A6F58041234242
:101BC00089B20CD0336853B1C7F848433846C7F8D8
:101BD0000843FFF77DFFD8F80030E8B29847013599
:101BE000042D4FEA440406F10406E4D1134CD4F862
:101BF0000433DA070BD5D4F8003143B120464FF453
:101C00008071FFF765FF0E4B28461B689847D4F894
:101C100004339B070DD5D4F8043153B107484FF472
:101C20008271FFF755FF064BBDE8F0411B680520A8
:101C30001847BDE8F08100BF40410240004002402B
:101C4000AC40002000F18040002382B003600368B4
:101C50000193019B02B07047044A137923B9012113
:101C6000106091801846704785207047B040002072
:101C7000094B1A68D20706D4C02283F80023012238
:101C8000C3F880211A604FF080420123C2F8183552
:101C9000024A1370704700BF00E100E0B840002026
:101CA00038B54FF48270FFF7CDFF4FF0804302222A
:101CB000C3F804230C4AD2F8FC0040F08073C2F849
:101CC000FC300A4B1C6844F0010119605D685968DA
:101CD000491BB1F50A5FFAD31C604FF08043C2F88C
:101CE000FC0001229A6038BD00ED00E0001000E029
:101CF0004FF080430122DA60D3F81824D203FBD4DA
:101D0000704708B54FF48070FFF79CFF4FF0804399
:101D10000122C3F804231A6008BD00004FF080417F
:101D200010B5D1F8003163B14FF48070FFF78AFF2E
:101D30000D4B58790122C1F8082310B95A711B685C
:101D400098474FF08042D2F8043163B14FF482706B
:101D5000FFF778FF0223C2F80833034BBDE81040B9
:101D60001B680120184710BDB040002000F18040E2
:101D700000F5C040002382B0036003680193019B1B
:101D800002B07047800000F1A040D0F8003723F483
:101D90004033C0F80037D0F8003743EA0141C0F8BB
:101DA00000177047C208012300F007008340885CD9
:101DB00003438B5470470000054B4FF0FF32072858
:101DC00043F8202084BF1B1883F84820704700BFC9
:101DD000BC400020C10810B5044C00F00700635C53
:101DE0000122824023EA0203635410BD1041002007
:101DF00038B5154D95F858401CBB2022FF2105F140
:101E000030000FF035FCE0B20134FFF7D5FF0C2CA9
:101E1000F9D10E4B0022C0216A6583F806134021D8
:101E2000C3F880114FF4BE701960FFF79FFF084B95
:101E30004FF00041C3F80413012385F858301046D1
:101E400038BD0820FCE700BFBC40002000E100E0F6
:101E5000006000402DE9F041DFF8E48008EB00036A
:101E6000054693F93030002B0F4664DA8B78C3F3C4
:101E70004003002B0BBF082400240C2108218C42B6
:101E800002D10420BDE8F08158F8240001303DD192
:101E900008EB050166B248F8242081F830601BB9D0
:101EA00008EB040383F84850BB785A070ED4D907CF
:101EB0002ED5AB0003F1A043D3F8002722F0020295
:101EC000C3F800271D492846FFF76CFFBB783A7816
:101ED00013F0020325D0A40004F1804404F5C044AB
:101EE0002D02D4F8103523F4473323F44073C4F89B
:101EF00010351204D4F8103505F4F85502F44032C8
:101F000015431D43C4F810550020BBE70134B6E764
:101F10007A7805F5E0734FF0A041920041F8232054
:101F2000D0E7083E48FA86F696F8501041EA821249
:101F300086F85020E8E70820A4E700BF1041002001
:101F4000BC40002010B51F4C231893F93020072AFD
:101F500018DD083A44FA82F292F850309B09032BBC
:101F60000BD14FF0A043D3F81015C14001F001018F
:101F70000231BDE81040FFF705BF012B0CBF022165
:101F80000321F6E7D3B2072B1AD8930003F180435D
:101F900003F5C043D3F8100540F00100C3F8100565
:101FA00002F1400040B2800080B2FFF7DFFE39B19D
:101FB00054F8223023B101239340034AC2F804337A
:101FC00010BD00BFBC400020006000400E4B034429
:101FD00093F93020072A02DD0021FFF7D3BED3B2E8
:101FE000072B0FD8930003F1804303F5C043D3F8C8
:101FF000101521F00101C3F8101501239340034A85
:10200000C2F80833704700BFBC40002000600040A9
:1020100038B5174D0446FFF7D9FF2A1992F9303029
:1020200092F83020072A9FBF124A03F5A2730021BD
:1020300042F8231005EBD40304F0070193F8542071
:1020400001238B401A4209D004F5E0734FF0A042FF
:10205000022142F823102046FFF7BCFE254495F8E4
:102060003000FFF7A9FEFF2385F8303038BD00BFF0
:10207000BC400020006000402DE9F04F87B00024F4
:10208000584D03944FF48072012102F1804303F50F
:10209000C04390B21B68012B06D1D5F804330B4224
:1020A00002D0FFF763FE0C430432B2F5907F4FEA93
:1020B0004101EAD14B4BD3F87C31012B0AD14FF4CB
:1020C000BE70FFF753FE4FF0A04344F00044D3F836
:1020D00010350393E3B2D3B1434F012600253442B8
:1020E00010D0AB0003F1804303F5C043D3F81005D3
:1020F000D3F8101557F8253023B1C1F30141C0F3CF
:10210000042098470135082D4FEA4606E7D1002CF8
:1021100061DA0023DFF8D08004934FF0FF3300260C
:10212000DFF8C890059337464FF0A04B19F9014FDF
:10213000631C45D0C4F3C20318336B440122E5B2DB
:1021400004F03F0004F0070402FA04F413F8042C2E
:10215000224235D008EB0002AD0992F9302058F840
:1021600022A0BAF1000F09D1032D29D104A90193AE
:102170000090FFF717FEDDE9000301E0032DF5D025
:1021800000F5E07113F80C3C5BF821102342C1F319
:10219000014105D0022913D1032D0CD1294604E0B9
:1021A00003290DD1032D06D1022100900136FFF73E
:1021B000E9FD0098F6B2BAF1000F01D02946D047E8
:1021C0000137042FB2D136B14FF0A043039AD3F8B0
:1021D0001035934202D107B0BDE8F08F0393049B02
:1021E0009DE700BF00600040BC4000200B41002084
:1021F000014B1868704700BF184100200D4A137842
:10220000ABB903784FF0804103F00103C1F8783592
:10221000094B1968C90706D4C02183F800130121AE
:10222000C3F88011196001231370002070478520C6
:10223000704700BF2041002000E100E04FF08043E4
:1022400010B5D3F80443610708D5D3F808212AB1A3
:102250000022C3F80821104B1B689847A2060AD534
:102260004FF08043D3F814212AB10020C3F81401A1
:102270000A4B1B68984763060DD54FF08043D3F88F
:10228000182142B10022C3F81821044BBDE81040C8
:102290001B680120184710BD184100201C41002078
:1022A00008B5FFF7CBFFBDE80840FFF737BD0000DA
:1022B000124BD3F8182182B0EAB10022C3F81821DA
:1022C000D3F818310193019B0D4BD97FFF2907D01B
:1022D000987F01228A404FF0A04148B1C1F80C25F7
:1022E00000225A771A72D3E90021064802B010473B
:1022F000C1F80825F4E702B0704700BF0030024083
:10230000244100202C4100202DE9F74F90F8049043
:102310006F4E01934FF0240A0AFB09FA06EB0A0BF1
:1023200090469BF81C2007460C46002A40F0CC80C3
:1023300005686849284601F007FA002840F0C68081
:1023400046F80A80019BCBF8043094F800C0227B49
:102350004FF0A041012303FA0CF3012A94BFC1F806
:102360000C35C1F808350CF5E0734FF0010E41F85B
:1023700023E06378FF2B1FBF0EFA03FEC1F80CE5C4
:1023800003F5E07E4FF0030A18BF41F82EA0A178B4
:1023900008BF4FF0FF33FF2917BF01F5E07E4FF074
:1023A000FF364FF0A04A4FF0040B08BF0196484E8D
:1023B0001CBF01914AF82EB04FF0240E0EFB096E9F
:1023C0008EF82010E1788EF81F10FF2919D094F8AC
:1023D00004A04FF0010B0BFA01FB4FF0A04EBAF135
:1023E000000F68D0CEF80CB501F5E0714FF0030B8B
:1023F0004EF821B036494FF0240E0EFB091181F83A
:102400001EA0C5F808C5C5F80C35019BC5F81035E8
:10241000A368C5F82435637B003B18BF0123022A5B
:102420004CD0032A4DD0012A01D143F00203C5F854
:102430005435A379C5F8C035B8F1000F02D0402358
:10244000C5F804330723C5F80035B8F1000F27D0CD
:102450003A68617942F30733002BA8BF03F1604467
:10246000C2F307324FEA5313BCBF02F00F051A4CF8
:102470004FEA4111A8BF04F561444FEA8303C9B292
:1024800003F16043B4BF615584F8001303F5614361
:1024900002F01F02012101FA02F2C3F880211A6042
:1024A0000B4A242303FB0926002373770123337788
:1024B00003B0BDE8F08FCEF808B595E743F004030C
:1024C000B5E743F00603B2E70820F1E71120EFE794
:1024D00024410020B122030014ED00E0F8B5057995
:1024E0001C4C006824236B43E618E358D3B140F337
:1024F00007335B092033184FC0F30432012101FA7E
:1025000002F247F82320154BC0F80833737F4BB114
:102510004161D0F80431002BFBD0242303FB054399
:1025200000225A77242303FB0543002693F820302A
:10253000FF2B1FBF03F5E0734FF0A042022142F8CA
:102540002310C0F8006501F021F9242303FB0544A2
:102550002677F8BD2441002000E100E05201080088
:102560002DE9F74390F804C0454E242303FB0CF3F8
:102570001446F2180D46517F864600297ED156F842
:102580000380B8F1000F04D014F0140F04BF01232E
:10259000537795E80F00242707FB0C6707F10C0918
:1025A00089E80F00FA7FFF2A07D0B87F0123934004
:1025B0004FF0A041D0B1C1F808352868DEF80030EE
:1025C00020B100F06041B1F1005F06D1A96881B18E
:1025D00001F06047B7F1005F0BD0242303FB0C63CD
:1025E00000225A77102003B0BDE8F083C1F80C3503
:1025F000E3E76F68C3F84405C3F84875E868C3F8B3
:1026000034150021C3F83805C3F81811D3F8181190
:102610000191019914F0010118BF0121C3F850156F
:1026200014F0020118BF0121C3F8401521075CBF57
:1026300001211961B8F1000F15D1D3F81811002943
:10264000FBD0FF2A0AD001239340242202FB0C6610
:102650004FF0A042B07F18B1C2F80C350020C2E79D
:10266000C2F80835BFE714F004004FF0400202D072
:10267000C3F80823F2E7C3F80423B4E71120B2E754
:10268000244100202DE9F347002406460F469046DA
:1026900000F5A0754FF48039A246A00000F5A073A4
:1026A00098B22B686BB1D6F8043309FA04F21A42D7
:1026B00007D0C5F800A02B680193019BD7E9003132
:1026C00098470134E3B2984505F10405E5D802B016
:1026D000BDE8F087F7B50679334D0C2474432F1904
:1026E0003B7A002B5ED12A514A687A6044790268AD
:1026F0001F46D8B284424CD842F30733CC78002B23
:10270000A8BF03F16047C2F307304FEA5313BCBFC1
:1027100000F00F0C254F4FEA4414A8BF07F561479E
:102720004FEA8303E4B203F16043B4BF07F80C40FF
:1027300087F8004303F56143012400F01F0004FA09
:1027400000F0C3F880011860D2F804054B7820F03F
:10275000030003F003030343C2F804358B78D2F877
:10276000080503F0030320F003000343C2F8083513
:102770000B78D2F8100503F00F0320F00F010B4384
:10278000C2F810350C2303FB065500202C7203B051
:10279000F0BD980000F5A07001331750105801905B
:1027A0000198A6E70820F2E74841002014ED00E078
:1027B000036801221A600279034B0C2101FB0233EA
:1027C00002221A72704700BF4841002003680122AC
:1027D0001A610179024B0C2000FB01331A72704719
:1027E000484100200279044B0C2101FB0233187A86
:1027F000831E5842584170474841002037B54FF476
:10280000803400688C407BB101F150039B000025AF
:10281000C550C3580193019BC0F8044301F5A8714A
:1028200040F8212003B030BDC0F80843F6E770B48B
:10283000046840F20116D4F800528E4025EA0605DD
:10284000C4F80052D4F800522B43C4F800329DF86B
:102850000C3070BCFFF7D2BF024903480422FFF7D7
:1028600011BF00BF4841002000A0004002490348BA
:102870000622FFF707BF00BF5441002000A001401F
:10288000024903480622FFF7FDBE00BF6041002059
:1028900000B001400023435082B043580193019B94
:1028A00002B07047F0B5D0F8243187B004460D4629
:1028B0009BB14FF49271FFF7EDFFD0F8043163B98B
:1028C000AB68C0F808330223AB60AB68C0F80433D0
:1028D00001230362436107B0F0BDD4F8043193B320
:1028E0004FF48271204605F10C07FFF7D3FF0FCF9D
:1028F00001AE0FC695F82E203B68336072B12B7B7A
:10290000012B0CBFD4F83C15D4F84C150291022BC6
:102910000CBFD4F83C35D4F84C3503934FF4B07168
:102920002046FFF7B7FF4FF4AE71FFF7B3FF95F8FE
:10293000303003B1CAB10023C4F80032AB601F4B82
:10294000C4F8083311E04FF4A4712046FFF7A2FF4A
:102950002B7B03BB05F10C070FCF01AE0FC63B6805
:10296000336095F83030002BE6D0D4F8C434C4F886
:10297000C4349A075ABFC3F380035B0001238DF868
:10298000003095F830300BB985F82F30D5E900319B
:10299000684698479FE74FF40073C4F8003240F24E
:1029A0000223AB6003F1CE73C4F80833AB68C4F8FC
:1029B00004330123A36023628DE700BF02029C0160
:1029C00001490248FFF76EBF6C4100200030004013
:1029D00002494FF04020FFF765BF00BFA041002033
:1029E0002DE9F84F0679374D4FF0340A0AFB06FA05
:1029F00005EB0A049B4694F82D3080460F4691461D
:102A0000002B5BD1304B006853F8261000F09CFE81
:102A1000002855D13A687B7B84F832304FF0A041D2
:102A200002F5E073A060C4F804B084F82F0084F8C5
:102A3000300040F20C6445F80A9041F823407B686E
:102A400003F5E07C41F82C40D8F80040C4F8082594
:102A5000C4F80C35BB68C4F82435B9F1000F25D093
:102A600044F30733002B3A7BB4BF184903F16041AC
:102A7000C4F307344FEA5313B8BF04F00F074FEA0B
:102A80004212A8BF01F561414FEA8303D2B203F1BC
:102A90006043B4BFCA5581F8002303F5614304F0D5
:102AA0001F040122A240C3F880211A60342303FBD3
:102AB0000655012385F82D30BDE8F88F0820FBE787
:102AC0001120F9E76C4100203042040014ED00E0D1
:102AD000036802790621C3F80015044B342101FB79
:102AE0000233022283F82D20704700BF6C41002082
:102AF00001790B4B0268342000FB013309490020A7
:102B00009860C2F80813D2F8001221F4BC51C2F840
:102B10000012C2F80005012283F82D20704700BF83
:102B20006C41002002029C0170B506791A4D3423D5
:102B300073430446EB5863B1026842F30733012143
:102B40005B09C2F3043201FA02F22033134941F85F
:102B500023202046FFF7CCFF206800F017FE342327
:102B600003FB065393F832307BB92068D0F8083560
:102B70004FF0A04203F5E073022142F82310D0F891
:102B80000C3503F5E07342F82310342303FB06559C
:102B9000002385F82D3070BD6C41002000E100E07D
:102BA0000279034B342101FB023393F82F00704765
:102BB0006C4100202DE9F843CB6890F8048004684C
:102BC00003F06043B3F1005F0D46174603D01025B4
:102BD0002846BDE8F883914E914BC4F808334FF076
:102BE000340C0CFB086C9CF82F302BB1DCF808304F
:102BF000C4F804331125EBE712F0140F0CBF0123C6
:102C000000238CF82F308946B9E80F000CF10C0E28
:102C1000AEE80F00D9F80030CEF80030C7F300134B
:102C20008CF830306B78C4F888354FF482712046C8
:102C3000FFF730FE4FF49271FFF72CFE17F00103FF
:102C400018BF0123C4F8503517F0020318BF012341
:102C5000C4F840352A78032A00F2C080DFE802F089
:102C600082A86602D5F8109009F06043B3F1005FC6
:102C7000ADD14FF48073E968C4F800326B68C4F8D2
:102C80004415C4F848354FF4A871FFF703FE4FF41C
:102C9000B071FFF7FFFD4FF4A471FFF7FBFD0123B7
:102CA0002362A360D4F85031002BFBD04FF4A871FD
:102CB0002046FFF7EFFDAB685A49C4F84495C4F8C5
:102CC0004835342303FB086399604FF4827108236D
:102CD0000025380703D4032A1CBF0122E250342305
:102CE00003FB08F3F218F358002B7CD10122214496
:102CF0000B68002B00F083803422D4F8C434C4F86D
:102D0000C43402FB0866002286F82F20002B3FF413
:102D10005FAF13F0020F48F2012508BF032513F03F
:102D2000040F48F2022318BF1D4651E76B68E9689B
:102D3000C4F84415C4F848352B6903F06041B1F17B
:102D4000005F7FF444AFA968C4F834354FF484536E
:102D5000C4F83815C4F80032342303FB086340F28A
:102D60000221B1E76B68E968C4F8441517F0200F39
:102D7000C4F848354FF034030ED04FF4807103FB94
:102D80000863C4F80012274999604FF4A471FFF753
:102D900081FD012323629AE74FF4007103FB08636E
:102DA000C4F8001240F2022199604FF48271F0E7FA
:102DB0006B68E968C4F83415C4F838354FF48053AB
:102DC000C4F80032342303FB086340F20221996007
:102DD000012323624FF48271002379E74FF482715B
:102DE0000823072575E77B0744BF4FF40073936002
:102DF000342303FB08639B68C4F80433E8E6D4F883
:102E00002431002B3FF474AF4FF492712046FFF74A
:102E100041FD22624FF48271626168E76C410020DB
:102E200002029C01000204000023435082B0435878
:102E30000193019B02B070471FB501238DF800304C
:102E4000054B8DF8080001916846D3E900129047C0
:102E500005B05DF804FB00BFD44100207FB5374AC0
:102E6000D2F82461002E47D010464FF49271FFF73C
:102E7000DBFF02238DF80030D2F88034C2F88034B2
:102E80000393D2F83C358DF808302D4BDA68019267
:102E90000022C3E906226846D3E90012904727487A
:102EA000D0F844316BB14FF4A271FFF7BDFF244B52
:102EB0009A6932B10022D0F83C05D9689A61FFF7CF
:102EC000BBFF1E48D0F82031A3B14FF49071FFF73B
:102ED000ABFF1B4B5A696AB1D0F84C158DF808103E
:102EE000002299688DF8002001915A616846D3E963
:102EF0000012904704B070BDD2F81031002BCED034
:102F00004FF488711046FFF78FFF0D4BD2F83C0548
:102F100099698842C3D1DC69D96864B1D2F800529A
:102F200025F02005C2F800521A699C61DA60DE6162
:102F3000FFF782FFB3E79C61FAE700BF0020004083
:102F4000D44100202DE9F0475B4D90F80480242304
:102F500003FB0853814693F820300C469246002B21
:102F600040F0A5805549006800F0EEFB07460028B8
:102F700040F09F802368D9F80060591C0AD04FF0B8
:102F8000A04101229A40C1F8082503F5E072032010
:102F900041F8220061684A1C1FBF01F5E0724FF042
:102FA000A0404FF0000C40F822C0A269C6F82425CA
:102FB000207D627D012842EA0002C6F86C25C6F831
:102FC0000C35C6F814151CD1A268501C1FBF02F5A1
:102FD000E0734FF0A041002041F82300E368591C42
:102FE0000BD04FF0A04001219940C0F8081503F51F
:102FF000E0714FF0030C40F821C0C6F80835C6F860
:103000001025242303FB08F3EA18C2F804A0226960
:10301000EA50BAF1000F3AD0D9F80000227F4FF4FD
:103020008871FFF701FF4FF49071FFF7FDFE4FF439
:103030009271FFF7F9FE4FF4A271FFF7F5FE204BF6
:10304000C0F8043340F30733002BA8BF03F16041FD
:10305000C0F307304FEA5313BCBF00F00F04194907
:103060004FEA4212A8BF01F561414FEA8303D2B291
:1030700003F16043B4BF0A5581F8002303F56143AF
:1030800000F01F0001228240C3F880211A6008234B
:10309000C6F80035242303FB08550023C5E9063391
:1030A0006B61012385F820303846BDE8F08708279A
:1030B000FAE71127F8E700BFD44100205D2E030096
:1030C0001003020014ED00E00279044B242101FBFF
:1030D00002335869003818BF01207047D4410020DE
:1030E0002DE9F84301F06043B3F1005F05460F4658
:1030F000914632D1FFF7E8FF044680BB2A79DFF81A
:1031000068802D68242606FB02864FF490712846BD
:10311000C6F81490B760FFF787FE4FF4AC71FFF765
:1031200083FE0123C5F84475C5F84895AB60736804
:10313000BBB9D5F82031D5F8580153B90028F8D0DB
:103140000F20242303FB02880023C8F81430BDE8B5
:10315000F883002818BF0F20F3E71020F7E71120AD
:10316000F5E72046F3E700BFD44100202DE9F843FE
:1031700001F06043B3F1005F0E4668D10779354D29
:10318000242303FB0753D3F80480B8F1000F04D0C5
:1031900003684FF40471C3F80813242303FB075397
:1031A000996961B1D96900293DD0B8F1000F04D007
:1031B00003684FF40472C3F80423112031E09A61CC
:1031C000DE6089462423046803FB07532046D96147
:1031D0004FF48871FFF728FE4FF4A271FFF724FE29
:1031E000C4F83465C4F83825B9F1000F20D10123A3
:1031F0002360B8F1000F24D1D4F81031D4F8442161
:10320000D4F8240113431AD10028F5D0242202FB5C
:1032100007550022904218BF03209342AA6118BFAD
:103220000F20BDE8F8831E6111464FF00109C9E780
:10323000D4F8003243F02003C4F80032D9E7134633
:10324000E4E74FF40473C4F804330020E9E71020E6
:10325000E7E700BFD44100200023435082B0435829
:103260000193019B02B070470A4610B54FF48E716E
:10327000FFF7F2FF136A9168C95C136A01331362A6
:10328000C0F81C1510BD8B690A4610B54FF4847147
:1032900023B9FFF7E1FFD0F8183510BDFFF7DCFFC9
:1032A000536AD168D0F81805C854536A0133536281
:1032B000F3E700001FB501238DF80030044BCDE982
:1032C0000110D3E900126846904705B05DF804FB91
:1032D000F841002008B54FF49271FFF7BDFF4FF49D
:1032E0008471FFF7B9FF0123036008BD30B54C4D71
:1032F000D5F804339A0585B051D5D5F82431002B83
:103300004DD04FF492712846FFF7A6FF4FF401739A
:10331000C5F80833434B93F829200AB901226A60A3
:103320003F4902228DF80020D1F88024C1F8802482
:1033300003929A690292DA6801920022C3E9062296
:103340006846D3E9001290473548D0F81C315BB18C
:10335000344A136A5469A3424DD292F82830002BA4
:1033600049D11146FFF780FF2D48D0F84431002B9A
:1033700054D04FF4A271FFF76FFF2A4B93F8292026
:103380000AB1012202609A69002A47D0586AD968B6
:1033900000229A6105B0BDE83040FFF78BBFD5F839
:1033A00004335B07D0D5D5F80831002BCCD01D4CA9
:1033B0001B482146FFF767FF636AA2699A42C3D19F
:1033C000E369E1684BB1A3612369E3600023606AAC
:1033D000E3616362FFF76EFFB6E794F829300BB93B
:1033E00001236B600E4B4FF40172C3F808230023D6
:1033F000606AA361EEE70A484FF48E71FFF72CFF75
:10340000002CB1D09168019100238DF800305361F8
:103410000294D2E9001368469847A5E705B030BD8D
:1034200000200040F84100202DE9F047584D90F869
:1034300004802C2303FB0853814693F82A300C4662
:103440009246002B40F09F805249006800F07CF9C2
:103450000746002840F099802368D9F80060591C7D
:103460000AD04FF0A04101229A40C1F8082503F587
:10347000E072032041F8220061684A1C1FBF01F579
:10348000E0724FF0A0404FF0000C40F822C0A2695B
:10349000C6F82425207D627D012842EA0002C6F894
:1034A0006C25C6F81415C6F80C351CD1A268501C42
:1034B0001FBF02F5E0734FF0A041002041F8230048
:1034C000E368591C0BD04FF0A04001219940C0F88F
:1034D000081503F5E0714FF0030C40F821C0C6F861
:1034E0000835C6F810252C2303FB08F3EA18C2F8A8
:1034F00004A02269EA50BAF1000F32D0D9F80000D6
:10350000227F4FF48E71FFF7A7FE4FF4A271FFF7F1
:10351000A3FE214BC0F8043340F30733002BA8BFB0
:1035200003F16041C0F307304FEA5313BCBF00F012
:103530000F041A494FEA4212A8BF01F561414FEA50
:103540008303D2B203F16043B4BF0A5581F800236C
:1035500003F5614300F01F0001228240C3F880217F
:103560001A600423C6F800352C2303FB08530022FD
:10357000C3E9062283F829205A61012283F82A2010
:103580003846BDE8F0870827FAE71127F8E700BFBB
:10359000F8410020ED3203008000020014ED00E04D
:1035A0000279044B2C2101FB02335869003818BF03
:1035B00001207047F84100202DE9F84F0746894661
:1035C0009346FFF7EDFF044600283BD197F80480AF
:1035D0001D4E2C2508FB056A4FF48E71CAF8200099
:1035E000CAF814B08AF82800CAF808903868FFF7BB
:1035F00033FE012383605146FFF736FEDAF80430CC
:10360000554663B12046BDE8F88F95F82830BBB920
:10361000D0F81C31002BF8D05146FFF725FE2A6A5E
:103620006B699A42F4D3D0F81C31002BFBD00123F4
:10363000C36000202C2303FB086600237361E2E7CC
:103640000F20F7E71120DEE7F84100202DE9F047D1
:10365000394D07792C2303FB075306465C6824B1D8
:1036600003684FF40170C3F808032C2303FB0753CE
:10367000986950B1D869002840D024B133684FF41C
:103680000172C3F80423112435E09A61D9605862AD
:10369000024601462C2303FB0753DA6193F82930D5
:1036A000306813B909B9FFF715FE002C3AD14FF471
:1036B000A2714FF02C09FFF7CFFD07FB0958C14657
:1036C0003068D0F824A1D0F80831D0F84441C3B90B
:1036D00014B9BAF1000FF3D02C2303FB07550023D4
:1036E000AB61BAF1000F23D124BB95F829103368E0
:1036F0000122A9B11A602046BDE8F08719610121B5
:10370000C8E7BAF1000FE7D1002CE5D14146FFF739
:10371000BAFDD9F82430D9F818209A42D0D8DBE77E
:103720005A60E8E74FF40173C0F804330024E2E77D
:103730000324E0E70F24DEE7F8410020014B1B687B
:10374000184700BF244200200E4B984237B50C4664
:1037500002D0002003B030BD00230DF107008DF82A
:10376000073000F0D7F8084B1D7915B901221C600D
:103770001A719DF8070000F0F1F8002DE9D0112032
:10378000E8E700BF0020004024420020034B98429D
:1037900001BF034B00221A601A71704700200040DD
:1037A0002442002000F1804000F5E040002382B078
:1037B000036003680193019B02B07047F0B5534B5F
:1037C000534CD3F8043194F82E2085B0002B3BD015
:1037D0004FF48270FFF7E6FF2AB394F82F3013BB43
:1037E0004A4AD2F80031002B32D04FF48070FFF7F4
:1037F000D9FF638B94F82D00834250D921891B1A7D
:103800009BB289B26383CB1A616801EB4301C2F8B2
:103810002C16C2F830064FF48270FFF7C3FF3B4B03
:1038200001225A6014E0636802932389ADF80C30DA
:10383000E36800218DF8041033BB2374236801A8CA
:103840009847002384F82F3094F82E30002BC7D1EE
:103850002E4BD3F810315BB14FF48870FFF7A2FF05
:103860000023237402238DF8043001A823689847AD
:10387000264BD3F81431FBB14FF48A70FFF792FF57
:103880000023237405B0F0BD208B6083636020812A
:10389000E160002AD2D11D4B01221A60CEE7BAD1D5
:1038A000E368012184F82F1023B100216183C2F85D
:1038B0002C36AEE76383AEE766694FF0004701251B
:1038C000002EDFD0B6FA86F227FA02F346329200D3
:1038D00026EA030602F1804303F5E0431B68002B50
:1038E000EED01046A2F58C72FFF75CFFD30882F091
:1038F0000402C2F380028DF808308DF8045023686A
:103900008DF8092001A89847DAE700BF0070004051
:103910002C42002070B5EFF3108672B60C4A946802
:10392000012384B993600B4B0B4DD3F880102940D1
:103930001160C3F88050D3F8841051604FF0FF320B
:10394000C3F884202346037006B962B670BD00BF79
:103950005C42002000E100E0FC06FFBD084B9A68D5
:1039600010B55AB150B9EFF3108172B6054A1C6810
:1039700014605C685460986001B962B610BD00BF05
:103980005C42002000E100E01FB50021039001AA85
:1039900044F20100CDE9011100F004F805B05DF832
:1039A00004FB000072B6094BD3F8F020D20700D513
:1039B00000BEBFF34F8FD968054A01F4E0610A43A6
:1039C000DA60BFF34F8F00BFFDE700BF00ED00E0FE
:1039D0000400FA051EF0040F1CBFEFF309800AE093
:1039E000EFF308800549064A884201D8904202D880
:1039F0008D464FF00000034B1847000000F80020F0
:103A000000D800202D3A0300BFF34F8F0549064B25
:103A1000CA6802F4E0621343CB60BFF34F8F00BF6C
:103A2000FDE700BF00ED00E00400FA0508B5034B18
:103A30009A6ADB6AFFF7E8FF08BD00BF00ED00E00F
:103A400010B5034653E8000F40EA010243E80024A2
:103A500094F0000FF6D110BD10B5034653E8002FC7
:103A600042EA010043E8000494F0000FF6D110BDD3
:103A700010B5034653E8002F02EA010043E80004B2
:103A800094F0000FF6D110BD0121FFF7D9BF00213E
:103A9000FFF7EEBF49B152B1531E1A4007D1826001
:103AA00001608380C260104670470E207047092075
:103AB000704710B58468C2688388121B934208D38C
:103AC000C26813400268D154C3680133C360002048
:103AD00010BD0420FCE78268C3689A420AD082685D
:103AE000838813400268D35C0B7083680133836062
:103AF00000207047052070470648074A03780749A9
:103B0000D35C012213B10430FFF730BB0C30FFF758
:103B10009DBD00BF48310020A840002090420020F9
:103B20000648074A03780749D35C012213B10430E1
:103B3000FFF7D6BA0C30FFF73FBD00BF4831002079
:103B4000A84000209142002037B50578012D0DD006
:103B5000022D2ED005BB1E491E48FFF7BCFF0028D2
:103B600032D103B0BDE83040FFF7DABF43681A4CEA
:103B700019782046FFF79DFF80B18DF80050019025
:103B8000164B68461B689847A168E368A2885B1AD1
:103B90009A420AD3FFF7B0FF03B030BDA268E368D2
:103BA0009A42F1D08DF80000EAE70D4B01221A701D
:103BB000F2E7C3688DF800500193FFF79DFF074BB4
:103BC00068461B689847E7E703238DF80030F6E75F
:103BD00091420020804200206C4200206842002078
:103BE0007C420020F0B51F46234B89B004461A6082
:103BF0000D4600293DD08A8820480968FFF74AFF12
:103C0000002834D1AA89A9681D48FFF743FF00287E
:103C10002DD11C4E0FCE6D460FC596E80F0085E8DE
:103C20000F0063690693237C174A18488DF81C70AF
:103C3000003B18BF01238DF81430637C002B14BFA8
:103C40000E2300238DF81530E3680293A3680393D5
:103C500023680193694663680093FDF7FBFE30B962
:103C60000B4B18702368013301D0FFF745FF09B0F3
:103C7000F0BD0720FBE700BF684200206C42002037
:103C80008042002038420400493B030048310020B4
:103C90007C42002070B5084D014608482E78FFF799
:103CA0001AFF044636B100232B70FFF725FF08B139
:103CB000FFF76AFE204670BD7C4200206C42002067
:103CC00010B501460E48FFF7F4FE0446A8B90D48AA
:103CD0000D4A0378D35C63B10430FFF7F5F960B99E
:103CE0000A490748FFF7F7FE38B9BDE81040FFF76B
:103CF00017BF0C30FFF754FCF1E7204610BD00BFA2
:103D00008042002048310020A8400020914200203D
:103D100010DF704713B504460949684600F08CFC73
:103D2000019808B902B010BDD0E9002120469047A3
:103D300018B1684600F088FCF2E71120F2E700BFF6
:103D40005C42040013B504460749684600F074FC61
:103D5000019B0BB902B010BD2046D3E9002190476A
:103D6000684600F071FCF3E7744204000B4991F8D7
:103D70001623EC2352091341DB0706D5084B9A683A
:103D80003AB94FF480030B60704742F20200FFF72C
:103D9000FBBD1A6842F480021A60704700E100E03F
:103DA0005C420020F7B5194F3C7864BB184E0125E2
:103DB00020463570FFF7AEFF112821D02046FFF7CF
:103DC000C1FF144B8DF80340186801900DF10300FA
:103DD000FFF7A0FD104901A8FFF79AFF0446B0FACB
:103DE00080F0400938709DF80300FFF7B7FD3CB93B
:103DF0000A4B34701C70FFF7B9FF2846FFF7A2FF8B
:103E0000204603B0F0BD0824FAE700BF934200202B
:103E10009242002058420400A53903009442002039
:103E2000014B1878704700BF9342002007B508493E
:103E3000684600F001FC019B13B903B05DF804FB78
:103E4000D3E900209047684600F0FEFBF3E700BF8F
:103E500068420400FFF7EABF60DF704769DF704720
:103E600061DF704730B5134DADF5017D4FF4FA7445
:103E70000DF1020103A8ADF80240FFF7F1FF70B9A0
:103E8000294601A800F0D8FB029B002BF0D003A824
:103E9000D3E90021904701A800F0D6FBF4E70528FC
:103EA00005D00DF5017DBDE83040FFF76DBD0DF586
:103EB000017D30BD80420400024B1B780BB1FFF73F
:103EC000D1BF704795420020F0B5064685B00D463B
:103ED000002948D00024254A0A60CDE90144062380
:103EE00001278DF8040001A92020ADF808300394C3
:103EF0008DF80670FFF7B2FF2A68039401A94020ED
:103F0000CDE901448DF80570FFF7A8FFF7232A6873
:103F1000039401A92320CDE90144ADF806308DF8C2
:103F20000460FFF79BFF02232A68039401A9384627
:103F3000CDE901448DF80430FFF790FF4FF4B063F2
:103F40002A68019301A9A120CDE90244FFF786FF69
:103F50002A68039401A9A020CDE90144FFF77EFF60
:103F6000204605B0F0BD0E20FBE700BF003000206A
:103F700008B5FFF771FF10B9014B01221A7008BD97
:103F8000954200204BDF70471FB50E4C01A8FFF78C
:103F9000F9FF70B9214602A800F04EFB039B002BED
:103FA000F4D00198D3E90021904702A800F04CFB1F
:103FB000F4E7052804D004B0BDE81040FFF7E4BCE6
:103FC00004B010BD8C4204006DDF704779DF70478C
:103FD0007DDF704764DF70472DE9F04F85B0002525
:103FE0000E9CBDF83CB0B4F800A001910746904685
:103FF0001E46A9463A884A450DDC45B12388013B57
:10400000A3EB0A039BB2FF2B39D806F80A30002035
:1040100005B0BDE8F08F7A6852F8290003900022BD
:104020000DF10B0103A8FFF7D5FF0028F0D19DF893
:104030000B20424520D1228885F0010002EB0801C7
:1040400001EB400159451ADC3DB9013292B2019BA6
:104050002280B35422880132228022880DF10B0184
:10406000324403A8FFF7B6FF0028D1D121889DF87C
:104070000B200A442280012509F10109BAE70C202E
:10408000C6E72DE9F341089FBDF824801546CDE928
:104090000078022204461E46FFF79EFF50B93346C1
:1040A000102229462046CDE9087802B0BDE8F0414B
:1040B000FFF792BF02B0BDE8F0812DE9F04F002379
:1040C0001788138090F82D3085B006460D461446AB
:1040D0005BB3082F01D80C2028E102A8FFF774FF7A
:1040E000002840F023812388DDF809100822EA54D3
:1040F000238801339BB21B222380EA542388013397
:104100009BB2EA182380E950BDF80D3093802388D4
:104110009DF8082006339BB212F0FE0218BF012260
:104120002380EA54238801332380B378FBB12388AA
:104130000433BB42CFD802A8FFF748FF002840F065
:10414000F58023880322EA54238801339BB2192285
:104150002380EA542388BDF8082001339BB2E91874
:104160002380EA54120A4A70238802332380F278AB
:104170009AB12388D91CB942ADD80221E9542388C9
:1041800001339BB201212380E95423880B449BB265
:104190002380EA5423880B4423807368ABB193F9DE
:1041A00000202388D91CB94295D80221E9542388DC
:1041B00001339BB20A212380E954238801339BB247
:1041C0002380EA542388013323803389002B40F075
:1041D000A180338A5BB1CDE900472B46072203213A
:1041E00006F11000FFF74DFF002840F09F80338B51
:1041F0005BB1CDE900472B461522142106F11800CA
:10420000FFF73FFF002840F09180326A002A40F01B
:104210009080D6F82480B8F1000F30D0B8F8043080
:104220002188981C8A1C0244BA423FF654AFFE28EB
:104230003FF651AF03336B54238801339BB2FF2207
:104240002380EA54238801339BB22380B8F80020EE
:10425000EA54E918120A4A702088023080B220809D
:10426000B8F804205AB1D8F8081000296BD02844B7
:104270000DF026FB2388B8F804201344238096F819
:104280002C30002B40F09880307800284ED03388B6
:10429000012B58D0228802F1020CBC453FF61BAF1F
:1042A000012805D17378023313449F42FFF413AF02
:1042B000023FBF1ABFB202A905EB0C00ADF80870AF
:1042C000FFF786FE90BB3178BDF80830022900F078
:1042D000B98072789A4202D39F4280F0B18001295E
:1042E00040F0B280974293B2C0F0AE80ADF8083093
:1042F0000821BDF80830FE2B3FF6EDAE22880133D1
:10430000AB542288013292B22280A95422881344ED
:1043100023800BE0CDE900472B460622022106F15F
:104320000800FFF7AEFE00283FF453AF05B0BDE82C
:10433000F08FB4F800C00CF10603BB423FF6CBAEE1
:104340001188052901D80720F0E76FF4486E01EBCA
:104350000E039BB24FF27D3E7345F4D95388052B73
:10436000F1D96FF44860181880B27045EBD94FF658
:10437000FF70814201D09942E5D8052305F80C3041
:10438000238801339BB212212380E954238801330F
:104390009BB223801188E954E818090A41702388E8
:1043A00002339BB223805288EA54E918120A4A70F9
:1043B0002388023323802CE7B36A002BC3D04FF04D
:1043C00000084FF00C0A4FF0160BB16A5FFA88F242
:1043D0000AFB02F201EB0209B9F80430981CFE282E
:1043E0003FF679AE208803332B54238801339BB2E8
:1043F000238005F803B0238801339BB223808A5AB7
:10440000EA54E918120A4A702088023080B22080EB
:10441000B9F804205AB1D9F80810002993D02844DB
:104420000DF04EFA2388B9F804201344238096F83F
:104430002C2008F101085FFA88F39A42C5D823E7D7
:10444000092156E79F42FBD2ADF8087050E770B5DE
:10445000C0B14AB116880024B44203D305196D785F
:104460009D4208D0A14201D800200BE0055D013536
:104470002C44A4B2F0E7A142F6D9A31C1380005D3E
:10448000013880B270BD13B513460022ADF8062086
:104490000DF106020446FFF7DAFF10B1BDF8063051
:1044A000E01802B010BD90DF7047A5DF7047B5DFA0
:1044B00070471FB50023ADF80810ADF80A106A4622
:1044C00002A903930093ADF80430FFF7ECFF05B0A9
:1044D0005DF804FB80B14FF0F7130360FB23037119
:1044E000F723C3801723038141F6FB3200230161C8
:1044F00043818281184670470E20704730B1A1F188
:104500001703E02B04D80180002070470E2070476D
:104510000720704713B5034680880C4698B91A885F
:10452000242A76D011D8112A52D0232A7ED0102ADC
:104530002BD0A37A3BB1E1880020FFF7B6FF10B97A
:104540004FF48073638102B010BD3A2A49D0552AD6
:10455000EFD1DB88C988A072172B38BF17238B4295
:1045600028BF0B462381FFF7A2FFE37A002BE0D19F
:104570002369002BDDD040F6772200922289ADF826
:104580000420694620469847D3E7DB7B0A790A7303
:10459000012B13D0022B14D0E18823898B4205D242
:1045A0000020FFF782FF70B90123E372217B637B58
:1045B0008B42BED20020FFF77CFFBAE70B88E38076
:1045C000EAE74B88FBE7112804BF0123A372EDE75C
:1045D000F723CB8017230B8141F6FB3348818B8176
:1045E000A7E75B89CA88934228BF1346172B0A693D
:1045F00038BF17230B814AB1C97A39B140F6772108
:104600000091ADF80430694620469047002363814D
:104610008FE71A7A0B694A73002B8AD04DF67A21FC
:104620008DF8050000918DF80420AAE7197A237B04
:10463000994228BF1946BEE7D1E90032934208BF2C
:104640000023016043607047436843B1026891688A
:1046500052680B449342436004BF00234360704799
:104660006DDF704776DF704777DF70477ADF70471E
:104670007CDF70477FDF70478FDF7047A8DF7047B0
:10468000AADF7047B0DF7047B1DF704762DF704765
:10469000014B5B68184700BFA44700207047704774
:1046A0007047FFF771B900000388212B07B52BD0A5
:1046B00008D8112B1ED0132B32D0102B0DD003B0E5
:1046C0005DF804FB522B33D0562B01D03B2BF6D197
:1046D00013218088FFF7C6FF05E0194B8188194830
:1046E000198005F0A1FA0028E9D003B05DF804EBC9
:1046F000FFF74AB9124B4FF6FF721A80124A002395
:104700001370124A1370DAE700238088ADF8043082
:1047100001A9FFF7B1FF0028D1D0FFF735F9CEE7A7
:10472000074800231A4685210088FFF7A3FFDAE730
:10473000034800231A4619460088FFF7A5FFD2E771
:1047400068310020804600203839002030390020B0
:1047500010B50C7814B1012C12D010BD0C4B0122F5
:104760001A700C4B5B6898470B4822464FF4C021E7
:1047700005F008FD0028F0D0BDE81040FFF704B9AF
:10478000034B054800221A7005F044FDF2E700BF14
:1047900030390020A44700204846002007B50378A0
:1047A000032B14D8DFE803F002161D21838A016968
:1047B0000F48019301AA05F020FF20B90D4A019985
:1047C00013680B4413600C4B9B6803B1984703B00C
:1047D0005DF804FB084BDB6803B19847074B0022E8
:1047E00001E0074B01221A70F1E7054BF7E700BF24
:1047F000CC420400B8420020A4470020D04300204F
:104800003839002030B5044689B041B138B1038849
:10481000502B4ED005D8102B43D0112B45D009B0CA
:1048200030BD512BFBD1428942F66E239A42F6D11C
:10483000102200210DEB02000CF01AFF284B00257E
:104840001B688DF807500DF1070102A89847DDEDB0
:10485000027A9FED247A67EE877AFDEEE77A17EE0B
:10486000903A23F07F4343F07E430393A379012BD7
:10487000D5D18DF810309DF80730ADF81A3003AB64
:1048800007939DF81630A088ADF8145043F001034B
:104890008DF8163004A9E389ADF81830FFF7F2FE61
:1048A000BDE78288104BDA81B9E70F4B4FF6FF72F4
:1048B000F9E70D4DC2886B899A42B0D1038A022B69
:1048C000ADD12B68002BAAD0123004F041FF80F04C
:1048D00001008DF810002B6804A9284698479EE730
:1048E000A44700200000C842BC420020094B4A886F
:1048F0001B889A420DD10A8840F677239A4208D144
:104900008B88054805490068033B9BB201220CF0E7
:104910002BBC704768310020D8430020D0420020D3
:10492000FFF732B808B508490848FFF7D3FD08B1CA
:10493000FFF72AF80548F721FFF7E0FD18B1BDE8B9
:104940000840FFF721B808BDED4803006846002085
:10495000F0B5B04D03682B6043686B608368AB6053
:10496000C368EB6003692B61C7B090F914302B75F5
:1049700005F0C6FB28B9A84AA848012105F0F0FBBC
:1049800008B1FFF701F8FFF70DFA08B1FEF7FCFFD9
:1049900000231BA901201B93FFF796FA08B1FEF72D
:1049A000F3FF1BA8FFF7E4FA08B1FEF7EDFF0AA832
:1049B000FFF756FE68B92A699DF829109DF82A303C
:1049C000009102B9964A974997480CF07BFC964BA8
:1049D0002B6129690391112308468DF858300CF09A
:1049E0007DFF039982B216A8FFF742FE08B1FEF7D9
:1049F000CBFF0023ADF870308C4B1B931BA84FF4FA
:104A0000C873ADF87230FFF731FE08B1FEF7BCFF96
:104A1000FFF788FF002110220EA80CF029FE844821
:104A20000023C0E90033836007A9824B079305F098
:104A3000E9F808B1FEF7A8FF7F4B8048069306A966
:104A400004F0E4FB08B1FEF79FFF00230D9341F251
:104A500011137B4EADF8343011238DF83630794B7D
:104A60000C9333604FF6FF73F381774B12AA03F177
:104A7000100C174618685968144603C40833634578
:104A80002246F7D171493846FFF700FE0446002858
:104A90004ED1337C8DF822306D4A41F61A0308A9B5
:104AA0000120ADF82030FFF7E9FD044600283FD192
:104AB00001468DF812001C221BA80CF0D9FD41F212
:104AC0001113ADF810309DF81230B0881A940122FD
:104AD00062F342038DF812309DF86C309DF835205A
:104AE0008DF8142043F002039DF836208DF86C30C9
:104AF000337C8DF826308DF8152042F66E230B227C
:104B0000ADF824308DF8162005AB09AACDE916239F
:104B10000823CDE9184404AFADF86030ADF8643037
:104B200016AA4C4B20971BA9FFF7AAFD044610B10B
:104B30002046FEF729FF0023CDE90F33464B0E93A5
:104B400001238DF83C3003F1013362334348119364
:104B50000EA904F030FC08B1FEF716FF0021AC22CC
:104B60001BA80CF085FD02238DF86C3006238DF810
:104B70006F300323ADF8B830394B2F9301238DF8F4
:104B8000E83040233D933748374B44931BA905F049
:104B90006EFB08B1FEF7F8FE3248012105F064FB18
:104BA000142200211BA80CF063FD4FF470234FF476
:104BB0002032CDE91C2303238DF878302B4B209332
:104BC0001BA82B4B219304F0B1FF08B1FEF7DCFECC
:104BD0002448032105F0C8FB08B1FEF7D5FE214BA0
:104BE00095F9142093F854100120FFF73DFD08B10A
:104BF000FEF7CAFE1F4920480CF0ACF91F4B2049B4
:104C000018601D480CF0A6F91E4B18601E4805F0F0
:104C1000EBFC3BE0A447002091460300C84204009F
:104C200098420400A84204009642002006000800B2
:104C300080460020A34603009D4703006C310020FE
:104C4000BC4200209D460300B8420400CC42002034
:104C5000C0420020C24200205147030034460020D9
:104C60005C310020DC430020A14603009F46030086
:104C700021490300B6420400C7410400D843002084
:104C80007E480400D4430020CC42040047B0F0BD6D
:104C900073B50F4A0F4D92682B88019104465AB99B
:104CA0000D4E2B8801AA2146304604F029FB13281B
:104CB0000BD106F073FCF4E7014601AA064804F0A4
:104CC0001FFB132801D100230193019802B070BD8E
:104CD000A4470020683100206C31002007B5019105
:104CE00001AA0146094805F0C5FC60B90198084BC6
:104CF00028B11A68121A1A6003B05DF804FB186034
:104D00004FF0FF30F8E70020F6E700BFCC42040088
:104D1000B8420020014608B54FF6FE72034804F081
:104D2000BEFB003818BF0120404208BD34460020B9
:104D300058B143684BB183683BB1C3682BB140782D
:104D4000B0FA80F04009404270474FF0FF307047A2
:104D5000F8B5054618461C46FFF7EAFF58B951B1A9
:104D600062B1A66863782846B0470028A07018BFD3
:104D70006FF00100F8BD4FF0FF30FBE76FF004006B
:104D8000F8E713B504460191FFF7D2FFF8B9012205
:104D9000234601A91046FFF7DBFFB0B923460122E5
:104DA0000DF105010220FFF7D3FF70B92346012260
:104DB0000DF106010320FFF7CBFF30B92346012296
:104DC0000DF107010420FFF7C3FF02B010BD4FF043
:104DD000FF30FAE71FB50190FFF7AAFF58B9C522C7
:104DE0008DF80C20019B012203A94020FFF7B0FFA2
:104DF00005B05DF804FB4FF0FF30F9E713B504464A
:104E00008DF80720FFF794FFE0B9012914D002299B
:104E100006D061B9234601220DF10701322004E0DA
:104E2000234601220DF107011020FFF791FF2046D4
:104E3000FFF7D0FF02B010BD0A4623460DF107016F
:104E40002120F2E74FF0FF30F4E770B50546184631
:104E50001C46FFF76DFF50B949B166686378284674
:104E6000B0470028A07018BF6FF0010070BD4FF070
:104E7000FF30FBE71FB5002201908DF80F20FFF7F0
:104E800057FF88B90122019B0DF10F011046FFF772
:104E9000DCFF019B28B901220DF10F011046FFF73D
:104EA00057FF05B05DF804FB4FF0FF30F9E710B590
:104EB0000246FFF73DFF044620B9D36808469847ED
:104EC000204610BD4FF0FF34FAE737B50546FFF72F
:104ED0002FFF80B9C5238DF8043001A92B4601228C
:104EE0004F20FFF735FF322104462846FFF7DFFF4A
:104EF000204603B030BD4FF0FF34F9E713B500236F
:104F000004468DF80330FFF713FFD0B92346012282
:104F10000DF10301FFF799FF88B99DF80330CE2BFF
:104F200012D123702046FFF7D0FF40B9142120464C
:104F3000FFF7BDFF40F207712046FFF722FF02B0E6
:104F400010BD4FF0FF30FAE76FF00500F7E758B1FA
:104F500043684BB183683BB1C3682BB10078B0FAAA
:104F600080F04009404270474FF0FF307047F8B57D
:104F7000054618461C46FFF7EAFF58B951B162B121
:104F8000A66823782846B0470028A07018BF6FF0A5
:104F90000100F8BD4FF0FF30FBE76FF00400F8E7C9
:104FA0001FB5CDE90001FFF7D2FFB0B99DF804109D
:104FB0009DF80520009B0A439DF806100A439DF8C2
:104FC00007100A438DF80F200DF10F010122032075
:104FD000FFF7CDFF05B05DF804FB4FF0FF30F9E7B8
:104FE0001FB5CDE90001FFF7B2FFB0B99DF805107C
:104FF0009DF80420009B0A439DF806100A439DF883
:1050000007100A438DF80F2001220DF10F01104601
:10501000FFF7ADFF05B05DF804FB4FF0FF30F9E797
:1050200010B586B002AC84E806000190FFF78FFF50
:10503000C0B99DF809109DF80820019B0A439DF80E
:105040000A100A439DF80B100A439DF80C100A43FE
:105050008DF817200DF1170101220220FFF787FFBD
:1050600006B010BD4FF0FF30FAE71FB5CDE90001E3
:10507000FFF76DFF98B99DF804109DF80520009B7F
:105080000A439DF806100A438DF80F200DF10F0119
:1050900001220420FFF76BFF05B05DF804FB4FF021
:1050A000FF30F9E707B500908DF80710FFF74FFFC5
:1050B00048B9009B01220DF107010520FFF757FFBA
:1050C00003B05DF804FB4FF0FF30F9E710B586B090
:1050D00002AC84E806000190FFF739FFC0B99DF8E3
:1050E00009109DF80820019B0A439DF80A100A4305
:1050F0009DF80B100A439DF80C100A438DF81720F9
:105100000DF1170101220820FFF731FF06B010BD95
:105110004FF0FF30FAE71FB50090ADF80410FFF72D
:1051200016FF80B99DF805109DF80420009B0A43E6
:105130008DF80F200DF10F0101220920FFF717FF55
:1051400005B05DF804FB4FF0FF30F9E7F8B506460F
:1051500018460D461C46FFF7FAFE78B971B1237860
:1051600067683046B847A0702B78002818BF6FF0EA
:105170000100FF2B08BF6FF00600F8BD4FF0FF30B5
:10518000FBE71FB5002201900C468DF80F20FFF7BA
:10519000DEFEB0B9019B01220DF10F01FFF7D6FF32
:1051A000019B024650B99DF80F200DF10F011443E9
:1051B00001228DF80F40FFF7DAFE0246104604B0D8
:1051C00010BD4FF0FF32F9E71FB5002201900C46E9
:1051D0008DF80F20FFF7BBFED8B9019B01220DF11E
:1051E0000F01FFF7B3FF90B99DF80F309A092270B5
:1051F000C3F300126270C3F3C002A270C3F3800253
:10520000E270C3F3400203F001032271637104B042
:1052100010BD4FF0FF30FAE71FB50190FFF797FE82
:10522000A8B9019B012203A90920FFF78FFF019B69
:1052300050B99DF80C2062F07F028DF80C2003A974
:1052400001220920FFF793FE05B05DF804FB4FF043
:10525000FF30F9E710B50246FFF779FE044620B9A2
:10526000D36808469847204610BD4FF0FF34FAE750
:1052700030B585B005460191FFF769FEC0B99DF8CC
:1052800005309DF804201A439DF806301A438DF826
:105290000F200DF10F012B4601220720FFF767FEBB
:1052A000012104462846FFF7D5FF204605B030BD52
:1052B0004FF0FF34F9E72DE9F0418AB000230546AD
:1052C0008DF803308DF80A300493ADF80C308DF86A
:1052D0000E3006AF06938DF81C3008AE08938DF89B
:1052E00024300593FFF733FE00285FD12B460122BF
:1052F0000DF10301FFF72AFF8046002852D128460E
:10530000FFF78AFF002854D132212846FFF7A2FF79
:10531000414604462846FFF734FF782104432846D7
:10532000FFF7C0FE4FF40873ADF80430019928462A
:10533000FFF7F1FE4FF43253ADF8103064B2049928
:1053400004432846FFF72CFE4FF42253ADF80830F3
:1053500064B2029904432846FFF787FE28238DF89C
:105360000D3064B2039904432846FFF781FF4023C0
:105370008DF8193064B297E8060004432846FFF719
:10538000A5FE64B296E8060004432846FFF748FEEF
:1053900064B2044305992846FFF722FE64B2204315
:1053A0004FFA80F840460AB0BDE8F0814FF0FF3870
:1053B000F8E76FF00508F5E710B50246FFF7C7FDFF
:1053C000044628B91369517008469847204610BD15
:1053D0004FF0FF34FAE7F0B585B0002304460E46DF
:1053E0008DF8033003938DF80A30FFF7B0FD0028E5
:1053F0004BD1012120466778FFF7DEFF4FF4087399
:10540000ADF8043001992046FFF785FE4FF4225392
:10541000ADF8083002992046FFF727FE4FF43253CB
:10542000ADF80C3002238DF80E3003992046FFF7BB
:10543000B7FD012223460DF103011046FFF786FE5A
:10544000054660B99DF80330DA093270C3F3801263
:105450007270C3F34012C3F30013B270F37001997A
:105460002046FFF758FE00238DF80E3003990646BC
:105470002046FFF795FD30430543394620466DB27F
:10548000FFF79AFF284605B0F0BD4FF0FF35F9E76A
:10549000F7B580238DF80630002306460C468DF8BC
:1054A0000730FFF754FD00284BD1012130467578B5
:1054B000FFF782FF0DF10601334601220A20FFF7B4
:1054C00056FD022107463046FFF7C4FE47B16FF094
:1054D000010729463046FFF76FFF384603B0F0BD9D
:1054E000334601220DF107010A20FFF72FFE074680
:1054F0000028ECD19DF80730C3F34112022AC3F310
:1055000082030FD0032A0FD0012A14BF3C22462267
:10551000013B2270062BDCD8DFE803F0080B0D0DF1
:105520000F0F11005022F3E75A22F1E702322270E6
:10553000CFE70432FBE70632F9E70832F7E70A3231
:10554000F5E74FF0FF37C8E773B5002306460C4672
:1055500015468DF80730FFF7FAFCC8B90DF10701C1
:105560003046FFF795FF28B99DF807303C2B03D153
:105570002870208002B070BD3C3B03EBD3735B10FE
:10558000054AD25C2A70054A32F813302380F1E7CD
:105590004FF0FF30EEE700BF90310020A631002031
:1055A000F0B585B00023CDE9023305468DF806300D
:1055B000FFF7CDFC074600285CD12E7D002E42D19E
:1055C00001212846FFF7F8FE4FF40873ADF80030CC
:1055D00000992846FFF79FFD4FF42253ADF80430A1
:1055E000019904462846FFF740FD4FF43253ADF8C9
:1055F000083002238DF80A30029904432846FFF749
:10560000CFFC64B2044303A92846FFF7E4FE0199E6
:105610002846FFF72AFD64B2009904432846FFF7A5
:105620007AFD64B28DF80A60029904432846FFF7B8
:10563000B7FC64B2044364B231462846FFF7BCFEAF
:10564000204605B0F0BD012E14D14FF42253ADF821
:10565000043001992846FFF708FD4FF43253ADF8A6
:105660000830029904462846FFF79AFC044364B2C6
:105670003946E2E74FF0FF34E2E737B5002305464D
:1056800001938DF80230FFF762FCC8B94FF4325332
:10569000ADF8043001992846FFF782FC4FF42253FD
:1056A000ADF80030009904462846FFF7DEFC0121E2
:1056B0000443284664B2FFF77FFE204603B030BDA6
:1056C0004FF0FF34F9E7000008B5034B01211878CB
:1056D000FBF7D4F840B208BDBC47002013B592B226
:1056E0000092024604480C46007819462346FBF710
:1056F000E9F802B010BD00BFBC47002013B592B25C
:105700000092024604480C46007819462346FBF7EF
:105710003BF902B010BD00BFBC470020FAF73CBE09
:10572000012208B511461C20FBF7C0FB40B208BDA2
:10573000012808B502464FF0010128BF01221C20B4
:10574000FBF7B4FB40B208BD07B50C4B0C49187011
:105750000B6001234B6001AB00228B600948ADF860
:1057600004200223CB60FCF7FBFE10B106480BF0CF
:10577000EBFC9DF8050003B05DF804FBBD4700207D
:10578000C448002098430400D84204002DE9F041A9
:10579000124E144680460F464FF482720021304666
:1057A0001D460BF065FF30462246394600F8018B56
:1057B0000CF086F80A49BDF818300A480E6001342A
:1057C0000022C1E90145CB60FCF7CAFE18B10648CA
:1057D0000BF0BAFC0320BDE8F08100BFBD470020FC
:1057E000C448002098430400F842040037B5002460
:1057F000054600942346224621460620FFF7C6FFB1
:10580000B5F5001F2ED2194B4FF48272214618466F
:105810000BF02EFF2022164902702A0C42702A0A31
:105820008270C570086004231248CC602246C1E92A
:105830000134FCF795FE28B10F480BF085FC0320DE
:1058400003B030BD0520FFF77FFFC307FAD42B203C
:10585000FFF77AFF10F0600F06D008480BF074FCD9
:105860000820EDE70120EBE70720E9E7BD4700202E
:10587000C44800209843040013430400314304004B
:1058800038B5036A8B4205460C4602D20720FEF764
:105890007BF8E8696043FFF7A9FF002038BD0000EE
:1058A0002DE9F743002580460F46164600952B4606
:1058B0002A4629460620FFF769FFB8F1000F3AD0C3
:1058C0007B1EFE2B27D8B6F5001F36D2DFF884905A
:1058D0004FF48072294648460BF0CAFE184B4FF42D
:1058E0008272294618460BF0C3FE1649C670320C68
:1058F00042700423320A03248270C1E90139047022
:105900000860FB181048CB602A46FCF729FE20B13E
:105910000E480BF019FC03200AE00520FFF714FFE6
:10592000C307FAD40A493A4640460BF0C9FF09209A
:1059300003B0BDE8F0830220FAE70120F8E700BFDA
:10594000BD470020C44800209843040041430400A0
:10595000D8480020D4480020F8B516461F46D0E9A4
:1059600007328A4205460C4604D301FB03615A43C1
:10597000914202D90720FEF707F8EA69069902FB6F
:1059800004623846FFF78CFF0020F8BD2DE9F34193
:10599000002480460D4617460094234622462146A1
:1059A0000620FFF7F3FEB8F1000F2DD075B3B7F561
:1059B000001F2DD2174E4FF48272214630460BF055
:1059C00057FE022333703B0C2A46737041463B0A54
:1059D000301DB370F7700BF073FF0F490F480E6066
:1059E00004352246C1E90154CC60FCF7B9FD10B181
:1059F0000B480BF0A9FB0520FFF7A6FEC307FAD45E
:105A00000C2002B0BDE8F0810220FAE70320F8E79D
:105A10000120F6E7BD470020C44800209843040059
:105A20005C430400F8B516461F46D0E907328A42A7
:105A300005460C4604D301FB03615A43914202D947
:105A40000720FDF7A1FFEA69069902FB04623846C8
:105A5000FFF79CFF0020F8BD114B13B59021197082
:105A600010490022DA700B60042304464B600E4894
:105A700000920623ADF80420C1F808D0CB60FCF7F3
:105A80006FFD28B109480BF05FFB032002B010BD89
:105A90009DF8043023709DF805306380F6E700BF61
:105AA000BD470020C4480020984304007B43040005
:105AB00007B5002300931A4619469920FFF766FEA2
:105AC0000520FFF741FEC307FAD403B05DF804FBDD
:105AD000002070471FB5002423462246214600942B
