:020000023000CC
:1000000000F80020F9A7030021A80300E13D030048
:1000100025A8030027A8030029A80300000000006A
:100020000000000000000000000000002BA80300FA
:100030002DA80300000000002FA80300891403006E
:100040005D25030033A80300453B0300052D030095
:10005000152D030033A8030045230300C53B03000F
:1000600033A8030033A80300E92A030033A80300E0
:1000700033A8030033A8030033A8030033A8030008
:1000800033A80300A19E030033A8030033A8030094
:100090003D9F030033A803006942030033A8030017
:1000A00033A8030033A80300FD2A0300112B03002B
:1000B00033A8030033A80300000000000000000084
:1000C00033A8030033A8030033A803006D25030001
:1000D000711E030033A8030033A8030000000000D2
:1000E0000000000000000000000000000000000010
:1000F0000000000000000000000000000000000000
:1001000000000000000000000000000000000000EF
:1001100000000000000000000000000000000000DF
:1001200000000000000000000000000000000000CF
:1001300000000000000000000000000000000000BF
:1001400000000000000000000000000000000000AF
:10015000000000000000000000000000000000009F
:10016000000000000000000000000000000000008F
:10017000000000000000000000000000000000007F
:10018000000000000000000000000000000000006F
:10019000000000000000000000000000000000005F
:1001A000000000000000000000000000000000004F
:1001B000000000000000000000000000000000003F
:1001C000000000000000000000000000000000002F
:1001D000000000000000000000000000000000001F
:1001E000000000000000000000000000000000000F
:1001F00000000000000000000000000000000000FF
:100200000348044B834202D0034B03B118477047A5
:100210004033002040330020000000000548064B1A
:100220001B1AD90F01EBA301491002D0034B03B1F4
:100230001847704740330020403300200000000082
:1002400010B5064C237843B9FFF7DAFF044B13B11E
:100250000448AFF300800123237010BD4033002019
:1002600000000000A43D040008B5054B1BB1054982
:100270000548AFF30080BDE80840FFF7CFBF00BFDF
:100280000000000044330020A43D0400A3F5803AA0
:10029000704700BF174B002B08BF134B9D46FFF75D
:1002A000F5FF00218B460F461348144A121A10F02E
:1002B00086FB0E4B002B00D098470D4B002B00D037
:1002C00098470020002104000D000D48002802D0AE
:1002D0000C48AFF3008010F015FC200029000EF050
:1002E000A7F90FF0DDF900BF0000080000000000D2
:1002F0000000000000F800204033002068A7002024
:100300000000000000000000BFF34F8F0549064BBE
:10031000CA6802F4E0621343CB60BFF34F8F00BFA3
:10032000FDE700BF00ED00E00400FA0504280BD053
:10033000052812D1094A1378FF2B1DBF137801330A
:10034000DBB2002313707047044B1A78044BD3F8C8
:10035000043543EA0263034A136070475C330020AC
:10036000004002406033002008B500F015FE02484E
:1003700004F05EFF08BD00BF9430002038B504468D
:1003800038B1044D45F001054FF47A40A847013CCF
:10039000FAD138BDA02B040008B50449044B4FF432
:1003A0004032C3E90112FFF7AFFF00BF434F494E90
:1003B00000F8002050B1062303711123038040F29E
:1003C0005913C38010234380002070476FF008004A
:1003D000704708B500F0B6FDBDE80840012104F003
:1003E00077BE000013B50D4B0D4A186800909B882E
:1003F0000C48ADF80430694601F0D4FC044650B90D
:100400000848012101F018FD0648012101F022FDF4
:10041000044801F005FD204602B010BDC82B0400C1
:100420002D030300C02B0400022808B50A460BD890
:10043000074B084903EBC00002F09EFA002814BFE6
:100440006FF01300002008BD6FF01400FBE700BF41
:10045000A82B040000300020022837B520D8124A0B
:1004600052F83030D3F81035DBB202EBC005C3F1DF
:100470002004080F0901A3F12002D94000FA04F476
:100480000123214320FA02F20A4300930021284667
:1004900002F015FB284602F0D3FA002003B030BD6D
:1004A0006FF01400FAE700BFA82B0400022810B573
:1004B0000BD8074C04EBC004204602F0DBFA10B165
:1004C000204602F0CBFA002010BD6FF01400FBE7CD
:1004D000A82B04004FF0FF3070474FF0FF307047FB
:1004E0006FF0250070476FF01700704708B54FF0A8
:1004F0001023D3F80022013203D1D3F804320133A0
:1005000025D0134B0122C3F80425D3F80024002A78
:10051000FBD04FF010224FF0FF31C2F80012D3F899
:100520000024002AFBD04FF010234FF0FF32C3F815
:100530000422074BD3F80024002AFBD00022C3F882
:100540000425D3F80024002AFBD0FFF7DDFE08BD08
:1005500000E0014008B54FF01023D3F80C32DB0760
:100560001DD50F4B0122C3F80425D3F80024002A1F
:10057000FBD04FF01022D2F80C3223F00103C2F866
:100580000C32074BD3F80024002AFBD00022C3F81A
:100590000425D3F80024002AFBD0FFF7B5FE08BDE0
:1005A00000E001400278034B12B901221A70704733
:1005B0000222FBE76C3000200278034B12B90122C3
:1005C0005A7070470222FBE76C3000200128F8B512
:1005D00004461FD8104E335CE3B1104D05EBC00547
:1005E000284602F037FC0E4A0E4952F82420002318
:1005F00001EB04112846335502F094FB07462846C8
:1006000002F0FCFB27B1BDE8F84007480FF00CBF33
:1006100001233355F8BD00BFF2370020FC2B040046
:10062000F42B04004C300020CE2B040001282DE9CF
:10063000F041044674D83D4E335C002B73D1302911
:1006400063D03ED80639CBB2122B55D80E2953D8D9
:10065000DFE801F05552085208520852525208522F
:10066000525208004FF08043314F324807EB0415D7
:100670002946AB6000232A7300EBC4001A464FEAF8
:10068000041801F09FFF002845D117F80820012326
:10069000335502F5E0724FF0A04340F2033143F8C6
:1006A00022106A7802F5E07240F20F3143F822100E
:1006B000AA7802F5E0724FF4417143F82210BDE8C8
:1006C000F08178291ED011D850291ED009D832299E
:1006D0001BD03C2908BF4FF0805318BF4FF0005388
:1006E000C2E7642908BF4FF00063F6E7C8290FD0BE
:1006F000F0290DD09629F5E74FF00053B4E74FF0FD
:100700000043B1E74FF00063AEE74FF08053ABE733
:100710004FF08063A8E7002333556FF00200CEE767
:100720006FF00B00CBE76FF00C00C8E7F03700204C
:100730002C300020E42B0400012838B504460AD8E8
:10074000084D2B5C53B1084800EBC40002F00CF8D4
:100750000020285538BD6FF00B00FBE76FF00D004F
:10076000F8E700BFF0370020E42B04002DE9F04744
:10077000044688461AB1012A0BD0022A12D0012C55
:100780004ED8294E335D03F0FF099BB10020BDE830
:10079000F087264A02EB001103010F204860102168
:1007A000D150ECE7214A02EB00110301162048600A
:1007B0001721F5E71D4800EB04154FF0A0436A68C8
:1007C00002F5E07240F20C71270143F82210C25981
:1007D000174F02F5E07207EBC40A43F82210154ADE
:1007E0004B4652F824202946504602F09BFA90B915
:1007F000504602F003FBB8F1000F09D14FF0CC7363
:1008000057F83420AB60C2F8243501233355BDE7D7
:100810004FF0C863F4E706F804906FF00200B6E703
:100820006FF00F00B3E700BFF23700204C3000201C
:10083000FC2B0400F42B04000022FFF797BF0000FC
:10084000012870B504460ED80A4E335C73B10A4DC8
:1008500005EBC005284602F0E1FA284602F0FAFA54
:100860000020305570BD6FF00F00FBE76FF01000F7
:10087000F8E700BFF2370020FC2B04002DE9F0411F
:1008800086B000AF16463A8E0D46194602F10803AF
:100890000446DB086846A0EBC303012C02F1010803
:1008A0009D4640D8234B1B5D002B3FD0684600F887
:1008B000016B10F0ADF90023012CC7E902833B71F5
:1008C0007D71C7F810D07B6105D11B4D284602F021
:1008D00003FB0028FAD11948194E00230122391DC3
:1008E00000EBC400335502F001FB054600F0AAFE00
:1008F000386000F0A7FE3B68C01AB0F57A7F01D2DD
:10090000335D6BB1335D012B02D02046FFF75EFEF5
:10091000281E18BF012040421837BD46BDE8F081AF
:100920000AF04AFCE5E76FF00F00F5E76FF0100002
:10093000F2E700BFF2370020042C0400FC2B040077
:100940006C30002070B588B0012805468DF807206E
:100950003AD8204A125C002A39D002228DF80C20A5
:1009600001220492BDF8302005921B4E8DF80D1027
:100970000DF10702CDE90623002333541748122254
:1009800003A900EBC50002F0B1FA044600F05AFEDC
:10099000029000F057FE029BC01AB0F57A7F01D298
:1009A000735D4BB1735D012B09D02846FFF70EFE36
:1009B0006FF0010008B070BD0AF0FEFBE9E7201EF1
:1009C00018BF01204042F5E76FF00F00F2E76FF02B
:1009D0001000EFE7F23700206C300020FC2B040001
:1009E00070B5012886B005462ED81A48405D70B310
:1009F000194E8DF805100020CDE90230CDE9042014
:100A000070558DF804001548012201A900EBC500BE
:100A100002F06CFA044600F015FE009000F012FEA1
:100A2000009BC01AB0F57A7F02D2735D002BF5D01F
:100A3000735D012B02D02846FFF7C8FD201E18BFAA
:100A40000120404206B070BD6FF00F00FAE76FF072
:100A50001000F7E7F23700206C300020FC2B040078
:100A600070B5012886B005462FD81B48405D78B385
:100A700001208DF8040019480293194E8DF80510D5
:100A80000023CDE9033201A9022200EBC500735512
:100A9000059302F02BFA044600F0D4FD009000F01C
:100AA000D1FD009BC01AB0F57A7F02D2735D002B96
:100AB000F5D0735D012B02D02846FFF787FD201E7D
:100AC00018BF0120404206B070BD6FF00F00FAE77A
:100AD0006FF01000F7E700BFF2370020FC2B040096
:100AE0006C3000202DE9F04F85B000AF0128B7F839
:100AF00038B0BB60FA7363D8344B1B5C002B62D0F8
:100B0000334B5D5C6B1EDBB2FD2B26D84FF0A04350
:100B100005F5E072032143F82210DFF8BC900122B2
:100B20004FEA001A02FA05F507F10F01C3F80C5558
:100B300049F80A10274909EB001401EBC00862606C
:100B4000214600224046C4E9022201F05BFE06462F
:100B500048B14FF0A043C3F808554FF0FF301437A9
:100B6000BD46BDE8F08FC4E901B0BB68E060024655
:100B70002146404649F80A3001F044FE102816D1BB
:100B80000BF107036A46DB08A2EBC303C7F804D0E6
:100B90009D46B9685A46684610F03AF832462146F2
:100BA000404649F80AD001F02DFED7F804D00038AD
:100BB0004FF0A04318BF0120C3F808554042CEE7CC
:100BC0006FF00B00CBE76FF00D00C8E7F0370020A7
:100BD000BF300020E42B0400D03700202DE9F3477C
:100BE00001281F468DF8072045D8264B1B5C002B9B
:100BF00044D0254B5D5C6B1EDBB2FD2B24D805F584
:100C0000E073DFF88C804FF0A046032246F82320E3
:100C100008EB0014012303FA05F5C6F80C556360D0
:100C20001A4B4FEA00190DF1070203EBC00A48F80E
:100C30000920214600225046C4E9022201F0E2FDCB
:100C4000024630B1C6F808554FF0FF3002B0BDE89B
:100C5000F087C4E9010748F80900BDF82830E360CF
:100C60002146504601F0CEFD003818BF0120C6F8DD
:100C700008554042EAE76FF00B00E7E76FF00D0020
:100C8000E4E700BFF0370020BF300020E42B040071
:100C9000D0370020BFF34F8F0549064BCA6802F4D6
:100CA000E0621343CB60BFF34F8F00BFFDE700BF8F
:100CB00000ED00E00400FA0504230B70704700000B
:100CC000024B53F8203003B118477047944200207C
:100CD000F0B5124B124DDFF84CC0064600241F88B9
:100CE0002A88BFB292B29742A0B206D919882A8840
:100CF00089B292B291420DD2F0BD8142F6D91A88E2
:100D000092B21CF8022032551A88013292B21A802F
:100D10000134E4E700221A802A80EDE72443002012
:100D2000264300202843002010B50220FFF7BEFB19
:100D30001A4B00241C601A4B1C601A4B19781C704B
:100D40000229CAB20CD0032A23D0012A25D1164881
:100D500004F00BFC1448322104F024FCFFF79AFF46
:100D600012480FF0C9FB01210F4804F024FD0A21AD
:100D70000D4804F017FC20210B4804F021FC0A2147
:100D8000094804F00FFC21460748BDE8104004F074
:100D900012BD074B074A5A60E0E710BD8C420020A5
:100DA0008842002090420020A43000200C2C040037
:100DB00000F80020424F4F547FB5294800238DF89A
:100DC0000F304378012B01D104F063FD244804A9BE
:100DD00004F09AFC9DF8103013B9214804F070FD1E
:100DE0001F480DF10F0104F0F5FC78BB9DF80F00D2
:100DF0000DF088FF18A3D3E900230DF0EDFF194B88
:100E000000220EF013F9184B00220DF0E5FF0EF052
:100E10007DFA80B207EE900ADFED146A144AF8EE0C
:100E2000677A87EEA67AF0EE087A37EE677ADFED1A
:100E3000116AC7EE267A9FED107A67EE877AFCEE8C
:100E4000E77ACDED017A9DF80430137007B05DF8B4
:100E500004FB00BFAFF30080CDCCCCCCCCCC104099
:100E6000A43000200000594000408F4000007A4428
:100E7000844200209899993F0000C84207B500239A
:100E800001A90348019304F06DFC03B05DF804FB75
:100E9000A430002010B50378012B1ED0022B17D0F0
:100EA000ABB90F4C204603F0FFF80E4B0E491A88E1
:100EB000207892B288541A8840F60A0192B28A4287
:100EC0009DBF1A88013292B240F60B021A8010BD03
:100ED0000648BDE810400FF00FBB0548F9E700BF1A
:100EE000224300202643002028430020202C040019
:100EF000372C040070B50E4B0E4D1B680E4C2B604A
:100F000023780E4E3BB12B6832689B1AB42B0ED956
:100F10000220FFF7CBFA2B683360237808490133AE
:100F2000DBB22370BDE870400220FFF795BA70BDB8
:100F30001C4300208C420020904200208842002068
:100F400040420F00014B1878704700BF84420020D8
:100F500008B50E490E4807F08BFFB0B10D480FF0F1
:100F6000CBFA0A490A4807F01FFF002802DA0320DB
:100F700002F010FF0549064807F07AFF002804DA5E
:100F8000BDE80840032002F005BF08BD702C040036
:100F9000644000204E2C040008B5054807F066FFA9
:100FA000002804DABDE80840032002F0F3BE08BDC3
:100FB0006440002030B5144B1B5C581EC0B2FD28A5
:100FC0001ED861B9002A0CBF0122032203F5E07389
:100FD0004FF0A041920041F82320002030BD0129AC
:100FE000FBD14FF0A04003F5E074032540F82450F6
:100FF000994012B9C0F80C15EFE7C0F80815ECE7F6
:101000004FF0FF30EAE700BFBF300020114B185C03
:10101000431EDBB2FD2B17D85AB9C1B100F5E07001
:101020004FF0A04353F8203003F001030B70002071
:1010300070474FF0A043D3F81035C34003F00103CD
:1010400013700029F3D0E9E74FF0FF3070476FF0DD
:1010500008007047BF30002038B50F4B1C5C631E82
:10106000DBB2FD2B0D4616D81AB90C4B03221A70B1
:1010700005E0012A01D1094BF9E7022AFBD0084A11
:101080000649204601F042F80121204601F0BAF855
:10109000044B43F8245038BDBF300020BC30002042
:1010A000C10C03009442002070B505468EB0C1B15A
:1010B0000B684DF6C022934200F0B18074D8B3F5AE
:1010C000615F00F0A1805BD8B3F5965F00F0998076
:1010D00050D8B3F5966F00F08B80B3F5166F00F023
:1010E0008C80974B0093974B0193974B1B6802930F
:1010F000964B1B788DF80C3000F07EFC041E18BF58
:1011000001240020640000F0B7FD08B144F004049D
:10111000002000F095FC002000F024FD00F016FDFA
:1011200018B900F059FD0028F8D0FFF75BF908B1B5
:1011300044F020044FF0E0234FF6FF125A61844A36
:10114000E02182F82310002607229E611A6100F038
:10115000A3FF804B01461B68002875D058683146B4
:101160000FF0D2F914F0060F75D16FF01804204675
:101170000EB070BDB3F5165FB3D1774B774A3AE046
:1011800047F61222934246D008D8B3F5964F3FD087
:10119000B3F5E14FA5D1704B714A2CE0B3F5164F72
:1011A0009FD16D4B6F4A26E06F4A934241D012D8CF
:1011B000B3F5E13F3AD008D8B3F5614F33D0B3F57A
:1011C000963F8ED1644B694A15E0B3F5613F88D1F3
:1011D000614B674A0FE0B3F5612F2ED0654A934209
:1011E0002ED0B3F5E12F7FF47CAF5B4B624A02E077
:1011F000594B4FF49E221A6073E7574B4FF41D2250
:10120000F9E7554B5D4AF6E7534B4FF46C12F2E7A2
:10121000514B5B4AEFE7504B4FF40002EBE74E4B6C
:101220004FF46502E7E74C4B564AE4E74A4B564A0F
:10123000E1E7494B4FF08062DDE7474B534ADAE77D
:10124000454B4FF08052D6E758680FF05DF934B146
:1012500014F0060F00D0FEE714F4F87F85D104F0F7
:1012600047FB04F071FB4A4804F0D2F949490120D8
:10127000FFF7DAF800287FF478AF3E490120FFF746
:10128000EBF8454804F017F8FFF730F9434902201E
:10129000FFF7CAF8044600287FF467AF0146012231
:1012A0001B20FFF787FE3E4902221B20FFF7D4FEDA
:1012B000FFF750F9284BADF830401A680D9209211C
:1012C0001423CDE908134FF0FF33CDE90A33354A33
:1012D000354B04934FF48073CDE906230593334ACD
:1012E000032304A908A802F087FE4FF0A0430C22B4
:1012F000C3F8242710B102F04DFD36E7022D02D1CC
:10130000684603F01BFD002206211046FFF78EF908
:10131000044600287FF429AF04F0EEFCFFF718FE26
:10132000022D01D008F066FF214A2248012108F071
:1013300091FF00224FF420311F4808F09DFF16E76F
:10134000B90C0300D303030018430020E030002051
:1013500000ED00E07C310020B83000200050270074
:1013600000F0750000509D0090D0030000903A01FD
:1013700000B0AF0340420F0000705F0700B01300E1
:1013800000A04E0000F0EB0000E0D70100D0BE0E40
:10139000A4300020B90D030094300020290D030073
:1013A000F50E0300603C0020603D0020950E030018
:1013B0007D0E0300C82C04006442002010B5094AC9
:1013C000145C621ED2B2FD2A0BD8074A002142F8F3
:1013D0002010204600F07CFF2046BDE8104000F0C1
:1013E00055BF10BDBF3000209442002010B560B939
:1013F00009490A4C0A88238892B29BB29A4203D2C6
:1014000020880B88C01A80B210BD022802D1044B7C
:101410001868F8E70020F7E724430020264300205F
:10142000F8520020022803BF024B1878C0B20020F7
:10143000704700BF2143002070B50D461646044694
:1014400068B102280DD128461146BDE8704003F06E
:101450000FBE285D02F03EFE0028FAD10134A642FC
:10146000F7D870BD08B50346084611461BB9BDE85C
:101470000840FFF72DBC022B03D103F00DFE80B214
:1014800008BD0020FCE70000024A13680133136026
:10149000704700BF1C430020431E012B70B50D4652
:1014A00014460AD80E4603E016F8010B02F012FEAD
:1014B000731BA342F8DB204670BD03380428FAD81A
:1014C00013460A460449542404FB0011BDE8704049
:1014D000024807F035BE00BF6C3E0020644000208B
:1014E00070B504461346084674B90E4D0E492C8853
:1014F0000A88A4B292B2A41A9C42F8DB99B2FFF710
:10150000E7FB0346184670BD033C042CFAD80A4694
:101510000649542000FB0411BDE87040044807F060
:10152000DBBD00BF26430020244300206C3E00208A
:1015300064400020F7B50E461A4905460FF00AFB35
:1015400030B9002E0CBF09240824204603B0F0BD9A
:10155000154F3B68052B02DD4FF0FF34F5E7134ACA
:101560000023D15CA9B90121D154DC1C104BE21E2F
:10157000542101FB02310F4B00937EB901230E4829
:101580002A4607F077FD0028E6DB3B6801333B6025
:10159000DBE70133052BE4D10024E7E740F2031336
:1015A000EDE700BF652C0400603E0020643E002093
:1015B0006C3E0020BC2C0400644000200B4B10B596
:1015C0005421C41E01FB0431094807F06DFD0028B9
:1015D000A1BF084B084A00201855A3BF136803F1A8
:1015E000FF3313604FF0FF3010BD00BF6C3E002092
:1015F00064400020643E0020603E00204FF0FF3039
:1016000070474FF0FF3070474FF0FF307047704722
:101610004FF0FF3070470000B1FA81F25209524298
:10162000012808B5D2B202D0022800D020B9014664
:10163000034803F0C1FD08BD6FF00700FBE700BFE2
:1016400094300020014B1868704700BF1C430020F5
:101650004FF0E02370B59869D3F8042D144D154E62
:1016600003F55063510158BF5B6A296854BFC3F347
:10167000C02301234FF0E0247268520156BF726A02
:101680000122C2F3C022934210D12A689142F3D1C1
:10169000A2698242F0D86269121A0B44C2F38B121B
:1016A0004FF47A7000FB0320002170BD1346E3E77E
:1016B0001C43002000ED00E007B580238DF80430C6
:1016C000B1F5487F4FF000038DF806300FD9A1F532
:1016D00048716423B1FBF3F1C9B289008DF805109C
:1016E0000199054803F0CBFE03B05DF804FB09B98E
:1016F0008DF804100021F0E7A4300020704713B5E6
:10170000002304460DF107008DF8073002F008FBB6
:1017100004B1A0479DF8070002F026FB02B010BDFF
:101720004FF08053D3F83001421C04BF4FF0704398
:1017300093F8E00F831F5842584170474FF07043B1
:1017400093F8E02F062A09D1D3F8E83FC3F3031337
:10175000033B042B02D8024AD05C7047002070473C
:10176000DB2C040008B5FFF7DBFF40B14FF08053DE
:101770007E4AD3F82433C3F30423C2F84035FFF77D
:10178000DDFF10B17A4B7B4A5A67FFF7C9FF48B1BA
:101790004FF080534FF08042D3F84432C3F34233CA
:1017A000C2F83C35FFF7CAFF30B1734AD2F8FC30BB
:1017B00023F08073C2F8FC30FFF7B2FF40B14FF066
:1017C00080430022C3F80C21C3F81021C3F8382548
:1017D000FFF7B4FF20B14FF080430322C3F8A025E8
:1017E000FFF7ACFF60B1654B0522C3F8102601225C
:1017F000C3F888260022C3F818263F22C3F814260F
:101800004FF08053D3F83021511C09BF4FF0704383
:10181000D3F8343193F8E02FD3F8E83F08BFC3F38F
:101820000313062A4DD1033B042B03D8544AD35C3F
:10183000002B46D04FF08052524BD2F80414C3F81C
:101840002015D2F80814C3F82415D2F80C14C3F8E4
:101850002815D2F81014C3F82C15D2F81414C3F8B4
:101860003015D2F81814C3F83415D2F81C14C3F884
:101870004015D2F82014C3F84415D2F82414C3F844
:101880004815D2F82814C3F84C15D2F82C14C3F814
:101890005015D2F83014C3F85415D2F83414C3F8E4
:1018A0006015D2F83814C3F86415D2F83C14C3F8A4
:1018B0006815D2F84014C3F86C15D2F84424C3F864
:1018C0007025FFF72DFF48B14FF080534FF0804255
:1018D000D3F8583203F04F03C2F8E43EFFF720FF7D
:1018E00048B14FF08043D3F80024D20744BF6FF0D3
:1018F0000102C3F800244FF08053D3F83021062AA8
:101900000ED1D3F83431033B042B02D81E4AD35CEA
:1019100033B11E4AD2F83C3743F48063C2F83C37F7
:10192000154AD2F8883043F47003C2F88830BFF308
:101930004F8FBFF36F8F4FF08053D3F83021062ABB
:101940000FD1D3F83431033B042B02D8104AD35CB7
:101950003BB14FF01023D3F808224FF08043C3F877
:1019600058250C4B0C4A1A6008BD00BF00300140DE
:1019700000C007400DF0ADBA00ED00E0005000409F
:10198000D62C040000C00040D12C04000010004000
:10199000CC2C0400083100200090D00342DF7047B7
:1019A00044DF704738B5074C051E04F1080318BF23
:1019B0001C4623682BB11A6822605B68284698474A
:1019C000F7E738BDA84F002020B9054B01225A7017
:1019D000FFF7E8BF012802D1014A9070F8E770478D
:1019E000A04F002020B9034B01225A70FFF7DABF45
:1019F000704700BFA04F002038B50E4C2378B3B914
:101A00000D486360A3602361E36000F08BFA054634
:101A100002F010FC08B900F091FA01232370074B83
:101A2000D3F800340BB10123A370284638BD8525B7
:101A3000F5E700BFA04F0020C919030000000140D6
:101A400037B5184CA378054603F0FF029BB110B1DF
:101A500043680120984700230DF107008DF80730F7
:101A600002F05EF9E3680133E3609DF8070002F0DD
:101A70007BF903B030BD0DF107008DF8072002F0AF
:101A80004FF925B1226913463BB92A602561E36805
:101A9000002BE7D100F068FAE4E79D42F7D01B681D
:101AA000F2E700BFA04F002037B50D4C00230DF129
:101AB00007008DF8073002F033F9E368013BE3607B
:101AC000E36833B9074BD3F8005415B900F074FA42
:101AD000A5709DF8070002F047F903B030BD00BFC4
:101AE000A04F002000000140012813B50CD00328AE
:101AF00020D038B9134B0122C3F88020BFF34F8F99
:101B0000BFF36F8F02B010BD0F4C00230DF1070023
:101B10008DF8073002F004F923780BB9FFF76CFF5A
:101B2000E3689DF807000133E3600123A37002F02E
:101B30001BF9E7E700F002FA02B0BDE81040FFF73A
:101B4000B3BF00BF00E100E0A04F002008B502F0E5
:101B500071FB28B94FF08043D3F81804C0F300405C
:101B600008BD000037B51B4C6378054603F0FF0243
:101B70009BB110B143680020984700230DF1070086
:101B80008DF8073002F0CCF86368013363609DF88C
:101B9000070002F0E9F803B030BD0DF107008DF841
:101BA000072002F0BDF825B1A268134653B92A6098
:101BB000A5606368002BE7D102F03CFB30B1FFF772
:101BC000EDFEE1E79D42F4D01B68EFE700F005FA77
:101BD000DAE700BFA04F002007B502F02BFB48B1A9
:101BE00001A8FFF7DDFE0198003818BF012003B0FF
:101BF0005DF804FB4FF08043D3F80C0400F00110B3
:101C0000A0F1011358425841F1E736DF704701282F
:101C100010B504D100F048FCBDE81040004710BDED
:101C2000012813B5044603D0032813D002B010BD19
:101C300000230DF107008DF8073002F071F800F075
:101C400033FC10B12046FFF7E0FF9DF8070002F0DB
:101C50008BF8EBE7074BC02283F8002301221A60C0
:101C600000F022FC0028E1D04FF080430422C3F8AA
:101C70000423DBE700E100E038B50B4D2B78044688
:101C80006BB902F0D7FA60B9084B002C14BF20469C
:101C9000184600F00FFC08B901232B7038BD8520D1
:101CA000FCE70820FAE700BFB44F0020E02C040056
:101CB0001FB503788DF800304368019383688DF871
:101CC0000830C368054A0393054B684653F8213032
:101CD00052F82110984705B05DF804FBB84F00207A
:101CE000BC4F00201FB503788DF800304368019386
:101CF00083688DF80830C368054A0393054B68462E
:101D000053F8213052F82110984705B05DF804FBD4
:101D1000B84F0020BC4F0020F0B5194B90F800C020
:101D200091F81DE043F82C20164B16460A6943F83B
:101D30002C20154B0C4603F80CE007460FCC89B05D
:101D40006D460FC594E80F0085E80F00CDF810C070
:101D5000BEF1000F09D0002E0C4A694608BF32467A
:101D6000381D01F0EBFA09B0F0BD002E084A6946B3
:101D700008BF324607F10C0001F05CFDF3E700BF3D
:101D8000BC4F0020B84F0020B54F0020B11C03000D
:101D9000E51C03000023435082B043580193019B8C
:101DA00002B0704770B51A4C437944F82320194C9F
:101DB00003EB4303E35C43BB90F904308A78002BC8
:101DC0004FEA4212D2B21BDB134DEE1886F8002305
:101DD00001225E0903F01F0302FA03F345F82630DF
:101DE00003680A88C3F8082543790879C97803EBA2
:101DF0004303E218507091700122E254002070BD3C
:101E0000064D03F00F03EA54EAE70820F7E700BFA6
:101E1000C44F0020C04F002000E100E014ED00E0BE
:101E2000036801221A604379024A03EB430302214B
:101E3000D1547047C04F002008B500680A464FF4DF
:101E40008071FFF7A7FF0123C0F844330AB1C0F83F
:101E5000043308BD08B500680A464FF48271FFF7E5
:101E600099FF0223C0F844330AB1C0F8043308BD17
:101E70002DE9F041234E244FDFF8908000254FF4E8
:101E80008034D7F8043323420FD033686BB1A6F502
:101E90008041C7F848433846C7F8084389B2FFF77E
:101EA00079FFD8F80030E8B298470135042D4FEAA1
:101EB000440406F10406E4D1134CD4F80433DA07E1
:101EC0000BD5D4F8003143B120464FF48071FFF7B1
:101ED00061FF0E4B28461B689847D4F804339B07D4
:101EE0000DD5D4F8043153B107484FF48271FFF790
:101EF00051FF064BBDE8F0411B6805201847BDE8BF
:101F0000F08100BF4041024000400240C44F002029
:101F100000F18040002382B0036003680193019BBD
:101F200002B07047044B0246187918B91A600122B2
:101F30009A80704785207047CC4F0020084B1A6864
:101F4000D20704D4C02283F8002301221A604FF084
:101F500080420123C2F81835024A1370704700BF4F
:101F600000E100E0C84F002038B54FF48270FFF761
:101F7000CFFF4FF080430222C3F804230C4AD2F86B
:101F8000FC0040F08073C2F8FC300A4B1C6844F03F
:101F9000010119605D685968491BB1F50A5FFAD300
:101FA0001C604FF08043C2F8FC0001229A6038BDEB
:101FB00000ED00E0001000E04FF0804208B5022381
:101FC000C2F808334FF48270FFF7A2FF0123D360F9
:101FD000D2F81834DB03FBD408BD08B54FF4807089
:101FE000FFF796FF4FF080430122C3F804231A60E5
:101FF00008BD00004FF0804110B5D1F8003163B149
:102000004FF48070FFF784FF0D4B58790122C1F81F
:10201000082310B95A711B6898474FF08042D2F8D4
:10202000043163B14FF48270FFF772FF0223C2F8EC
:102030000833034BBDE810401B680120184710BD52
:10204000CC4F002000F1804000F5C040002382B05A
:10205000036003680193019B02B07047800000F1A8
:10206000A040D0F8003723F44033C0F80037D0F850
:10207000003743EA0143C0F800377047054B4FF083
:10208000FF32072843F8202084BF1B1883F848201C
:10209000704700BFD44F002010B5184C94F858304A
:1020A0004BBB4FF0FF3204F1300122FA03F0C007BE
:1020B00048BFCA540133202BF7D10021C8B20131E7
:1020C000FFF7DCFF0C29F9D10D4B00221A600D4BF4
:1020D000C02183F80613402119604FF4BE70FFF74A
:1020E000B1FF094B4FF00041C3F80413012384F8FA
:1020F0005830104610BD0820FCE700BFD44F002028
:102100002850002000E100E000600040F0B53B4EA8
:10211000331893F93030002B6DDA8F78C7F340070E
:10212000002F15BF002308234FF0080C4FF00C0CB4
:10213000634501D10420F0BD56F8235001354FEA24
:10214000830442D106EB000C5DB246F823208CF8E4
:10215000305017B9334483F848008B785F0716D4A2
:10216000DA0734D5830003F1A043D3F8002722F027
:102170000202C3F80027224FC20800F0070C012317
:1021800003FA0CF317F802C043EA0C03BB548B7834
:102190000A789B0724D504F1804303F5C04300026D
:1021A000D3F8101521F4473121F44071C3F810150C
:1021B0001204D3F8101500F4F85002F44032104322
:1021C0000843C3F810050020B5E70133B0E74A78AB
:1021D00000F5E0734FF0A047920047F82320CAE7CC
:1021E000A5F1080346FA83F393F8501041EA8212EE
:1021F00083F85020E7E708209DE700BFD44F002078
:102200002850002010B51F4C231893F93020072ABE
:1022100018DD083A44FA82F292F850309B09032BF9
:102220000BD14FF0A043D3F81015C14001F00101CC
:102230000231BDE81040FFF711BF012B0CBF022196
:102240000321F6E7D3B2072B1AD8930003F180439A
:1022500003F5C043D3F8100540F00100C3F81005A2
:1022600002F1400040B2800080B2FFF7EBFE39B1CE
:1022700054F8223023B101239340034AC2F80433B7
:1022800010BD00BFD44F0020006000400E4B03443F
:1022900093F93020072A02DD0021FFF7DFBED3B219
:1022A000072B0FD8930003F1804303F5C043D3F805
:1022B000101521F00101C3F8101501239340034AC2
:1022C000C2F80833704700BFD44F002000600040C0
:1022D000F8B50446FFF7DAFF17490A1992F93030CA
:1022E00092F83020072A9FBF144A03F5A2730020FA
:1022F00042F8230004F00702012393401048E2084B
:10230000855C1D420AD004F5E0754FF0A046022717
:1023100046F82570855C25EA030383540B1993F96D
:102320003000002802DBC0B2FFF7A8FE2144FF23E3
:1023300081F83030F8BD00BFD44F0020006000406D
:10234000285000202DE9F34700244F4D01944FF40D
:102350008072012102F1804303F5C0431B68012B09
:1023600007D1D5F804330B4203D090B2FFF76AFED1
:102370000C430432B2F5907F4FEA4101EAD1424B5F
:10238000D3F87C31012BE2B229D14FF4BE70FFF7B4
:1023900059FE4FF0A043D3F820150191C3F8201542
:1023A0000AB344F00044394F01260025264210D0DC
:1023B000AB0003F1804303F5C043D3F81005D3F815
:1023C000101557F8253023B1C1F30141C0F30420A3
:1023D00098470135082D4FEA4606E7D101E0002A6B
:1023E000E1D1002C48DA294C4FF0A047284D4FF09E
:1023F0000008012615F9013F5A1C31D0C3F3C20170
:1024000008316944DAB211F8041C03F03F0903F003
:10241000070306FA03F3194222D009F5E073484690
:1024200057F82330C3F3014ABAF1020F0CBF03215E
:102430000221FFF713FE06FA09F3C7F8203504EB73
:10244000090393F9303054F823304BB19109032933
:1024500004D0BAF1020F12D1012901D148469847A0
:1024600008F10108B8F1040FC4D1D7F82035019361
:10247000C7F82035002BB9D102B0BDE8F087BAF11A
:10248000030FEDD10229E8E700600040D44F00209F
:102490002350002000F18040002382B003600368D5
:1024A0000193019B02B07047014B1868704700BF51
:1024B000345000200C4A13789BB903784FF08041C8
:1024C00003F00103C1F87835084B1968C90704D433
:1024D000C02183F80013012119600123137000202B
:1024E00070478520704700BF3850002000E100E0B1
:1024F0004FF0804310B5D3F80443610709D5D3F8F2
:10250000083133B14FF48470FFF7C4FF114B1B68DF
:102510009847A2060CD54FF08043D3F814313BB155
:102520004FF48A70FFF7B6FF0B4B00201B689847EB
:1025300063060ED54FF08043D3F818314BB14FF4FA
:102540008C70FFF7A7FF044BBDE810401B6801200B
:10255000184710BD345000203050002008B5FFF758
:10256000C7FFBDE80840FFF745BD0000124BD3F898
:10257000182182B0EAB10022C3F81821D3F818312B
:102580000193019B0D4BD97FFF2907D0987F012232
:102590008A404FF0A04148B1C1F80C2500225A777B
:1025A0001A72D3E90021064802B01047C1F8082585
:1025B000F4E702B0704700BF003002403C500020FA
:1025C000445000202DE9F74F90F80480624E0192AC
:1025D0004FF0240909FB08F906EB090B9A469BF812
:1025E0001C3007460C46002B40F0B28005685B4962
:1025F000284601F0ADFA002840F0AC80019B46F877
:102600000930CBF804A094F800C0217B4FF0A04221
:10261000012303FA0CF3012994BFC2F80C35C2F868
:1026200008350CF5E0734FF0010E42F823E06378B3
:10263000FF2B1FBF0EFA03FEC2F80CE503F5E07E88
:102640004FF0030918BF42F82E90A27808BF4FF050
:10265000FF33FF2A1FBF02F5E07E4FF0A04A4FF084
:10266000040B4AF82EB04FF0240E0EFB086E18BF74
:1026700091468EF82020E2788EF81F2008BF4FF098
:10268000FF39FF2A19D094F804A04FF0010B0BFA80
:1026900002FB4FF0A04EBAF1000F4BD0CEF80CB5B4
:1026A00002F5E0724FF0030B4EF822B02A4A4FF0C9
:1026B000240E0EFB082282F81EA0C5F808C5C5F836
:1026C0000C35A368C5F81095C5F82435637B003B2D
:1026D00018BF0123022930D0032931D0012901D1AB
:1026E00043F00203C5F85435A379C5F8C035072374
:1026F000C5F80035019B9BB13B68627943F3073312
:102700005201002BD2B21EDB1549CC1884F80023ED
:1027100001225C0903F01F0302FA03F341F824309D
:10272000242303FB0866002373770123337703B068
:10273000BDE8F08FCEF808B5B2E743F00403D1E767
:1027400043F00603CEE7074903F00F03CA54E7E757
:102750000820ECE71120EAE73C5000206D2503003B
:1027600000E100E014ED00E070B50579224C24236F
:102770006B43E35893B1036843F30733002B0DDB3E
:102780005A09012103F01F03994002F120031B4A5B
:1027900042F82310BFF34F8FBFF36F8F24236B4397
:1027A000E218E35800687BB1154BC0F80833537F3B
:1027B00053B101234361D0F80431002BFBD0242313
:1027C00003FB054300225A77242303FB054300261D
:1027D00093F82030FF2B1FBF03F5E0734FF0A042AA
:1027E000022142F82310C0F8006501F0D3F9242338
:1027F00003FB0544267770BD3C50002000E100E05B
:10280000520108002DE9F74390F804C0454E2423F7
:1028100003FB0CF31546F2180C46517F864600293F
:102820007DD156F80380B8F1000F04D015F0140FD5
:1028300004BF0123537794E80F00242707FB0C679C
:1028400007F10C0989E80F00FA7FFF2A07D0B87F4B
:10285000012393404FF0A041D0B1C1F80835206862
:10286000DEF8003020B100F06041B1F1005F06D128
:10287000A16881B101F06047B7F1005F0BD024235C
:1028800003FB0C6300225A77102003B0BDE8F083ED
:10289000C1F80C35E3E76768C3F84405C3F8487529
:1028A000E068C3F834150021C3F83805C3F81811DF
:1028B000D3F818110191019915F0010118BF0121F8
:1028C000C3F8501515F0020118BF0121C3F84015D7
:1028D00029075CBF01211961B8F1000F15D1D3F8A8
:1028E00018110029FBD0FF2A0AD00123934024228B
:1028F00002FB0C664FF0A042B17F19B1C2F80C3553
:102900000020C2E7C2F80835FAE715F0040F4FF0CF
:10291000400214BFC3F80823C3F80423F0E71120D2
:10292000B3E700BF3C5000202DE9F34700240646E2
:102930000F46904600F5A0754FF48039A2462B68EB
:102940008BB1D6F8043309FA04F21A420BD0C5F859
:1029500000A02B680193A000019B00F5A07398B222
:10296000D7E9003198470134444505F10405E6D123
:1029700002B0BDE8F0870000F7B505792D4C0C23B7
:102980006B43E71816463A7A002A51D1E6504B6855
:102990007B60477903689446D6B2B74239D8CA7883
:1029A00043F307335201002BD2B23CDB224EF7181F
:1029B00087F8002301225F0903F01F0302FA03F3E3
:1029C00046F8273003684A78D3F8040502F003027A
:1029D00020F003000243C3F80425D3F808058A78E1
:1029E00020F0030002F003020243C3F80825D3F8E5
:1029F00010050A7820F00F0102F00F020A43C3F815
:102A000010250C2303FB054401232372002003B08F
:102A1000F0BD960006F5A076013243F806C09E5937
:102A20000196019EB8E7054E03F00F03F254C9E783
:102A30000820ECE76050002000E100E014ED00E029
:102A4000036801221A600279034B0C2101FB023357
:102A500002221A72704700BF6050002003680122F2
:102A60001A610179024B0C2000FB01331A72704786
:102A7000605000200279044B0C2101FB0233187ACC
:102A8000831E5842584170476050002037B54FF4BC
:102A9000803400688C407BB18B0003F5A073002567
:102AA000C550C3580193019BC0F8044301F5A871B8
:102AB00040F8212003B030BDC0F80843F6E770B4F9
:102AC000046840F20116D4F800528E4025EA06054B
:102AD000C4F80052D4F800522B43C4F800329DF8D9
:102AE0000C3070BCFFF7D2BF024903480422FFF745
:102AF0001BBF00BF6050002000A0004002490348F7
:102B00000622FFF711BF00BF6C50002000A001405B
:102B1000024903480622FFF707BF00BF7850002094
:102B200000B001400023435082B043580193019B01
:102B300002B070470A7B0346032A29D8DFE802F077
:102B4000212519028A68500304D5D3F84C25086959
:102B5000904207D18A6852031AD4D3F84C254969A8
:102B6000914215D000200622C3F80005C3F80025C5
:102B70007047D3F84C2508699042F3D1D3F83C252F
:102B8000EDE7D3F84C250969EAE7D3F83C25FAE7E5
:102B900001207047F0B5D0F8243187B005460C46C7
:102BA000EBB14FF49271FFF7BDFFD0F80431B3B928
:102BB000A368C0F808330223A360A368C0F80433F5
:102BC000D0F860311BB1D0F800329B0502D401234C
:102BD0002B626B61012384F82E3007B0F0BDD5F86D
:102BE0000431002B3FD04FF482712846FFF79AFF43
:102BF000266A770609D494F82E3033B92146FFF7B8
:102C000099FF80F0010084F82E0076073DD404F18E
:102C10000C070FCF01AE0FC63B6833604FF4B071A5
:102C20002846FFF77FFF4FF4AE71FFF77BFF94F864
:102C3000303013B194F82E303BB30023C5F8003286
:102C4000A3602E4BC5F8083345F30733002B1CDB7C
:102C50005A09012103F01F03994002F16003284A39
:102C600042F8231011E04FF4A4712846FFF75AFFF1
:102C7000237B5BBB04F10C070FCF01AE0FC63B6893
:102C8000336094F83030002BD8D0D5F8C434C5F870
:102C9000C43498072CD459072CD4DA072CD494F8D0
:102CA0002E309B00DBB28DF8003094F830300BB939
:102CB00084F82F30236A5B0703D594F82E30002B5D
:102CC0008BD0D4E900316846984786E74FF400730B
:102CD000C5F8003240F20223A36003F1CE73C5F8B9
:102CE0000833A368C5F804330123AB602B6274E793
:102CF0000123D8E70223D6E70323D4E702029C018D
:102D000000E100E001490248FFF744BF8450002081
:102D10000030004002494FF04020FFF73BBF00BFAA
:102D2000B85000202DE9F84F0679304D4FF0340AA5
:102D30000AFB06FA05EB0A079B4697F82D308046FA
:102D40000C469146002B4DD1294B006853F82610B4
:102D500000F0FEFE002847D12168637B87F83230FF
:102D600001F5E0724FF0A043B860C7F804B087F8EF
:102D70002F0087F8300040F20C6745F80A9043F8BE
:102D80002270626802F5E07C43F82C70D8F80030BD
:102D9000C3F80815C3F80C25A268C3F82425B9F1B7
:102DA000000F12D0227B43F307335201002BD2B223
:102DB00013DB1049CC1884F8002301225C0903F0CE
:102DC0001F0302FA03F341F82430342303FB0655B2
:102DD000012385F82D30BDE8F88F074903F00F0374
:102DE000CA54F2E70820F6E71120F4E784500020E7
:102DF000E42C040000E100E014ED00E00368027937
:102E00000621C3F80015044B342101FB02330222D2
:102E100083F82D20704700BF8450002001790B4BB0
:102E20000268342000FB0133094900209860C2F891
:102E30000813D2F8001221F4BC51C2F80012C2F8F3
:102E40000005012283F82D20704700BF8450002028
:102E500002029C0170B506791D4D3423734304466C
:102E6000EB5893B1036843F30733002B0DDB5A098A
:102E7000012103F01F03994002F12003154A42F893
:102E80002310BFF34F8FBFF36F8F2046FFF7C6FFAE
:102E9000206800F07FFE342303FB065393F83230A2
:102EA0007BB92068D0F808354FF0A04203F5E073F5
:102EB000022142F82310D0F80C3503F5E07342F8F4
:102EC0002310342303FB0655002385F82D3070BDF5
:102ED0008450002000E100E00279034B342101FB23
:102EE000023393F82F007047845000202DE9F843F7
:102EF000BE4F90F8048004684FF0340C0CFB087C43
:102F000000238CF82E30CB6803F06043B3F1005FF0
:102F10000E46154603D010263046BDE8F883B44B64
:102F2000C4F808339CF82F302BB1DCF80830C4F813
:102F300004331126F0E712F0140F0CBF0123002315
:102F40008CF82F308946B9E80F000CF10C0EAEE872
:102F50000F00D9F80030CEF80030C5F300138CF81C
:102F60003030CCF820507378C4F8883520464FF4C0
:102F70008271FFF7D7FD4FF49271FFF7D3FD4FF445
:102F8000B071FFF7CFFD4FF4A471FFF7CBFD15F043
:102F9000010318BF0123C4F8503515F0020318BF10
:102FA0000123C4F840353378032B03D8DFE803F05E
:102FB0008FA86C3E2B074FF0070640F18680342324
:102FC00003FB08F3FA18FB58002B40F0B2804FF0D7
:102FD0000109D4F84831002B00F0C380D4F8043143
:102FE000002B40F0C180D4F82431002B00F0D380B6
:102FF00001224FF492712046FFF794FDD4F860113E
:10300000D4F80032002900F0BB8013F4007F03F4F1
:10301000807340F0BA80012222626261002BD8D016
:103020004FF4A4712046FFF77DFDD2E7326902F02C
:103030006043B3F1005F7FF46EAF4FF48073F168CB
:10304000C4F800327368C4F84415C4F848354FF426
:10305000A871FFF767FD01232362A360D4F8503104
:10306000002BFBD04FF4A8712046FFF75BFDB3683F
:10307000C4F84425C4F84835342303FB08734FF4DF
:1030800080229A6000269AE77368F268C4F84425A3
:10309000C4F84835336903F06042B2F1005F7FF451
:1030A0003AAFB268C4F834354FF48453C4F83825C5
:1030B000C4F80032342303FB087302229A60280705
:1030C0004FF001032362DDD4002608232EE073684D
:1030D000F268C4F8442515F0200FC4F848354FF0C5
:1030E000340308D04FF48072C4F8002203FB087345
:1030F0004FF48022E2E74FF40072C4F80022DAE7CE
:103100007368F268C4F83425C4F838354FF4805336
:10311000C4F80032342303FB087302229A6015F0CE
:1031200008064FF001032362ACD133460122E2507E
:1031300045E7690744BF002393606A0606D4342339
:1031400003FB08739A6842F002029A60342303FB7F
:1031500008739A6842F400729A609B68C4F804335A
:10316000DAE6D4F804212AB14FF482712046FFF741
:10317000D9FC38E7D4F82431002B3FF42AAF38E7E4
:10318000C4F82090C4F8149023E7002B7FF448AFD4
:10319000002A3FF41EAF3421D4F8C434C4F8C43438
:1031A00001FB0872002082F82F0093B113F0010F89
:1031B00014BF4FF40246032648F2012213F0020F17
:1031C00018BF164613F0040F48F2022318BF1E461C
:1031D000A2E66B063FF5A0AE08FB01712046FFF7A3
:1031E000A9FC002808BF032696E600BF84500020F3
:1031F00002029C010023435082B043580193019B7B
:1032000002B070471FB501238DF80030044BCDE9A3
:103210000110D3E900126846904705B05DF804FB41
:10322000EC5000207FB5434AD2F82461002E60D0D4
:1032300010464FF49271FFF7DDFF02238DF8003046
:10324000D2F88034C2F880340393D2F83C3502932C
:10325000394BDA6801920022C3E906226846D3E9B5
:10326000001290473348D0F8443173B14FF4A27143
:10327000FFF7C0FF304B9A693AB10022D0F83C0505
:10328000D968C3E90622FFF7BDFF2A48D0F82031EC
:10329000ABB14FF49071FFF7ADFF0123C360264B34
:1032A0005A6962B1D0F84C150291002299688DF8E4
:1032B000002001915A616846D3E9001290471D48E9
:1032C000D0F858319BB14FF4AC71FFF793FF1A4B14
:1032D0005A6962B1D0F84C150291002299688DF8B4
:1032E000002001915A616846D3E90012904704B06A
:1032F00070BDD2F81031002BB4D04FF48871104655
:10330000FFF778FF0C4BD2F83C0599698842A9D1A8
:10331000DC69D96864B1D2F8005225F02005C2F802
:1033200000521A699C61DA60DE61FFF76BFF99E772
:103330009C61FAE700200040EC5000202DE9F843A2
:10334000574D90F80480242303FB0853064693F856
:1033500020300C469146002B40F09E805149006879
:1033600000F0F6FB0746002840F09880216833689B
:10337000481C0BD04FF0A04001228A40C0F808251D
:1033800001F5E0724FF0030C40F822C06068421C67
:103390001FBF00F5E0724FF0A04C4FF0000E4CF84C
:1033A00022E0A269C3F8242594F814C0627DBCF120
:1033B000010F4CEA0202C3F86C25C3F80C15C3F8E0
:1033C00014051DD1A1684A1C1FBF01F5E0724FF022
:1033D000A0404FF0000C40F822C0E268501C0BD017
:1033E0004FF0A04C01209040CCF8080502F5E070A9
:1033F0004FF0030E4CF820E0C3F80825C3F8101571
:10340000242303FB08F3EA18C2F804902269EA5067
:10341000B9F1000F2AD03068227F4FF48871FFF78E
:10342000E9FE4FF49071FFF7E5FE4FF49271FFF75C
:10343000E1FE4FF4A271FFF7DDFE4FF4AC71FFF730
:10344000D9FE194BC0F8043340F307335201002B67
:10345000D2B21CDB1549C81880F800230122580994
:1034600003F01F0302FA03F341F820303368082207
:10347000C3F80025242303FB08550023C5E90633C0
:103480006B61012385F820303846BDE8F883084990
:1034900003F00F03CA54E9E70827F5E71127F3E71C
:1034A000EC500020253203001003420000E100E050
:1034B00014ED00E00279044B242101FB023358692A
:1034C000003818BF01207047EC50002001F0604325
:1034D000B3F1005F2DE9F04781460E46924636D1A2
:1034E00090F80480FFF7E6FF044690BB1B4FD9F825
:1034F0000020242505FB08754FF490711046C5F88F
:1035000014A0AE60FFF776FE4FF4AC71FFF772FEC9
:103510006B69C2F84465C2F84835012393606B6853
:10352000CBB9D2F82031D2F858010343F9D060B9B1
:103530000123D360D2F85831002BFBD0242303FBA6
:10354000087700237B61BDE8F0870F20F6E71020A5
:10355000F9E71120F7E72046F5E700BFEC5000201F
:103560002DE9F84301F06043B3F1005F0F4673D1DA
:1035700006793A4D242303FB0653D3F80480D3F88D
:1035800018C0B8F1000F08D1BCF1000F12D0DB69F0
:10359000002B40D01120BDE8F88301684FF404747B
:1035A000C1F80843BCF1000F04D0DB699BB3C1F83C
:1035B0000443EFE7242303FB065300219A61DF60F5
:1035C00089462423046803FB06532046D9614FF43F
:1035D0008871FFF70FFE4FF4A271FFF70BFEC4F8DE
:1035E0003475C4F83825B9F1000F1CD101232360CC
:1035F000B8F1000F2AD1D4F81031D4F84421D4F80E
:103600002401134316D10028F5D0242202FB0652D0
:1036100003209361BFE7242303FB065311461F6178
:103620004FF00109CDE7D4F8003243F02003C4F88D
:103630000032DDE7242303FB06550023984218BF20
:1036400003209A42AB6118BF0F20A4E74FF4047324
:10365000C4F8043300209EE710209CE7EC500020C3
:103660000023435082B043580193019B02B070473E
:103670000A4610B54FF48E71FFF7F2FF136A916896
:10368000C95C136A01331362C0F81C1510BD8B6945
:103690000A4610B54FF4847123B9FFF7E1FFD0F863
:1036A000183510BDFFF7DCFF536AD168D0F8180554
:1036B000C854536A01335362F3E700001FB5012376
:1036C0008DF80030044BCDE90110D3E900126846B3
:1036D000904705B05DF804FB1051002008B54FF489
:1036E0009271FFF7BDFF4FF48471FFF7B9FF01231B
:1036F000036008BD30B54D4DD5F804339A0585B04B
:1037000051D5D5F82431002B4DD04FF49271284675
:10371000FFF7A6FF4FF40173C5F80833444B93F845
:1037200029200AB901226A60404902228DF800204E
:10373000D1F88024C1F8802403929A690292DA6851
:1037400001920022C3E906226846D3E9001290479D
:103750003648D0F81C315BB1354A5169136A994239
:103760004DD992F82830002B49D11146FFF780FF40
:103770002E48D0F84431002B56D04FF4A271FFF7F9
:103780006FFF2B4B93F829200AB1012202609A693E
:10379000002A49D0586AD96800229A6105B0BDE86C
:1037A0003040FFF78BBFD5F804335B07D0D5D5F891
:1037B0000831002BCCD01E4C1C482146FFF767FF78
:1037C000636AA2699A42C3D1E369E1684BB1A3611C
:1037D0002369E3600023606AE3616362FFF76EFFC1
:1037E000B6E794F829300BB901236B600F4B4FF407
:1037F0000172C3F808230023606AA361EEE70B4857
:103800004FF48E71FFF72CFF5369002BB0D0516934
:103810000291002391688DF8003001915361684650
:10382000D2E900139847A3E705B030BD002000405F
:10383000105100202DE9F843524D90F804802C23BC
:1038400003FB0853064693F82A300C469146002B9A
:1038500040F094804C49006800F07AF9074600284F
:1038600040F08E8021683368481C0BD04FF0A04098
:1038700001228A40C0F8082501F5E0724FF0030CE0
:1038800040F822C06068421C1FBF00F5E0724FF094
:10389000A04C4FF0000E4CF822E0A269C3F824259A
:1038A00094F814C0627DBCF1010F4CEA0202C3F827
:1038B0006C25C3F81405C3F80C151DD1A1684A1C6A
:1038C0001FBF01F5E0724FF0A0404FF0000C40F830
:1038D00022C0E268501C0BD04FF0A04C0120904059
:1038E000CCF8080502F5E0704FF0030E4CF820E02C
:1038F000C3F80825C3F810152C2303FB08F3EA18B6
:10390000C2F804902269EA50B9F1000F1ED0306865
:10391000227F4FF48E71FFF7A3FE4FF4A271FFF7E1
:103920009FFE1A4BC0F8043340F307335201002BBB
:10393000D2B21EDB1649C81880F8002301225809AC
:1039400003F01F0302FA03F341F820303368042226
:10395000C3F800252C2303FB08530022C3E90622E9
:1039600083F829205A61012283F82A203846BDE8CD
:10397000F883084903F00F03CA54E7E70827F5E77F
:103980001127F3E710510020F536030080000200F4
:1039900000E100E014ED00E00279044B2C2101FB72
:1039A00002335869003818BF0120704710510020B9
:1039B0002DE9F84F074690F8048089469346FFF7B3
:1039C000EBFF0446002839D11E4E2C2508FB056A62
:1039D0004FF48E71CAF814B0CAF820008AF8280093
:1039E0003868CAF80890FFF73BFE01238360514610
:1039F000FFF73EFEDAF8043055460BBBDAF8144008
:103A00002B6A9C4210D8D0F81C31002BFBD001232C
:103A1000C36000202C2303FB086600237361BDE80C
:103A2000F88F95F828303BB9D0F81C31002BF8D02E
:103A30005146FFF71DFEE3E70F20EBE71120EEE70D
:103A40002046ECE7105100202DE9F0473C4D067967
:103A50002C2303FB065304465F68D3F8188037B95C
:103A6000B8F1000F13D0D86910B311204BE0D0F893
:103A700000C000684FF4017ECCF808E3B8F1000FF5
:103A800005D0DC69002C40D0CCF804E3EDE72C2312
:103A900003FB06539A610022D9605A62DA6193F8F7
:103AA000293013B92068FFF719FE20687FBB02E0B8
:103AB00020681961DA614FF4A2712C27FFF7D0FD5D
:103AC00006FB075847462068D0F824A1D0F80831F3
:103AD000D0F8449103BBB9F1000F02D1BAF1000F45
:103AE000F1D02C2303FB06550023AB61BAF1000F84
:103AF00022D1B9F1000F21D195F8291023680122B4
:103B0000C1B11A600020BDE8F0871961DA614FF495
:103B10000173C0F80433F5E7BAF1000FE1D1B9F150
:103B2000000FDED14146FFF7B2FD7B6ABA699A42C7
:103B3000C9D8D6E75A60E5E70320E4E70F20E2E7BB
:103B400010510020014B1B68184700BF3C5100205A
:103B50000E4B984213B50C4602D0002002B010BDA7
:103B600000230DF107008DF8073000F0D9F8084B5D
:103B70009DF807001A791AB100F0F6F81120EDE768
:103B800001221C601A7100F0EFF8E6E70020004007
:103B90003C510020034B984201BF034B00221A60A6
:103BA0001A717047002000403C51002000F1804015
:103BB00000F5E040002382B0036003680193019B9D
:103BC00002B07047F0B5544B544CD3F8043194F81C
:103BD0002E2085B0002B3BD04FF48270FFF7E6FF1C
:103BE0002AB394F82F3013BB4B4AD2F80031002B84
:103BF00032D04FF48070FFF7D9FF638B94F82D001B
:103C0000834250D921891B1A9BB289B26383CB1A94
:103C1000616801EB4301C2F82C16C2F830064FF47C
:103C20008270FFF7C3FF3C4B01225A6014E06368C7
:103C300002932389ADF80C30E36800218DF804105D
:103C400033BB2374236801A89847002384F82F30DE
:103C500094F82E30002BC7D12F4BD3F810315BB125
:103C60004FF48870FFF7A2FF0023237402238DF81E
:103C7000043001A823689847274BD3F814310BB3BD
:103C80004FF48A70FFF792FF0023237405B0F0BD54
:103C9000208B608363602081E160002AD2D11E4BBB
:103CA00001221A60CEE7BAD1E168012084F82F0022
:103CB00031B100206083C2F82C16C2F83036AEE76E
:103CC0006183ACE766694FF000470125002EDDD027
:103CD000B6FA86F227FA02F34632920026EA030683
:103CE00002F1804303F5E0431B68002BEED0104641
:103CF000A2F58C72FFF75AFFD30882F00402C2F3D8
:103D000080028DF808308DF8045023688DF8092062
:103D100001A89847DAE700BF007000404451002036
:103D200070B5EFF3108672B60C4A9468012384B91B
:103D300093600B4B0B4DD3F8801029401160C3F8F2
:103D40008050D3F8841051604FF0FF32C3F88420C4
:103D50002346037006B962B670BD00BF74510020DF
:103D600000E100E0FC06FFBD084B9A6810B55AB1AF
:103D700050B9EFF3108172B6054A1C6814605C6894
:103D80005460986001B962B610BD00BF7451002044
:103D900000E100E01FB50021039001AA44F20100F8
:103DA000CDE9011100F004F805B05DF804FB000056
:103DB00072B6094BD3F8F020D20700D500BEBFF38E
:103DC0004F8FD968054A01F4E0610A43DA60BFF316
:103DD0004F8F00BFFDE700BF00ED00E00400FA05D3
:103DE0001EF0040F1CBFEFF309800AE0EFF3088018
:103DF0000549064A884201D8904202D88D464FF0C4
:103E00000000034B1847000000F8002000D80020F5
:103E1000393E0300BFF34F8F0549064BCA6802F4D1
:103E2000E0621343CB60BFF34F8F00BFFDE700BFDD
:103E300000ED00E00400FA0508B5034B9A6ADB6A5E
:103E4000FFF7E8FF08BD00BF00ED00E010B5034636
:103E500053E8000F40EA010243E8002494F0000F09
:103E6000F6D110BD10B5034653E8002F42EA010019
:103E700043E8000494F0000FF6D110BD10B50346DE
:103E800053E8002F02EA010043E8000494F0000F19
:103E9000F6D110BD0121FFF7D9BF0021FFF7EEBF1A
:103EA00010B5034649B152B1541E14EA020006D1BE
:103EB000986019609C80D86010BD0E20FCE7092036
:103EC000FAE710B58468C2688388121B934208D34E
:103ED000C26813400268D154C3680133C360002034
:103EE00010BD0420FCE78268C3689A420AD0826849
:103EF000838813400268D35C0B708368013383604E
:103F000000207047052070470648074A0378074994
:103F1000D35C012213B10430FFF722BB0C30FFF752
:103F200093BD00BF0C310020B54F0020A1510020EF
:103F30000648074A03780749D35C012213B10430CD
:103F4000FFF7C4BA0C30FFF733BD00BF0C310020BF
:103F5000B54F0020A251002037B50578012D0DD0B6
:103F6000022D30D075B91F491F48FFF7BCFF00284C
:103F700034D103B0BDE83040FFF7DABF037A1BB994
:103F8000FFF7C2FF03B030BD4368184C19782046D4
:103F9000FFF797FF80B18DF800500190144B6846F1
:103FA0001B689847A168E368A2885B1A9A42E7D227
:103FB000104B01221A70E5E7A268E3689A42F1D03B
:103FC0008DF80000EAE7C3688DF800500193FFF711
:103FD0009BFF074B68461B689847D3E703238DF880
:103FE0000030F6E7A25100208051002090510020BF
:103FF000A4510020A0510020F0B51F46234B89B0EA
:1040000004461A600D4600293DD08A882048096878
:10401000FFF746FF002834D1AA89A9681D48FFF799
:104020003FFF00282DD11C4E0FCE6D460FC596E8E0
:104030000F0085E80F0063690693237C174A184830
:104040008DF81C70003B18BF01238DF81430637C81
:10405000002B0CBF00230E238DF81530E36802936C
:10406000A368039323680193694663680093FDF78F
:1040700053FE30B90B4B18702368013301D0FFF7A2
:1040800043FF09B0F0BD0720FBE700BFA4510020AB
:104090009051002080510020EC2C0400593F030077
:1040A0000C310020A051002070B5084D0146084891
:1040B0002E78FFF718FF044636B100232B70FFF768
:1040C00023FF08B1FFF766FE204670BDA051002017
:1040D0009051002010B501460E48FFF7F2FE04464D
:1040E000A8B90D480D4A0378D35C63B10430FFF7DB
:1040F000E1F960B90A490748FFF7F5FE38B9BDE8AC
:104100001040FFF715BF0C30FFF746FCF1E72046E3
:1041100010BD00BF805100200C310020B54F0020A1
:10412000A251002010DF704713B5044609496846C4
:1041300000F082FC019808B902B010BDD0E900314E
:104140002046984718B1684600F07EFCF2E711203F
:10415000F2E700BF242D040013B504460749684662
:1041600000F06AFC019B0BB902B010BD2046D3E9F8
:1041700000219047684600F067FCF3E7182D040023
:104180000B4991F81623EC2352091341DB0706D59E
:10419000084B9A683AB94FF480030B60704742F2BB
:1041A0000200FFF7F7BD1A6842F480021A607047F8
:1041B00000E100E074510020F7B5194F3C786CBB6A
:1041C000184E012520463570FFF7AEFF112821D08B
:1041D0002046FFF7C1FF144B8DF80340186801908B
:1041E0000DF10300FFF79CFD104901A8FFF79AFFAE
:1041F0000446B0FA80F0400938709DF80300FFF7DC
:10420000B3FD44B90A4B34701C70FFF7B9FF284660
:10421000FFF7A2FF0024204603B0F0BD0824FAE710
:10422000AA510020A8510020302D0400B13D030008
:10423000A9510020014B1878704700BFAA510020F7
:1042400007B50849684600F0F7FB019B13B903B0B6
:104250005DF804FBD3E900209047684600F0F4FBCA
:10426000F3E700BF0C2D0400FFF7EABF60DF7047E3
:1042700069DF704761DF704730B5134DADF5017DE3
:104280004FF4FA740DF1020103A8ADF80240FFF7F4
:10429000F1FF70B9294601A800F0CEFB029B002B6C
:1042A000F0D003A8D3E90021904701A800F0CCFB8F
:1042B000F4E7052805D00DF5017DBDE83040FFF796
:1042C00069BD0DF5017D30BD342D0400024B1B7816
:1042D0000BB1FFF7D1BF7047AB510020F0B50646D8
:1042E00085B00D46002948D00024254A0A60CDE952
:1042F0000144062301278DF8040001A92020ADF810
:10430000083003948DF80670FFF7B2FF2A68039413
:1043100001A94020CDE901448DF80570FFF7A8FF01
:10432000F7232A68039401A92320CDE90144ADF8BD
:1043300006308DF80460FFF79BFF02232A68039480
:1043400001A93846CDE901448DF80430FFF790FF0C
:104350004FF4B0632A68019301A9A120CDE902447A
:10436000FFF786FF2A68039401A9A020CDE9014444
:10437000FFF77EFF204605B0F0BD0E20FBE700BF33
:104380000030002008B5FFF771FF10B9014B012282
:104390001A7008BDAB5100204BDF70471FB50E4CA3
:1043A00001A8FFF7F9FF70B9214602A800F044FB0D
:1043B000039B002BF4D00198D3E90021904702A879
:1043C00000F042FBF4E7052804D004B0BDE810403B
:1043D000FFF7E0BC04B010BD402D04006DDF704756
:1043E00079DF70477DDF704764DF70472DE9F04F5C
:1043F00085B000260E9CBDF83CB0B4F800A0019139
:10440000074690461D46B1463A884A4505DC002ECF
:1044100038D1002005B0BDE8F08F7A6852F8290045
:10442000039000220DF10B0103A8FFF7DDFF002828
:10443000F0D19DF80B20424521D1228808EB0201E2
:104440001EB159450CDD0C20E4E702318B45FADB47
:10445000013292B2019B2280AB5422880132228029
:1044600022880DF10B012A4403A8FFF7BDFF0028A5
:10447000D0D121889DF80B200A442280012609F121
:104480000109C1E72388013BA3EB0A039BB2FF2B81
:10449000D9D805F80A30BCE72DE9F341089FBDF8EB
:1044A00024801546CDE90078022204461E46FFF717
:1044B0009DFF50B93346102229462046CDE90878A1
:1044C00002B0BDE8F041FFF791BF02B0BDE8F08156
:1044D0002DE9F04F00231688138090F82D3085B019
:1044E00007460D4614465BB3082E40F2B48102A87D
:1044F000FFF774FF002840F0E2802388DDF8091000
:104500000822EA54238801339BB21B222380EA54F9
:10451000238801339BB2EA182380E950BDF80D309F
:10452000938023889DF8082006339BB2012A88BF18
:104530000122238094BFE854EA5423880133238066
:10454000BB7803B323880433B34200F2848102A80A
:10455000FFF746FF002840F0B28023880322EA5488
:10456000238801339BB219222380EA542388BDF8A3
:10457000082001339BB2E9182380EA54120A4A70DA
:10458000238802332380FA78A2B12388D91CB14250
:1045900000F261810221E954238801339BB2012199
:1045A0002380E95423880B449BB22380EA54238858
:1045B0000B4423807B68B3B193F900202388D91C76
:1045C000B14200F248810221E954238801339BB2B1
:1045D0000A212380E954238801339BB22380EA54C3
:1045E0002388013323803B89002B5DD13B8A53B163
:1045F000CDE900462B460722032107F11000FFF703
:104600004BFF00285BD13B8B53B1CDE900462B46D5
:104610001522142107F11800FFF73EFF00284ED1A4
:104620003A6A002A4ED1D7F82480B8F1000F31D071
:10463000B8F804302188981C8A1C0244B24200F267
:104640000A81FE2800F2078103336B54238801336B
:104650009BB2FF222380EA54238801339BB223803C
:10466000B8F80020EA54E918120A4A70208802308B
:1046700080B22080B8F8042062B1D8F80810002970
:1046800000F0EB8028440CF0C3FA2388B8F804202B
:104690001344238097F82C30002B59D13B78002B02
:1046A00040F0988000200AE0CDE900462B46062223
:1046B000022107F10800FFF7EFFE002896D005B0B1
:1046C000BDE8F08FB4F800C00CF10603B34200F26D
:1046D000C2801188052940F2C0806FF4486E01EB5A
:1046E0000E039BB24FF27D3E734540F2B680538875
:1046F000052B40F2B2806FF44860181880B2704504
:1047000040F2AB804FF6FF70814202D0994200F236
:10471000A480052305F80C30238801339BB21221B5
:104720002380E954238801339BB223801188E95404
:10473000E818090A4170238802339BB2238052880B
:10474000EA54E918120A4A702388023323806AE780
:10475000BB6A002B00F081804FF000094FF00C0A7B
:104760004FF0160B97F82C305FFA89F2934295D9E7
:10477000B96A0AFB02F201EB0208B8F80430981C8F
:10478000FE2868D8208803332B54238801339BB23A
:10479000238005F803B0238801339BB223808A5A13
:1047A000EA54E918120A4A702088023080B2208048
:1047B000B8F804205AB1D8F8081000294DD0284480
:1047C0000CF026FA2388B8F804201344238009F15A
:1047D0000109C7E73A88012A3FD02288901CB042DD
:1047E00039D8012B04D17B78023313449E4232D353
:1047F000023EB61AB6B202A92844ADF80860FFF727
:10480000F1FD00287FF45BAF3978BDF8083002294C
:1048100014D1B3421DD9ADF808600821BDF80830A5
:10482000FE2B18D822880133AB542288013292B271
:104830002280A95422881344238033E77A78934254
:1048400001D8B34205D90129E5D1964228BF1646C1
:10485000E1E70921E2E70C2031E707202FE730B537
:10486000C8B1F2B10024651C8D4206DA1588A54254
:1048700012D805196D789D420ED1A14211D9005D63
:1048800048B1013880B230B10234A3B210FA84F4D6
:10489000A14206DB138030BD055D01352C44A4B276
:1048A000E1E70020F7E713B513460022ADF8062034
:1048B0000DF106020446FFF7D2FF10B1BDF8060065
:1048C000204402B010BD90DF7047A5DF7047B5DF10
:1048D00070471FB50023ADF80810ADF80A106A46FE
:1048E00002A903930093ADF80430FFF7ECFF05B085
:1048F0005DF804FB80B14FF0F7130360FB230371F5
:10490000F723C3801723038141F6FB3200230161A3
:1049100043818281184670470E20704730B1A1F163
:104920001703E02B04D80180002070470E20704749
:104930000720704713B5034680880C4698B91A883B
:10494000242A66D011D8112A42D0232A6ED0102AE8
:104950002BD0A37A3BB1E1880020FFF7B6FF10B956
:104960004FF48073638102B010BD3A2A39D0552AC2
:10497000EFD1DB88C988A072172B38BF17238B4271
:1049800028BF0B462381FFF7A2FFE37A002BE0D17B
:104990002369002BDDD040F6772200922289ADF802
:1049A0000420694620469847D3E7DB7B09792173C9
:1049B000012B08D0022B09D0637B8B42C9D2002087
:1049C000FFF787FFC5E72388E380F5E76388FBE708
:1049D000F723CB8017230B8141F6FB3348818B8172
:1049E000B7E75B89CA88934228BF1346172B0A6929
:1049F00038BF17230B814AB1C97A39B140F6772104
:104A00000091ADF804306946204690470023638149
:104A10009FE71A7A0B694A73002B9AD04DF67A21D8
:104A20008DF8050000918DF80420BAE7197A237BF0
:104A3000994228BF1946C3E7D1E90032934208BF23
:104A40000023016043607047436843B10268916886
:104A500052680B449342436004BF00234360704795
:104A60006DDF704776DF704777DF70477ADF70471A
:104A70007CDF70477FDF70478FDF7047A8DF7047AC
:104A8000AADF7047B0DF7047B1DF704762DF704761
:104A9000014B5B68184700BFC85200207047704741
:104AA0007047FFF777B900000388212B07B52BD09B
:104AB00008D8112B1ED0132B32D0102B0DD003B0E1
:104AC0005DF804FB522B33D0562B01D03B2BF6D193
:104AD00013218088FFF7C6FF05E0194B818819482C
:104AE000198005F007F90028E9D003B05DF804EB60
:104AF000FFF750B9124B4FF6FF721A80124A00238B
:104B00001370124A1370DAE700238088ADF804307E
:104B100001A9FFF7B1FF0028D1D0FFF73BF9CEE79D
:104B2000074800231A4685210088FFF7A3FFDAE72C
:104B3000034800231A4619460088FFF7A5FFD2E76D
:104B40002C310020805800202143002020430020E9
:104B500010B50C7814B1012C12D010BD0C4B0122F1
:104B60001A700C4B5B6898470B4822464FF4C021E3
:104B700005F082FB0028F0D0BDE81040FFF70AB92D
:104B8000034B054800221A7005F0C8FBF2E700BF8E
:104B900020430020C85200200053002007B50378AE
:104BA000032B10D8DFE803F002121519838A01697C
:104BB0000B48019301AA05F09FFD20B9094A01990C
:104BC00013680B44136003B05DF804FB064B00222E
:104BD00001E0064B01221A70F5E7044BF7E700BF2E
:104BE000702D0400F8520020FC52002021430020C8
:104BF00030B5044689B041B138B10388502B4ED04E
:104C000005D8102B43D0112B45D009B030BD512B06
:104C1000FBD1428942F66E239A42F6D1102200213E
:104C20000DEB02000BF0CBFE284B00251B688DF826
:104C300007500DF1070102A89847DDED027A9FEDBC
:104C4000247A67EE877AFDEEE77A17EE903A23F042
:104C50007F4343F07E430393A379012BD5D18DF895
:104C600010309DF80730ADF81A3003AB07939DF86C
:104C70001630A088ADF8145043F001038DF81630BB
:104C800004A9E389ADF81830FFF7FCFEBDE7828880
:104C9000104BDA81B9E70F4B4FF6FF72F9E70D4D74
:104CA000C2886B899A42B0D1038A022BADD12B689E
:104CB000002BAAD0123004F0B3FD80F001008DF873
:104CC00010002B6804A9284698479EE7C852002088
:104CD0000000C842AC510020094B4A881B889A4208
:104CE0000DD10A8840F677239A4208D18B8805486F
:104CF00005490068033B9BB201220BF00DBC7047D5
:104D00002C310020C4510020C8510020FFF742B8C8
:104D100008B508490848FFF7EDFD08B1FFF73AF874
:104D20000548F721FFF7FAFD18B1BDE80840FFF785
:104D300031B808BDD94C03008C580020F0B5AF4DF8
:104D400003682B6043686B608368AB60C3B090F905
:104D50000C302B7305F04EFA28B9A94AA948012155
:104D600005F078FA08B1FFF715F8FFF725FA08B152
:104D7000FFF710F8002317A901201793FFF7AEFAE9
:104D800008B1FFF707F817A8FFF7FCFA08B1FFF71B
:104D900001F8AB687BB917A8FFF762FE58B99A4CC7
:104DA0009DF85D300093994A9DF85E309849204601
:104DB0000BF066FCAC60AC68112320468DF84830DF
:104DC0000BF034FF214682B212A8FFF751FE08B162
:104DD000FEF7E0FF0023ADF860304FF009131793A2
:104DE00017A84FF4C873ADF86230FFF73FFE08B163
:104DF000FEF7D0FFFFF78CFF002110220AA80BF06E
:104E0000DEFD844B8448059305A904F061FF08B1D9
:104E1000FEF7C0FF814B8248049304A904F046FAD0
:104E200008B1FEF7B7FF0023099341F211137D4E3D
:104E3000ADF8243011238DF826307B4B0893336076
:104E40004FF6FF73F381794B0EAA03F1100C17464E
:104E500018685968144603C4083363452246F7D1DD
:104E600073493846FFF712FE0446002851D1337CBF
:104E70008DF81A306F4A41F61A0306A90120ADF8E1
:104E80001830FFF7FBFD0446002842D101461C22E2
:104E90008DF80A0017A80BF092FD41F21113ADF83E
:104EA00008309DF80A30B088012262F342038DF881
:104EB0000A309DF85C30CDF8524043F002038DF883
:104EC0005C30337C8DF81E3042F66E23ADF81C301A
:104ED0009DF825308DF80C309DF826308DF80D307A
:104EE0000B238DF80E3007AB129303AB13930823FB
:104EF00002AFADF85030ADF8543012AA4E4BCDF899
:104F0000564017A9ADF85A401C97FFF7B9FD044663
:104F100010B12046FEF73EFF0023CDE90B33474B8F
:104F20000A9301238DF82C3003F101336233444896
:104F30000D930AA904F091FA08B1FEF72BFF0021A6
:104F4000AC2217A80BF03BFD02238DF85C30062342
:104F50008DF85F300323ADF8A8303A4B2B93012333
:104F60008DF8D830402339933748384B409317A9F0
:104F700005F001FA08B1FEF70DFF3348012105F0F5
:104F8000F7F91422002117A80BF019FD4FF4702334
:104F90004FF42032CDE9182303238DF868302C4BD1
:104FA0001C9317A82B4B1D9304F026FE08B1FEF7A7
:104FB000F1FE2548032105F05BFA08B1FEF7EAFE91
:104FC000214B95F90C2093F854100120FFF74CFD6C
:104FD00008B1FEF7DFFE204920480BF0EBF9204B2B
:104FE000204918601D480BF0E5F91F4B18601F4859
:104FF00043B0BDE8F04005F076BB00BFC8520020CA
:10500000914A03006C2D0400D85200204C2D04005E
:105010005C2D0400A34A0300805800209D4B030030
:1050200030310020AC5100209D4A03007C2D04004B
:10503000BC510020B0510020B2510020514B030060
:1050400038540020203100204C540020A14A030095
:105050009F4A03000D4D03006A2D0400652C0400D7
:10506000C451002002330400C0510020702D040000
:1050700073B5074E074D01910446338801AA2146B6
:10508000284604F08FF91328F7D0019802B070BDBC
:105090002C3100203031002007B5019101AA0146D2
:1050A000094805F067FB60B90198084B28B11A68F8
:1050B000121A1A6003B05DF804FB18604FF0FF305D
:1050C000F8E70020F6E700BF702D0400F85200203A
:1050D000014608B54FF6FE72034804F02DFA003879
:1050E00018BF0120404208BD3854002058B1436821
:1050F0004BB183683BB1C3682BB14078B0FA80F004
:105100004009404270474FF0FF307047F8B5054600
:1051100018461C46FFF7EAFF58B951B162B1A668BC
:1051200063782846B0470028A07018BF6FF00100D0
:10513000F8BD4FF0FF30FBE76FF00400F8E713B560
:1051400004460191FFF7D2FFF8B90122234601A9D5
:105150001046FFF7DBFFB0B9234601220DF1050130
:105160000220FFF7D3FF70B9234601220DF106019B
:105170000320FFF7CBFF30B9234601220DF10701D1
:105180000420FFF7C3FF02B010BD4FF0FF30FAE775
:1051900007B50246FFF7AAFF58B9C5238DF80430BA
:1051A00001A9134640200122FFF7B0FF03B05DF8CC
:1051B00004FB4FF0FF30F9E713B504468DF80720E4
:1051C000FFF794FFE0B9012914D0022906D061B994
:1051D000234601220DF10701322004E0234601227B
:1051E0000DF107011020FFF791FF2046FFF7D0FFD8
:1051F00002B010BD0A4623460DF107012120F2E757
:105200004FF0FF30F4E770B5054618461C46FFF72F
:105210006DFF50B949B1666863782846B0470028E9
:10522000A07018BF6FF0010070BD4FF0FF30FBE7BA
:1052300013B5002304468DF80730FFF757FF80B9F8
:10524000012223460DF107011046FFF7DCFF30B9BC
:10525000012223460DF107011046FFF757FF02B068
:1052600010BD4FF0FF30FAE710B50246FFF73EFFE2
:10527000044620B9D36808469847204610BD4FF031
:10528000FF34FAE737B50546FFF730FF80B9C5238D
:105290008DF8043001A92B4601224F20FFF736FF7D
:1052A000322104462846FFF7DFFF204603B030BD19
:1052B0004FF0FF34F9E713B5002304468DF80330AF
:1052C000FFF714FFD0B9234601220DF10301FFF7C8
:1052D0009AFF88B99DF80330CE2B12D12370204657
:1052E000FFF7D0FF40B914212046FFF7BDFF40F281
:1052F00007712046FFF723FF02B010BD4FF0FF30CB
:10530000FAE76FF00500F7E758B143684BB18368DF
:105310003BB1C3682BB10078B0FA80F0400940423D
:1053200070474FF0FF307047F8B5054618461C46E9
:10533000FFF7EAFF58B951B162B1A6682378284651
:10534000B0470028A07018BF6FF00100F8BD4FF003
:10535000FF30FBE76FF00400F8E71FB5044601914A
:10536000FFF7D2FFA8B99DF804309DF805201A4335
:105370009DF806301A439DF807301A438DF80F2028
:10538000234601220DF10F010320FFF7CDFF04B0EA
:1053900010BD4FF0FF30FAE71FB504460191FFF74B
:1053A000B3FFA8B99DF805309DF804201A439DF875
:1053B00006301A439DF807301A438DF80F2001225A
:1053C00023460DF10F011046FFF7AEFF04B010BDEC
:1053D0004FF0FF30FAE71FB56B4683E8060004463E
:1053E000FFF792FFC0B99DF801309DF800201A43E5
:1053F0009DF802301A439DF803301A439DF804309B
:105400001A438DF80F20234601220DF10F010220CF
:10541000FFF78AFF04B010BD4FF0FF30FAE71FB569
:1054200004460191FFF770FF90B99DF804309DF894
:1054300005201A439DF806301A438DF80F202346A5
:1054400001220DF10F010420FFF76EFF04B010BD23
:105450004FF0FF30FAE707B502468DF80710FFF767
:1054600053FF48B913460DF1070101220520FFF74C
:105470005BFF03B05DF804FB4FF0FF30F9E71FB5A9
:1054800004460191FFF740FF90B99DF805309DF863
:1054900004201A439DF806301A438DF80F20234646
:1054A00001220DF10F010720FFF73EFF04B010BDF0
:1054B0004FF0FF30FAE71FB56B4683E8060004465D
:1054C000FFF722FFC0B99DF801309DF800201A4374
:1054D0009DF802301A439DF803301A439DF80430BA
:1054E0001A438DF80F20234601220DF10F010820E9
:1054F000FFF71AFF04B010BD4FF0FF30FAE71FB5F9
:105500000246ADF80410FFF7FFFE80B99DF80510C4
:105510009DF804300B438DF80F300DF10F01134649
:1055200009200122FFF700FF05B05DF804FB4FF0F2
:10553000FF30F9E7F8B5064618460D461C46FFF75A
:10554000E3FE78B971B1237867683046B847A07038
:105550002B78002818BF6FF00100FF2B08BF6FF0F9
:105560000600F8BD4FF0FF30FBE713B50446FFF728
:10557000CBFEA0B92346012201A90920FFF7DAFFDB
:1055800058B99DF8043063F07F038DF80430012290
:10559000234601A90920FFF7C7FE02B010BD4FF056
:1055A000FF30FAE710B50246FFF7AEFE044620B919
:1055B000D36808469847204610BD4FF0FF34FAE7FD
:1055C00073B5002305460E468DF80730FFF79CFEA5
:1055D000D8B90DF107012B460122FFF7ABFF0A21D5
:1055E00004462846FFF7DEFF64B99DF807302046E1
:1055F0001E4301222B460DF107018DF80760FFF7CE
:1056000093FE0446204602B070BD4FF0FF34F9E728
:10561000F0B58BB0002305468DF8033008AE089333
:105620008DF824300593FFF76FFE002864D12B46D8
:1056300001220DF10301FFF77DFF0746002858D135
:105640002846FFF792FF002859D132212846FFF75C
:10565000A9FF394604462846FFF7B2FF78210443E4
:105660002846FFF7F8FE4FF4C463ADF80430019903
:105670002846FFF744FF64B204434FF432512846F2
:10568000FFF76BFE4FF42253ADF8083002238DF87C
:105690000A3064B2029904432846FFF7C0FE4FF473
:1056A0002053ADF80C308DF80E7064B203990443AA
:1056B0002846FFF7E4FE134B8DF81C7064B21946C0
:1056C000079A069304432846FFF7F5FE08238DF852
:1056D000213064B296E8060004432846FFF77BFEBB
:1056E00064B2044305992846FFF756FE64B20443AA
:1056F00067B238460BB0F0BD4FF0FF37F9E76FF0F7
:105700000507F6E70040200873B5002306460C465F
:105710008DF80730FFF7F8FD08BB0DF107013346A0
:105720000122FFF707FF0A2105463046FFF73AFF3F
:1057300095B99DF807309A092270C3F30012627080
:10574000C3F3C002A270C3F38002E270C3F340024D
:1057500003F0010322716371284602B070BD4FF05F
:10576000FF35F9E773B5002306460C468DF8073080
:10577000FFF7CAFDE0B901220DF1070133461046DB
:10578000FFF7D8FE0A2105463046FFF70BFF65B943
:105790009DF80730DA092270C3F380126270C3F3F8
:1057A0004012C3F30013A270E370284602B070BD2C
:1057B0004FF0FF35F9E710B50246FFF7A5FD0446A7
:1057C00028B91369517008469847204610BD4FF01C
:1057D000FF34FAE7F7B580238DF80630002304463E
:1057E0000D468DF80730FFF78FFD00284ED10121BF
:1057F00020466678FFF7DFFF14212046FFF7D2FE30
:105800000DF10601234601220A20FFF78DFD02213A
:1058100007462046FFF7C6FE47B16FF00107314645
:105820002046FFF7C8FF384603B0F0BD23460122EB
:105830000DF107010A20FFF77DFE07460028ECD195
:105840009DF80730C3F34112022AC3F382030ED03E
:10585000032A0ED0012A0CBF46223C22013B062B14
:105860000AD8DFE803F0080B0D0D0F0F11005022CE
:10587000F4E75A22F2E702322A70D0E70432FBE75B
:105880000632F9E70832F7E70A32F5E74FF0FF375B
:10589000C9E738B50546FFF737FD044668B90A2160
:1058A0002846FFF77FFE21462846FFF784FF142194
:1058B0002846FFF777FE204638BD4FF0FF34FAE761
:1058C00038B50546FFF720FD044668B90A21284689
:1058D000FFF768FE01212846FFF76DFF14212846D7
:1058E000FFF760FE204638BD4FF0FF34FAE70000B6
:1058F00008B5034B01211878FAF79EFF40B208BDA6
:10590000A458002013B592B20092024604480C46F7
:10591000007819462346FAF7B1FF02B010BD00BF68
:10592000A458002013B592B20092024604480C46D7
:10593000007819462346FBF705F802B010BD00BFFA
:10594000A4580020FAF71ABD012208B511461C2000
:10595000FBF730FB40B208BD012808B502464FF006
:10596000010128BF01221C20FBF724FB40B208BD27
:1059700007B50C4B0C4918700B6001234B6001AB51
:1059800000228B600948ADF804200223CB60FCF7AD
:1059900039FF10B106480AF0AFFD9DF8050003B0CD
:1059A0005DF804FBA5590020AC5A00204C2E0400E1
:1059B0008C2D04002DE9F041124E144680460F460E
:1059C0004FF48272002130461D460AF0F8FF30463F
:1059D0002246394600F8018B0BF01AF90A49BDF846
:1059E00018300A480E6001340022C1E90145CB603D
:1059F000FCF708FF18B106480AF07EFD0320BDE859
:105A0000F08100BFA5590020AC5A00204C2E0400A4
:105A1000AC2D040037B500240546009423462246E9
:105A200021460620FFF7C6FFB5F5001F2ED2194B01
:105A30004FF48272214618460AF0C1FF202216490F
:105A400002702A0C42702A0A8270C5700860042312
:105A50001248CC602246C1E90134FCF7D3FE28B1DC
:105A60000F480AF049FD032003B030BD0520FFF7C1
:105A70007FFFC307FAD42B20FFF77AFF10F0600FE7
:105A800006D008480AF038FD0820EDE70120EBE7D2
:105A90000720E9E7A5590020AC5A00204C2E04004D
:105AA000C72D0400E52D040038B5036A8B42054676
:105AB0000C4602D20720FEF76DF9E8696043FFF754
:105AC000A9FF002038BD00002DE9F341002407465E
:105AD0000E46154600942346224621460620FFF72F
