:020000023000CC
:1000000000F800208DA70300B5A70300193B0300EB
:10001000B9A70300BBA70300BDA7030000000000B1
:10002000000000000000000000000000BFA7030067
:10003000C1A7030000000000C3A703007913030059
:10004000F9230300C7A703007D380300F92A030042
:10005000092B0300C7A70300CD210300FD380300CF
:10006000C7A70300C7A703008D290300C7A7030084
:10007000C7A70300C7A70300C7A70300C7A70300BC
:10008000C7A703003D9E0300C7A70300C7A703003F
:10009000D99E0300C7A703009D3F0300C7A7030025
:1000A000C7A70300C7A70300A1290300B5290300C0
:1000B000C7A70300C7A7030000000000000000005E
:1000C000C7A70300C7A70300C7A7030009240300AD
:1000D000111D0300C7A70300C7A70300000000000D
:1000E0000000000000000000000000000000000010
:1000F0000000000000000000000000000000000000
:1001000000000000000000000000000000000000EF
:1001100000000000000000000000000000000000DF
:1001200000000000000000000000000000000000CF
:1001300000000000000000000000000000000000BF
:1001400000000000000000000000000000000000AF
:10015000000000000000000000000000000000009F
:10016000000000000000000000000000000000008F
:10017000000000000000000000000000000000007F
:10018000000000000000000000000000000000006F
:10019000000000000000000000000000000000005F
:1001A000000000000000000000000000000000004F
:1001B000000000000000000000000000000000003F
:1001C000000000000000000000000000000000002F
:1001D000000000000000000000000000000000001F
:1001E000000000000000000000000000000000000F
:1001F00000000000000000000000000000000000FF
:100200000348044B834202D0034B03B118477047A5
:100210005C3300205C330020000000000548064BE2
:100220001B1AD90F01EBA301491002D0034B03B1F4
:10023000184770475C3300205C330020000000004A
:1002400010B5064C237843B9FFF7DAFF044B13B11E
:100250000448AFF300800123237010BD60330020F9
:1002600000000000643D040008B5054B1BB10549C2
:100270000548AFF30080BDE80840FFF7CFBF00BFDF
:100280000000000064330020643D0400A3F5803AC0
:10029000704700BF174B002B08BF134B9D46FFF75D
:1002A000F5FF00218B460F461348144A121A10F02E
:1002B00072FB0E4B002B00D098470D4B002B00D04B
:1002C00098470020002104000D000D48002802D0AE
:1002D0000C48AFF3008010F001FC200029000EF064
:1002E00093F90FF0C9F900BF0000080000000000FA
:1002F0000000000000F800206033002018A000205B
:100300000000000000000000BFF34F8F0549064BBE
:10031000CA6802F4E0621343CB60BFF34F8F00BFA3
:10032000FDE700BF00ED00E00400FA0504280BD053
:10033000052812D1094A1378FF2B1DBF137801330A
:10034000DBB2002313707047044B1A78044BD3F8C8
:10035000043543EA0263034A136070477C3300208C
:10036000004002408033002008B500F0BDFD024887
:1003700004F000FE08BD00BF9430002038B50446EC
:1003800038B1044D45F001054FF47A40A847013CCF
:10039000FAD138BD702B040008B50449044B4FF462
:1003A0004032C3E90112FFF7AFFF00BF434F494E90
:1003B00000F8002050B1082303711123038040F29C
:1003C0005913C38010234380002070476FF008004A
:1003D000704708B500F05EFDBDE80840012104F05B
:1003E00019BD000013B50D4B0D4A186800909B888D
:1003F0000C48ADF80430694601F020FC044650B9C1
:100400000848012101F068FC0648012101F072FC56
:10041000044801F055FC204602B010BD982B0400A2
:100420002D030300902B0400022808B50A460BD8C0
:10043000074B084903EBC00002F0ECF9002814BF99
:100440006FF01300002008BD6FF01400FBE700BF41
:10045000782B040000300020022813B516D80D4A6E
:1004600052F8303002EBC004D3F810250901012303
:10047000D2B221FA02F200930021204602F071FA72
:10048000204602F02FFA002002B010BD6FF01400D9
:10049000FAE700BF782B0400022810B50BD8074CF0
:1004A00004EBC004204602F037FA10B1204602F0F7
:1004B00027FA002010BD6FF01400FBE7782B040032
:1004C0004FF0FF3070474FF0FF3070476FF025005E
:1004D00070476FF01700704708B54FF01023D3F83E
:1004E0000022013203D1D3F80432013325D0134B5B
:1004F0000122C3F80425D3F80024002AFBD04FF0D2
:1005000010224FF0FF31C2F80012D3F80024002A65
:10051000FBD04FF010234FF0FF32C3F80422074BFB
:10052000D3F80024002AFBD00022C3F80425D3F816
:100530000024002AFBD0FFF7E7FE08BD00E00140E1
:1005400008B54FF01023D3F80C32DB071DD50F4B45
:100550000122C3F80425D3F80024002AFBD04FF071
:100560001022D2F80C3223F00103C2F80C32074BF0
:10057000D3F80024002AFBD00022C3F80425D3F8C6
:100580000024002AFBD0FFF7BFFE08BD00E00140B9
:100590000278034B12B901221A7070470222FBE75E
:1005A0006C3000200278034B12B901225A70704758
:1005B0000222FBE76C3000200128F8B504461FD862
:1005C000104E335CE3B1104D05EBC005284602F038
:1005D00041FB0E4A0E4952F82420002301EB04117E
:1005E0002846335502F098FA0746284602F006FBE3
:1005F00027B1BDE8F84007480FF002BF012333558B
:10060000F8BD00BF36360020CC2B0400C42B0400FC
:100610004C3000209E2B040001282DE9F0410446B7
:1006200074D83D4E335C002B73D1302963D03ED853
:100630000639CBB2122B55D80E2953D8DFE801F07A
:10064000555208520852085252520852525208004B
:100650004FF08043314F324807EB04152946AB6019
:1006600000232A7300EBC4001A464FEA041801F075
:10067000F7FE002845D117F808200123335502F56D
:10068000E0724FF0A04340F2033143F822106A7841
:1006900002F5E07240F20F3143F82210AA7802F519
:1006A000E0724FF4417143F82210BDE8F0817829DF
:1006B0001ED011D850291ED009D832291BD03C2970
:1006C00008BF4FF0805318BF4FF00053C2E76429B2
:1006D00008BF4FF00063F6E7C8290FD0F0290DD00E
:1006E0009629F5E74FF00053B4E74FF00043B1E728
:1006F0004FF00063AEE74FF08053ABE74FF08063FD
:10070000A8E7002333556FF00200CEE76FF00B002F
:10071000CBE76FF00C00C8E7343600202C30002007
:10072000B42B0400012838B504460AD8084D2B5CC8
:1007300053B1084800EBC40001F070FF00202855B9
:1007400038BD6FF00B00FBE76FF00D00F8E700BF5E
:1007500034360020B42B04002DE9F04704468846C7
:100760001AB1012A0BD0022A12D0012C4ED8294EE0
:10077000335D03F0FF099BB10020BDE8F087264AF6
:1007800002EB001103010F2048601021D150ECE76B
:10079000214A02EB00110301162048601721F5E7FA
:1007A0001D4800EB04154FF0A0436A6802F5E072A3
:1007B00040F20C71270143F82210C259174F02F57D
:1007C000E07207EBC40A43F82210154A4B4652F870
:1007D00024202946504602F09FF990B9504602F075
:1007E0000DFAB8F1000F09D14FF0CC7357F834204F
:1007F000AB60C2F8243501233355BDE74FF0C86321
:10080000F4E706F804906FF00200B6E76FF00F000F
:10081000B3E700BF363600204C300020CC2B04005C
:10082000C42B04000022FFF797BF0000012870B519
:1008300004460ED80A4E335C73B10A4D05EBC00571
:10084000284602F0EBF9284602F004FA0020305561
:1008500070BD6FF00F00FBE76FF01000F8E700BF0E
:1008600036360020CC2B04002DE9F04186B000AFD5
:1008700016463A8E0D46194602F108030446DB0877
:100880006846A0EBC303012C02F101089D4642D843
:10089000244B1B5D002B41D0684600F8016B10F023
:1008A0009FF914220021381D10F075F8012C7D717C
:1008B000C7F80880C7F810D005D11B4D284602F0B4
:1008C00005FA0028FAD11948194E00230122391DD2
:1008D00000EBC400335502F003FA054600F02AFE8F
:1008E000386000F027FE3B68C01AB0F57A7F01D26D
:1008F000335D6BB1335D012B02D02046FFF75CFE08
:10090000281E18BF012040421837BD46BDE8F081BF
:100910000AF01CFCE5E76FF00F00F5E76FF0100040
:10092000F2E700BF36360020D42B0400CC2B0400A5
:100930006C30002070B588B0012805468DF807207E
:100940003AD8204A125C002A39D002228DF80C20B5
:1009500001220492BDF8302005921B4E8DF80D1037
:100960000DF10702CDE90623002333541748122264
:1009700003A900EBC50002F0B3F9044600F0DAFD6C
:10098000029000F0D7FD029BC01AB0F57A7F01D229
:10099000735D4BB1735D012B09D02846FFF70CFE48
:1009A0006FF0010008B070BD0AF0D0FBE9E7201E2F
:1009B00018BF01204042F5E76FF00F00F2E76FF03B
:1009C0001000EFE7363600206C300020CC2B0400FE
:1009D000F0B5012887B005460F4614461E462FD8AD
:1009E0001A4B1B5C7BB31422002101A80FF0D3FF2C
:1009F00017480296174E04940023012201A900EB28
:100A0000C50073558DF8057002F06AF9044600F0D0
:100A100091FD009000F08EFD009BC01AB0F57A7F2A
:100A200002D2735D002BF5D0735D012B02D02846F6
:100A3000FFF7C2FD201E18BF0120404207B0F0BDE5
:100A40006FF00F00FAE76FF01000F7E7363600207E
:100A5000CC2B04006C300020F0B5012887B005468F
:100A60000F4614461E4634D81D4B1B5C002B33D05A
:100A7000122200210DF106000FF08DFF1948029699
:100A80000123194E8DF804300222002301A900EB46
:100A9000C500735504948DF8057002F021F90446E1
:100AA00000F048FD009000F045FD009BC01AB0F535
:100AB0007A7F02D2735D002BF5D0735D012B02D0DB
:100AC0002846FFF779FD201E18BF0120404207B0DD
:100AD000F0BD6FF00F00FAE76FF01000F7E700BF0E
:100AE00036360020CC2B04006C3000202DE9F04F6E
:100AF00085B000AF0128B7F838B0BB60FA7363D88F
:100B0000344B1B5C002B62D0334B5D5C6B1EDBB245
:100B1000FD2B26D84FF0A04305F5E072032143F8E2
:100B20002210DFF8BC9001224FEA001A02FA05F504
:100B300007F10F01C3F80C5549F80A10274909EBD2
:100B4000001401EBC0086260214600224046C4E95F
:100B5000022201F0A5FD064648B14FF0A043C3F8BC
:100B600008554FF0FF301437BD46BDE8F08FC4E99B
:100B700001B0BB68E06002462146404649F80A30B1
:100B800001F08EFD102816D10BF107036A46DB0831
:100B9000A2EBC303C7F804D09D46B9685A4668461D
:100BA00010F01EF832462146404649F80AD001F0BE
:100BB00077FDD7F804D000384FF0A04318BF0120CC
:100BC000C3F808554042CEE76FF00B00CBE76FF05B
:100BD0000D00C8E734360020C3300020B42B0400D9
:100BE000143600202DE9F34701281F468DF8072011
:100BF00045D8264B1B5C002B44D0254B5D5C6B1EFF
:100C0000DBB2FD2B24D805F5E073DFF88C804FF0C4
:100C1000A046032246F8232008EB0014012303FA20
:100C200005F5C6F80C5563601A4B4FEA00190DF133
:100C3000070203EBC00A48F809202146002250466B
:100C4000C4E9022201F02CFD024630B1C6F8085575
:100C50004FF0FF3002B0BDE8F087C4E9010748F863
:100C60000900BDF82830E3602146504601F018FD28
:100C7000003818BF0120C6F808554042EAE76FF077
:100C80000B00E7E76FF00D00E4E700BF343600200B
:100C9000C3300020B42B040014360020BFF34F8F64
:100CA0000549064BCA6802F4E0621343CB60BFF308
:100CB0004F8F00BFFDE700BF00ED00E00400FA0524
:100CC00004230B7070470000024B53F8203003B12F
:100CD00018477047FC3C002010B50220FFF7DCFBF2
:100CE0001A4B00241C601A4B1C601A4B19781C709C
:100CF0000229CAB20CD0032A23D0012A25D11648D2
:100D000004F0D5FA1448322104F0EEFAFFF7C6FFDA
:100D100012480FF0DDFB01210F4804F0C0FB0A214F
:100D20000D4804F0E1FA20210B4804F0EBFA0A2107
:100D3000094804F0D9FA21460748BDE8104004F0FC
:100D4000AEBB074B074A5A60E0E710BDF43C0020F9
:100D5000F03C0020F83C0020A4300020DC2B0400F4
:100D600000F80020424F4F547FB5294800238DF8EA
:100D70000F304378012B01D104F070FC244804A902
:100D800004F05FFB9DF8103013B9214804F0E6FC35
:100D90001F480DF10F0104F001FC78BB9DF80F0016
:100DA0000DF09CFF18A3D3E900230EF001F8194BB6
:100DB00000220EF027F9184B00220DF0F9FF0EF07B
:100DC00091FA80B207EE900ADFED146A144AF8EE49
:100DD000677A87EEA67AF0EE087A37EE677ADFED6B
:100DE000116AC7EE267A9FED107A67EE877AFCEEDD
:100DF000E77ACDED017A9DF80430137007B05DF805
:100E000004FB00BFAFF30080CDCCCCCCCCCC1040E9
:100E1000A43000200000594000408F4000007A4478
:100E2000EC3C00209899993F0000C84207B5002388
:100E300001A90348019304F041FB03B05DF804FBF2
:100E4000A430002070B50E4B0E4D1B680E4C2B606D
:100E500023780E4E3BB12B6832689B1AB42B0ED907
:100E60000220FFF719FB2B68336023780849013310
:100E7000DBB22370BDE870400220FFF7EDBA70BD11
:100E8000843D0020F43C0020F83C0020F03C002091
:100E900040420F00014B1878704700BFEC3C002027
:100EA00008B50E490E4807F0DFFFB0B10D480FF04E
:100EB0000FFB0A490A4807F073FF002802DA0320F3
:100EC00002F004FE0549064807F0CEFF002804DAC8
:100ED000BDE80840032002F0F9BD08BD102C040055
:100EE000CC3A0020F02B040008B5054807F0BAFF03
:100EF000002804DABDE80840032002F0E7BD08BD81
:100F0000CC3A002030B5144B1B5C581EC0B2FD28F3
:100F10001ED861B9002A0CBF0122032203F5E07339
:100F20004FF0A041920041F82320002030BD01295C
:100F3000FBD14FF0A04003F5E074032540F82450A6
:100F4000994012B9C0F80C15EFE7C0F80815ECE7A6
:100F50004FF0FF30EAE700BFC3300020114B185CB0
:100F6000431EDBB2FD2B17D85AB9C1B100F5E070B2
:100F70004FF0A04353F8203003F001030B70002022
:100F800070474FF0A043D3F81035C34003F001037E
:100F900013700029F3D0E9E74FF0FF3070476FF08E
:100FA00008007047C330002038B50F4B1C5C631E2F
:100FB000DBB2FD2B0D4616D81AB90C4B03221A7062
:100FC00005E0012A01D1094BF9E7022AFBD0084AC2
:100FD0000649204600F0E8FF0121204601F05AF8BA
:100FE000044B43F8245038BDC3300020C0300020EB
:100FF000C90C0300FC3C00207FB50546C1B10B685D
:101000004DF6C022934200F0B18074D8B3F5615F11
:1010100000F0A1805BD8B3F5965F00F0998050D8BE
:10102000B3F5966F00F08B80B3F5166F00F08C80EF
:10103000884B0093884B0193884B1B680293884B25
:101040001B788DF80C3000F033FC041E18BF01240F
:101050000020640000F05CFD08B144F004040020AE
:1010600000F042FC002000F0C7FC00F0B9FC18B909
:1010700000F0FCFC0028F8D0FFF7B4F908B144F008
:1010800020044FF0E0234FF6FF125A61754AE02129
:1010900082F82310002607229E611A6100F050FF9B
:1010A000714B01461B68002875D0586831460FF017
:1010B00017FA14F0060F75D16FF01804204604B02B
:1010C00070BDB3F5165FB3D1684B694A3AE047F695
:1010D0001222934246D008D8B3F5964F3FD0B3F5CD
:1010E000E14FA5D1614B634A2CE0B3F5164F9FD178
:1010F0005E4B614A26E0614A934241D012D8B3F573
:10110000E13F3AD008D8B3F5614F33D0B3F5963FFD
:101110008ED1564B5A4A15E0B3F5613F88D1534BF7
:10112000584A0FE0B3F5612F2ED0574A93422ED084
:10113000B3F5E12F7FF47CAF4C4B544A02E04B4BAC
:101140004FF49E221A6073E7484B4FF41D22F9E7D3
:10115000464B4F4AF6E7454B4FF46C12F2E7434BD0
:101160004C4AEFE7414B4FF40002EBE73F4B4FF4A3
:101170006502E7E73D4B484AE4E73C4B474AE1E775
:101180003A4B4FF08062DDE7384B454ADAE7374BA0
:101190004FF08052D6E758680FF0A2F934B114F03E
:1011A000060F00D0FEE714F4F87F85D104F000FBB1
:1011B00004F02AFB3B4804F0CDF83B490120FFF73F
:1011C00033F900287FF478AF2F490120FFF744F965
:1011D000364803F012FFFFF77FF935490220FFF789
:1011E00023F9044600287FF467AF014601221B2043
:1011F000FFF788FE1B202F490222FFF7D5FEFFF7DD
:101200009FF9204604F02EFD08BB022D02D168464E
:1012100003F036FC002206211046FFF7FDF90446D4
:1012200000287FF449AF04F0C7FCFFF739FE022D18
:1012300001D008F0ADFF204A2048012108F0D8FF76
:1012400000224FF420311E4808F0E4FF36E76FF02B
:101250002A0433E7C10C0300D3030300803D0020C0
:10126000E430002000ED00E098310020BC30002088
:101270000050270000F0750000509D0090D0030042
:1012800000903A0100B0AF0340420F0000705F07CA
:1012900000B0130000A04E0000F0EB0000E0D7010A
:1012A00000D0BE0EA4300020690D03009430002051
:1012B000D90C0300450E03002D0E0300682C04001A
:1012C000CC3C002010B5094A145C621ED2B2FD2A43
:1012D0000BD8074A002142F82010204600F040FFBA
:1012E0002046BDE8104000F019BF10BDC3300020FB
:1012F000FC3C002010B560B909490A4C0A882388D3
:1013000092B29BB29A4203D220880B88C01A80B254
:1013100010BD022802D1044B1868F8E70020F7E757
:101320005C4B00205E4B002074430020022803BF6A
:10133000024B1878C0B20020704700BF893D0020E2
:101340000346084611460BB904F0E4BC022B01D158
:1013500003F030BD704708B50346084611461BB977
:10136000BDE8084004F0AABC022B03D103F036FD0F
:1013700080B208BD0020FCE7024A13680133136005
:10138000704700BF843D0020431E012B70B50D4601
:1013900014460BD8002603E0012104F0BBFC013603
:1013A000A64205EB0600F7DB204670BD0338042893
:1013B000FAD813460A460449542404FB0011BDE838
:1013C0007040024807F0B8BED4380020CC3A002064
:1013D00070B504461346084674B90E4D0E492C8864
:1013E0000A88A4B292B2A41A9C42F8DB99B204F023
:1013F00065FC0346184670BD033C042CFAD80A4627
:101400000649542000FB0411BDE87040044807F071
:101410005FBE00BF5E4B00205C4B0020D438002034
:10142000CC3A0020F7B50E461A4905460FF07EFB70
:1014300030B9002E0CBF09240824204603B0F0BDAB
:10144000154F3B68052B02DD4FF0FF34F5E7134ADB
:101450000023D15CA9B90121D154DC1C104BE21E40
:10146000542101FB02310F4B00937EB901230E483A
:101470002A4607F0FBFD0028E6DB3B6801333B60B2
:10148000DBE70133052BE4D10024E7E740F2031347
:10149000EDE700BF072C0400C8380020CC3800203E
:1014A000D43800205C2C0400CC3A00200B4B10B543
:1014B0005421C41E01FB0431094807F0F1FD002846
:1014C000A1BF084B084A00201855A3BF136803F1B9
:1014D000FF3313604FF0FF3010BD00BFD438002041
:1014E000CC3A0020CC380020C83800204FF0FF3024
:1014F00070474FF0FF3070474FF0FF307047704734
:101500004FF0FF3070470000B1FA81F252095242A9
:10151000012808B5D2B202D0022800D020B9014675
:10152000034803F0EBFC08BD6FF00700FBE700BFCA
:1015300094300020014B1868704700BF843D0020A4
:101540004FF0E02370B59869D3F8042D144D154E73
:1015500003F55063510158BF5B6A296854BFC3F358
:10156000C02301234FF0E0247268520156BF726A13
:101570000122C2F3C022934210D12A689142F3D1D2
:10158000A2698242F0D86269121A0B44C2F38B122C
:101590004FF47A7000FB0320002170BD1346E3E78F
:1015A000843D002000ED00E007B580238DF8043075
:1015B000B1F5487F4FF000038DF806300FD9A1F543
:1015C00048716423B1FBF3F1C9B289008DF80510AD
:1015D0000199054803F0F5FD03B05DF804FB09B976
:1015E0008DF804100021F0E7A4300020704713B5F7
:1015F000002304460DF107008DF8073002F02CFAA5
:1016000004B1A0479DF8070002F04AFA02B010BDED
:101610004FF0704393F8E02F062A10D1D3F8E42F4F
:1016200012070CD1D3F8E80F00F0F003302B08D0EC
:1016300000F0E000A0F140035842584170470020FC
:101640007047012070474FF0704393F8E02F062A4F
:101650000CD1D3F8E42F120708D1D3F8E80F00F02B
:10166000F000A0F130035842584170470020704705
:1016700008B5FFF7CDFF40B14FF080536C4AD3F867
:101680002433C3F30423C2F84035FFF7DCFF10B165
:10169000684B694A5A67FFF7BBFF48B14FF0805368
:1016A0004FF08042D3F84432C3F34233C2F83C35A2
:1016B000FFF7C9FF30B1614AD2F8FC3023F08073E4
:1016C000C2F8FC30FFF7A4FF40B14FF08043002286
:1016D000C3F80C21C3F81021C3F83825FFF7B3FF76
:1016E00020B14FF080430322C3F8A025FFF7ABFFE2
:1016F00060B1534B0522C3F810260122C3F8882697
:101700000022C3F818263F22C3F814264FF0704376
:1017100093F8E02F062A50D1D3F8E42F11074CD1CB
:10172000D3F8E83F03F0F003502B46D14FF080523E
:10173000444BD2F80414C3F82015D2F80814C3F8A7
:101740002415D2F80C14C3F82815D2F81014C3F8D5
:101750002C15D2F81414C3F83015D2F81814C3F8A5
:101760003415D2F81C14C3F84015D2F82014C3F86D
:101770004415D2F82414C3F84815D2F82814C3F835
:101780004C15D2F82C14C3F85015D2F83014C3F805
:101790005415D2F83414C3F86015D2F83814C3F8CD
:1017A0006415D2F83C14C3F86815D2F84014C3F895
:1017B0006C15D2F84424C3F87025FFF729FF48B10F
:1017C0004FF080534FF08042D3F8583203F04F036C
:1017D000C2F8E43EFFF71CFF48B14FF08043D3F856
:1017E0000024D20744BF6FF00102C3F800244FF079
:1017F0008053D3F83021062A0AD1D3F83431062B8E
:1018000001BF114AD2F83C3743F48063C2F83C3739
:101810000A4AD2F8883043F47003C2F88830BFF324
:101820004F8FBFF36F8F094B094A1A6008BD00BF85
:101830000030014000C007400DF0ADBA00ED00E0FF
:101840000050004000C00040001000400C3100205B
:101850000090D00342DF704744DF704738B5074C33
:10186000051E04F1080318BF1C4623682BB11A6833
:1018700022605B6828469847F7E738BD244000207F
:1018800020B9054B01225A70FFF7E8BF012802D1A9
:10189000014A9070F8E770471C40002020B9034BC4
:1018A00001225A70FFF7DABF704700BF1C400020CA
:1018B00038B50B4C237883B90A486360A360236171
:1018C000E36000F07FFA054602F04EFB08B900F035
:1018D00085FA01232370284638BD8525FBE700BF24
:1018E0001C4000208118030037B5184CA37805462A
:1018F00003F0FF029BB110B1436801209847002319
:101900000DF107008DF8073002F0A6F8E368013307
:10191000E3609DF8070002F0C3F803B030BD0DF19D
:1019200007008DF8072002F097F825B122691346C9
:101930003BB92A602561E368002BE7D100F066FA25
:10194000E4E79D42F7D01B68F2E700BF1C4000208F
:1019500037B50B4C00230DF107008DF8073002F06E
:101960007BF8E368013BE360E56815B900F076FABF
:10197000A5709DF8070002F093F803B030BD00BFDA
:101980001C400020012813B508D003281CD018B92A
:10199000114B0122C3F8802002B010BD0F4C002370
:1019A0000DF107008DF8073002F056F823780BB9D7
:1019B000FFF77EFFE3689DF807000133E360012332
:1019C000A37002F06DF8E7E700F008FA02B0BDE896
:1019D0001040FFF7BDBF00BF00E100E01C40002049
:1019E00008B502F0C1FA28B94FF08043D3F81804C3
:1019F000C0F3004008BD000037B51B4C63780546B6
:101A000003F0FF029BB110B1436800209847002308
:101A10000DF107008DF8073002F01EF863680133FE
:101A200063609DF8070002F03BF803B030BD0DF194
:101A300007008DF8072002F00FF825B1A2681346C1
:101A400053B92A60A5606368002BE7D102F08CFAD5
:101A500030B1FFF7FFFEE1E79D42F4D01B68EFE7EE
:101A600000F005FADAE700BF1C40002007B502F0DD
:101A70007BFA48B101A8FFF7EFFE0198003818BFC4
:101A8000012003B05DF804FB4FF08043D3F80C0451
:101A900000F00110A0F1011358425841F1E736DF80
:101AA0007047012810B504D100F04EFCBDE810408D
:101AB000004710BD012813B5044603D0032813D0F6
:101AC00002B010BD00230DF107008DF8073001F0C2
:101AD000C3FF00F039FC10B12046FFF7E0FF9DF88E
:101AE000070001F0DDFFEBE7084BC02283F800237D
:101AF0000122C3F880211A6000F026FC0028DFD004
:101B00004FF080430422C3F80423D9E700E100E04A
:101B100038B50B4D2B7804466BB902F025FA60B945
:101B2000084B002C14BF2046184600F013FC08B9DF
:101B300001232B7038BD8520FCE70820FAE700BFA1
:101B4000304000206C2C04001FB503788DF8003065
:101B500043680193037A8DF80830C368054A0393FC
:101B6000054B684653F8213052F82110984705B0CC
:101B70005DF804FB34400020384000201FB5037896
:101B80008DF800304368019383688DF80830C3688E
:101B9000054A0393054B684653F8213052F821104B
:101BA000984705B05DF804FB344000203840002021
:101BB000F0B5194B90F800C091F81DE043F82C20C7
:101BC000164B16460A6943F82C20154B0C4603F8B1
:101BD0000CE007460FCC89B06D460FC594E80F00A6
:101BE00085E80F00CDF810C0BEF1000F09D0002E1F
:101BF0000C4A694608BF3246381D01F03FFA09B069
:101C0000F0BD002E084A694608BF324607F10C00B5
:101C100001F0AAFCF3E700BF384000203440002068
:101C200031400020491B03007D1B0300002343506B
:101C300082B043580193019B02B07047F0B51D4B31
:101C400044791D4E43F8242004EB44036500F35C03
:101C500073BB90F904308A78002BADBF03F1604765
:101C6000164F03F00F0C07F561474FEA4212D2B24C
:101C7000B4BF07F80C2087F8002303F01F025B09AC
:101C80009B0003F1604303F56143012707FA02F269
:101C9000C3F880211A6003680A88C3F808252B1945
:101CA000F2180879F754C978507091700020F0BD8F
:101CB0000820FCE7404000203C40002014ED00E0FC
:101CC000036801221A604379024A03EB43030221AD
:101CD000D15470473C40002008B500680A464FF4D4
:101CE0008071FFF7A3FF0123C0F844330AB1C0F8A5
:101CF000043308BD08B500680A464FF48271FFF747
:101D000095FF0223C0F844330AB1C0F8043308BD7C
:101D10002DE9F041234E244FDFF8908000254FF449
:101D20008034D7F8043323420FD033686BB1A6F563
:101D30008041C7F848433846C7F8084389B2FFF7DF
:101D400075FFD8F80030E8B298470135042D4FEA06
:101D5000440406F10406E4D1134CD4F80433DA0742
:101D60000BD5D4F8003143B120464FF48071FFF712
:101D70005DFF0E4B28461B689847D4F804339B0739
:101D80000DD5D4F8043153B107484FF48271FFF7F1
:101D90004DFF064BBDE8F0411B6805201847BDE824
:101DA000F08100BF4041024000400240404000201E
:101DB00000F18040002382B0036003680193019B1F
:101DC00002B07047044B0246187918B91A60012214
:101DD0009A8070478520704748400020094B1A6858
:101DE000D20706D4C02283F800230122C3F8802141
:101DF0001A604FF080420123C2F81835024A13706E
:101E0000704700BF00E100E04440002038B54FF4C7
:101E10008270FFF7CDFF4FF080430222C3F8042306
:101E20000C4AD2F8FC0040F08073C2F8FC300A4B38
:101E30001C6844F0010119605D685968491BB1F5DF
:101E40000A5FFAD31C604FF08043C2F8FC00012205
:101E50009A6038BD00ED00E0001000E04FF08043D4
:101E60000122DA60D3F81824D203FBD4704708B5F6
:101E70004FF48070FFF79CFF4FF080430122C3F8BE
:101E800004231A6008BD00004FF0804110B5D1F85E
:101E9000003163B14FF48070FFF78AFF0D4B587922
:101EA0000122C1F8082310B95A711B6898474FF0F6
:101EB0008042D2F8043163B14FF48270FFF778FFAB
:101EC0000223C2F80833034BBDE810401B68012011
:101ED000184710BD4840002000F1804000F5C04088
:101EE000002382B0036003680193019B02B0704736
:101EF000800000F1A040D0F8003723F44033C0F850
:101F00000037D0F8003743EA0143C0F80037704784
:101F1000C208012300F007008340885C03438B5410
:101F200070470000054B4FF0FF32072843F8202090
:101F300084BF1B1883F84820704700BF5040002022
:101F400038B5154D95F8584024BB2022FF2105F1E6
:101F500030000EF020FDE0B20134FFF7E3FF0C2C5F
:101F6000F9D10E4B00221A600D4BC02183F80613E5
:101F70004021C3F880114FF4BE701960FFF7ACFF29
:101F8000084B4FF00041C3F80413012385F8583083
:101F9000104638BD0820FCE750400020A440002037
:101FA00000E100E0006000402DE9F041DFF8E08052
:101FB00008EB0003044693F93030002B0F4663DA38
:101FC0008978C1F34001002915BF002308230826A2
:101FD0000C26B34202D10420BDE8F08158F823005A
:101FE00001304FEA83053AD108EB04005EB248F8AD
:101FF000232080F8306011B9434483F84840BB780F
:1020000059070ED4DA072CD5A30003F1A043D3F867
:10201000002722F00202C3F800271C492046FFF7E0
:1020200077FFBB783A789B0724D505F1804303F509
:10203000C0432402D3F8101521F4473121F4407134
:10204000C3F810151204D3F8101504F4F85402F470
:10205000403214430C43C3F810450020BCE7013361
:10206000B7E77A7804F5E0734FF0A041920041F8A9
:102070002320D2E7083E48FA86F696F8503043EA25
:10208000821386F85030E8E70820A5E7A440002036
:102090005040002010B51F4C231893F93020072A18
:1020A00018DD083A44FA82F292F850309B09032B6B
:1020B0000BD14FF0A043D3F81015C14001F001013E
:1020C0000231BDE81040FFF713BF012B0CBF022106
:1020D0000321F6E7D3B2072B1AD8930003F180430C
:1020E00003F5C043D3F8100540F00100C3F8100514
:1020F00002F1400040B2800080B2FFF7EDFE39B13E
:1021000054F8223023B101239340034AC2F8043328
:1021100010BD00BF50400020006000400E4B034443
:1021200093F93020072A02DD0021FFF7E1BED3B288
:10213000072B0FD8930003F1804303F5C043D3F876
:10214000101521F00101C3F8101501239340034A33
:10215000C2F80833704700BF5040002000600040C4
:10216000F8B50446FFF7DAFF15490A1992F930303D
:1021700092F83020072A9FBF124A03F5A27300206D
:1021800042F8230004F00702012393400E48E208BE
:10219000855C1D420AD004F5E0754FF0A046022789
:1021A00046F82570855C25EA03038354214491F8A1
:1021B0003000FFF7B7FEFF2381F83030F8BD00BFD5
:1021C0005040002000600040A44000202DE9F04F66
:1021D00087B00024594D03944FF48072012102F11D
:1021E000804303F5C0431B68012B07D1D5F80433A6
:1021F0000B4203D090B2FFF76FFE0C430432B2F5EE
:10220000907F4FEA4101EAD14C4BD3F87C31012B4E
:10221000E2B227D14FF4BE70FFF75EFE4FF0A0434D
:10222000D3F8103503930AB344F00044444F012619
:102230000025344210D0AB0003F1804303F5C043C6
:10224000D3F81005D3F8101557F8253023B1C1F392
:102250000141C0F3042098470135082D4FEA460696
:10226000E7D101E0002AE1D1002C64DA00224FF02E
:10227000FF33CDE90423DFF8C880DFF8C8900026DB
:10228000374619F9014F631C40D0C4F3C203183319
:102290006B440122E5B204F03F0B04F0070402FA9C
:1022A00004F413F8042C224230D008EB0B02AD09E1
:1022B00092F9302058F822A0BAF1000F08D1032D6E
:1022C00024D104A958460193FFF722FE019B01E0A7
:1022D000032DF6D00BF5E0714FF0A04213F80C3C43
:1022E00052F821102342C1F301411ED002290DD121
:1022F000032D05D129465846FFF7FAFD0136F6B2FF
:10230000BAF1000F02D029465846D0470137042FB2
:10231000B7D186B14FF0A043039AD3F8103593425A
:1023200009D00393049B0593A7E70329EED1032D5E
:10233000E6D10221DFE707B0BDE8F08F0060004082
:10234000504000209F400020014B1868704700BF9C
:10235000B04000200D4A1378ABB903784FF08041AC
:1023600003F00103C1F87835094B1968C90706D491
:10237000C02183F800130121C3F8801119600123E3
:102380001370002070478520704700BFB4400020C4
:1023900000E100E04FF0804310B5D3F8044361073B
:1023A00008D5D3F808212AB10022C3F80821104B20
:1023B0001B689847A2060AD54FF08043D3F8142132
:1023C0002AB10020C3F814010A4B1B689847630622
:1023D0000DD54FF08043D3F8182142B10022C3F845
:1023E0001821044BBDE810401B680120184710BDA0
:1023F000B0400020AC40002008B5FFF7CBFFBDE89F
:102400000840FFF741BD0000124BD3F8182182B0FD
:10241000EAB10022C3F81821D3F818310193019BC7
:102420000D4BD97FFF2907D0987F01228A404FF0BA
:10243000A04148B1C1F80C2500225A771A72D3E99D
:102440000021064802B01047C1F80825F4E702B0A1
:10245000704700BF00300240B8400020C04000205C
:102460002DE9F74F90F80480694E01924FF024094E
:1024700009FB08F906EB090B9A469BF81C30074646
:102480000C46002B40F0C08005686249284601F0E8
:10249000FBF9002840F0BA80019B46F80930CBF8E0
:1024A00004A094F800C0217B4FF0A042012303FA5E
:1024B0000CF3012994BFC2F80C35C2F808350CF5AD
:1024C000E0734FF0010E42F823E06378FF2B1FBF4B
:1024D0000EFA03FEC2F80CE503F5E07E4FF00309A7
:1024E00018BF42F82E90A27808BF4FF0FF33FF2AA2
:1024F0001FBF02F5E07E4FF0A04A4FF0040B4AF8F0
:102500002EB04FF0240E0EFB086E18BF91468EF8C9
:102510002020E2788EF81F2008BF4FF0FF39FF2AF5
:1025200019D094F804A04FF0010B0BFA02FB4FF006
:10253000A04EBAF1000F37D0CEF80CB502F5E0721C
:102540004FF0030B4EF822B0314A4FF0240E0EFB31
:10255000082282F81EA0C5F808C5C5F80C35A36886
:10256000C5F81095C5F82435637B003B18BF0123DF
:1025700002291CD003291DD0012901D143F00203F7
:10258000C5F85435019AA379C5F8C0350723A2B917
:10259000C5F80035242303FB086600237377012365
:1025A000337703B0BDE8F08FCEF808B5C6E743F047
:1025B0000403E5E743F00603E2E74022C5F80423FD
:1025C000C5F800353B68627943F30733002BADBF94
:1025D00003F16041104903F00F0401F561414FEA36
:1025E0004212D2B2B4BF0A5581F8002303F01F0192
:1025F0005B099B0003F1604303F5614301228A40BC
:10260000C3F880211A60C5E70820CAE71120C8E78F
:10261000B84000200924030014ED00E0F8B5057966
:102620001C4C006824236B43E618E358D3B140F3F5
:1026300007335A09184F03F01F030121203201FA12
:1026400003F347F82230154BC0F80833737F4BB1C2
:102650004161D0F80431002BFBD0242303FB054358
:1026600000225A77242303FB0543002693F82030E9
:10267000FF2B1FBF03F5E0734FF0A042022142F889
:102680002310C0F8006501F021F9242303FB054461
:102690002677F8BDB840002000E100E052010800B4
:1026A0002DE9F74390F804C0454E242303FB0CF3B7
:1026B0001546F2180C46517F864600297DD156F802
:1026C0000380B8F1000F04D015F0140F04BF0123EC
:1026D000537794E80F00242707FB0C6707F10C09D8
:1026E00089E80F00FA7FFF2A07D0B87F01239340C3
:1026F0004FF0A041D0B1C1F808352068DEF80030B5
:1027000020B100F06041B1F1005F06D1A16881B154
:1027100001F06047B7F1005F0BD0242303FB0C638B
:1027200000225A77102003B0BDE8F083C1F80C35C1
:10273000E3E76768C3F84405C3F84875E068C3F881
:1027400034150021C3F83805C3F81811D3F818114F
:102750000191019915F0010118BF0121C3F850152D
:1027600015F0020118BF0121C3F8401529075CBF0D
:1027700001211961B8F1000F15D1D3F81811002902
:10278000FBD0FF2A0AD001239340242202FB0C66CF
:102790004FF0A042B17F19B1C2F80C350020C2E75A
:1027A000C2F80835FAE715F0040F4FF0400214BFE5
:1027B000C3F80823C3F80423F0E71120B3E700BFF0
:1027C000B84000202DE9F347002406460F46904606
:1027D00000F5A0754FF48039A2462B688BB1D6F86E
:1027E000043309FA04F21A420BD0C5F800A02B6892
:1027F0000193A000019B00F5A07398B2D7E90031C6
:1028000098470134444505F10405E6D102B0BDE81E
:10281000F0870000F7B50579304C0C266E43A719F8
:102820003B7A002B57D1A2514A687A6046790268F8
:102830001F46D8B2864245D842F30733C878002BEA
:10284000ADBF03F16046264E03F00F0706F5614663
:102850004FEA4010C0B2B4BFF05586F8000303F051
:102860001F065B099B0003F16043012003F56143F0
:1028700000FA06F6C3F880611E60D2F804654B7852
:1028800026F0030603F003033343C2F804358B78C4
:10289000D2F8086503F0030326F003063343C2F8B9
:1028A00008350B78D2F8106503F00F0326F00F01FE
:1028B0000B43C2F810350C2303FB054420720020A3
:1028C00003B0F0BD980000F5A07001331750105808
:1028D00001900198ADE70820F2E700BFDC4000203E
:1028E00014ED00E0036801221A600279034B0C2109
:1028F00001FB023302221A72704700BFDC40002045
:10290000036801221A610179024B0C2000FB01339C
:102910001A727047DC4000200279044B0C2101FB45
:102920000233187A831E584258417047DC40002019
:1029300037B54FF4803400688C407BB101F150030F
:102940009B000025C550C3580193019BC0F8044368
:1029500001F5A87140F8212003B030BDC0F808434C
:10296000F6E770B4046840F20116D4F800528E40C5
:1029700025EA0605C4F80052D4F800522B43C4F8E7
:1029800000329DF80C3070BCFFF7D2BF02490348FB
:102990000422FFF717BF00BFDC40002000A000406A
:1029A000024903480622FFF70DBF00BFE8400020A0
:1029B00000A00140024903480622FFF703BF00BF01
:1029C000F440002000B001400023435082B043583F
:1029D0000193019B02B07047F0B5D0F8243187B065
:1029E00004460D469BB14FF49271FFF7EDFFD0F80E
:1029F000043163B9AB68C0F808330223AB60AB683D
:102A0000C0F8043301230362436107B0F0BDD4F87A
:102A10000431A3B34FF48271204605F10C07FFF790
:102A2000D3FF0FCF01AE0FC695F82E203B68336061
:102A300082B12B7B012B05D1D4F83C350293D4F81D
:102A40004C3506E0D4F84C150291022BF7D1D4F89E
:102A50003C3503934FF4B0712046FFF7B5FF4FF4B8
:102A6000AE71FFF7B1FF95F8303003B1CAB1002362
:102A7000C4F80032AB601F4BC4F8083311E04FF4C8
:102A8000A4712046FFF7A0FF2B7B03BB05F10C07C9
:102A90000FCF01AE0FC63B68336095F83030002B86
:102AA000E6D0D4F8C434C4F8C4349A075ABFC3F388
:102AB00080035B0001238DF8003095F830300BB9AE
:102AC00085F82F30D5E90031684698479DE74FF4E7
:102AD0000073C4F8003240F20223AB6003F1CE73FE
:102AE000C4F80833AB68C4F804330123A36023623D
:102AF0008BE700BF02029C0101490248FFF76CBF4F
:102B0000004100200030004002494FF04020FFF714
:102B100063BF00BF344100202DE9F84F0579344CE4
:102B20004FF0340A0AFB05FA04EB0A069B4696F8B6
:102B30002D3080460F469146002B55D12D4B006815
:102B400053F8251000F0A0FE00284FD139687B7B98
:102B500086F8323001F5E0724FF0A043B060C6F85D
:102B600004B086F82F0086F8300040F20C6644F876
:102B70000A9043F822607A6802F5E07C43F82C6002
:102B8000D8F80030C3F80815C3F80C25BA68C3F8A4
:102B90002425B9F1000F1FD043F30733002B3A7BF4
:102BA000B5BF154903F1604103F00F0601F561411E
:102BB0004FEA4212D2B2B4BF8A5581F8002303F023
:102BC0001F015B099B0003F1604303F56143012290
:102BD0008A40C3F880211A60342303FB0544012393
:102BE00084F82D30BDE8F88F0820FBE71120F9E7C5
:102BF00000410020702C040014ED00E0036802790D
:102C00000621C3F80015044B342101FB02330222D4
:102C100083F82D20704700BF0041002001790B4B45
:102C20000268342000FB0133094900209860C2F893
:102C30000813D2F8001221F4BC51C2F80012C2F8F5
:102C40000005012283F82D20704700BF00410020BD
:102C500002029C0170B506791A4D34237343044671
:102C6000EB5863B1036843F307335A09012103F0BA
:102C70001F03994002F12003134A42F82310204613
:102C8000FFF7CCFF206800F021FE342303FB06533E
:102C900093F832307BB92068D0F808354FF0A04265
:102CA00003F5E073022142F82310D0F80C3503F548
:102CB000E07342F82310342303FB0655002385F804
:102CC0002D3070BD0041002000E100E00279034B8F
:102CD000342101FB023393F82F007047004100209C
:102CE0002DE9F843CB6890F80480046803F0604352
:102CF000B3F1005F0D46164603D010221046BDE822
:102D0000F883944F944BC4F808334FF0340C0CFB09
:102D1000087C9CF82F302BB1DCF80830C4F8043361
:102D20001122EBE712F0140F0CBF012300238CF8E3
:102D30002F308946B9E80F000CF10C0EAEE80F00F9
:102D4000D9F80030CEF80030C6F300138CF83030DC
:102D50006B78C4F888354FF482712046FFF734FE53
:102D60004FF49271FFF730FE16F0010318BF0123F4
:102D7000C4F8503516F0020318BF0123C4F84035DB
:102D80002B78032B03D8DFE803F0759F531D300722
:102D90004FF482714FF0070240F18880342303FB27
:102DA00008F3F818FB58002B00F0B680730744BFF7
:102DB0004FF400738360342303FB08739B68C4F8EB
:102DC00004339BE72A6902F06043B3F1005F94D1BA
:102DD0004FF48073E968C4F800326B68C4F8441596
:102DE000C4F848354FF4A871FFF7EEFD4FF4B07109
:102DF000FFF7EAFD4FF4A471FFF7E6FD012323621C
:102E0000A360D4F85031002BFBD04FF4A8712046BA
:102E1000FFF7DAFDAB68C4F84425C4F8483534231D
:102E200003FB08734D4A9A604FF482710022B5E7A4
:102E30006B68EA68C4F84425C4F848352B6903F088
:102E40006042B2F1005F7FF458AFAA68C4F834352D
:102E50004FF48453C4F83825C4F80032342303FBFC
:102E6000087340F202229A6016F00802DCD14FF497
:102E700082711BE06B68EA68C4F8442516F0200FE5
:102E8000C4F848354FF0340312D04FF4807203FB7E
:102E90000873C4F800224FF4A471304A9A60FFF717
:102EA00093FD012316F008022362BFD1082323E01B
:102EB0004FF4007203FB0873C4F8002240F20222B0
:102EC0009A604FF48271ECE76B68EA68C4F83425C5
:102ED000C4F838354FF48053C4F80032342303FB70
:102EE000087340F202229A60012316F0080223625E
:102EF0009AD14FF4827113460120E0504EE7D4F886
:102F0000243153B14FF492712046FFF75DFD012348
:102F100023624FF48271636121440B68002BEED071
:102F20003421D4F8C434C4F8C43401FB0877002138
:102F300087F82F10002B3FF4E1AE13F0020F48F298
:102F4000012208BF032213F0040F48F2022318BF26
:102F50001A46D3E60041002002029C010002040050
:102F60000023435082B043580193019B02B0704745
:102F70001FB501238DF80030054B8DF80800019135
:102F80006846D3E90012904705B05DF804FB00BF26
:102F9000684100207FB5374AD2F82461002E47D01F
:102FA00010464FF49271FFF7DBFF02238DF80030DB
:102FB000D2F88034C2F880340393D2F83C358DF8CF
:102FC00008302D4BDA6801920022C3E906226846D8
:102FD000D3E9001290472748D0F844316BB14FF441
:102FE000A271FFF7BDFF244B9A6932B10022D0F8DD
:102FF0003C05D9689A61FFF7BBFF1E48D0F8203125
:10300000A3B14FF49071FFF7ABFF1B4B5A696AB144
:10301000D0F84C158DF80810002299688DF8002022
:1030200001915A616846D3E90012904704B070BD1F
:10303000D2F81031002BCED04FF488711046FFF734
:103040008FFF0D4BD2F83C0599698842C3D1DC69EA
:10305000D96864B1D2F8005225F02005C2F80052B8
:103060001A699C61DA60DE61FFF782FFB3E79C6159
:10307000FAE700BF00200040684100202DE9F0473A
:10308000584D90F80480242303FB0853814693F89D
:1030900020300C469246002B40F09F805249006839
:1030A00000F0F2FB0746002840F099802368D9F829
:1030B0000060591C0AD04FF0A04101229A40C1F88B
:1030C000082503F5E072032041F8220061684A1CDC
:1030D0001FBF01F5E0724FF0A0404FF0000C40F828
:1030E00022C0A269C6F82425207D627D012842EA1B
:1030F0000002C6F86C25C6F80C35C6F814151CD1AC
:10310000A268501C1FBF02F5E0734FF0A0410020E1
:1031100041F82300E368591C0BD04FF0A040012177
:103120009940C0F8081503F5E0714FF0030C40F822
:1031300021C0C6F80835C6F81025242303FB08F380
:10314000EA18C2F804A02269EA50BAF1000F34D09C
:10315000D9F80000227F4FF48871FFF701FF4FF488
:103160009071FFF7FDFE4FF49271FFF7F9FE4FF4F7
:10317000A271FFF7F5FE1D4BC0F8043340F307338F
:10318000002BADBF03F16041194903F00F0001F5B9
:1031900061414FEA4212D2B2B4BF0A5481F800230F
:1031A00003F01F015B099B0003F1604303F56143DA
:1031B00001228A40C3F880211A600823C6F800352E
:1031C000242303FB08550023C5E906336B61012363
:1031D00085F820303846BDE8F0870827FAE7112740
:1031E000F8E700BF68410020952F0300100302009C
:1031F00014ED00E00279044B242101FB02335869ED
:10320000003818BF01207047684100202DE9F843BD
:1032100001F06043B3F1005F05460F4690462FD1A1
:10322000FFF7E8FF044668BB95F80490174A2D683D
:10323000242606FB09264FF490712846C6F8148010
:10324000B760FFF78DFE4FF4AC71FFF789FE0123E5
:10325000C5F84475C5F84885AB607368A3B9D5F85F
:103260002031D5F858010343F9D0242303FB092268
:1032700000284FF0000318BF0F205361BDE8F8830A
:103280001020FBE71120F9E72046F7E7684100200E
:103290002DE9F84301F06043B3F1005F0F4673D1AD
:1032A00006793A4D242303FB0653D3F80480D3F860
:1032B00018C0B8F1000F08D1BCF1000F12D0DB69C3
:1032C000002B40D01120BDE8F88301684FF404744E
:1032D000C1F80843BCF1000F04D0DB699BB3C1F80F
:1032E0000443EFE7242303FB065300219A61DF60C8
:1032F00089462423046803FB06532046D9614FF412
:103300008871FFF72DFE4FF4A271FFF729FEC4F874
:103310003475C4F83825B9F1000F1CD1012323609E
:10332000B8F1000F2AD1D4F81031D4F84421D4F8E0
:103330002401134316D10028F5D0242202FB0652A3
:1033400003209361BFE7242303FB065311461F614B
:103350004FF00109CDE7D4F8003243F02003C4F860
:103360000032DDE7242303FB06550023984218BFF3
:1033700003209A42AB6118BF0F20A4E74FF40473F7
:10338000C4F8043300209EE710209CE76841002029
:103390000023435082B043580193019B02B0704711
:1033A0000A4610B54FF48E71FFF7F2FF136A916869
:1033B000C95C136A01331362C0F81C1510BD8B6918
:1033C0000A4610B54FF4847123B9FFF7E1FFD0F836
:1033D000183510BDFFF7DCFF536AD168D0F8180527
:1033E000C854536A01335362F3E700001FB5012349
:1033F0008DF80030044BCDE90110D3E90012684686
:10340000904705B05DF804FB8C41002008B54FF4EF
:103410009271FFF7BDFF4FF48471FFF7B9FF0123ED
:10342000036008BD30B54E4DD5F804339A0585B01C
:1034300051D5D5F82431002B4DD04FF49271284648
:10344000FFF7A6FF4FF40173C5F80833454B93F817
:1034500029200AB901226A60414902228DF8002020
:10346000D1F88024C1F8802403929A690292DA6824
:1034700001920022C3E906226846D3E90012904770
:103480003748D0F81C315BB1364A136A5469A342FD
:103490005DD292F82830002B49D11146FFF780FF0A
:1034A0002F48D0F84431002B58D04FF4A271FFF7C9
:1034B0006FFF2C4B93F829200AB1012202609A6910
:1034C000002A4BD0586AD96800229A6105B0BDE83D
:1034D0003040FFF78BBFD5F804335B07D0D5D5F864
:1034E0000831002BCCD01F4C1D482146FFF767FF49
:1034F000636AA2699A42C3D1E369E1684BB1A361EF
:103500002369E3600023606AE3616362FFF76EFF93
:10351000B6E794F829300BB901236B60104B4FF4D8
:103520000172C3F808230023606AA361EEE74FF439
:103530008E71FFF72DFF9168019100238DF8003007
:1035400053610294D2E9001368469847A8E74FF404
:103550008E71FFF71DFF002CA2D0ECE705B030BD47
:10356000002000408C4100202DE9F047554D90F897
:1035700004802C2303FB0853814693F82A300C4621
:103580009246002B40F099804F49006800F07CF98A
:103590000746002840F093802368D9F80060591C42
:1035A0000AD04FF0A04101229A40C1F8082503F546
:1035B000E072032041F8220061684A1C1FBF01F538
:1035C000E0724FF0A0404FF0000C40F822C0A2691A
:1035D000C6F82425207D627D012842EA0002C6F853
:1035E0006C25C6F81415C6F80C351CD1A268501C01
:1035F0001FBF02F5E0734FF0A041002041F8230007
:10360000E368591C0BD04FF0A04001219940C0F84D
:10361000081503F5E0714FF0030C40F821C0C6F81F
:103620000835C6F810252C2303FB08F3EA18C2F866
:1036300004A02269EA50BAF1000F2CD0D9F800009A
:10364000227F4FF48E71FFF7A3FE4FF4A271FFF7B4
:103650009FFE1E4BC0F8043340F30733002BADBF71
:1036600003F160411A4903F00F0001F561414FEA8F
:103670004212D2B2B4BF0A5481F8002303F01F01F2
:103680005B099B0003F1604303F5614301228A401B
:10369000C3F880211A600423C6F800352C2303FBED
:1036A00008530022C3E9062283F829205A61012227
:1036B00083F82A203846BDE8F0870827FAE7112763
:1036C000F8E700BF8C410020253403008000020091
:1036D00014ED00E00279044B2C2101FB0233586900
:1036E000003818BF012070478C4100202DE9F84FA9
:1036F000074689469346FFF7EDFF044600283BD175
:1037000097F804801D4E2C2508FB056A4FF48E7136
:10371000CAF820008AF828003868CAF814B0CAF835
:103720000890FFF735FE012383605146FFF738FE0E
:10373000DAF80430554663B12046BDE8F88F95F8B5
:103740002830BBB9D0F81C31002BF8D05146FFF718
:1037500027FE2A6A6B699A42F4D3D0F81C31002BF9
:10376000FBD00123C36000202C2303FB0866002349
:103770007361E2E70F20F7E71120DEE78C410020BC
:103780002DE9F0473C4D06792C2303FB06530446F4
:103790005F68D3F8188037B9B8F1000F13D0D86933
:1037A00010B311204BE0D0F800C000684FF4017E48
:1037B000CCF808E3B8F1000F05D0DC69002C40D04C
:1037C000CCF804E3EDE72C2303FB06539A610022B7
:1037D000D9605A62DA6193F8293013B92068FFF78B
:1037E00015FE20687FBB02E020681961DA614FF4A2
:1037F000A2712C27FFF7CCFD06FB0758474620682F
:10380000D0F824A1D0F80831D0F8449103BBB9F125
:10381000000F02D1BAF1000FF1D02C2303FB0655A3
:103820000023AB61BAF1000F22D1B9F1000F21D111
:1038300095F8291023680122C1B11A600020BDE863
:10384000F0871961DA614FF40173C0F80433F5E7CA
:10385000BAF1000FE1D1B9F1000FDED14146FFF717
:10386000AEFD7B6ABA699A42C9D8D6E75A60E5E7E5
:103870000320E4E70F20E2E78C410020014B1B68A6
:10388000184700BFB84100200E4B984213B50C46B4
:1038900002D0002002B010BD00230DF107008DF80A
:1038A000073000F0D9F8084B9DF807001A791AB1D3
:1038B00000F0F6F81120EDE701221C601A7100F00B
:1038C000EFF8E6E700200040B8410020034B9842A3
:1038D00001BF034B00221A601A717047002000409C
:1038E000B841002000F1804000F5E040002382B0A4
:1038F000036003680193019B02B07047F0B5544B1D
:10390000544CD3F8043194F82E2085B0002B3BD0D2
:103910004FF48270FFF7E6FF2AB394F82F3013BB01
:103920004B4AD2F80031002B32D04FF48070FFF7B1
:10393000D9FF638B94F82D00834250D921891B1A3B
:103940009BB289B26383CB1A616801EB4301C2F871
:103950002C16C2F830064FF48270FFF7C3FF3C4BC1
:1039600001225A6014E0636802932389ADF80C3099
:10397000E36800218DF8041033BB2374236801A889
:103980009847002384F82F3094F82E30002BC7D1AD
:103990002F4BD3F810315BB14FF48870FFF7A2FFC3
:1039A0000023237402238DF8043001A8236898476C
:1039B000274BD3F814310BB34FF48A70FFF792FF03
:1039C0000023237405B0F0BD208B608363602081E9
:1039D000E160002AD2D11E4B01221A60CEE7BAD193
:1039E000E168012084F82F0031B100206083C2F823
:1039F0002C16C2F83036AEE76183ACE766694FF04B
:103A000000470125002EDDD0B6FA86F227FA02F330
:103A10004632920026EA030602F1804303F5E043B2
:103A20001B68002BEED01046A2F58C72FFF75AFFF0
:103A3000D30882F00402C2F380028DF808308DF8BA
:103A4000045023688DF8092001A89847DAE700BFE1
:103A500000700040C041002070B5EFF3108672B6D0
:103A60000C4A9468012384B993600B4B0B4DD3F837
:103A7000801029401160C3F88050D3F88410516041
:103A80004FF0FF32C3F884202346037006B962B6B4
:103A900070BD00BFF041002000E100E0FC06FFBD6A
:103AA000084B9A6810B55AB150B9EFF3108172B64D
:103AB000054A1C6814605C685460986001B962B67D
:103AC00010BD00BFF041002000E100E01FB5002163
:103AD000039001AA44F20100CDE9011100F004F8BD
:103AE00005B05DF804FB000072B6094BD3F8F02076
:103AF000D20700D500BEBFF34F8FD968054A01F445
:103B0000E0610A43DA60BFF34F8F00BFFDE700BFFB
:103B100000ED00E00400FA051EF0040F1CBFEFF3F7
:103B200009800AE0EFF308800549064A884201D877
:103B3000904202D88D464FF00000034B184700001A
:103B400000F8002000D80020713B0300BFF34F8F26
:103B50000549064BCA6802F4E0621343CB60BFF329
:103B60004F8F00BFFDE700BF00ED00E00400FA0545
:103B700008B5034B9A6ADB6AFFF7E8FF08BD00BF90
:103B800000ED00E010B5034653E8000F40EA0102E3
:103B900043E8002494F0000FF6D110BD10B50346A1
:103BA00053E8002F42EA010043E8000494F0000FBC
:103BB000F6D110BD10B5034653E8002F02EA01000C
:103BC00043E8000494F0000FF6D110BD0121FFF787
:103BD000D9BF0021FFF7EEBF10B5034649B152B17E
:103BE000541E14EA020006D1986019609C80D860C7
:103BF00010BD0E20FCE70920FAE710B58468C26802
:103C00008388121B934208D3C26813400268D154C0
:103C1000C3680133C360002010BD0420FCE7826844
:103C2000C3689A420AD08268838813400268D35CD2
:103C30000B70836801338360002070470520704754
:103C40000648074A03780749D35C012213B10430C0
:103C5000FFF71EBB0C30FFF793BD00BF10310020F3
:103C6000314000201D4200200648074A03780749DA
:103C7000D35C012213B10430FFF7C8BA0C30FFF750
:103C800035BD00BF10310020314000201E42002011
:103C900037B50578012D0DD0022D2ED005BB1E495C
:103CA0001E48FFF7BCFF002832D103B0BDE830400A
:103CB000FFF7DABF43681A4C19782046FFF79DFFDB
:103CC00080B18DF800500190164B68461B689847EC
:103CD000A168E368A2885B1A9A420AD3FFF7B0FF93
:103CE00003B030BDA268E3689A42F1D08DF80000BD
:103CF000EAE70D4B01221A70F2E7C3688DF8005015
:103D00000193FFF79DFF074B68461B689847E7E75D
:103D100003238DF80030F6E71E420020FC4100200E
:103D20000C420020204200201C420020F0B51F461B
:103D3000234B89B004461A600D4600293DD08A887D
:103D400020480968FFF748FF002834D1AA89A968EC
:103D50001D48FFF741FF00282DD11C4E0FCE6D46A8
:103D60000FC596E80F0085E80F0063690693237C72
:103D7000174A18488DF81C70003B18BF01238DF8B6
:103D80001430637C002B0CBF00230E238DF81530FC
:103D9000E3680293A3680393236801936946636809
:103DA0000093FDF705FF30B90B4B18702368013302
:103DB00001D0FFF745FF09B0F0BD0720FBE700BFCA
:103DC000204200200C420020FC410020782C0400FE
:103DD000913C0300103100201C42002070B5084DBA
:103DE000014608482E78FFF71AFF044636B1002333
:103DF0002B70FFF725FF08B1FFF768FE204670BD66
:103E00001C4200200C42002010B501460E48FFF76E
:103E1000F4FE0446A8B90D480D4A0378D35C63B19B
:103E20000430FFF7E7F960B90A490748FFF7F7FEE2
:103E300038B9BDE81040FFF717BF0C30FFF74AFC58
:103E4000F1E7204610BD00BFFC41002010310020EA
:103E5000314000201E42002010DF704713B5044699
:103E60000949684600F08AFC019808B902B010BD03
:103E7000D0E900312046984718B1684600F086FC2A
:103E8000F2E71120F2E700BFB02C040013B504469E
:103E90000749684600F072FC019B0BB902B010BDE7
:103EA0002046D3E900219047684600F06FFCF3E715
:103EB000A42C04000B4991F81623EC23520913415A
:103EC000DB0706D5084B9A683AB94FF480030B60BC
:103ED000704742F20200FFF7F9BD1A6842F480020F
:103EE0001A60704700E100E0F0410020F7B5194F7B
:103EF0003C786CBB184E012520463570FFF7AEFFAD
:103F0000112821D02046FFF7C1FF144B8DF8034044
:103F1000186801900DF10300FFF79EFD104901A8FC
:103F2000FFF79AFF0446B0FA80F0400938709DF818
:103F30000300FFF7B5FD44B90A4B34701C70FFF75E
:103F4000B9FF2846FFF7A2FF0024204603B0F0BDCA
:103F50000824FAE72642002024420020BC2C04005A
:103F6000E93A030025420020014B1878704700BF52
:103F70002642002007B50849684600F0FFFB019B78
:103F800013B903B05DF804FBD3E9002090476846FD
:103F900000F0FCFBF3E700BF982C0400FFF7EABF3A
:103FA00060DF704769DF704761DF704730B5134DE0
:103FB000ADF5017D4FF4FA740DF1020103A8ADF8DF
:103FC0000240FFF7F1FF70B9294601A800F0D6FBC7
:103FD000029B002BF0D003A8D3E90021904701A851
:103FE00000F0D4FBF4E7052805D00DF5017DBDE810
:103FF0003040FFF76BBD0DF5017D30BDC02C0400D6
:10400000024B1B780BB1FFF7D1BF7047274200204E
:10401000F0B5064685B00D46002948D00024254A53
:104020000A60CDE90144062301278DF8040001A9A7
:104030002020ADF8083003948DF80670FFF7B2FF2A
:104040002A68039401A94020CDE901448DF8057048
:10405000FFF7A8FFF7232A68039401A92320CDE9DD
:104060000144ADF806308DF80460FFF79BFF022392
:104070002A68039401A93846CDE901448DF804303B
:10408000FFF790FF4FF4B0632A68019301A9A120C4
:10409000CDE90244FFF786FF2A68039401A9A02016
:1040A000CDE90144FFF77EFF204605B0F0BD0E20AC
:1040B000FBE700BF0030002008B5FFF771FF10B923
:1040C000014B01221A7008BD274200204BDF7047C8
:1040D0001FB50E4C01A8FFF7F9FF70B9214602A8E1
:1040E00000F04CFB039B002BF4D00198D3E9002196
:1040F000904702A800F04AFBF4E7052804D004B07A
:10410000BDE81040FFF7E2BC04B010BDCC2C0400A9
:104110006DDF704779DF70477DDF704764DF704780
:104120002DE9F04F85B000260E9CBDF83CB0B4F8E8
:1041300000A00191074690461D46B1463A884A457F
:1041400005DC002E38D1002005B0BDE8F08F7A687C
:1041500052F82900039000220DF10B0103A8FFF78C
:10416000DDFF0028F0D19DF80B20424521D12288A7
:1041700008EB02011EB159450CDD0C20E4E70231C9
:104180008B45FADB013292B2019B2280AB5422882C
:104190000132228022880DF10B012A4403A8FFF787
:1041A000BDFF0028D0D121889DF80B200A44228031
:1041B000012609F10109C1E72388013BA3EB0A03AA
:1041C0009BB2FF2BD9D805F80A30BCE72DE9F341A3
:1041D000089FBDF824801546CDE9007802220446E8
:1041E0001E46FFF79DFF50B9334610222946204650
:1041F000CDE9087802B0BDE8F041FFF791BF02B009
:10420000BDE8F0812DE9F04F00231688138090F867
:104210002D3085B007460D4614465BB3082E40F29C
:10422000B48102A8FFF774FF002840F0E2802388E1
:10423000DDF809100822EA54238801339BB21B22BF
:104240002380EA54238801339BB2EA182380E95083
:10425000BDF80D30938023889DF8082006339BB26B
:10426000012A88BF0122238094BFE854EA5423889E
:1042700001332380BB7803B323880433B34200F2B5
:10428000848102A8FFF746FF002840F0B28023880F
:104290000322EA54238801339BB219222380EA5473
:1042A0002388BDF8082001339BB2E9182380EA5423
:1042B000120A4A70238802332380FA78A2B1238835
:1042C000D91CB14200F261810221E95423880133F3
:1042D0009BB201212380E95423880B449BB22380A5
:1042E000EA5423880B4423807B68B3B193F9002000
:1042F0002388D91CB14200F248810221E954238865
:1043000001339BB20A212380E954238801339BB2F5
:104310002380EA542388013323803B89002B5DD11D
:104320003B8A53B1CDE900462B460722032107F112
:104330001000FFF74BFF00285BD13B8B53B1CDE959
:1043400000462B461522142107F11800FFF73EFF07
:1043500000284ED13A6A002A4ED1D7F82480B8F10D
:10436000000F31D0B8F804302188981C8A1C024410
:10437000B24200F20A81FE2800F2078103336B5437
:10438000238801339BB2FF222380EA542388013320
:104390009BB22380B8F80020EA54E918120A4A7048
:1043A0002088023080B22080B8F8042062B1D8F8AA
:1043B0000810002900F0EB8028440CF011FC238841
:1043C000B8F804201344238097F82C30002B59D1DF
:1043D0003B78002B40F0988000200AE0CDE90046B1
:1043E0002B460622022107F10800FFF7EFFE002806
:1043F00096D005B0BDE8F08FB4F800C00CF106030C
:10440000B34200F2C2801188052940F2C0806FF4E7
:10441000486E01EB0E039BB24FF27D3E734540F2B6
:10442000B6805388052B40F2B2806FF448601818AC
:1044300080B2704540F2AB804FF6FF70814202D0EF
:10444000994200F2A480052305F80C30238801333B
:104450009BB212212380E954238801339BB223802D
:104460001188E954E818090A4170238802339BB285
:1044700023805288EA54E918120A4A7023880233CA
:1044800023806AE7BB6A002B00F081804FF00009AF
:104490004FF00C0A4FF0160B97F82C305FFA89F2A8
:1044A000934295D9B96A0AFB02F201EB0208B8F807
:1044B0000430981CFE2868D8208803332B542388A6
:1044C00001339BB2238005F803B0238801339BB2EC
:1044D00023808A5AEA54E918120A4A702088023066
:1044E00080B22080B8F804205AB1D8F8081000290A
:1044F0004DD028440CF074FB2388B8F804201344F2
:10450000238009F10109C7E73A88012A3FD02288B0
:10451000901CB04239D8012B04D17B78023313446C
:104520009E4232D3023EB61AB6B202A92844ADF872
:104530000860FFF7F1FD00287FF45BAF3978BDF824
:104540000830022914D1B3421DD9ADF80860082102
:10455000BDF80830FE2B18D822880133AB542288CE
:10456000013292B22280A95422881344238033E777
:104570007A78934201D8B34205D90129E5D1964210
:1045800028BF1646E1E70921E2E70C2031E70720C2
:104590002FE770B5C0B14AB116880024B44207D3E2
:1045A00005196D789D4203D1A14208D800200BE087
:1045B000A142FBD9055D01352C44A4B2EEE7A31C52
:1045C0001380005D013880B270BD13B51346002220
:1045D000ADF806200DF106020446FFF7DAFF10B130
:1045E000BDF80600204402B010BD90DF7047A5DF83
:1045F0007047B5DF70471FB50023ADF80810ADF860
:104600000A106A4602A903930093ADF80430FFF73D
:10461000ECFF05B05DF804FB80B14FF0F7130360C9
:10462000FB230371F723C3801723038141F6FB3279
:104630000023016143818281184670470E20704734
:1046400030B1A1F11703E02B04D80180002070479E
:104650000E2070470720704713B5034680880C462C
:1046600098B91A88242A76D011D8112A52D0232A30
:104670007ED0102A2BD0A37A3BB1E1880020FFF72F
:10468000B6FF10B94FF48073638102B010BD3A2AAF
:1046900049D0552AEFD1DB88C988A072172B38BFC3
:1046A00017238B4228BF0B462381FFF7A2FFE37A33
:1046B000002BE0D12369002BDDD040F67722009259
:1046C0002289ADF80420694620469847D3E7DB7B72
:1046D0000A790A73012B13D0022B14D0E1882389A5
:1046E0008B4205D20020FFF782FF70B90123E372ED
:1046F000217B637B8B42BED20020FFF77CFFBAE7B1
:104700000B88E380EAE74B88FBE7112804BF01230D
:10471000A372EDE7F723CB8017230B8141F6FB3320
:1047200048818B81A7E75B89CA88934228BF1346DB
:10473000172B0A6938BF17230B814AB1C97A39B1DF
:1047400040F677210091ADF8043069462046904745
:10475000002363818FE71A7A0B694A73002B8AD092
:104760004DF67A218DF8050000918DF80420AAE716
:10477000197A237B994228BF1946BEE7D1E9003256
:10478000934208BF0023016043607047436843B110
:104790000268916852680B449342436004BF00234F
:1047A000436070476DDF704776DF704777DF704793
:1047B0007ADF70477CDF70477FDF70478FDF70479D
:1047C000A8DF7047AADF7047B0DF7047B1DF7047DE
:1047D00062DF7047014B5B68184700BF444300200D
:1047E000704770477047FFF771B900000388212BAD
:1047F00007B52BD008D8112B1ED0132B32D0102B7D
:104800000DD003B05DF804FB522B33D0562B01D0F2
:104810003B2BF6D113218088FFF7C6FF05E0194B2B
:1048200081881948198005F037FA0028E9D003B0CB
:104830005DF804EBFFF74AB9124B4FF6FF721A808E
:10484000124A00231370124A1370DAE7002380889B
:10485000ADF8043001A9FFF7B1FF0028D1D0FFF770
:1048600035F9CEE7074800231A4685210088FFF76F
:10487000A3FFDAE7034800231A4619460088FFF72A
:10488000A5FFD2E73031002020470020893D0020DD
:10489000883D002010B50C7814B1012C12D010BD49
:1048A0000C4B01221A700C4B5B6898470B48224650
:1048B0004FF4C02105F0AEFC0028F0D0BDE8104058
:1048C000FFF704B9034B054800221A7005F0EEFC0F
:1048D000F2E700BF883D0020444300207C430020D5
:1048E00007B50378032B10D8DFE803F0021215197F
:1048F000838A01690B48019301AA05F0C9FE20B91A
:10490000094A019913680B44136003B05DF804FB76
:10491000064B002201E0064B01221A70F5E7044B1A
:10492000F7E700BFFC2C040074430020784300200C
:10493000893D002030B5044689B041B138B10388C3
:10494000502B4ED005D8102B43D0112B45D009B099
:1049500030BD512BFBD1428942F66E239A42F6D1EB
:10496000102200210DEB02000CF015F8284B002559
:104970001B688DF807500DF1070102A89847DDED7F
:10498000027A9FED247A67EE877AFDEEE77A17EEDA
:10499000903A23F07F4343F07E430393A379012BA6
:1049A000D5D18DF810309DF80730ADF81A3003AB33
:1049B00007939DF81630A088ADF8145043F001031A
:1049C0008DF8163004A9E389ADF81830FFF7FCFE26
:1049D000BDE78288104BDA81B9E70F4B4FF6FF72C3
:1049E000F9E70D4DC2886B899A42B0D1038A022B38
:1049F000ADD12B68002BAAD0123004F0E3FE80F07A
:104A000001008DF810002B6804A9284698479EE7FE
:104A1000444300200000C84228420020094B4A8835
:104A20001B889A420DD10A8840F677239A4208D112
:104A30008B88054805490068033B9BB201220BF0B7
:104A400057BD7047303100204042002044420020D2
:104A5000FFF73CB808B508490848FFF7DDFD08B185
:104A6000FFF734F80548F721FFF7EAFD18B1BDE874
:104A70000840FFF72BB808BD1D4A03002C47002053
:104A8000F0B5AF4D03682B6043686B608368AB6023
:104A9000C3B090F90C302B7305F07AFB28B9A94A02
:104AA000A948012105F0A4FB08B1FFF70FF8FFF7B3
:104AB0001DFA08B1FFF70AF8002317A90120179380
:104AC000FFF7A6FA08B1FFF701F817A8FFF7F4FA05
:104AD00008B1FEF7FBFFAB687BB917A8FFF762FED2
:104AE00058B99A4C9DF85D300093994A9DF85E3014
:104AF000984920460BF0B0FDAC60AC68112320460D
:104B00008DF848300CF07AF8214682B212A8FFF7EF
:104B100051FE08B1FEF7DAFF0023ADF860304FF028
:104B20000913179317A84FF4C873ADF86230FFF755
:104B30003FFE08B1FEF7CAFFFFF78CFF00211022ED
:104B40000AA80BF028FF844B8448059305A905F0BB
:104B500091F808B1FEF7BAFF814B8248049304A98B
:104B600004F094FB08B1FEF7B1FF0023099341F272
:104B700011137D4EADF8243011238DF826307B4B78
:104B8000089333604FF6FF73F381794B0EAA03F15C
:104B9000100C174618685968144603C40833634557
:104BA0002246F7D173493846FFF712FE0446002823
:104BB00051D1337C8DF81A306F4A41F61A0306A999
:104BC0000120ADF81830FFF7FBFD0446002842D164
:104BD00001461C228DF80A0017A80BF0DCFE41F2FA
:104BE0001113ADF808309DF80A30B088012262F345
:104BF00042038DF80A309DF85C30CDF8524043F006
:104C000002038DF85C30337C8DF81E3042F66E2343
:104C1000ADF81C309DF825308DF80C309DF826300D
:104C20008DF80D300B238DF80E3007AB129303ABCC
:104C30001393082302AFADF85030ADF8543012AAE8
:104C40004E4BCDF8564017A9ADF85A401C97FFF7C8
:104C5000B9FD044610B12046FEF738FF0023CDE928
:104C60000B33474B0A9301238DF82C3003F10133AA
:104C7000623344480D930AA904F0DFFB08B1FEF744
:104C800025FF0021AC2217A80BF085FE02238DF82A
:104C90005C3006238DF85F300323ADF8A8303A4B23
:104CA0002B9301238DF8D830402339933748384B64
:104CB000409317A905F027FB08B1FEF707FF33481B
:104CC000012105F01DFB1422002117A80BF063FE43
:104CD0004FF470234FF42032CDE9182303238DF8CD
:104CE00068302C4B1C9317A82B4B1D9304F056FFD8
:104CF00008B1FEF7EBFE2548032105F081FB08B162
:104D0000FEF7E4FE214B95F90C2093F85410012096
:104D1000FFF74CFD08B1FEF7D9FE204920480BF003
:104D200035FB204B204918601D480BF02FFB1F4B13
:104D300018601F4843B0BDE8F04005F0A0BC00BFBC
:104D400044430020D5470300F82C040054430020BE
:104D5000D82C0400E82C0400E7470300204700207B
:104D6000E14803003431002028420020E1470300DD
:104D7000082D0400384200202C4200202E42002042
:104D800095480300B444002024310020C84400208A
:104D9000E5470300E3470300514A0300F62C0400F3
:104DA000072C040040420020BE3204003C42002098
:104DB000FC2C040073B5074E074D0191044633885F
:104DC00001AA2146284604F0DDFA1328F7D00198FD
:104DD00002B070BD303100203431002007B50191A0
:104DE00001AA0146094805F090FC60B90198084BFA
:104DF00028B11A68121A1A6003B05DF804FB186033
:104E00004FF0FF30F8E70020F6E700BFFC2C04006D
:104E100074430020014608B54FF6FE72034804F0C3
:104E20007BFB003818BF0120404208BDB44400207D
:104E300058B143684BB183683BB1C3682BB140782C
:104E4000B0FA80F04009404270474FF0FF307047A1
:104E5000F8B5054618461C46FFF7EAFF58B951B1A8
:104E600062B1A66863782846B0470028A07018BFD2
:104E70006FF00100F8BD4FF0FF30FBE76FF004006A
:104E8000F8E713B504460191FFF7D2FFF8B9012204
:104E9000234601A91046FFF7DBFFB0B923460122E4
:104EA0000DF105010220FFF7D3FF70B9234601225F
:104EB0000DF106010320FFF7CBFF30B92346012295
:104EC0000DF107010420FFF7C3FF02B010BD4FF042
:104ED000FF30FAE707B50246FFF7AAFF58B9C52326
:104EE0008DF8043001A9134640200122FFF7B0FFDE
:104EF00003B05DF804FB4FF0FF30F9E713B504464B
:104F00008DF80720FFF794FFE0B9012914D002299A
:104F100006D061B9234601220DF10701322004E0D9
:104F2000234601220DF107011020FFF791FF2046D3
:104F3000FFF7D0FF02B010BD0A4623460DF107016E
:104F40002120F2E74FF0FF30F4E770B50546184630
:104F50001C46FFF76DFF50B949B166686378284673
:104F6000B0470028A07018BF6FF0010070BD4FF06F
:104F7000FF30FBE713B5002304468DF80730FFF739
:104F800057FF80B9012223460DF107011046FFF7B4
:104F9000DCFF30B9012223460DF107011046FFF76F
:104FA00057FF02B010BD4FF0FF30FAE710B50246D0
:104FB000FFF73EFF044620B9D368084698472046CD
:104FC00010BD4FF0FF34FAE737B50546FFF730FF65
:104FD00080B9C5238DF8043001A92B4601224F204A
:104FE000FFF736FF322104462846FFF7DFFF204651
:104FF00003B030BD4FF0FF34F9E713B5002304468A
:105000008DF80330FFF714FFD0B9234601220DF1CC
:105010000301FFF79AFF88B99DF80330CE2B12D118
:1050200023702046FFF7D0FF40B914212046FFF738
:10503000BDFF40F207712046FFF723FF02B010BD0D
:105040004FF0FF30FAE76FF00500F7E758B143681B
:105050004BB183683BB1C3682BB10078B0FA80F0E4
:105060004009404270474FF0FF307047F8B50546A1
:1050700018461C46FFF7EAFF58B951B162B1A6685D
:1050800023782846B0470028A07018BF6FF00100B1
:10509000F8BD4FF0FF30FBE76FF00400F8E71FB5F5
:1050A00004460191FFF7D2FFA8B99DF804309DF89E
:1050B00005201A439DF806301A439DF807301A431D
:1050C0008DF80F20234601220DF10F010320FFF779
:1050D000CDFF04B010BD4FF0FF30FAE71FB5044616
:1050E0000191FFF7B3FFA8B99DF805309DF80420A2
:1050F0001A439DF806301A439DF807301A438DF87D
:105100000F20012223460DF10F011046FFF7AEFFDD
:1051100004B010BD4FF0FF30FAE71FB56B4683E8CF
:1051200006000446FFF792FFC0B99DF801309DF8D4
:1051300000201A439DF802301A439DF803301A43A9
:105140009DF804301A438DF80F20234601220DF1FB
:105150000F010220FFF78AFF04B010BD4FF0FF30AF
:10516000FAE71FB504460191FFF770FF90B99DF86B
:1051700004309DF805201A439DF806301A438DF837
:105180000F20234601220DF10F010420FFF76EFFCF
:1051900004B010BD4FF0FF30FAE707B502468DF8B6
:1051A0000710FFF753FF48B913460DF1070101221D
:1051B0000520FFF75BFF03B05DF804FB4FF0FF3005
:1051C000F9E71FB504460191FFF740FF90B99DF83C
:1051D00005309DF804201A439DF806301A438DF8D7
:1051E0000F20234601220DF10F010720FFF73EFF9C
:1051F00004B010BD4FF0FF30FAE71FB56B4683E8EF
:1052000006000446FFF722FFC0B99DF801309DF863
:1052100000201A439DF802301A439DF803301A43C8
:105220009DF804301A438DF80F20234601220DF11A
:105230000F010820FFF71AFF04B010BD4FF0FF3038
:10524000FAE71FB50246ADF80410FFF7FFFE80B97C
:105250009DF805109DF804300B438DF80F300DF1CB
:105260000F01134609200122FFF700FF05B05DF88A
:1052700004FB4FF0FF30F9E7F8B5064618460D4637
:105280001C46FFF7E3FE78B971B1237867683046B2
:10529000B847A0702B78002818BF6FF00100FF2BD3
:1052A00008BF6FF00600F8BD4FF0FF30FBE713B505
:1052B0000446FFF7CBFEA0B92346012201A909202D
:1052C000FFF7DAFF58B99DF8043063F07F038DF8DB
:1052D00004300122234601A90920FFF7C7FE02B0CE
:1052E00010BD4FF0FF30FAE710B50246FFF7AEFEF3
:1052F000044620B9D36808469847204610BD4FF0B1
:10530000FF34FAE773B5002305460E468DF80730E3
:10531000FFF79CFED8B90DF107012B460122FFF7DC
:10532000ABFF0A2104462846FFF7DEFF64B99DF86B
:10533000073020461E4301222B460DF107018DF850
:105340000760FFF793FE0446204602B070BD4FF0A1
:10535000FF34F9E7F0B58BB0002305468DF8033034
:1053600008AE08938DF824300593FFF76FFE0028F0
:1053700061D12B4601220DF10301FFF77DFF0746A6
:10538000002855D12846FFF792FF002856D1322138
:105390002846FFF7A9FF394604462846FFF7B2FF23
:1053A000782104432846FFF7F8FE4FF4A463ADF8D4
:1053B000043001992846FFF744FF64B204434FF4D8
:1053C00032512846FFF76BFE4FF42253ADF80830F8
:1053D0008DF80A7064B2029904432846FFF7C1FEB3
:1053E0004FF42053ADF80C308DF80E7064B2039971
:1053F00004432846FFF7E5FE64B24FF401138DF82D
:105400001C701946079A069304432846FFF7F5FED9
:1054100064B296E8060004432846FFF77EFE64B2B5
:10542000044305992846FFF759FE64B2044367B266
:1054300038460BB0F0BD4FF0FF37F9E76FF00507C6
:10544000F6E773B5002306460C468DF80730FFF7E4
:10545000FDFD08BB0DF1070133460122FFF70CFFEC
:105460000A2105463046FFF73FFF95B99DF8073002
:105470009A092270C3F300126270C3F3C002A270D3
:10548000C3F38002E270C3F3400203F00103227110
:105490006371284602B070BD4FF0FF35F9E710B5D3
:1054A0000246FFF7D3FD044628B913695170084638
:1054B0009847204610BD4FF0FF34FAE7F0B585B0AD
:1054C000002304468DF80330FFF7C0FD0E46054665
:1054D00000285ED10A2120466778FFF705FF0121E9
:1054E0002046FFF7DCFF14212046FFF7FDFE4FF4B6
:1054F000C463ADF8043001992046FFF7A2FE4FF4D3
:105500002253ADF808308DF80A5002992046FFF773
:1055100028FE214903912046FFF7C1FD6421204662
:10552000FFF7E2FE012223460DF103011046FFF7CB
:10553000A3FE054660B99DF80330DA093270C3F363
:1055400080127270C3F34012C3F30013B270F37091
:1055500000238DF80E3003992046FFF7A0FD0523A8
:105560008DF80530019906462046FFF76AFE0A21AC
:1055700006432046FFF7B8FE39462046FFF78FFF67
:1055800035430A2120466DB2FFF7AEFE284605B02E
:10559000F0BD4FF0FF35F9E7802C0200F7B580230E
:1055A0008DF80630002304460D468DF80730FFF7CE
:1055B0004DFD00284ED1012120466678FFF76FFF90
:1055C00014212046FFF790FE0DF10601234601222B
:1055D0000A20FFF74BFD022107462046FFF784FE15
:1055E00047B16FF0010731462046FFF758FF3846B4
:1055F00003B0F0BD234601220DF107010A20FFF799
:105600003BFE07460028ECD19DF80730C3F341125A
:10561000022AC3F382030ED0032A0ED0012A0CBF44
:1056200046223C22013B062B0AD8DFE803F0080B98
:105630000D0D0F0F11005022F4E75A22F2E702324B
:105640002A70D0E70432FBE70632F9E70832F7E7C1
:105650000A32F5E74FF0FF37C9E70000F0B585B033
:105660000546FFF7F3FC0746002872D12E7D002E79
:1056700055D10A212846FFF737FE01212846FFF7BA
:105680000EFF14212846FFF72FFE4FF4C463ADF838
:10569000003000992846FFF7D4FD4FF42253ADF8AF
:1056A00004308DF80660019904462846FFF759FD3D
:1056B0002949029104432846FFF7F1FC64B20443F0
:1056C00064212846FFF710FE03A92846FFF7F6FEDF
:1056D00001992846FFF745FD05238DF8013064B296
:1056E000009904432846FFF7ACFD64B28DF80A60C8
:1056F000029904432846FFF7D2FC64B204430A210E
:105700002846FFF7F1FD64B231462846FFF7C7FE91
:1057100014212846FFF7E8FD204605B0F0BD012E14
:1057200017D14FF42253ADF804308DF806000199DB
:105730002846FFF716FD4FF4325104462846FFF77E
:10574000AEFC0A2104432846FFF7CEFD64B2394679
:10575000DBE74FF0FF34DFE7802C020073B505462E
:10576000FFF774FC064600BB4FF432512846FFF7A2
:1057700096FC4FF42253ADF800308DF8026000998A
:1057800004462846FFF7EDFC0A2104432846FFF7AC
:10579000ABFD01212846FFF782FE1421284664B2A2
:1057A000FFF7A2FD204602B070BD4FF0FF34F9E7CD
:1057B00008B5034B01211878FBF734F840B208BD57
:1057C0004447002013B592B20092024604480C46AA
:1057D000007819462346FBF747F802B010BD00BF1A
:1057E0004447002013B592B20092024604480C468A
:1057F000007819462346FBF79DF802B010BD00BFA4
:1058000044470020FAF7BABD012208B511461C2012
:10581000FBF778FB40B208BD012808B502464FF0FF
:10582000010128BF01221C20FBF76CFB40B208BD20
:1058300007B50C4B0C4918700B6001234B6001AB92
:1058400000228B600948ADF804200223CB60FCF7EE
:1058500027FF10B106480AF03BFE9DF8050003B093
:105860005DF804FB454800204C490020D82D040079
:10587000182D04002DE9F041124E144680460F46C3
:105880004FF48272002130461D460BF084F83046FA
:105890002246394600F8018B0BF0A2F90A49BDF8FF
:1058A00018300A480E6001340022C1E90145CB607E
:1058B000FCF7F6FE18B106480AF00AFE0320BDE820
:1058C000F08100BF454800204C490020D82D04003D
:1058D000382D040037B5002405460094234622469F
:1058E00021460620FFF7C6FFB5F5001F2ED2194B43
:1058F0004FF48272214618460BF04DF820221649CB
:1059000002702A0C42702A0A8270C5700860042353
:105910001248CC602246C1E90134FCF7C1FE28B12F
:105920000F480AF0D5FD032003B030BD0520FFF776
:105930007FFFC307FAD42B20FFF77AFF10F0600F28
:1059400006D008480AF0C4FD0820EDE70120EBE787
:105950000720E9E7454800204C490020D82D0400E5
:10596000532D0400712D040038B5036A8B4205469F
:105970000C4602D20720FEF7A9F8E8696043FFF75A
:10598000A9FF002038BD00002DE9F341002407469F
:105990000E46154600942346224621460620FFF770
:1059A00069FF002F3AD0731EFE2B27D8B5F5001FD4
:1059B00036D2DFF884804FF48072214640460AF0E8
:1059C000EAFF184B4FF48272214618460AF0E3FFB3
:1059D0000322154902702A0C427004232A0A82709D
:1059E000C1E90138C5700860F3181048CB60224641
:1059F000FCF756FE30B10E480AF06AFD032002B0F3
:105A0000BDE8F0810520FFF713FFC307FAD4094969
:105A1000324638460BF0E4F80920F0E70220EEE7C2
:105A20000120ECE7454800204C490020D82D040017
:105A3000812D04004947002045470020F8B516464F
:105A40001F46D0E907328A4205460C4604D301FBC3
:105A500003615A43914202D90720FEF737F8EA69F9
:105A6000069902FB04623846FFF78EFF0020F8BD5E
:105A70002DE9F341002480460D4617460094234645
:105A8000224621460620FFF7F5FEB8F1000F2DD083
:105A900075B3B7F5001F2DD2174E4FF48272214611
:105AA00030460AF078FF022333703B0C2A467370AD
:105AB00041463B0A301DB370F7700BF091F80F4967
:105AC0000F480E6004352246C1E90154CC60FCF752
:105AD000E7FD10B10B480AF0FBFC0520FFF7A8FE1C
